{"abi":[{"type":"constructor","inputs":[{"name":"initialOwner","type":"address","internalType":"address"}],"stateMutability":"nonpayable"},{"type":"function","name":"allocateWorkingCapital","inputs":[{"name":"amount","type":"uint256","internalType":"uint256"}],"outputs":[],"stateMutability":"nonpayable"},{"type":"function","name":"capexSpent","inputs":[],"outputs":[{"name":"","type":"uint256","internalType":"uint256"}],"stateMutability":"view"},{"type":"function","name":"dao","inputs":[],"outputs":[{"name":"","type":"address","internalType":"contract SimpleDAO"}],"stateMutability":"view"},{"type":"function","name":"getCashFlowFromAssets","inputs":[],"outputs":[{"name":"","type":"int256","internalType":"int256"}],"stateMutability":"view"},{"type":"function","name":"getCurrentPeriod","inputs":[],"outputs":[{"name":"","type":"uint256","internalType":"uint256"}],"stateMutability":"view"},{"type":"function","name":"getDistributableCashFlow","inputs":[],"outputs":[{"name":"","type":"uint256","internalType":"uint256"}],"stateMutability":"view"},{"type":"function","name":"lastCapexChange","inputs":[],"outputs":[{"name":"","type":"uint256","internalType":"uint256"}],"stateMutability":"view"},{"type":"function","name":"lastWorkingCapitalChange","inputs":[],"outputs":[{"name":"","type":"int256","internalType":"int256"}],"stateMutability":"view"},{"type":"function","name":"manager","inputs":[],"outputs":[{"name":"","type":"address","internalType":"address"}],"stateMutability":"view"},{"type":"function","name":"operatingExpenses","inputs":[],"outputs":[{"name":"","type":"uint256","internalType":"uint256"}],"stateMutability":"view"},{"type":"function","name":"owner","inputs":[],"outputs":[{"name":"","type":"address","internalType":"address"}],"stateMutability":"view"},{"type":"function","name":"recordCapEx","inputs":[{"name":"amount","type":"uint256","internalType":"uint256"},{"name":"proposalId","type":"uint256","internalType":"uint256"}],"outputs":[],"stateMutability":"nonpayable"},{"type":"function","name":"recordOperatingExpense","inputs":[{"name":"amount","type":"uint256","internalType":"uint256"}],"outputs":[],"stateMutability":"nonpayable"},{"type":"function","name":"releaseWorkingCapital","inputs":[{"name":"amount","type":"uint256","internalType":"uint256"}],"outputs":[],"stateMutability":"nonpayable"},{"type":"function","name":"renounceOwnership","inputs":[],"outputs":[],"stateMutability":"nonpayable"},{"type":"function","name":"rentVault","inputs":[],"outputs":[{"name":"","type":"address","internalType":"contract RentVault"}],"stateMutability":"view"},{"type":"function","name":"resetPeriod","inputs":[],"outputs":[],"stateMutability":"nonpayable"},{"type":"function","name":"setDAO","inputs":[{"name":"_dao","type":"address","internalType":"address"}],"outputs":[],"stateMutability":"nonpayable"},{"type":"function","name":"setManager","inputs":[{"name":"_manager","type":"address","internalType":"address"}],"outputs":[],"stateMutability":"nonpayable"},{"type":"function","name":"setRentVault","inputs":[{"name":"_rentVault","type":"address","internalType":"address"}],"outputs":[],"stateMutability":"nonpayable"},{"type":"function","name":"setYieldStackingManager","inputs":[{"name":"_yieldStackingManager","type":"address","internalType":"address"}],"outputs":[],"stateMutability":"nonpayable"},{"type":"function","name":"transferOwnership","inputs":[{"name":"newOwner","type":"address","internalType":"address"}],"outputs":[],"stateMutability":"nonpayable"},{"type":"function","name":"workingCapitalReserve","inputs":[],"outputs":[{"name":"","type":"uint256","internalType":"uint256"}],"stateMutability":"view"},{"type":"function","name":"yieldStackingManager","inputs":[],"outputs":[{"name":"","type":"address","internalType":"contract YieldStackingManager"}],"stateMutability":"view"},{"type":"event","name":"CapExRecorded","inputs":[{"name":"dao","type":"address","indexed":true,"internalType":"address"},{"name":"amount","type":"uint256","indexed":false,"internalType":"uint256"},{"name":"proposalId","type":"uint256","indexed":false,"internalType":"uint256"}],"anonymous":false},{"type":"event","name":"DAOSet","inputs":[{"name":"dao","type":"address","indexed":true,"internalType":"address"}],"anonymous":false},{"type":"event","name":"ManagerSet","inputs":[{"name":"newManager","type":"address","indexed":true,"internalType":"address"}],"anonymous":false},{"type":"event","name":"OperatingExpenseRecorded","inputs":[{"name":"manager","type":"address","indexed":true,"internalType":"address"},{"name":"amount","type":"uint256","indexed":false,"internalType":"uint256"}],"anonymous":false},{"type":"event","name":"OwnershipTransferred","inputs":[{"name":"previousOwner","type":"address","indexed":true,"internalType":"address"},{"name":"newOwner","type":"address","indexed":true,"internalType":"address"}],"anonymous":false},{"type":"event","name":"RentVaultSet","inputs":[{"name":"rentVault","type":"address","indexed":true,"internalType":"address"}],"anonymous":false},{"type":"event","name":"WorkingCapitalAllocated","inputs":[{"name":"manager","type":"address","indexed":true,"internalType":"address"},{"name":"amount","type":"uint256","indexed":false,"internalType":"uint256"}],"anonymous":false},{"type":"event","name":"YieldStackingManagerSet","inputs":[{"name":"yieldStackingManager","type":"address","indexed":true,"internalType":"address"}],"anonymous":false},{"type":"error","name":"OwnableInvalidOwner","inputs":[{"name":"owner","type":"address","internalType":"address"}]},{"type":"error","name":"OwnableUnauthorizedAccount","inputs":[{"name":"account","type":"address","internalType":"address"}]},{"type":"error","name":"ReentrancyGuardReentrantCall","inputs":[]}],"bytecode":{"object":"0x608060405234801561000f575f80fd5b5060405161119438038061119483398101604081905261002e916100fe565b806001600160a01b03811661005c57604051631e4fbdf760e01b81525f600482015260240160405180910390fd5b610065816100af565b5060017f9b779b17422d0df92223018b32b4d1fa46e071723d6817e2486d003becc55f0055600980546001600160a01b0319166001600160a01b039290921691909117905561012b565b5f80546001600160a01b038381166001600160a01b0319831681178455604051919092169283917f8be0079c531659141344cd1fd0a4f28419497f9722a3daafe3b4186f6b6457e09190a35050565b5f6020828403121561010e575f80fd5b81516001600160a01b0381168114610124575f80fd5b9392505050565b61105c806101385f395ff3fe608060405234801561000f575f80fd5b5060043610610153575f3560e01c8063a1df2abb116100bf578063d0ebdbe711610079578063d0ebdbe714610283578063d431121614610296578063df2c2b5e1461029e578063e20c7874146102b1578063e73a914c146102ba578063f2fde38b146102cd575f80fd5b8063a1df2abb14610225578063a369f4ca14610238578063a6b5a8ec1461024b578063afffd5bc1461025e578063c295202914610267578063ccefccdb1461027a575f80fd5b8063481c6a7511610110578063481c6a75146101d6578063715018a6146101e95780637da3bbd9146101f15780638da5cb5b146101fa578063944c1d971461020a5780639c9c5d0c14610212575f80fd5b8063081aa01814610157578063086146d21461016c5780631ff65770146101875780633010a7f71461018f5780634162169f146101a25780634542734e146101cd575b5f80fd5b61016a610165366004610e16565b6102e0565b005b6101746104eb565b6040519081526020015b60405180910390f35b61017461058e565b61016a61019d366004610e36565b6105ca565b6002546101b5906001600160a01b031681565b6040516001600160a01b03909116815260200161017e565b61017460075481565b6009546101b5906001600160a01b031681565b61016a610684565b61017460085481565b5f546001600160a01b03166101b5565b61016a610697565b6001546101b5906001600160a01b031681565b6003546101b5906001600160a01b031681565b61016a610246366004610e63565b6106d7565b61016a610259366004610e63565b6107ee565b61017460055481565b61016a610275366004610e36565b610898565b61017460065481565b61016a610291366004610e36565b610956565b610174610a0d565b61016a6102ac366004610e63565b610b6d565b61017460045481565b61016a6102c8366004610e36565b610cae565b61016a6102db366004610e36565b610d61565b6002546001600160a01b031633148061030257505f546001600160a01b031633145b6103535760405162461bcd60e51b815260206004820152601760248201527f43617368466c6f77456e67696e653a206e6f742044414f00000000000000000060448201526064015b60405180910390fd5b5f82116103725760405162461bcd60e51b815260040161034a90610e7a565b6002546001600160a01b03166103ca5760405162461bcd60e51b815260206004820152601b60248201527f43617368466c6f77456e67696e653a2044414f206e6f74207365740000000000604482015260640161034a565b6002546040516326af303360e21b8152600481018390526001600160a01b0390911690639abcc0cc90602401602060405180830381865afa158015610411573d5f803e3d5ffd5b505050506040513d601f19601f820116820180604052508101906104359190610eca565b61048f5760405162461bcd60e51b815260206004820152602560248201527f43617368466c6f77456e67696e653a2070726f706f73616c206e6f74206170706044820152641c9bdd995960da1b606482015260840161034a565b600580549083905f6104a18385610efd565b90915550506007839055604080518481526020810184905233917f686558c5d09d02c5e337e5389798d589800b2ff2bf8208f0f03364e297e41040910160405180910390a2505050565b6001545f906001600160a01b03166105155760405162461bcd60e51b815260040161034a90610f16565b60015f9054906101000a90046001600160a01b03166001600160a01b031663060406186040518163ffffffff1660e01b8152600401602060405180830381865afa158015610565573d5f803e3d5ffd5b505050506040513d601f19601f820116820180604052508101906105899190610f58565b905090565b5f80610598610a0d565b90505f6007546105a790610f6f565b600854909150806105b88385610f89565b6105c29190610f89565b935050505090565b6105d2610d9b565b6001600160a01b03811661063b5760405162461bcd60e51b815260206004820152602a60248201527f43617368466c6f77456e67696e653a20696e76616c69642072656e74207661756044820152696c74206164647265737360b01b606482015260840161034a565b600180546001600160a01b0319166001600160a01b0383169081179091556040517f255c04595fc06df93f15f4a53425dce3e27a4a1d0aef44176a1d8691f2bb71d7905f90a250565b61068c610d9b565b6106955f610dc7565b565b61069f610d9b565b6001546001600160a01b03166106c75760405162461bcd60e51b815260040161034a90610f16565b5f60048190556007819055600855565b6009546001600160a01b03163314806106f957505f546001600160a01b031633145b6107155760405162461bcd60e51b815260040161034a90610fb0565b5f81116107345760405162461bcd60e51b815260040161034a90610e7a565b6006548111156107925760405162461bcd60e51b8152602060048201526024808201527f43617368466c6f77456e67696e653a20696e73756666696369656e74207265736044820152636572766560e01b606482015260840161034a565b8060065f8282546107a39190610fe7565b909155506107b2905081610f6f565b60085560405181815233907fcc47de79a4c481b12583a290a56d7007708a5f013d7989daf9b542b844b39f76906020015b60405180910390a250565b6009546001600160a01b031633148061081057505f546001600160a01b031633145b61082c5760405162461bcd60e51b815260040161034a90610fb0565b5f811161084b5760405162461bcd60e51b815260040161034a90610e7a565b8060065f82825461085c9190610efd565b9091555050600881905560405181815233907fcc47de79a4c481b12583a290a56d7007708a5f013d7989daf9b542b844b39f76906020016107e3565b6108a0610d9b565b6001600160a01b03811661090d5760405162461bcd60e51b815260206004820152602e60248201527f43617368466c6f77456e67696e653a20696e76616c6964207969656c6420737460448201526d30b1b5b4b7339036b0b730b3b2b960911b606482015260840161034a565b600380546001600160a01b0319166001600160a01b0383169081179091556040517fadf3e660b435d8e57cb2346c441bad1c90a3eff3aa70fd5a0fd39f6e4a0c5fc7905f90a250565b61095e610d9b565b6001600160a01b0381166109c45760405162461bcd60e51b815260206004820152602760248201527f43617368466c6f77456e67696e653a20696e76616c6964206d616e61676572206044820152666164647265737360c81b606482015260840161034a565b600980546001600160a01b0319166001600160a01b0383169081179091556040517f60a0f5b9f9e81e98216071b85826681c796256fe3d1354ecb675580fba64fa69905f90a250565b6001545f906001600160a01b0316610a375760405162461bcd60e51b815260040161034a90610f16565b60015460408051630bdaba5360e11b815290515f926001600160a01b0316916317b574a69160048083019260209291908290030181865afa158015610a7e573d5f803e3d5ffd5b505050506040513d601f19601f82011682018060405250810190610aa29190610f58565b90505f600654600454610ab59190610efd565b821115610ad957600654600454610acc9084610fe7565b610ad69190610fe7565b90505b6003545f906001600160a01b031615610b635760035f9054906101000a90046001600160a01b03166001600160a01b0316638501de016040518163ffffffff1660e01b8152600401602060405180830381865afa158015610b3c573d5f803e3d5ffd5b505050506040513d601f19601f82011682018060405250810190610b609190610f58565b90505b6105c28183610efd565b6009546001600160a01b0316331480610b8f57505f546001600160a01b031633145b610bab5760405162461bcd60e51b815260040161034a90610fb0565b5f8111610bca5760405162461bcd60e51b815260040161034a90610e7a565b8060045f828254610bdb9190610efd565b909155505060405181815233907f9895ef9fb1b1c849968c8199ee15a63b66e3d0a706a8eb3597acd1ebc808675c9060200160405180910390a26003546001600160a01b031615610cab5760035460408051600481526024810182526020810180516001600160e01b0316637b7d3f9360e01b17905290515f926001600160a01b031691610c6891610ffa565b5f604051808303815f865af19150503d805f8114610ca1576040519150601f19603f3d011682016040523d82523d5f602084013e610ca6565b606091505b505050505b50565b610cb6610d9b565b6001600160a01b038116610d185760405162461bcd60e51b815260206004820152602360248201527f43617368466c6f77456e67696e653a20696e76616c69642044414f206164647260448201526265737360e81b606482015260840161034a565b600280546001600160a01b0319166001600160a01b0383169081179091556040517f8aad84fcad50e723fa3bcf0fb32c5bea4c71078b77b9aedfa638f146f3a3f7b9905f90a250565b610d69610d9b565b6001600160a01b038116610d9257604051631e4fbdf760e01b81525f600482015260240161034a565b610cab81610dc7565b5f546001600160a01b031633146106955760405163118cdaa760e01b815233600482015260240161034a565b5f80546001600160a01b038381166001600160a01b0319831681178455604051919092169283917f8be0079c531659141344cd1fd0a4f28419497f9722a3daafe3b4186f6b6457e09190a35050565b5f8060408385031215610e27575f80fd5b50508035926020909101359150565b5f60208284031215610e46575f80fd5b81356001600160a01b0381168114610e5c575f80fd5b9392505050565b5f60208284031215610e73575f80fd5b5035919050565b60208082526030908201527f43617368466c6f77456e67696e653a20616d6f756e74206d757374206265206760408201526f726561746572207468616e207a65726f60801b606082015260800190565b5f60208284031215610eda575f80fd5b81518015158114610e5c575f80fd5b634e487b7160e01b5f52601160045260245ffd5b80820180821115610f1057610f10610ee9565b92915050565b60208082526022908201527f43617368466c6f77456e67696e653a2072656e74207661756c74206e6f742073604082015261195d60f21b606082015260800190565b5f60208284031215610f68575f80fd5b5051919050565b5f600160ff1b8201610f8357610f83610ee9565b505f0390565b8082018281125f831280158216821582161715610fa857610fa8610ee9565b505092915050565b6020808252601b908201527f43617368466c6f77456e67696e653a206e6f74206d616e616765720000000000604082015260600190565b81810381811115610f1057610f10610ee9565b5f82515f5b818110156110195760208186018101518583015201610fff565b505f92019182525091905056fea26469706673582212204a67946780ac1c76c1fd990d028beee725c2c12ffdaefbdaab5bb8596d7e0d8164736f6c63430008180033","linkReferences":{}},"methodIdentifiers":{"allocateWorkingCapital(uint256)":"a6b5a8ec","capexSpent()":"afffd5bc","dao()":"4162169f","getCashFlowFromAssets()":"1ff65770","getCurrentPeriod()":"086146d2","getDistributableCashFlow()":"d4311216","lastCapexChange()":"4542734e","lastWorkingCapitalChange()":"7da3bbd9","manager()":"481c6a75","operatingExpenses()":"e20c7874","owner()":"8da5cb5b","recordCapEx(uint256,uint256)":"081aa018","recordOperatingExpense(uint256)":"df2c2b5e","releaseWorkingCapital(uint256)":"a369f4ca","renounceOwnership()":"715018a6","rentVault()":"9c9c5d0c","resetPeriod()":"944c1d97","setDAO(address)":"e73a914c","setManager(address)":"d0ebdbe7","setRentVault(address)":"3010a7f7","setYieldStackingManager(address)":"c2952029","transferOwnership(address)":"f2fde38b","workingCapitalReserve()":"ccefccdb","yieldStackingManager()":"a1df2abb"},"id":0}