{"abi":[{"type":"constructor","inputs":[{"name":"asset_","type":"address","internalType":"contract IERC20"},{"name":"name_","type":"string","internalType":"string"},{"name":"symbol_","type":"string","internalType":"string"},{"name":"owner_","type":"address","internalType":"address"},{"name":"initialYieldRate_","type":"uint256","internalType":"uint256"}],"stateMutability":"nonpayable"},{"type":"function","name":"BASIS_POINTS","inputs":[],"outputs":[{"name":"","type":"uint256","internalType":"uint256"}],"stateMutability":"view"},{"type":"function","name":"allowance","inputs":[{"name":"owner","type":"address","internalType":"address"},{"name":"spender","type":"address","internalType":"address"}],"outputs":[{"name":"","type":"uint256","internalType":"uint256"}],"stateMutability":"view"},{"type":"function","name":"approve","inputs":[{"name":"spender","type":"address","internalType":"address"},{"name":"value","type":"uint256","internalType":"uint256"}],"outputs":[{"name":"","type":"bool","internalType":"bool"}],"stateMutability":"nonpayable"},{"type":"function","name":"asset","inputs":[],"outputs":[{"name":"","type":"address","internalType":"address"}],"stateMutability":"view"},{"type":"function","name":"balanceOf","inputs":[{"name":"account","type":"address","internalType":"address"}],"outputs":[{"name":"","type":"uint256","internalType":"uint256"}],"stateMutability":"view"},{"type":"function","name":"convertToAssets","inputs":[{"name":"shares","type":"uint256","internalType":"uint256"}],"outputs":[{"name":"","type":"uint256","internalType":"uint256"}],"stateMutability":"view"},{"type":"function","name":"convertToShares","inputs":[{"name":"assets","type":"uint256","internalType":"uint256"}],"outputs":[{"name":"","type":"uint256","internalType":"uint256"}],"stateMutability":"view"},{"type":"function","name":"decimals","inputs":[],"outputs":[{"name":"","type":"uint8","internalType":"uint8"}],"stateMutability":"view"},{"type":"function","name":"deposit","inputs":[{"name":"assets","type":"uint256","internalType":"uint256"},{"name":"receiver","type":"address","internalType":"address"}],"outputs":[{"name":"","type":"uint256","internalType":"uint256"}],"stateMutability":"nonpayable"},{"type":"function","name":"lastUpdateTime","inputs":[],"outputs":[{"name":"","type":"uint256","internalType":"uint256"}],"stateMutability":"view"},{"type":"function","name":"maxDeposit","inputs":[{"name":"","type":"address","internalType":"address"}],"outputs":[{"name":"","type":"uint256","internalType":"uint256"}],"stateMutability":"view"},{"type":"function","name":"maxMint","inputs":[{"name":"","type":"address","internalType":"address"}],"outputs":[{"name":"","type":"uint256","internalType":"uint256"}],"stateMutability":"view"},{"type":"function","name":"maxRedeem","inputs":[{"name":"owner","type":"address","internalType":"address"}],"outputs":[{"name":"","type":"uint256","internalType":"uint256"}],"stateMutability":"view"},{"type":"function","name":"maxWithdraw","inputs":[{"name":"owner","type":"address","internalType":"address"}],"outputs":[{"name":"","type":"uint256","internalType":"uint256"}],"stateMutability":"view"},{"type":"function","name":"mint","inputs":[{"name":"shares","type":"uint256","internalType":"uint256"},{"name":"receiver","type":"address","internalType":"address"}],"outputs":[{"name":"","type":"uint256","internalType":"uint256"}],"stateMutability":"nonpayable"},{"type":"function","name":"name","inputs":[],"outputs":[{"name":"","type":"string","internalType":"string"}],"stateMutability":"view"},{"type":"function","name":"owner","inputs":[],"outputs":[{"name":"","type":"address","internalType":"address"}],"stateMutability":"view"},{"type":"function","name":"previewDeposit","inputs":[{"name":"assets","type":"uint256","internalType":"uint256"}],"outputs":[{"name":"","type":"uint256","internalType":"uint256"}],"stateMutability":"view"},{"type":"function","name":"previewMint","inputs":[{"name":"shares","type":"uint256","internalType":"uint256"}],"outputs":[{"name":"","type":"uint256","internalType":"uint256"}],"stateMutability":"view"},{"type":"function","name":"previewRedeem","inputs":[{"name":"shares","type":"uint256","internalType":"uint256"}],"outputs":[{"name":"","type":"uint256","internalType":"uint256"}],"stateMutability":"view"},{"type":"function","name":"previewWithdraw","inputs":[{"name":"assets","type":"uint256","internalType":"uint256"}],"outputs":[{"name":"","type":"uint256","internalType":"uint256"}],"stateMutability":"view"},{"type":"function","name":"redeem","inputs":[{"name":"shares","type":"uint256","internalType":"uint256"},{"name":"receiver","type":"address","internalType":"address"},{"name":"owner","type":"address","internalType":"address"}],"outputs":[{"name":"","type":"uint256","internalType":"uint256"}],"stateMutability":"nonpayable"},{"type":"function","name":"renounceOwnership","inputs":[],"outputs":[],"stateMutability":"nonpayable"},{"type":"function","name":"setYieldRate","inputs":[{"name":"newRate","type":"uint256","internalType":"uint256"}],"outputs":[],"stateMutability":"nonpayable"},{"type":"function","name":"symbol","inputs":[],"outputs":[{"name":"","type":"string","internalType":"string"}],"stateMutability":"view"},{"type":"function","name":"totalAssets","inputs":[],"outputs":[{"name":"","type":"uint256","internalType":"uint256"}],"stateMutability":"view"},{"type":"function","name":"totalSupply","inputs":[],"outputs":[{"name":"","type":"uint256","internalType":"uint256"}],"stateMutability":"view"},{"type":"function","name":"transfer","inputs":[{"name":"to","type":"address","internalType":"address"},{"name":"value","type":"uint256","internalType":"uint256"}],"outputs":[{"name":"","type":"bool","internalType":"bool"}],"stateMutability":"nonpayable"},{"type":"function","name":"transferFrom","inputs":[{"name":"from","type":"address","internalType":"address"},{"name":"to","type":"address","internalType":"address"},{"name":"value","type":"uint256","internalType":"uint256"}],"outputs":[{"name":"","type":"bool","internalType":"bool"}],"stateMutability":"nonpayable"},{"type":"function","name":"transferOwnership","inputs":[{"name":"newOwner","type":"address","internalType":"address"}],"outputs":[],"stateMutability":"nonpayable"},{"type":"function","name":"withdraw","inputs":[{"name":"assets","type":"uint256","internalType":"uint256"},{"name":"receiver","type":"address","internalType":"address"},{"name":"owner","type":"address","internalType":"address"}],"outputs":[{"name":"","type":"uint256","internalType":"uint256"}],"stateMutability":"nonpayable"},{"type":"function","name":"yieldRate","inputs":[],"outputs":[{"name":"","type":"uint256","internalType":"uint256"}],"stateMutability":"view"},{"type":"event","name":"Approval","inputs":[{"name":"owner","type":"address","indexed":true,"internalType":"address"},{"name":"spender","type":"address","indexed":true,"internalType":"address"},{"name":"value","type":"uint256","indexed":false,"internalType":"uint256"}],"anonymous":false},{"type":"event","name":"Deposit","inputs":[{"name":"sender","type":"address","indexed":true,"internalType":"address"},{"name":"owner","type":"address","indexed":true,"internalType":"address"},{"name":"assets","type":"uint256","indexed":false,"internalType":"uint256"},{"name":"shares","type":"uint256","indexed":false,"internalType":"uint256"}],"anonymous":false},{"type":"event","name":"OwnershipTransferred","inputs":[{"name":"previousOwner","type":"address","indexed":true,"internalType":"address"},{"name":"newOwner","type":"address","indexed":true,"internalType":"address"}],"anonymous":false},{"type":"event","name":"Transfer","inputs":[{"name":"from","type":"address","indexed":true,"internalType":"address"},{"name":"to","type":"address","indexed":true,"internalType":"address"},{"name":"value","type":"uint256","indexed":false,"internalType":"uint256"}],"anonymous":false},{"type":"event","name":"Withdraw","inputs":[{"name":"sender","type":"address","indexed":true,"internalType":"address"},{"name":"receiver","type":"address","indexed":true,"internalType":"address"},{"name":"owner","type":"address","indexed":true,"internalType":"address"},{"name":"assets","type":"uint256","indexed":false,"internalType":"uint256"},{"name":"shares","type":"uint256","indexed":false,"internalType":"uint256"}],"anonymous":false},{"type":"event","name":"YieldRateUpdated","inputs":[{"name":"newRate","type":"uint256","indexed":false,"internalType":"uint256"}],"anonymous":false},{"type":"error","name":"ERC20InsufficientAllowance","inputs":[{"name":"spender","type":"address","internalType":"address"},{"name":"allowance","type":"uint256","internalType":"uint256"},{"name":"needed","type":"uint256","internalType":"uint256"}]},{"type":"error","name":"ERC20InsufficientBalance","inputs":[{"name":"sender","type":"address","internalType":"address"},{"name":"balance","type":"uint256","internalType":"uint256"},{"name":"needed","type":"uint256","internalType":"uint256"}]},{"type":"error","name":"ERC20InvalidApprover","inputs":[{"name":"approver","type":"address","internalType":"address"}]},{"type":"error","name":"ERC20InvalidReceiver","inputs":[{"name":"receiver","type":"address","internalType":"address"}]},{"type":"error","name":"ERC20InvalidSender","inputs":[{"name":"sender","type":"address","internalType":"address"}]},{"type":"error","name":"ERC20InvalidSpender","inputs":[{"name":"spender","type":"address","internalType":"address"}]},{"type":"error","name":"ERC4626ExceededMaxDeposit","inputs":[{"name":"receiver","type":"address","internalType":"address"},{"name":"assets","type":"uint256","internalType":"uint256"},{"name":"max","type":"uint256","internalType":"uint256"}]},{"type":"error","name":"ERC4626ExceededMaxMint","inputs":[{"name":"receiver","type":"address","internalType":"address"},{"name":"shares","type":"uint256","internalType":"uint256"},{"name":"max","type":"uint256","internalType":"uint256"}]},{"type":"error","name":"ERC4626ExceededMaxRedeem","inputs":[{"name":"owner","type":"address","internalType":"address"},{"name":"shares","type":"uint256","internalType":"uint256"},{"name":"max","type":"uint256","internalType":"uint256"}]},{"type":"error","name":"ERC4626ExceededMaxWithdraw","inputs":[{"name":"owner","type":"address","internalType":"address"},{"name":"assets","type":"uint256","internalType":"uint256"},{"name":"max","type":"uint256","internalType":"uint256"}]},{"type":"error","name":"OwnableInvalidOwner","inputs":[{"name":"owner","type":"address","internalType":"address"}]},{"type":"error","name":"OwnableUnauthorizedAccount","inputs":[{"name":"account","type":"address","internalType":"address"}]},{"type":"error","name":"SafeERC20FailedOperation","inputs":[{"name":"token","type":"address","internalType":"address"}]}],"bytecode":{"object":"0x60c060405234801562000010575f80fd5b506040516200190d3803806200190d8339810160408190526200003391620002bc565b818585856003620000458382620003e0565b506004620000548282620003e0565b5050505f806200006a83620000d860201b60201c565b91509150816200007c5760126200007e565b805b60ff1660a05250506001600160a01b039081166080528116620000ba57604051631e4fbdf760e01b81525f600482015260240160405180910390fd5b620000c58162000171565b5060065550504260075550620004ac9050565b5f8080620000e560405190565b6040805160048152602481019091526020810180516001600160e01b0390811663313ce56760e01b179091529192505f9182916200012791889190620001c216565b5090925090506200013783604052565b81801562000146575060203d10155b801562000154575060ff8111155b62000161575f8062000165565b6001815b94509450505050915091565b600580546001600160a01b038381166001600160a01b0319831681179093556040519116919082907f8be0079c531659141344cd1fd0a4f28419497f9722a3daafe3b4186f6b6457e0905f90a35050565b5f805f60405f855160208701885afa92505f51915060205190509250925092565b6001600160a01b0381168114620001f8575f80fd5b50565b634e487b7160e01b5f52604160045260245ffd5b5f82601f8301126200021f575f80fd5b81516001600160401b03808211156200023c576200023c620001fb565b604051601f8301601f19908116603f01168101908282118183101715620002675762000267620001fb565b816040528381526020925086602085880101111562000284575f80fd5b5f91505b83821015620002a7578582018301518183018401529082019062000288565b5f602085830101528094505050505092915050565b5f805f805f60a08688031215620002d1575f80fd5b8551620002de81620001e3565b60208701519095506001600160401b0380821115620002fb575f80fd5b6200030989838a016200020f565b955060408801519150808211156200031f575f80fd5b506200032e888289016200020f565b93505060608601516200034181620001e3565b80925050608086015190509295509295909350565b600181811c908216806200036b57607f821691505b6020821081036200038a57634e487b7160e01b5f52602260045260245ffd5b50919050565b601f821115620003db57805f5260205f20601f840160051c81016020851015620003b75750805b601f840160051c820191505b81811015620003d8575f8155600101620003c3565b50505b505050565b81516001600160401b03811115620003fc57620003fc620001fb565b62000414816200040d845462000356565b8462000390565b602080601f8311600181146200044a575f8415620004325750858301515b5f19600386901b1c1916600185901b178555620004a4565b5f85815260208120601f198616915b828110156200047a5788860151825594840194600190910190840162000459565b50858210156200049857878501515f19600388901b60f8161c191681555b505060018460011b0185555b505050505050565b60805160a05161142a620004e35f395f61068c01525f81816102b00152818161045a015281816109eb0152610aab015261142a5ff3fe608060405234801561000f575f80fd5b50600436106101e7575f3560e01c80638da5cb5b11610109578063c6e6f5921161009e578063dd62ed3e1161006e578063dd62ed3e14610402578063e1f1c4a71461043a578063ef8b30f7146103c0578063f2fde38b14610443575f80fd5b8063c6e6f592146103c0578063c8f33c91146103d3578063ce96cb77146103dc578063d905777e146103ef575f80fd5b8063b3d7f6b9116100d9578063b3d7f6b914610387578063b460af941461039a578063ba087652146103ad578063c63d75b6146102e8575f80fd5b80638da5cb5b1461034857806394bf804d1461035957806395d89b411461036c578063a9059cbb14610374575f80fd5b8063313ce5671161017f5780636999ac931161014f5780636999ac93146102fc5780636e553f651461030557806370a0823114610318578063715018a614610340575f80fd5b8063313ce5671461029457806338d52e0f146102ae578063402d267d146102e85780634cdad5061461021b575f80fd5b80630a28a477116101ba5780630a28a477146102515780631411dab01461026457806318160ddd1461027957806323b872dd14610281575f80fd5b806301e1d114146101eb57806306fdde031461020657806307a2d13a1461021b578063095ea7b31461022e575b5f80fd5b6101f3610456565b6040519081526020015b60405180910390f35b61020e610555565b6040516101fd919061104d565b6101f3610229366004611099565b6105e5565b61024161023c3660046110cb565b6105f6565b60405190151581526020016101fd565b6101f361025f366004611099565b61060d565b610277610272366004611099565b610619565b005b6002546101f3565b61024161028f3660046110f3565b610660565b61029c610685565b60405160ff90911681526020016101fd565b7f00000000000000000000000000000000000000000000000000000000000000005b6040516001600160a01b0390911681526020016101fd565b6101f36102f636600461112c565b505f1990565b6101f360065481565b6101f3610313366004611145565b6106b5565b6101f361032636600461112c565b6001600160a01b03165f9081526020819052604090205490565b6102776106c9565b6005546001600160a01b03166102d0565b6101f3610367366004611145565b6106dc565b61020e61070d565b6102416103823660046110cb565b61071c565b6101f3610395366004611099565b610729565b6101f36103a836600461116f565b610735565b6101f36103bb36600461116f565b61078b565b6101f36103ce366004611099565b6107a0565b6101f360075481565b6101f36103ea36600461112c565b6107ab565b6101f36103fd36600461112c565b6107b4565b6101f36104103660046111a8565b6001600160a01b039182165f90815260016020908152604080832093909416825291909152205490565b6101f361271081565b61027761045136600461112c565b6107d1565b5f807f00000000000000000000000000000000000000000000000000000000000000006040516370a0823160e01b81523060048201526001600160a01b0391909116906370a0823190602401602060405180830381865afa1580156104bd573d5f803e3d5ffd5b505050506040513d601f19601f820116820180604052508101906104e191906111d0565b90508015806104f05750600654155b156104fa57919050565b5f6007544261050991906111fb565b90506301e133805f61051d8261271061120e565b836006548661052c919061120e565b610536919061120e565b6105409190611239565b905061054c818561124c565b94505050505090565b6060600380546105649061125f565b80601f01602080910402602001604051908101604052809291908181526020018280546105909061125f565b80156105db5780601f106105b2576101008083540402835291602001916105db565b820191905f5260205f20905b8154815290600101906020018083116105be57829003601f168201915b5050505050905090565b5f6105f0825f61080e565b92915050565b5f33610603818585610846565b5060019392505050565b5f6105f0826001610858565b610621610887565b6006819055426007556040518181527f5842a31a46ea5ce5b950bf6d04c8b832a9deae72e0e54bcf928f0d72123f28659060200160405180910390a150565b5f3361066d8582856108b4565b61067885858561091d565b60019150505b9392505050565b5f6106b0817f0000000000000000000000000000000000000000000000000000000000000000611297565b905090565b5f6106bf42600755565b61067e838361097a565b6106d1610887565b6106da5f610995565b565b5f5f196106ed565b60405180910390fd5b5f6106f785610729565b9050610705338583886109e6565b949350505050565b6060600480546105649061125f565b5f3361060381858561091d565b5f6105f082600161080e565b5f80610740836107ab565b90508085111561076957828582604051633fa733bb60e21b81526004016106e4939291906112b0565b5f6107738661060d565b90506107823386868985610a78565b95945050505050565b5f61079542600755565b610705848484610b38565b5f6105f0825f610858565b5f6105f0610229835b6001600160a01b0381165f908152602081905260408120546105f0565b6107d9610887565b6001600160a01b03811661080257604051631e4fbdf760e01b81525f60048201526024016106e4565b61080b81610995565b50565b5f61067e61081a610456565b61082590600161124c565b6108305f600a6113b1565b60025461083d919061124c565b85919085610b85565b6108538383836001610bc7565b505050565b5f61067e61086782600a6113b1565b600254610874919061124c565b61087c610456565b61083d90600161124c565b6005546001600160a01b031633146106da5760405163118cdaa760e01b81523360048201526024016106e4565b6001600160a01b038381165f908152600160209081526040808320938616835292905220545f19811015610917578181101561090957828183604051637dc7a0d960e11b81526004016106e4939291906112b0565b61091784848484035f610bc7565b50505050565b6001600160a01b03831661094657604051634b637e8f60e11b81525f60048201526024016106e4565b6001600160a01b03821661096f5760405163ec442f0560e01b81525f60048201526024016106e4565b610853838383610c8b565b5f5f195f610987856107a0565b9050610705338587846109e6565b600580546001600160a01b038381166001600160a01b0319831681179093556040519116919082907f8be0079c531659141344cd1fd0a4f28419497f9722a3daafe3b4186f6b6457e0905f90a35050565b610a127f0000000000000000000000000000000000000000000000000000000000000000853085610d9e565b610a1c8382610dd4565b826001600160a01b0316846001600160a01b03167fdcbc1c05240f31ff3ad067ef1ee35ce4997762752e3a095284754544f4c709d78484604051610a6a929190918252602082015260400190565b60405180910390a350505050565b826001600160a01b0316856001600160a01b031614610a9c57610a9c8386836108b4565b610aa68382610e0c565b610ad17f00000000000000000000000000000000000000000000000000000000000000008584610e40565b826001600160a01b0316846001600160a01b0316866001600160a01b03167ffbde797d201c681b91056529119e0b02407c7bb96a4a2c75c01fc9667232c8db8585604051610b29929190918252602082015260400190565b60405180910390a45050505050565b5f80610b43836107b4565b905080851115610b6c57828582604051632e52afbb60e21b81526004016106e4939291906112b0565b5f610b76866105e5565b9050610782338686848a610a78565b5f610bb2610b9283610e75565b8015610bad57505f8480610ba857610ba8611225565b868809115b151590565b610bbd868686610ea1565b610782919061124c565b6001600160a01b038416610bf05760405163e602df0560e01b81525f60048201526024016106e4565b6001600160a01b038316610c1957604051634a1406b160e11b81525f60048201526024016106e4565b6001600160a01b038085165f908152600160209081526040808320938716835292905220829055801561091757826001600160a01b0316846001600160a01b03167f8c5be1e5ebec7d5bd14f71427d1e84f3dd0314c0f7b2291e5b200ac8c7c3b92584604051610a6a91815260200190565b6001600160a01b038316610cb5578060025f828254610caa919061124c565b90915550610d129050565b6001600160a01b0383165f9081526020819052604090205481811015610cf45783818360405163391434e360e21b81526004016106e4939291906112b0565b6001600160a01b0384165f9081526020819052604090209082900390555b6001600160a01b038216610d2e57600280548290039055610d4c565b6001600160a01b0382165f9081526020819052604090208054820190555b816001600160a01b0316836001600160a01b03167fddf252ad1be2c89b69c2b068fc378daa952ba7f163c4a11628f55a4df523b3ef83604051610d9191815260200190565b60405180910390a3505050565b610dac848484846001610f51565b61091757604051635274afe760e01b81526001600160a01b03851660048201526024016106e4565b6001600160a01b038216610dfd5760405163ec442f0560e01b81525f60048201526024016106e4565b610e085f8383610c8b565b5050565b6001600160a01b038216610e3557604051634b637e8f60e11b81525f60048201526024016106e4565b610e08825f83610c8b565b610e4d8383836001610fbe565b61085357604051635274afe760e01b81526001600160a01b03841660048201526024016106e4565b5f6002826003811115610e8a57610e8a6113bf565b610e9491906113d3565b60ff166001149050919050565b5f805f610eae8686611020565b91509150815f03610ed257838181610ec857610ec8611225565b049250505061067e565b818411610ee957610ee9600385150260111861103c565b5f848688095f868103871696879004966002600389028118808a02820302808a02820302808a02820302808a02820302808a02820302808a02909103029181900381900460010185841190960395909502919093039390930492909217029150509392505050565b6040516323b872dd60e01b5f8181526001600160a01b038781166004528616602452604485905291602083606481808c5af1925060015f51148316610fad578383151615610fa1573d5f823e3d81fd5b5f883b113d1516831692505b604052505f60605295945050505050565b60405163a9059cbb60e01b5f8181526001600160a01b038616600452602485905291602083604481808b5af1925060015f51148316611014578383151615611008573d5f823e3d81fd5b5f873b113d1516831692505b60405250949350505050565b5f805f1983850993909202808410938190039390930393915050565b634e487b715f52806020526024601cfd5b5f602080835283518060208501525f5b818110156110795785810183015185820160400152820161105d565b505f604082860101526040601f19601f8301168501019250505092915050565b5f602082840312156110a9575f80fd5b5035919050565b80356001600160a01b03811681146110c6575f80fd5b919050565b5f80604083850312156110dc575f80fd5b6110e5836110b0565b946020939093013593505050565b5f805f60608486031215611105575f80fd5b61110e846110b0565b925061111c602085016110b0565b9150604084013590509250925092565b5f6020828403121561113c575f80fd5b61067e826110b0565b5f8060408385031215611156575f80fd5b82359150611166602084016110b0565b90509250929050565b5f805f60608486031215611181575f80fd5b83359250611191602085016110b0565b915061119f604085016110b0565b90509250925092565b5f80604083850312156111b9575f80fd5b6111c2836110b0565b9150611166602084016110b0565b5f602082840312156111e0575f80fd5b5051919050565b634e487b7160e01b5f52601160045260245ffd5b818103818111156105f0576105f06111e7565b80820281158282048414176105f0576105f06111e7565b634e487b7160e01b5f52601260045260245ffd5b5f8261124757611247611225565b500490565b808201808211156105f0576105f06111e7565b600181811c9082168061127357607f821691505b60208210810361129157634e487b7160e01b5f52602260045260245ffd5b50919050565b60ff81811683821601908111156105f0576105f06111e7565b6001600160a01b039390931683526020830191909152604082015260600190565b600181815b8085111561130b57815f19048211156112f1576112f16111e7565b808516156112fe57918102915b93841c93908002906112d6565b509250929050565b5f82611321575060016105f0565b8161132d57505f6105f0565b8160018114611343576002811461134d57611369565b60019150506105f0565b60ff84111561135e5761135e6111e7565b50506001821b6105f0565b5060208310610133831016604e8410600b841016171561138c575081810a6105f0565b61139683836112d1565b805f19048211156113a9576113a96111e7565b029392505050565b5f61067e60ff841683611313565b634e487b7160e01b5f52602160045260245ffd5b5f60ff8316806113e5576113e5611225565b8060ff8416069150509291505056fea2646970667358221220e4eb01bfda78ff65f3c11972922e87f2a8b8a22a4543cf6c97d69ba2c2eec1e664736f6c63430008180033","linkReferences":{}},"methodIdentifiers":{"BASIS_POINTS()":"e1f1c4a7","allowance(address,address)":"dd62ed3e","approve(address,uint256)":"095ea7b3","asset()":"38d52e0f","balanceOf(address)":"70a08231","convertToAssets(uint256)":"07a2d13a","convertToShares(uint256)":"c6e6f592","decimals()":"313ce567","deposit(uint256,address)":"6e553f65","lastUpdateTime()":"c8f33c91","maxDeposit(address)":"402d267d","maxMint(address)":"c63d75b6","maxRedeem(address)":"d905777e","maxWithdraw(address)":"ce96cb77","mint(uint256,address)":"94bf804d","name()":"06fdde03","owner()":"8da5cb5b","previewDeposit(uint256)":"ef8b30f7","previewMint(uint256)":"b3d7f6b9","previewRedeem(uint256)":"4cdad506","previewWithdraw(uint256)":"0a28a477","redeem(uint256,address,address)":"ba087652","renounceOwnership()":"715018a6","setYieldRate(uint256)":"1411dab0","symbol()":"95d89b41","totalAssets()":"01e1d114","totalSupply()":"18160ddd","transfer(address,uint256)":"a9059cbb","transferFrom(address,address,uint256)":"23b872dd","transferOwnership(address)":"f2fde38b","withdraw(uint256,address,address)":"b460af94","yieldRate()":"6999ac93"},"id":1}