{"abi":[{"type":"constructor","inputs":[{"name":"asset_","type":"address","internalType":"contract IERC20"},{"name":"name_","type":"string","internalType":"string"},{"name":"symbol_","type":"string","internalType":"string"},{"name":"owner_","type":"address","internalType":"address"},{"name":"initialYieldRate_","type":"uint256","internalType":"uint256"}],"stateMutability":"nonpayable"},{"type":"function","name":"BASIS_POINTS","inputs":[],"outputs":[{"name":"","type":"uint256","internalType":"uint256"}],"stateMutability":"view"},{"type":"function","name":"allowance","inputs":[{"name":"owner","type":"address","internalType":"address"},{"name":"spender","type":"address","internalType":"address"}],"outputs":[{"name":"","type":"uint256","internalType":"uint256"}],"stateMutability":"view"},{"type":"function","name":"approve","inputs":[{"name":"spender","type":"address","internalType":"address"},{"name":"value","type":"uint256","internalType":"uint256"}],"outputs":[{"name":"","type":"bool","internalType":"bool"}],"stateMutability":"nonpayable"},{"type":"function","name":"asset","inputs":[],"outputs":[{"name":"","type":"address","internalType":"address"}],"stateMutability":"view"},{"type":"function","name":"balanceOf","inputs":[{"name":"account","type":"address","internalType":"address"}],"outputs":[{"name":"","type":"uint256","internalType":"uint256"}],"stateMutability":"view"},{"type":"function","name":"convertToAssets","inputs":[{"name":"shares","type":"uint256","internalType":"uint256"}],"outputs":[{"name":"","type":"uint256","internalType":"uint256"}],"stateMutability":"view"},{"type":"function","name":"convertToShares","inputs":[{"name":"assets","type":"uint256","internalType":"uint256"}],"outputs":[{"name":"","type":"uint256","internalType":"uint256"}],"stateMutability":"view"},{"type":"function","name":"decimals","inputs":[],"outputs":[{"name":"","type":"uint8","internalType":"uint8"}],"stateMutability":"view"},{"type":"function","name":"deposit","inputs":[{"name":"assets","type":"uint256","internalType":"uint256"},{"name":"receiver","type":"address","internalType":"address"}],"outputs":[{"name":"","type":"uint256","internalType":"uint256"}],"stateMutability":"nonpayable"},{"type":"function","name":"lastUpdateTime","inputs":[],"outputs":[{"name":"","type":"uint256","internalType":"uint256"}],"stateMutability":"view"},{"type":"function","name":"maxDeposit","inputs":[{"name":"","type":"address","internalType":"address"}],"outputs":[{"name":"","type":"uint256","internalType":"uint256"}],"stateMutability":"view"},{"type":"function","name":"maxMint","inputs":[{"name":"","type":"address","internalType":"address"}],"outputs":[{"name":"","type":"uint256","internalType":"uint256"}],"stateMutability":"view"},{"type":"function","name":"maxRedeem","inputs":[{"name":"owner","type":"address","internalType":"address"}],"outputs":[{"name":"","type":"uint256","internalType":"uint256"}],"stateMutability":"view"},{"type":"function","name":"maxWithdraw","inputs":[{"name":"owner","type":"address","internalType":"address"}],"outputs":[{"name":"","type":"uint256","internalType":"uint256"}],"stateMutability":"view"},{"type":"function","name":"mint","inputs":[{"name":"shares","type":"uint256","internalType":"uint256"},{"name":"receiver","type":"address","internalType":"address"}],"outputs":[{"name":"","type":"uint256","internalType":"uint256"}],"stateMutability":"nonpayable"},{"type":"function","name":"name","inputs":[],"outputs":[{"name":"","type":"string","internalType":"string"}],"stateMutability":"view"},{"type":"function","name":"owner","inputs":[],"outputs":[{"name":"","type":"address","internalType":"address"}],"stateMutability":"view"},{"type":"function","name":"previewDeposit","inputs":[{"name":"assets","type":"uint256","internalType":"uint256"}],"outputs":[{"name":"","type":"uint256","internalType":"uint256"}],"stateMutability":"view"},{"type":"function","name":"previewMint","inputs":[{"name":"shares","type":"uint256","internalType":"uint256"}],"outputs":[{"name":"","type":"uint256","internalType":"uint256"}],"stateMutability":"view"},{"type":"function","name":"previewRedeem","inputs":[{"name":"shares","type":"uint256","internalType":"uint256"}],"outputs":[{"name":"","type":"uint256","internalType":"uint256"}],"stateMutability":"view"},{"type":"function","name":"previewWithdraw","inputs":[{"name":"assets","type":"uint256","internalType":"uint256"}],"outputs":[{"name":"","type":"uint256","internalType":"uint256"}],"stateMutability":"view"},{"type":"function","name":"redeem","inputs":[{"name":"shares","type":"uint256","internalType":"uint256"},{"name":"receiver","type":"address","internalType":"address"},{"name":"owner","type":"address","internalType":"address"}],"outputs":[{"name":"","type":"uint256","internalType":"uint256"}],"stateMutability":"nonpayable"},{"type":"function","name":"renounceOwnership","inputs":[],"outputs":[],"stateMutability":"nonpayable"},{"type":"function","name":"setYieldRate","inputs":[{"name":"newRate","type":"uint256","internalType":"uint256"}],"outputs":[],"stateMutability":"nonpayable"},{"type":"function","name":"symbol","inputs":[],"outputs":[{"name":"","type":"string","internalType":"string"}],"stateMutability":"view"},{"type":"function","name":"totalAssets","inputs":[],"outputs":[{"name":"","type":"uint256","internalType":"uint256"}],"stateMutability":"view"},{"type":"function","name":"totalSupply","inputs":[],"outputs":[{"name":"","type":"uint256","internalType":"uint256"}],"stateMutability":"view"},{"type":"function","name":"transfer","inputs":[{"name":"to","type":"address","internalType":"address"},{"name":"value","type":"uint256","internalType":"uint256"}],"outputs":[{"name":"","type":"bool","internalType":"bool"}],"stateMutability":"nonpayable"},{"type":"function","name":"transferFrom","inputs":[{"name":"from","type":"address","internalType":"address"},{"name":"to","type":"address","internalType":"address"},{"name":"value","type":"uint256","internalType":"uint256"}],"outputs":[{"name":"","type":"bool","internalType":"bool"}],"stateMutability":"nonpayable"},{"type":"function","name":"transferOwnership","inputs":[{"name":"newOwner","type":"address","internalType":"address"}],"outputs":[],"stateMutability":"nonpayable"},{"type":"function","name":"withdraw","inputs":[{"name":"assets","type":"uint256","internalType":"uint256"},{"name":"receiver","type":"address","internalType":"address"},{"name":"owner","type":"address","internalType":"address"}],"outputs":[{"name":"","type":"uint256","internalType":"uint256"}],"stateMutability":"nonpayable"},{"type":"function","name":"yieldRate","inputs":[],"outputs":[{"name":"","type":"uint256","internalType":"uint256"}],"stateMutability":"view"},{"type":"event","name":"Approval","inputs":[{"name":"owner","type":"address","indexed":true,"internalType":"address"},{"name":"spender","type":"address","indexed":true,"internalType":"address"},{"name":"value","type":"uint256","indexed":false,"internalType":"uint256"}],"anonymous":false},{"type":"event","name":"Deposit","inputs":[{"name":"sender","type":"address","indexed":true,"internalType":"address"},{"name":"owner","type":"address","indexed":true,"internalType":"address"},{"name":"assets","type":"uint256","indexed":false,"internalType":"uint256"},{"name":"shares","type":"uint256","indexed":false,"internalType":"uint256"}],"anonymous":false},{"type":"event","name":"OwnershipTransferred","inputs":[{"name":"previousOwner","type":"address","indexed":true,"internalType":"address"},{"name":"newOwner","type":"address","indexed":true,"internalType":"address"}],"anonymous":false},{"type":"event","name":"Transfer","inputs":[{"name":"from","type":"address","indexed":true,"internalType":"address"},{"name":"to","type":"address","indexed":true,"internalType":"address"},{"name":"value","type":"uint256","indexed":false,"internalType":"uint256"}],"anonymous":false},{"type":"event","name":"Withdraw","inputs":[{"name":"sender","type":"address","indexed":true,"internalType":"address"},{"name":"receiver","type":"address","indexed":true,"internalType":"address"},{"name":"owner","type":"address","indexed":true,"internalType":"address"},{"name":"assets","type":"uint256","indexed":false,"internalType":"uint256"},{"name":"shares","type":"uint256","indexed":false,"internalType":"uint256"}],"anonymous":false},{"type":"event","name":"YieldRateUpdated","inputs":[{"name":"newRate","type":"uint256","indexed":false,"internalType":"uint256"}],"anonymous":false},{"type":"error","name":"ERC20InsufficientAllowance","inputs":[{"name":"spender","type":"address","internalType":"address"},{"name":"allowance","type":"uint256","internalType":"uint256"},{"name":"needed","type":"uint256","internalType":"uint256"}]},{"type":"error","name":"ERC20InsufficientBalance","inputs":[{"name":"sender","type":"address","internalType":"address"},{"name":"balance","type":"uint256","internalType":"uint256"},{"name":"needed","type":"uint256","internalType":"uint256"}]},{"type":"error","name":"ERC20InvalidApprover","inputs":[{"name":"approver","type":"address","internalType":"address"}]},{"type":"error","name":"ERC20InvalidReceiver","inputs":[{"name":"receiver","type":"address","internalType":"address"}]},{"type":"error","name":"ERC20InvalidSender","inputs":[{"name":"sender","type":"address","internalType":"address"}]},{"type":"error","name":"ERC20InvalidSpender","inputs":[{"name":"spender","type":"address","internalType":"address"}]},{"type":"error","name":"ERC4626ExceededMaxDeposit","inputs":[{"name":"receiver","type":"address","internalType":"address"},{"name":"assets","type":"uint256","internalType":"uint256"},{"name":"max","type":"uint256","internalType":"uint256"}]},{"type":"error","name":"ERC4626ExceededMaxMint","inputs":[{"name":"receiver","type":"address","internalType":"address"},{"name":"shares","type":"uint256","internalType":"uint256"},{"name":"max","type":"uint256","internalType":"uint256"}]},{"type":"error","name":"ERC4626ExceededMaxRedeem","inputs":[{"name":"owner","type":"address","internalType":"address"},{"name":"shares","type":"uint256","internalType":"uint256"},{"name":"max","type":"uint256","internalType":"uint256"}]},{"type":"error","name":"ERC4626ExceededMaxWithdraw","inputs":[{"name":"owner","type":"address","internalType":"address"},{"name":"assets","type":"uint256","internalType":"uint256"},{"name":"max","type":"uint256","internalType":"uint256"}]},{"type":"error","name":"OwnableInvalidOwner","inputs":[{"name":"owner","type":"address","internalType":"address"}]},{"type":"error","name":"OwnableUnauthorizedAccount","inputs":[{"name":"account","type":"address","internalType":"address"}]},{"type":"error","name":"SafeERC20FailedOperation","inputs":[{"name":"token","type":"address","internalType":"address"}]}],"bytecode":{"object":"0x60c0604090808252346200046a576200166780380380916200002282856200046e565b833981019060a0818303126200046a5780516001600160a01b03808216939091908482036200046a576020848101516001600160401b039391908481116200046a57836200007291880162000492565b9288870151908582116200046a576200008d91880162000492565b926060870151968688168098036200046a5760800151978151868111620003755760038054916001948584811c941680156200045f575b878510146200044b578190601f94858111620003f8575b50879085831160011462000395575f9262000389575b50505f1982841b1c191690851b1781555b865191888311620003755760049788548681811c911680156200036a575b888210146200035757908183869594931162000300575b508791841160011462000299575f936200028d575b505082851b925f19911b1c19161785555b895163313ce56760e01b8482019081528682529096878c01908111888210176200027a578b5286518b925f92905afa5f5192868b52816200026e575b508062000262575b15620002585760ff909116905b156200024f575b60a05260805283156200023b575050600580546001600160a01b031981168417909155935193167f8be0079c531659141344cd1fd0a4f28419497f9722a3daafe3b4186f6b6457e05f80a36006554260075561116090816200050782396080518181816105ef01528181610a7701528181610dc20152610f50015260a051816106340152f35b631e4fbdf760e01b82525f90820152602490fd5b506012620001b5565b50505f80620001ae565b5060ff821115620001a1565b90503d10155f62000199565b604187634e487b7160e01b5f525260245ffd5b015191505f806200014c565b9190869450601f198416928a5f52885f20935f5b8a828210620002e95750508511620002cf575b50505050811b0185556200015d565b01519060f8845f19921b161c191690555f808080620002c0565b8385015187558a98909601959384019301620002ad565b9091929350895f52875f208380870160051c8201928a88106200034d575b9189918897969594930160051c01915b8281106200033e57505062000137565b5f81558796508991016200032e565b925081926200031e565b60228a634e487b7160e01b5f525260245ffd5b90607f169062000120565b634e487b7160e01b5f52604160045260245ffd5b015190505f80620000f1565b90879350601f19831691855f52895f20925f5b8b828210620003e15750508411620003c9575b505050811b01815562000102565b01515f1983861b60f8161c191690555f8080620003bb565b8385015186558b97909501949384019301620003a8565b909150835f52875f208580850160051c8201928a861062000441575b918991869594930160051c01915b82811062000432575050620000db565b5f815585945089910162000422565b9250819262000414565b634e487b7160e01b5f52602260045260245ffd5b93607f1693620000c4565b5f80fd5b601f909101601f19168101906001600160401b038211908210176200037557604052565b919080601f840112156200046a5782516001600160401b038111620003755760209060405192620004cd83601f19601f85011601856200046e565b8184528282870101116200046a575f5b818110620004f25750825f9394955001015290565b8581018301518482018401528201620004dd56fe604060808152600480361015610013575f80fd5b5f3560e01c806301e1d114146108c457806306fdde03146107ec57806307a2d13a146105d6578063095ea7b3146107435780630a28a477146107245780631411dab0146106d457806318160ddd146106b657806323b872dd1461067a578063313ce5671461061e57806338d52e0f146105db578063402d267d146102cf5780634cdad506146105d65780636999ac93146105b85780636e553f651461058057806370a082311461025d578063715018a6146105385780638da5cb5b1461051057806394bf804d146104dc57806395d89b41146103f6578063a9059cbb146103c6578063b3d7f6b9146103a7578063b460af9414610348578063ba087652146102d4578063c63d75b6146102cf578063c6e6f592146101f3578063c8f33c91146102b1578063ce96cb7714610289578063d905777e1461025d578063dd62ed3e14610214578063e1f1c4a7146101f8578063ef8b30f7146101f35763f2fde38b1461017b575f80fd5b346101ef5760203660031901126101ef5761019461094d565b9061019d610c1d565b6001600160a01b039182169283156101d9575050600580546001600160a01b031981168417909155165f805160206110eb8339815191525f80a3005b905f6024925191631e4fbdf760e01b8352820152fd5b5f80fd5b6109d3565b82346101ef575f3660031901126101ef57602090516127108152f35b82346101ef57806003193601126101ef5760209061023061094d565b610238610963565b9060018060a01b038091165f5260018452825f2091165f528252805f20549051908152f35b82346101ef5760203660031901126101ef5760209061028261027d61094d565b610b39565b9051908152f35b82346101ef5760203660031901126101ef576020906102826102ac61027d61094d565b610b9c565b82346101ef575f3660031901126101ef576020906007549051908152f35b610979565b5090346101ef576102e43661099e565b9291934260075560018060a01b0384165f525f602052825f20548086116103265750508361032091610317602096610b9c565b94859133610ee2565b51908152f35b9251632e52afbb60e21b815294859461034494935090918501610b53565b0390fd5b5090346101ef576103583661099e565b9291936103676102ac85610b39565b8086116103895750506103209084610380602096610bc7565b94859233610ee2565b9251633fa733bb60e21b815294859461034494935090918501610b53565b5090346101ef5760203660031901126101ef5761028260209235610b71565b82346101ef57806003193601126101ef576020906103ef6103e561094d565b6024359033610d04565b5160018152f35b5090346101ef575f3660031901126101ef578051905f9280549060018260011c91600184169384156104d2575b60209485851081146104bf5784885290811561049d5750600114610461575b61045d8686610453828b03836109f1565b51918291826108e0565b0390f35b5f908152838120939650925b82841061048a575050508261045d9461045392820101945f610442565b805486850188015292860192810161046d565b60ff191687860152505050151560051b83010192506104538261045d5f610442565b602283634e487b7160e01b5f525260245ffd5b92607f1692610423565b5090346101ef57806003193601126101ef5760209135906103206104fe610963565b9261050881610b71565b809433610db6565b82346101ef575f3660031901126101ef5760055490516001600160a01b039091168152602090f35b346101ef575f3660031901126101ef57610550610c1d565b600580546001600160a01b031981169091555f906001600160a01b03165f805160206110eb8339815191528280a3005b5090346101ef57806003193601126101ef5760209135906103206105a2610963565b426007556105af84610bf2565b93849133610db6565b82346101ef575f3660031901126101ef576020906006549051908152f35b610927565b82346101ef575f3660031901126101ef57517f00000000000000000000000000000000000000000000000000000000000000006001600160a01b03168152602090f35b5090346101ef575f3660031901126101ef5760ff7f0000000000000000000000000000000000000000000000000000000000000000169060ff8211610667576020925051908152f35b601183634e487b7160e01b5f525260245ffd5b82346101ef5760603660031901126101ef576020906103ef61069a61094d565b6106a2610963565b604435916106b1833383610c49565b610d04565b82346101ef575f3660031901126101ef576020906002549051908152f35b50346101ef5760203660031901126101ef577f5842a31a46ea5ce5b950bf6d04c8b832a9deae72e0e54bcf928f0d72123f2865916020913590610715610c1d565b816006554260075551908152a1005b5090346101ef5760203660031901126101ef5761028260209235610bc7565b5090346101ef57806003193601126101ef5761075d61094d565b6024359033156107d6576001600160a01b03169081156107c05760209350335f5260018452825f20825f52845280835f205582519081527f8c5be1e5ebec7d5bd14f71427d1e84f3dd0314c0f7b2291e5b200ac8c7c3b925843392a35160018152f35b8251634a1406b160e11b81525f81860152602490fd5b825163e602df0560e01b81525f81860152602490fd5b5090346101ef575f3660031901126101ef578051905f9260035460018160011c916001811680156108ba575b60209485851082146108a75750838752908115610887575060011461084a575b5050506104538261045d9403836109f1565b91945060035f52845f20915f925b828410610874575050508261045d946104539282010194610838565b8054868501880152928601928101610858565b60ff1916868501525050151560051b83010192506104538261045d610838565b602290634e487b7160e01b5f525260245ffd5b92607f1692610818565b82346101ef575f3660031901126101ef57602090610282610a5c565b602080825282518183018190529093925f5b82811061091357505060409293505f838284010152601f8019910116010190565b8181018601518482016040015285016108f2565b346101ef5760203660031901126101ef576020610945600435610b9c565b604051908152f35b600435906001600160a01b03821682036101ef57565b602435906001600160a01b03821682036101ef57565b346101ef5760203660031901126101ef5761099261094d565b5060206040515f198152f35b60609060031901126101ef57600435906001600160a01b039060243582811681036101ef579160443590811681036101ef5790565b346101ef5760203660031901126101ef576020610945600435610bf2565b601f909101601f19168101906001600160401b03821190821017610a1457604052565b634e487b7160e01b5f52604160045260245ffd5b81810292918115918404141715610a3b57565b634e487b7160e01b5f52601160045260245ffd5b91908201809211610a3b57565b6040516370a0823160e01b81523060048201526020816024817f00000000000000000000000000000000000000000000000000000000000000006001600160a01b03165afa908115610b2e575f91610afc575b5080158015610af2575b610aef57600754420390428211610a3b5764496cebb800610ae8610aef93610ae360065485610a28565b610a28565b0490610a4f565b90565b5060065415610ab9565b90506020813d602011610b26575b81610b17602093836109f1565b810103126101ef57515f610aaf565b3d9150610b0a565b6040513d5f823e3d90fd5b6001600160a01b03165f9081526020819052604090205490565b604091949392606082019560018060a01b0316825260208201520152565b610b79610a5c565b60018101809111610a3b576002549060018201809211610a3b57610aef9261101c565b610ba4610a5c565b60018101809111610a3b576002549060018201809211610a3b57610aef92611050565b60025460018101809111610a3b57610bdd610a5c565b9060018201809211610a3b57610aef9261101c565b60025460018101809111610a3b57610c08610a5c565b9060018201809211610a3b57610aef92611050565b6005546001600160a01b03163303610c3157565b60405163118cdaa760e01b8152336004820152602490fd5b919060018060a01b0380931692835f526001602052604093845f2091831691825f52602052845f2054925f198410610c84575b505050505050565b848410610ce657508015610ccf578115610cb8575f526001602052835f20905f5260205203905f20555f8080808080610c7c565b8451634a1406b160e11b81525f6004820152602490fd5b845163e602df0560e01b81525f6004820152602490fd5b8390610344868851938493637dc7a0d960e11b855260048501610b53565b916001600160a01b03808416928315610d9e5716928315610d8657825f525f60205260405f205490828210610d695750815f8051602061110b83398151915292602092855f525f84520360405f2055845f5260405f20818154019055604051908152a3565b6103448360405193849363391434e360e21b855260048501610b53565b60405163ec442f0560e01b81525f6004820152602490fd5b604051634b637e8f60e11b81525f6004820152602490fd5b909160018060a01b03807f00000000000000000000000000000000000000000000000000000000000000001693604093828551916323b872dd60e01b5f52169586600452306024528460445260205f60648180855af160015f5114811615610ec3575b8287525f60605215610eae57505016938415610e97579081610e5f7fdcbc1c05240f31ff3ad067ef1ee35ce4997762752e3a095284754544f4c709d79493600254610a4f565b600255855f525f602052825f20818154019055855f5f8051602061110b83398151915260208651858152a382519182526020820152a3565b825163ec442f0560e01b81525f6004820152602490fd5b635274afe760e01b8252600482015260249150fd5b6001811516610ed957813b15153d151616610e19565b823d5f823e3d90fd5b6001600160a01b03808416959094858316949390928288870361100b575b50508615610d9e57865f525f602052604093845f205490838210610fef57508290885f525f60205203845f205581600254036002555f875f8051602061110b83398151915260208751868152a3857f0000000000000000000000000000000000000000000000000000000000000000169584519163a9059cbb60e01b5f521695866004528360245260205f60448180855af160015f5114811615610fd9575b82865215610eae575050825191825260208201527ffbde797d201c681b91056529119e0b02407c7bb96a4a2c75c01fc9667232c8db9190a4565b6001811516610ed957813b15153d151616610f9f565b61034484875193849363391434e360e21b855260048501610b53565b6110159186610c49565b5f82610f00565b91611028818385611050565b91811561103c57610aef9309151590610a4f565b634e487b7160e01b5f52601260045260245ffd5b90915f1983830992808302928380861095039480860395146110dc57848311156110c45790829109815f038216809204600280826003021880830282030280830282030280830282030280830282030280830282030280920290030293600183805f03040190848311900302920304170290565b82634e487b715f52156003026011186020526024601cfd5b50508092501561103c57049056fe8be0079c531659141344cd1fd0a4f28419497f9722a3daafe3b4186f6b6457e0ddf252ad1be2c89b69c2b068fc378daa952ba7f163c4a11628f55a4df523b3efa26469706673582212207726fcea8396c0f3a2b7769a01f3416b0f4d04a7fab276c860777862e89ddee764736f6c63430008180033","linkReferences":{}},"methodIdentifiers":{"BASIS_POINTS()":"e1f1c4a7","allowance(address,address)":"dd62ed3e","approve(address,uint256)":"095ea7b3","asset()":"38d52e0f","balanceOf(address)":"70a08231","convertToAssets(uint256)":"07a2d13a","convertToShares(uint256)":"c6e6f592","decimals()":"313ce567","deposit(uint256,address)":"6e553f65","lastUpdateTime()":"c8f33c91","maxDeposit(address)":"402d267d","maxMint(address)":"c63d75b6","maxRedeem(address)":"d905777e","maxWithdraw(address)":"ce96cb77","mint(uint256,address)":"94bf804d","name()":"06fdde03","owner()":"8da5cb5b","previewDeposit(uint256)":"ef8b30f7","previewMint(uint256)":"b3d7f6b9","previewRedeem(uint256)":"4cdad506","previewWithdraw(uint256)":"0a28a477","redeem(uint256,address,address)":"ba087652","renounceOwnership()":"715018a6","setYieldRate(uint256)":"1411dab0","symbol()":"95d89b41","totalAssets()":"01e1d114","totalSupply()":"18160ddd","transfer(address,uint256)":"a9059cbb","transferFrom(address,address,uint256)":"23b872dd","transferOwnership(address)":"f2fde38b","withdraw(uint256,address,address)":"b460af94","yieldRate()":"6999ac93"},"id":1}