{"abi":[{"type":"constructor","inputs":[{"name":"initialOwner","type":"address","internalType":"address"}],"stateMutability":"nonpayable"},{"type":"function","name":"approveProposal","inputs":[{"name":"proposalId","type":"uint256","internalType":"uint256"}],"outputs":[],"stateMutability":"nonpayable"},{"type":"function","name":"cashFlowEngine","inputs":[],"outputs":[{"name":"","type":"address","internalType":"address"}],"stateMutability":"view"},{"type":"function","name":"createProposal","inputs":[{"name":"amount","type":"uint256","internalType":"uint256"},{"name":"description","type":"string","internalType":"string"}],"outputs":[{"name":"","type":"uint256","internalType":"uint256"}],"stateMutability":"nonpayable"},{"type":"function","name":"getProposal","inputs":[{"name":"proposalId","type":"uint256","internalType":"uint256"}],"outputs":[{"name":"","type":"tuple","internalType":"struct SimpleDAO.Proposal","components":[{"name":"amount","type":"uint256","internalType":"uint256"},{"name":"description","type":"string","internalType":"string"},{"name":"approved","type":"bool","internalType":"bool"},{"name":"proposer","type":"address","internalType":"address"},{"name":"timestamp","type":"uint256","internalType":"uint256"}]}],"stateMutability":"view"},{"type":"function","name":"isProposalApproved","inputs":[{"name":"proposalId","type":"uint256","internalType":"uint256"}],"outputs":[{"name":"","type":"bool","internalType":"bool"}],"stateMutability":"view"},{"type":"function","name":"owner","inputs":[],"outputs":[{"name":"","type":"address","internalType":"address"}],"stateMutability":"view"},{"type":"function","name":"proposalCount","inputs":[],"outputs":[{"name":"","type":"uint256","internalType":"uint256"}],"stateMutability":"view"},{"type":"function","name":"proposals","inputs":[{"name":"","type":"uint256","internalType":"uint256"}],"outputs":[{"name":"amount","type":"uint256","internalType":"uint256"},{"name":"description","type":"string","internalType":"string"},{"name":"approved","type":"bool","internalType":"bool"},{"name":"proposer","type":"address","internalType":"address"},{"name":"timestamp","type":"uint256","internalType":"uint256"}],"stateMutability":"view"},{"type":"function","name":"renounceOwnership","inputs":[],"outputs":[],"stateMutability":"nonpayable"},{"type":"function","name":"setCashFlowEngine","inputs":[{"name":"_cashFlowEngine","type":"address","internalType":"address"}],"outputs":[],"stateMutability":"nonpayable"},{"type":"function","name":"transferOwnership","inputs":[{"name":"newOwner","type":"address","internalType":"address"}],"outputs":[],"stateMutability":"nonpayable"},{"type":"event","name":"CashFlowEngineSet","inputs":[{"name":"engine","type":"address","indexed":true,"internalType":"address"}],"anonymous":false},{"type":"event","name":"OwnershipTransferred","inputs":[{"name":"previousOwner","type":"address","indexed":true,"internalType":"address"},{"name":"newOwner","type":"address","indexed":true,"internalType":"address"}],"anonymous":false},{"type":"event","name":"ProposalApproved","inputs":[{"name":"proposalId","type":"uint256","indexed":true,"internalType":"uint256"}],"anonymous":false},{"type":"event","name":"ProposalCreated","inputs":[{"name":"proposalId","type":"uint256","indexed":true,"internalType":"uint256"},{"name":"proposer","type":"address","indexed":true,"internalType":"address"},{"name":"amount","type":"uint256","indexed":false,"internalType":"uint256"},{"name":"description","type":"string","indexed":false,"internalType":"string"}],"anonymous":false},{"type":"error","name":"OwnableInvalidOwner","inputs":[{"name":"owner","type":"address","internalType":"address"}]},{"type":"error","name":"OwnableUnauthorizedAccount","inputs":[{"name":"account","type":"address","internalType":"address"}]}],"bytecode":{"object":"0x608060405234801561000f575f80fd5b50604051610d4c380380610d4c83398101604081905261002e916100bb565b806001600160a01b03811661005c57604051631e4fbdf760e01b81525f600482015260240160405180910390fd5b6100658161006c565b50506100e8565b5f80546001600160a01b038381166001600160a01b0319831681178455604051919092169283917f8be0079c531659141344cd1fd0a4f28419497f9722a3daafe3b4186f6b6457e09190a35050565b5f602082840312156100cb575f80fd5b81516001600160a01b03811681146100e1575f80fd5b9392505050565b610c57806100f55f395ff3fe608060405234801561000f575f80fd5b50600436106100a6575f3560e01c80639abcc0cc1161006e5780639abcc0cc14610139578063c7f758a81461015c578063da35c6641461017c578063f2fde38b14610185578063feab893914610198578063fee7ad5a146101ab575f80fd5b8063013cf08b146100aa57806302d52fa4146100d7578063715018a6146100f85780638da5cb5b1461010257806398951b5614610126575b5f80fd5b6100bd6100b836600461089b565b6101be565b6040516100ce9594939291906108f5565b60405180910390f35b6100ea6100e5366004610933565b61027f565b6040519081526020016100ce565b610100610476565b005b5f546001600160a01b03165b6040516001600160a01b0390911681526020016100ce565b61010061013436600461089b565b610489565b61014c61014736600461089b565b61055d565b60405190151581526020016100ce565b61016f61016a36600461089b565b610597565b6040516100ce91906109a8565b6100ea60025481565b610100610193366004610a01565b6106d5565b6101006101a6366004610a01565b610712565b60035461010e906001600160a01b031681565b600160208190525f9182526040909120805491810180546101de90610a2e565b80601f016020809104026020016040519081016040528092919081815260200182805461020a90610a2e565b80156102555780601f1061022c57610100808354040283529160200191610255565b820191905f5260205f20905b81548152906001019060200180831161023857829003601f168201915b505050506002830154600390930154919260ff8116926101009091046001600160a01b0316915085565b5f8084116102e85760405162461bcd60e51b815260206004820152602b60248201527f53696d706c6544414f3a20616d6f756e74206d7573742062652067726561746560448201526a72207468616e207a65726f60a81b60648201526084015b60405180910390fd5b816103445760405162461bcd60e51b815260206004820152602660248201527f53696d706c6544414f3a206465736372697074696f6e2063616e6e6f7420626560448201526520656d70747960d01b60648201526084016102df565b600280545f918261035483610a66565b9190505590506040518060a0016040528086815260200185858080601f0160208091040260200160405190810160405280939291908181526020018383808284375f92018290525093855250505060208083018290523360408085019190915242606090940193909352848252600180825292909120835181559083015190918201906103e19082610aea565b5060408281015160028301805460608601516001600160a01b031661010002610100600160a81b0319931515939093166001600160a81b03199091161791909117905560809092015160039091015551339082907f85b1e5bd1e58840265c40582ff09f8cbfab823e041a824467b654a99b5156d399061046690899089908990610baa565b60405180910390a3949350505050565b61047e610820565b6104875f61084c565b565b610491610820565b60025481106104b25760405162461bcd60e51b81526004016102df90610bdf565b5f818152600160205260409020600281015460ff16156105205760405162461bcd60e51b8152602060048201526024808201527f53696d706c6544414f3a2070726f706f73616c20616c726561647920617070726044820152631bdd995960e21b60648201526084016102df565b60028101805460ff1916600117905560405182907f28ec9e38ba73636ceb2f6c1574136f83bd46284a3c74734b711bf45e12f8d929905f90a25050565b5f600254821061057f5760405162461bcd60e51b81526004016102df90610bdf565b505f9081526001602052604090206002015460ff1690565b6105d06040518060a001604052805f8152602001606081526020015f151581526020015f6001600160a01b031681526020015f81525090565b60025482106105f15760405162461bcd60e51b81526004016102df90610bdf565b5f82815260016020818152604092839020835160a081019094528054845291820180549184019161062190610a2e565b80601f016020809104026020016040519081016040528092919081815260200182805461064d90610a2e565b80156106985780601f1061066f57610100808354040283529160200191610698565b820191905f5260205f20905b81548152906001019060200180831161067b57829003601f168201915b5050509183525050600282015460ff81161515602083015261010090046001600160a01b0316604082015260039091015460609091015292915050565b6106dd610820565b6001600160a01b03811661070657604051631e4fbdf760e01b81525f60048201526024016102df565b61070f8161084c565b50565b61071a610820565b6003546001600160a01b0316156107815760405162461bcd60e51b815260206004820152602560248201527f53696d706c6544414f3a2043617368466c6f77456e67696e6520616c726561646044820152641e481cd95d60da1b60648201526084016102df565b6001600160a01b0381166107d75760405162461bcd60e51b815260206004820152601a60248201527f53696d706c6544414f3a20696e76616c6964206164647265737300000000000060448201526064016102df565b600380546001600160a01b0319166001600160a01b0383169081179091556040517f65bb62dffafaff7b808ecee7659b8d1556884f676fbb10b8a2ced53ec45223d6905f90a250565b5f546001600160a01b031633146104875760405163118cdaa760e01b81523360048201526024016102df565b5f80546001600160a01b038381166001600160a01b0319831681178455604051919092169283917f8be0079c531659141344cd1fd0a4f28419497f9722a3daafe3b4186f6b6457e09190a35050565b5f602082840312156108ab575f80fd5b5035919050565b5f81518084525f5b818110156108d6576020818501810151868301820152016108ba565b505f602082860101526020601f19601f83011685010191505092915050565b85815260a060208201525f61090d60a08301876108b2565b9415156040830152506001600160a01b0392909216606083015260809091015292915050565b5f805f60408486031215610945575f80fd5b83359250602084013567ffffffffffffffff80821115610963575f80fd5b818601915086601f830112610976575f80fd5b813581811115610984575f80fd5b876020828501011115610995575f80fd5b6020830194508093505050509250925092565b60208152815160208201525f602083015160a060408401526109cd60c08401826108b2565b905060408401511515606084015260018060a01b036060850151166080840152608084015160a08401528091505092915050565b5f60208284031215610a11575f80fd5b81356001600160a01b0381168114610a27575f80fd5b9392505050565b600181811c90821680610a4257607f821691505b602082108103610a6057634e487b7160e01b5f52602260045260245ffd5b50919050565b5f60018201610a8357634e487b7160e01b5f52601160045260245ffd5b5060010190565b634e487b7160e01b5f52604160045260245ffd5b601f821115610ae557805f5260205f20601f840160051c81016020851015610ac35750805b601f840160051c820191505b81811015610ae2575f8155600101610acf565b50505b505050565b815167ffffffffffffffff811115610b0457610b04610a8a565b610b1881610b128454610a2e565b84610a9e565b602080601f831160018114610b4b575f8415610b345750858301515b5f19600386901b1c1916600185901b178555610ba2565b5f85815260208120601f198616915b82811015610b7957888601518255948401946001909101908401610b5a565b5085821015610b9657878501515f19600388901b60f8161c191681555b505060018460011b0185555b505050505050565b83815260406020820152816040820152818360608301375f818301606090810191909152601f909201601f1916010192915050565b60208082526022908201527f53696d706c6544414f3a2070726f706f73616c20646f6573206e6f74206578696040820152611cdd60f21b60608201526080019056fea26469706673582212208697a409ce4b82eda8913bf97f372b2f95203d5a55eda710d311d26f384b688464736f6c63430008180033","linkReferences":{}},"methodIdentifiers":{"approveProposal(uint256)":"98951b56","cashFlowEngine()":"fee7ad5a","createProposal(uint256,string)":"02d52fa4","getProposal(uint256)":"c7f758a8","isProposalApproved(uint256)":"9abcc0cc","owner()":"8da5cb5b","proposalCount()":"da35c664","proposals(uint256)":"013cf08b","renounceOwnership()":"715018a6","setCashFlowEngine(address)":"feab8939","transferOwnership(address)":"f2fde38b"},"id":5}