{"abi":[{"type":"constructor","inputs":[{"name":"initialOwner","type":"address","internalType":"address"}],"stateMutability":"nonpayable"},{"type":"function","name":"allowance","inputs":[{"name":"owner","type":"address","internalType":"address"},{"name":"spender","type":"address","internalType":"address"}],"outputs":[{"name":"","type":"uint256","internalType":"uint256"}],"stateMutability":"view"},{"type":"function","name":"approve","inputs":[{"name":"spender","type":"address","internalType":"address"},{"name":"value","type":"uint256","internalType":"uint256"}],"outputs":[{"name":"","type":"bool","internalType":"bool"}],"stateMutability":"nonpayable"},{"type":"function","name":"balanceOf","inputs":[{"name":"account","type":"address","internalType":"address"}],"outputs":[{"name":"","type":"uint256","internalType":"uint256"}],"stateMutability":"view"},{"type":"function","name":"decimals","inputs":[],"outputs":[{"name":"","type":"uint8","internalType":"uint8"}],"stateMutability":"view"},{"type":"function","name":"initialize","inputs":[{"name":"_propertyNFT","type":"address","internalType":"address"},{"name":"_propertyId","type":"uint256","internalType":"uint256"},{"name":"totalSupply","type":"uint256","internalType":"uint256"},{"name":"initialOwner","type":"address","internalType":"address"}],"outputs":[],"stateMutability":"nonpayable"},{"type":"function","name":"initialized","inputs":[],"outputs":[{"name":"","type":"bool","internalType":"bool"}],"stateMutability":"view"},{"type":"function","name":"isInitialized","inputs":[],"outputs":[{"name":"","type":"bool","internalType":"bool"}],"stateMutability":"view"},{"type":"function","name":"name","inputs":[],"outputs":[{"name":"","type":"string","internalType":"string"}],"stateMutability":"view"},{"type":"function","name":"owner","inputs":[],"outputs":[{"name":"","type":"address","internalType":"address"}],"stateMutability":"view"},{"type":"function","name":"propertyId","inputs":[],"outputs":[{"name":"","type":"uint256","internalType":"uint256"}],"stateMutability":"view"},{"type":"function","name":"propertyNFT","inputs":[],"outputs":[{"name":"","type":"address","internalType":"address"}],"stateMutability":"view"},{"type":"function","name":"renounceOwnership","inputs":[],"outputs":[],"stateMutability":"nonpayable"},{"type":"function","name":"symbol","inputs":[],"outputs":[{"name":"","type":"string","internalType":"string"}],"stateMutability":"view"},{"type":"function","name":"totalSupply","inputs":[],"outputs":[{"name":"","type":"uint256","internalType":"uint256"}],"stateMutability":"view"},{"type":"function","name":"transfer","inputs":[{"name":"to","type":"address","internalType":"address"},{"name":"value","type":"uint256","internalType":"uint256"}],"outputs":[{"name":"","type":"bool","internalType":"bool"}],"stateMutability":"nonpayable"},{"type":"function","name":"transferFrom","inputs":[{"name":"from","type":"address","internalType":"address"},{"name":"to","type":"address","internalType":"address"},{"name":"value","type":"uint256","internalType":"uint256"}],"outputs":[{"name":"","type":"bool","internalType":"bool"}],"stateMutability":"nonpayable"},{"type":"function","name":"transferOwnership","inputs":[{"name":"newOwner","type":"address","internalType":"address"}],"outputs":[],"stateMutability":"nonpayable"},{"type":"event","name":"Approval","inputs":[{"name":"owner","type":"address","indexed":true,"internalType":"address"},{"name":"spender","type":"address","indexed":true,"internalType":"address"},{"name":"value","type":"uint256","indexed":false,"internalType":"uint256"}],"anonymous":false},{"type":"event","name":"OwnershipTransferred","inputs":[{"name":"previousOwner","type":"address","indexed":true,"internalType":"address"},{"name":"newOwner","type":"address","indexed":true,"internalType":"address"}],"anonymous":false},{"type":"event","name":"Transfer","inputs":[{"name":"from","type":"address","indexed":true,"internalType":"address"},{"name":"to","type":"address","indexed":true,"internalType":"address"},{"name":"value","type":"uint256","indexed":false,"internalType":"uint256"}],"anonymous":false},{"type":"error","name":"ERC20InsufficientAllowance","inputs":[{"name":"spender","type":"address","internalType":"address"},{"name":"allowance","type":"uint256","internalType":"uint256"},{"name":"needed","type":"uint256","internalType":"uint256"}]},{"type":"error","name":"ERC20InsufficientBalance","inputs":[{"name":"sender","type":"address","internalType":"address"},{"name":"balance","type":"uint256","internalType":"uint256"},{"name":"needed","type":"uint256","internalType":"uint256"}]},{"type":"error","name":"ERC20InvalidApprover","inputs":[{"name":"approver","type":"address","internalType":"address"}]},{"type":"error","name":"ERC20InvalidReceiver","inputs":[{"name":"receiver","type":"address","internalType":"address"}]},{"type":"error","name":"ERC20InvalidSender","inputs":[{"name":"sender","type":"address","internalType":"address"}]},{"type":"error","name":"ERC20InvalidSpender","inputs":[{"name":"spender","type":"address","internalType":"address"}]},{"type":"error","name":"OwnableInvalidOwner","inputs":[{"name":"owner","type":"address","internalType":"address"}]},{"type":"error","name":"OwnableUnauthorizedAccount","inputs":[{"name":"account","type":"address","internalType":"address"}]}],"bytecode":{"object":"0x608060405234801562000010575f80fd5b5060405162000df838038062000df8833981016040819052620000339162000130565b806040518060400160405280600f81526020016e50726f70657274792053686172657360881b8152506040518060400160405280600681526020016550534841524560d01b81525081600390816200008c9190620001fd565b5060046200009b8282620001fd565b5050506001600160a01b038116620000cc57604051631e4fbdf760e01b81525f600482015260240160405180910390fd5b620000d781620000df565b5050620002c9565b600580546001600160a01b038381166001600160a01b0319831681179093556040519116919082907f8be0079c531659141344cd1fd0a4f28419497f9722a3daafe3b4186f6b6457e0905f90a35050565b5f6020828403121562000141575f80fd5b81516001600160a01b038116811462000158575f80fd5b9392505050565b634e487b7160e01b5f52604160045260245ffd5b600181811c908216806200018857607f821691505b602082108103620001a757634e487b7160e01b5f52602260045260245ffd5b50919050565b601f821115620001f857805f5260205f20601f840160051c81016020851015620001d45750805b601f840160051c820191505b81811015620001f5575f8155600101620001e0565b50505b505050565b81516001600160401b038111156200021957620002196200015f565b62000231816200022a845462000173565b84620001ad565b602080601f83116001811462000267575f84156200024f5750858301515b5f19600386901b1c1916600185901b178555620002c1565b5f85815260208120601f198616915b82811015620002975788860151825594840194600190910190840162000276565b5085821015620002b557878501515f19600388901b60f8161c191681555b505060018460011b0185555b505050505050565b610b2180620002d75f395ff3fe608060405234801561000f575f80fd5b5060043610610106575f3560e01c806370a082311161009e5780639e3d87cd1161006e5780639e3d87cd1461020d578063a9059cbb14610220578063dd62ed3e14610233578063ee7a3b8e1461026b578063f2fde38b14610274575f80fd5b806370a08231146101c2578063715018a6146101ea5780638da5cb5b146101f457806395d89b4114610205575f80fd5b806323b872dd116100d957806323b872dd1461016a578063313ce5671461017d57806337f768381461018c578063392e53cd146101b7575f80fd5b806306fdde031461010a578063095ea7b314610128578063158ef93e1461014b57806318160ddd14610158575b5f80fd5b610112610287565b60405161011f9190610938565b60405180910390f35b61013b61013636600461099f565b610317565b604051901515815260200161011f565b60085461013b9060ff1681565b6002545b60405190815260200161011f565b61013b6101783660046109c7565b610330565b6040516012815260200161011f565b60065461019f906001600160a01b031681565b6040516001600160a01b03909116815260200161011f565b60085460ff1661013b565b61015c6101d0366004610a00565b6001600160a01b03165f9081526020819052604090205490565b6101f2610353565b005b6005546001600160a01b031661019f565b610112610366565b6101f261021b366004610a20565b610375565b61013b61022e36600461099f565b61055b565b61015c610241366004610a63565b6001600160a01b039182165f90815260016020908152604080832093909416825291909152205490565b61015c60075481565b6101f2610282366004610a00565b610568565b60606003805461029690610a94565b80601f01602080910402602001604051908101604052809291908181526020018280546102c290610a94565b801561030d5780601f106102e45761010080835404028352916020019161030d565b820191905f5260205f20905b8154815290600101906020018083116102f057829003601f168201915b5050505050905090565b5f336103248185856105a5565b60019150505b92915050565b5f3361033d8582856105b7565b61034885858561062d565b506001949350505050565b61035b61068a565b6103645f6106b7565b565b60606004805461029690610a94565b61037d61068a565b60085460ff16156103e15760405162461bcd60e51b815260206004820152602360248201527f50726f70657274795368617265733a20616c726561647920696e697469616c696044820152621e995960ea1b60648201526084015b60405180910390fd5b6001600160a01b03841661044c5760405162461bcd60e51b815260206004820152602c60248201527f50726f70657274795368617265733a20696e76616c69642070726f706572747960448201526b204e4654206164647265737360a01b60648201526084016103d8565b5f82116104ba5760405162461bcd60e51b815260206004820152603660248201527f50726f70657274795368617265733a20746f74616c20737570706c79206d7573604482015275742062652067726561746572207468616e207a65726f60501b60648201526084016103d8565b6001600160a01b03811661051e5760405162461bcd60e51b815260206004820152602560248201527f50726f70657274795368617265733a20696e76616c696420696e697469616c2060448201526437bbb732b960d91b60648201526084016103d8565b600680546001600160a01b0319166001600160a01b03861617905560078390556008805460ff191660011790556105558183610708565b50505050565b5f3361032481858561062d565b61057061068a565b6001600160a01b03811661059957604051631e4fbdf760e01b81525f60048201526024016103d8565b6105a2816106b7565b50565b6105b28383836001610740565b505050565b6001600160a01b038381165f908152600160209081526040808320938616835292905220545f19811015610555578181101561061f57604051637dc7a0d960e11b81526001600160a01b038416600482015260248101829052604481018390526064016103d8565b61055584848484035f610740565b6001600160a01b03831661065657604051634b637e8f60e11b81525f60048201526024016103d8565b6001600160a01b03821661067f5760405163ec442f0560e01b81525f60048201526024016103d8565b6105b2838383610812565b6005546001600160a01b031633146103645760405163118cdaa760e01b81523360048201526024016103d8565b600580546001600160a01b038381166001600160a01b0319831681179093556040519116919082907f8be0079c531659141344cd1fd0a4f28419497f9722a3daafe3b4186f6b6457e0905f90a35050565b6001600160a01b0382166107315760405163ec442f0560e01b81525f60048201526024016103d8565b61073c5f8383610812565b5050565b6001600160a01b0384166107695760405163e602df0560e01b81525f60048201526024016103d8565b6001600160a01b03831661079257604051634a1406b160e11b81525f60048201526024016103d8565b6001600160a01b038085165f908152600160209081526040808320938716835292905220829055801561055557826001600160a01b0316846001600160a01b03167f8c5be1e5ebec7d5bd14f71427d1e84f3dd0314c0f7b2291e5b200ac8c7c3b9258460405161080491815260200190565b60405180910390a350505050565b6001600160a01b03831661083c578060025f8282546108319190610acc565b909155506108ac9050565b6001600160a01b0383165f908152602081905260409020548181101561088e5760405163391434e360e21b81526001600160a01b038516600482015260248101829052604481018390526064016103d8565b6001600160a01b0384165f9081526020819052604090209082900390555b6001600160a01b0382166108c8576002805482900390556108e6565b6001600160a01b0382165f9081526020819052604090208054820190555b816001600160a01b0316836001600160a01b03167fddf252ad1be2c89b69c2b068fc378daa952ba7f163c4a11628f55a4df523b3ef8360405161092b91815260200190565b60405180910390a3505050565b5f602080835283518060208501525f5b8181101561096457858101830151858201604001528201610948565b505f604082860101526040601f19601f8301168501019250505092915050565b80356001600160a01b038116811461099a575f80fd5b919050565b5f80604083850312156109b0575f80fd5b6109b983610984565b946020939093013593505050565b5f805f606084860312156109d9575f80fd5b6109e284610984565b92506109f060208501610984565b9150604084013590509250925092565b5f60208284031215610a10575f80fd5b610a1982610984565b9392505050565b5f805f8060808587031215610a33575f80fd5b610a3c85610984565b93506020850135925060408501359150610a5860608601610984565b905092959194509250565b5f8060408385031215610a74575f80fd5b610a7d83610984565b9150610a8b60208401610984565b90509250929050565b600181811c90821680610aa857607f821691505b602082108103610ac657634e487b7160e01b5f52602260045260245ffd5b50919050565b8082018082111561032a57634e487b7160e01b5f52601160045260245ffdfea2646970667358221220948d1b1617849a0ecad9f6daff743fe7ed5b92120de0117124042655675231a664736f6c63430008180033","linkReferences":{}},"methodIdentifiers":{"allowance(address,address)":"dd62ed3e","approve(address,uint256)":"095ea7b3","balanceOf(address)":"70a08231","decimals()":"313ce567","initialize(address,uint256,uint256,address)":"9e3d87cd","initialized()":"158ef93e","isInitialized()":"392e53cd","name()":"06fdde03","owner()":"8da5cb5b","propertyId()":"ee7a3b8e","propertyNFT()":"37f76838","renounceOwnership()":"715018a6","symbol()":"95d89b41","totalSupply()":"18160ddd","transfer(address,uint256)":"a9059cbb","transferFrom(address,address,uint256)":"23b872dd","transferOwnership(address)":"f2fde38b"},"id":3}