{"abi":[{"type":"constructor","inputs":[{"name":"initialOwner","type":"address","internalType":"address"}],"stateMutability":"nonpayable"},{"type":"function","name":"cashFlowEngine","inputs":[],"outputs":[{"name":"","type":"address","internalType":"contract CashFlowEngine"}],"stateMutability":"view"},{"type":"function","name":"claimYield","inputs":[{"name":"period","type":"uint256","internalType":"uint256"}],"outputs":[],"stateMutability":"nonpayable"},{"type":"function","name":"claimedPerPeriod","inputs":[{"name":"","type":"uint256","internalType":"uint256"},{"name":"","type":"address","internalType":"address"}],"outputs":[{"name":"","type":"uint256","internalType":"uint256"}],"stateMutability":"view"},{"type":"function","name":"currentDistributionPeriod","inputs":[],"outputs":[{"name":"","type":"uint256","internalType":"uint256"}],"stateMutability":"view"},{"type":"function","name":"distributeYield","inputs":[],"outputs":[],"stateMutability":"nonpayable"},{"type":"function","name":"emergencyWithdraw","inputs":[{"name":"to","type":"address","internalType":"address"},{"name":"amount","type":"uint256","internalType":"uint256"}],"outputs":[],"stateMutability":"nonpayable"},{"type":"function","name":"getClaimableYield","inputs":[{"name":"user","type":"address","internalType":"address"},{"name":"period","type":"uint256","internalType":"uint256"}],"outputs":[{"name":"","type":"uint256","internalType":"uint256"}],"stateMutability":"view"},{"type":"function","name":"getCurrentPeriod","inputs":[],"outputs":[{"name":"","type":"uint256","internalType":"uint256"}],"stateMutability":"view"},{"type":"function","name":"initialize","inputs":[{"name":"_propertyShares","type":"address","internalType":"address"},{"name":"_cashFlowEngine","type":"address","internalType":"address"},{"name":"_rentVault","type":"address","internalType":"address"}],"outputs":[],"stateMutability":"nonpayable"},{"type":"function","name":"owner","inputs":[],"outputs":[{"name":"","type":"address","internalType":"address"}],"stateMutability":"view"},{"type":"function","name":"propertyShares","inputs":[],"outputs":[{"name":"","type":"address","internalType":"contract PropertyShares"}],"stateMutability":"view"},{"type":"function","name":"renounceOwnership","inputs":[],"outputs":[],"stateMutability":"nonpayable"},{"type":"function","name":"rentVault","inputs":[],"outputs":[{"name":"","type":"address","internalType":"contract RentVault"}],"stateMutability":"view"},{"type":"function","name":"resetDistributionPeriod","inputs":[],"outputs":[],"stateMutability":"nonpayable"},{"type":"function","name":"snapshotTotalSupply","inputs":[{"name":"","type":"uint256","internalType":"uint256"}],"outputs":[{"name":"","type":"uint256","internalType":"uint256"}],"stateMutability":"view"},{"type":"function","name":"totalDistributablePerPeriod","inputs":[{"name":"","type":"uint256","internalType":"uint256"}],"outputs":[{"name":"","type":"uint256","internalType":"uint256"}],"stateMutability":"view"},{"type":"function","name":"transferOwnership","inputs":[{"name":"newOwner","type":"address","internalType":"address"}],"outputs":[],"stateMutability":"nonpayable"},{"type":"event","name":"DistributionPeriodReset","inputs":[{"name":"newPeriod","type":"uint256","indexed":false,"internalType":"uint256"}],"anonymous":false},{"type":"event","name":"OwnershipTransferred","inputs":[{"name":"previousOwner","type":"address","indexed":true,"internalType":"address"},{"name":"newOwner","type":"address","indexed":true,"internalType":"address"}],"anonymous":false},{"type":"event","name":"YieldClaimed","inputs":[{"name":"claimant","type":"address","indexed":true,"internalType":"address"},{"name":"period","type":"uint256","indexed":true,"internalType":"uint256"},{"name":"amount","type":"uint256","indexed":false,"internalType":"uint256"}],"anonymous":false},{"type":"event","name":"YieldDistributed","inputs":[{"name":"period","type":"uint256","indexed":true,"internalType":"uint256"},{"name":"totalAmount","type":"uint256","indexed":false,"internalType":"uint256"},{"name":"totalSupply","type":"uint256","indexed":false,"internalType":"uint256"}],"anonymous":false},{"type":"error","name":"OwnableInvalidOwner","inputs":[{"name":"owner","type":"address","internalType":"address"}]},{"type":"error","name":"OwnableUnauthorizedAccount","inputs":[{"name":"account","type":"address","internalType":"address"}]},{"type":"error","name":"ReentrancyGuardReentrantCall","inputs":[]}],"bytecode":{"object":"0x6080346100dd57601f61117b38819003918201601f19168301916001600160401b038311848410176100e1578084926020946040528339810103126100dd57516001600160a01b0390818116908190036100dd5780156100c5575f80546001600160a01b03198116831782556040519316907f8be0079c531659141344cd1fd0a4f28419497f9722a3daafe3b4186f6b6457e09080a360017f9b779b17422d0df92223018b32b4d1fa46e071723d6817e2486d003becc55f005561108590816100f68239f35b604051631e4fbdf760e01b81525f6004820152602490fd5b5f80fd5b634e487b7160e01b5f52604160045260245ffdfe6080604081815260049081361015610015575f80fd5b5f925f3560e01c908163086146d214610d5e57508063350415af14610d2f57806340bd2e23146109a45780635ee7a9421461097d5780636128ce501461093e578063715018a6146108fa5780637964293c146108d25780638109873c146108ab5780638a570a12146104f05780638da5cb5b146104c857806395ccea67146103cd578063967a1d45146103af5780639c9c5d0c14610386578063c0c53b8b146101e9578063f2fde38b14610176578063fee7ad5a146101495763ff86ad55146100dc575f80fd5b346101455782600319360112610145576100f4610fe4565b81545f198114610132579160209160017f836e7fc3eb64d45400ae2936f7d89cb08de8febae9a61c9ed58f0cd2afad6072940180925551908152a180f35b634e487b7160e01b845260118352602484fd5b8280fd5b83823461017257816003193601126101725760025490516001600160a01b039091168152602090f35b5080fd5b50903461014557602036600319011261014557610191610d78565b9061019a610fe4565b6001600160a01b039182169283156101d35750505f548260018060a01b03198216175f55165f805160206110108339815191525f80a380f35b51631e4fbdf760e01b8152908101849052602490fd5b50903461014557606036600319011261014557610204610d78565b9161020d610d8e565b6001600160a01b036044358181169592949290869003610382578190610231610fe4565b1693841561032557169182156102c757841561026f57505060018060a01b031991826001541617600155816002541617600255600354161760035580f35b906020608492519162461bcd60e51b8352820152602c60248201527f5969656c644469737472696275746f723a20696e76616c69642072656e74207660448201526b61756c74206164647265737360a01b6064820152fd5b906020608492519162461bcd60e51b8352820152603260248201527f5969656c644469737472696275746f723a20696e76616c6964206361736820666044820152716c6f7720656e67696e65206164647265737360701b6064820152fd5b835162461bcd60e51b8152602081850152603160248201527f5969656c644469737472696275746f723a20696e76616c69642070726f706572604482015270747920736861726573206164647265737360781b6064820152608490fd5b5f80fd5b83823461017257816003193601126101725760035490516001600160a01b039091168152602090f35b50903461014557826003193601126101455760209250549051908152f35b50346101455780600319360112610145576103e6610d78565b91602435926103f3610fe4565b6001600160a01b03169182156104795783471061042757846104248180808089895af161041e610f21565b50610f5f565b80f35b906020608492519162461bcd60e51b8352820152602660248201527f5969656c644469737472696275746f723a20696e73756666696369656e742062604482015265616c616e636560d01b6064820152fd5b906020608492519162461bcd60e51b8352820152602360248201527f5969656c644469737472696275746f723a20696e76616c696420726563697069604482015262195b9d60ea1b6064820152fd5b838234610172578160031936011261017257905490516001600160a01b039091168152602090f35b509034610382575f3660031901126103825761050a610fe4565b610512610fb5565b6002548251636a18890b60e11b8152602093916001600160a01b0390859083908690829085165afa9182156108a1575f92610872575b50811561081a5780858592600154168551938480926318160ddd60e01b82525afa918215610810575f926107e1575b5081156107945784545f526007865281845f205584545f526005865282845f205584868260035416865192838092629032ff60e51b82525afa90811561070057908892915f91610763575b50808511610669575b5060035416803b1561017257818091604487518094819363f3fef3a360e01b8352308c8401528960248401525af1801561065f57610647575b50507ff571bb88b0ec5dc25398fc62c69d5970d50ea313a0a6596b0ca7f0197d37383f9354948351928352820152a260015f805160206110308339815191525580f35b61065090610da4565b61065b57855f610604565b8580fd5b85513d84823e3d90fd5b9091508303838111610750578587836002541687519283809263a1df2abb60e01b82525afa9081156107465790899392915f9161070a575b50821690816106b1575b506105cb565b90809293503b15610382575f91602483928851948593849263d9b3e92f60e01b84528c8401525af18015610700576106ed575b908188926106ab565b6106f8919750610da4565b5f955f6106e4565b85513d5f823e3d90fd5b80929450898092503d831161073f575b6107248183610dcb565b810103126103825751918183168303610382578892826106a1565b503d61071a565b86513d5f823e3d90fd5b601186634e487b7160e01b5f525260245ffd5b809350888092503d831161078d575b61077c8183610dcb565b81010312610382578791515f6105c2565b503d610772565b835162461bcd60e51b8152808601879052602160248201527f5969656c644469737472696275746f723a206e6f2073686172657320657869736044820152601d60fa1b6064820152608490fd5b9091508581813d8311610809575b6107f98183610dcb565b810103126103825751905f610577565b503d6107ef565b84513d5f823e3d90fd5b825162461bcd60e51b8152808501869052602c60248201527f5969656c644469737472696275746f723a206e6f20646973747269627574616260448201526b6c65206361736820666c6f7760a01b6064820152608490fd5b9091508481813d831161089a575b61088a8183610dcb565b810103126103825751905f610548565b503d610880565b83513d5f823e3d90fd5b503461038257602036600319011261038257602091355f5260058252805f20549051908152f35b5034610382575f3660031901126103825760015490516001600160a01b039091168152602090f35b34610382575f36600319011261038257610912610fe4565b5f80546001600160a01b0319811682556001600160a01b03165f805160206110108339815191528280a3005b503461038257806003193601126103825760209161095a610d8e565b90355f5260068352815f209060018060a01b03165f528252805f20549051908152f35b503461038257602036600319011261038257602091355f5260078252805f20549051908152f35b50903461038257602080600319360112610382578135916109c3610fb5565b80548311610cdd57825f5260058252835f205415610c895760015484516370a0823160e01b81523381840152602493929183908290869082906001600160a01b03165afa908115610746575f91610c5c575b508015610c0a57845f5260068352855f20335f528352855f2054610bbf57845f5260078352855f2054908115610b725790610a5d610a6292875f5260058652885f2054610dee565b610e15565b928315610b2157834710610ad65750507f10d8dedfc0745b8c25ba10b06e304138b251c18dcaadf2d71c7f3214719dc4d19084845f5260068252805f20335f52825283815f2055610abc5f80808088335af161041e610f21565b519283523392a360015f8051602061103083398151915255005b60849286519262461bcd60e51b8452830152808201527f5969656c644469737472696275746f723a20696e73756666696369656e742066604482015263756e647360e01b6064820152fd5b60289060849387519362461bcd60e51b85528401528201527f5969656c644469737472696275746f723a207969656c6420616d6f756e7420746044820152671bdbc81cdb585b1b60c21b6064820152fd5b865162461bcd60e51b81528084018590526022818701527f5969656c644469737472696275746f723a20696e76616c696420736e617073686044820152611bdd60f21b6064820152608490fd5b5060218360849387519362461bcd60e51b85528401528201527f5969656c644469737472696275746f723a20616c726561647920636c61696d656044820152601960fa1b6064820152fd5b5060288360849387519362461bcd60e51b85528401528201527f5969656c644469737472696275746f723a206e6f2073686172657320746f20636044820152673630b4b6903337b960c11b6064820152fd5b90508281813d8311610c82575b610c738183610dcb565b81010312610382575186610a15565b503d610c69565b60849184519162461bcd60e51b8352820152602a60248201527f5969656c644469737472696275746f723a206e6f207969656c6420666f7220746044820152691a1a5cc81c195c9a5bd960b21b6064820152fd5b60849184519162461bcd60e51b8352820152602860248201527f5969656c644469737472696275746f723a20706572696f64206e6f74206469736044820152671d1c9a589d5d195960c21b6064820152fd5b5034610382578060031936011261038257602090610d57610d4e610d78565b60243590610e33565b9051908152f35b839034610382575f36600319011261038257602091548152f35b600435906001600160a01b038216820361038257565b602435906001600160a01b038216820361038257565b6001600160401b038111610db757604052565b634e487b7160e01b5f52604160045260245ffd5b601f909101601f19168101906001600160401b03821190821017610db757604052565b81810292918115918404141715610e0157565b634e487b7160e01b5f52601160045260245ffd5b8115610e1f570490565b634e487b7160e01b5f52601260045260245ffd5b60045482118015610f0d575b610f0757815f52602060068152604092835f209260018060a01b0380911693845f528352845f2054610efe578290600154169360248651809681936370a0823160e01b835260048301525afa928315610810575f93610ecf575b508215610ec7575f5260078152825f2054918215610ec757610ec4936005610a5d93525f2054610dee565b90565b505050505f90565b9092508181813d8311610ef7575b610ee78183610dcb565b810103126103825751915f610e99565b503d610edd565b50505050505f90565b50505f90565b50815f52600560205260405f205415610e3f565b3d15610f5a573d906001600160401b038211610db75760405191610f4f601f8201601f191660200184610dcb565b82523d5f602084013e565b606090565b15610f6657565b60405162461bcd60e51b815260206004820152602160248201527f5969656c644469737472696275746f723a207472616e73666572206661696c656044820152601960fa1b6064820152608490fd5b5f805160206110308339815191526002815414610fd25760029055565b604051633ee5aeb560e01b8152600490fd5b5f546001600160a01b03163303610ff757565b60405163118cdaa760e01b8152336004820152602490fdfe8be0079c531659141344cd1fd0a4f28419497f9722a3daafe3b4186f6b6457e09b779b17422d0df92223018b32b4d1fa46e071723d6817e2486d003becc55f00a2646970667358221220a8ef8fb3a871a423edd2f20532e667029d81cb1d078c7acae0a65e746f2f9fad64736f6c63430008180033","linkReferences":{}},"methodIdentifiers":{"cashFlowEngine()":"fee7ad5a","claimYield(uint256)":"40bd2e23","claimedPerPeriod(uint256,address)":"6128ce50","currentDistributionPeriod()":"967a1d45","distributeYield()":"8a570a12","emergencyWithdraw(address,uint256)":"95ccea67","getClaimableYield(address,uint256)":"350415af","getCurrentPeriod()":"086146d2","initialize(address,address,address)":"c0c53b8b","owner()":"8da5cb5b","propertyShares()":"7964293c","renounceOwnership()":"715018a6","rentVault()":"9c9c5d0c","resetDistributionPeriod()":"ff86ad55","snapshotTotalSupply(uint256)":"5ee7a942","totalDistributablePerPeriod(uint256)":"8109873c","transferOwnership(address)":"f2fde38b"},"id":9}