{"abi":[{"type":"constructor","inputs":[{"name":"initialOwner","type":"address","internalType":"address"}],"stateMutability":"nonpayable"},{"type":"function","name":"cashFlowEngine","inputs":[],"outputs":[{"name":"","type":"address","internalType":"contract CashFlowEngine"}],"stateMutability":"view"},{"type":"function","name":"claimYield","inputs":[{"name":"period","type":"uint256","internalType":"uint256"}],"outputs":[],"stateMutability":"nonpayable"},{"type":"function","name":"claimedPerPeriod","inputs":[{"name":"","type":"uint256","internalType":"uint256"},{"name":"","type":"address","internalType":"address"}],"outputs":[{"name":"","type":"uint256","internalType":"uint256"}],"stateMutability":"view"},{"type":"function","name":"currentDistributionPeriod","inputs":[],"outputs":[{"name":"","type":"uint256","internalType":"uint256"}],"stateMutability":"view"},{"type":"function","name":"distributeYield","inputs":[],"outputs":[],"stateMutability":"nonpayable"},{"type":"function","name":"emergencyWithdraw","inputs":[{"name":"to","type":"address","internalType":"address"},{"name":"amount","type":"uint256","internalType":"uint256"}],"outputs":[],"stateMutability":"nonpayable"},{"type":"function","name":"getClaimableYield","inputs":[{"name":"user","type":"address","internalType":"address"},{"name":"period","type":"uint256","internalType":"uint256"}],"outputs":[{"name":"","type":"uint256","internalType":"uint256"}],"stateMutability":"view"},{"type":"function","name":"getCurrentPeriod","inputs":[],"outputs":[{"name":"","type":"uint256","internalType":"uint256"}],"stateMutability":"view"},{"type":"function","name":"initialize","inputs":[{"name":"_propertyShares","type":"address","internalType":"address"},{"name":"_cashFlowEngine","type":"address","internalType":"address"},{"name":"_rentVault","type":"address","internalType":"address"},{"name":"_usdc","type":"address","internalType":"address"}],"outputs":[],"stateMutability":"nonpayable"},{"type":"function","name":"owner","inputs":[],"outputs":[{"name":"","type":"address","internalType":"address"}],"stateMutability":"view"},{"type":"function","name":"propertyShares","inputs":[],"outputs":[{"name":"","type":"address","internalType":"contract PropertyShares"}],"stateMutability":"view"},{"type":"function","name":"renounceOwnership","inputs":[],"outputs":[],"stateMutability":"nonpayable"},{"type":"function","name":"rentVault","inputs":[],"outputs":[{"name":"","type":"address","internalType":"contract RentVault"}],"stateMutability":"view"},{"type":"function","name":"resetDistributionPeriod","inputs":[],"outputs":[],"stateMutability":"nonpayable"},{"type":"function","name":"snapshotTotalSupply","inputs":[{"name":"","type":"uint256","internalType":"uint256"}],"outputs":[{"name":"","type":"uint256","internalType":"uint256"}],"stateMutability":"view"},{"type":"function","name":"totalDistributablePerPeriod","inputs":[{"name":"","type":"uint256","internalType":"uint256"}],"outputs":[{"name":"","type":"uint256","internalType":"uint256"}],"stateMutability":"view"},{"type":"function","name":"transferOwnership","inputs":[{"name":"newOwner","type":"address","internalType":"address"}],"outputs":[],"stateMutability":"nonpayable"},{"type":"function","name":"usdc","inputs":[],"outputs":[{"name":"","type":"address","internalType":"contract IERC20"}],"stateMutability":"view"},{"type":"event","name":"DistributionPeriodReset","inputs":[{"name":"newPeriod","type":"uint256","indexed":false,"internalType":"uint256"}],"anonymous":false},{"type":"event","name":"OwnershipTransferred","inputs":[{"name":"previousOwner","type":"address","indexed":true,"internalType":"address"},{"name":"newOwner","type":"address","indexed":true,"internalType":"address"}],"anonymous":false},{"type":"event","name":"YieldClaimed","inputs":[{"name":"claimant","type":"address","indexed":true,"internalType":"address"},{"name":"period","type":"uint256","indexed":true,"internalType":"uint256"},{"name":"amount","type":"uint256","indexed":false,"internalType":"uint256"}],"anonymous":false},{"type":"event","name":"YieldDistributed","inputs":[{"name":"period","type":"uint256","indexed":true,"internalType":"uint256"},{"name":"totalAmount","type":"uint256","indexed":false,"internalType":"uint256"},{"name":"totalSupply","type":"uint256","indexed":false,"internalType":"uint256"}],"anonymous":false},{"type":"error","name":"OwnableInvalidOwner","inputs":[{"name":"owner","type":"address","internalType":"address"}]},{"type":"error","name":"OwnableUnauthorizedAccount","inputs":[{"name":"account","type":"address","internalType":"address"}]},{"type":"error","name":"ReentrancyGuardReentrantCall","inputs":[]},{"type":"error","name":"SafeERC20FailedOperation","inputs":[{"name":"token","type":"address","internalType":"address"}]}],"bytecode":{"object":"0x608060405234801561000f575f80fd5b5060405161138e38038061138e83398101604081905261002e916100df565b806001600160a01b03811661005c57604051631e4fbdf760e01b81525f600482015260240160405180910390fd5b61006581610090565b5060017f9b779b17422d0df92223018b32b4d1fa46e071723d6817e2486d003becc55f00555061010c565b5f80546001600160a01b038381166001600160a01b0319831681178455604051919092169283917f8be0079c531659141344cd1fd0a4f28419497f9722a3daafe3b4186f6b6457e09190a35050565b5f602082840312156100ef575f80fd5b81516001600160a01b0381168114610105575f80fd5b9392505050565b611275806101195f395ff3fe608060405234801561000f575f80fd5b5060043610610111575f3560e01c80638a570a121161009e5780639c9c5d0c1161006e5780639c9c5d0c14610236578063f2fde38b14610249578063f8c8765e1461025c578063fee7ad5a1461026f578063ff86ad5514610282575f80fd5b80638a570a12146102025780638da5cb5b1461020a57806395ccea671461021a578063967a1d451461022d575f80fd5b80635ee7a942116100e45780635ee7a9421461017f5780636128ce501461019e578063715018a6146101c85780637964293c146101d05780638109873c146101e3575f80fd5b8063086146d214610115578063350415af1461012c5780633e413bee1461013f57806340bd2e231461016a575b5f80fd5b6005545b6040519081526020015b60405180910390f35b61011961013a36600461108e565b61028a565b600454610152906001600160a01b031681565b6040516001600160a01b039091168152602001610123565b61017d6101783660046110b8565b6103ae565b005b61011961018d3660046110b8565b60086020525f908152604090205481565b6101196101ac3660046110cf565b600760209081525f928352604080842090915290825290205481565b61017d610805565b600154610152906001600160a01b031681565b6101196101f13660046110b8565b60066020525f908152604090205481565b61017d610818565b5f546001600160a01b0316610152565b61017d61022836600461108e565b610bf8565b61011960055481565b600354610152906001600160a01b031681565b61017d6102573660046110fd565b610c7d565b61017d61026a36600461111f565b610cb7565b600254610152906001600160a01b031681565b61017d610ec0565b5f6005548211806102a657505f82815260066020526040902054155b156102b257505f6103a8565b5f8281526007602090815260408083206001600160a01b0387168452909152902054156102e057505f6103a8565b6001546040516370a0823160e01b81526001600160a01b0385811660048301525f9216906370a0823190602401602060405180830381865afa158015610328573d5f803e3d5ffd5b505050506040513d601f19601f8201168201806040525081019061034c9190611178565b9050805f0361035e575f9150506103a8565b5f838152600860205260408120549081900361037e575f925050506103a8565b5f8481526006602052604090205481906103999084906111a3565b6103a391906111ba565b925050505b92915050565b6103b6610f19565b60055481111561041e5760405162461bcd60e51b815260206004820152602860248201527f5969656c644469737472696275746f723a20706572696f64206e6f74206469736044820152671d1c9a589d5d195960c21b60648201526084015b60405180910390fd5b5f8181526006602052604090205461048b5760405162461bcd60e51b815260206004820152602a60248201527f5969656c644469737472696275746f723a206e6f207969656c6420666f7220746044820152691a1a5cc81c195c9a5bd960b21b6064820152608401610415565b6001546040516370a0823160e01b81523360048201525f916001600160a01b0316906370a0823190602401602060405180830381865afa1580156104d1573d5f803e3d5ffd5b505050506040513d601f19601f820116820180604052508101906104f59190611178565b90505f81116105575760405162461bcd60e51b815260206004820152602860248201527f5969656c644469737472696275746f723a206e6f2073686172657320746f20636044820152673630b4b6903337b960c11b6064820152608401610415565b5f828152600760209081526040808320338452909152902054156105c75760405162461bcd60e51b815260206004820152602160248201527f5969656c644469737472696275746f723a20616c726561647920636c61696d656044820152601960fa1b6064820152608401610415565b5f828152600860205260409020548061062d5760405162461bcd60e51b815260206004820152602260248201527f5969656c644469737472696275746f723a20696e76616c696420736e617073686044820152611bdd60f21b6064820152608401610415565b5f8381526006602052604081205482906106489085906111a3565b61065291906111ba565b90505f81116106b45760405162461bcd60e51b815260206004820152602860248201527f5969656c644469737472696275746f723a207969656c6420616d6f756e7420746044820152671bdbc81cdb585b1b60c21b6064820152608401610415565b600480546040516370a0823160e01b8152309281019290925282916001600160a01b03909116906370a0823190602401602060405180830381865afa1580156106ff573d5f803e3d5ffd5b505050506040513d601f19601f820116820180604052508101906107239190611178565b101561077d5760405162461bcd60e51b8152602060048201526024808201527f5969656c644469737472696275746f723a20696e73756666696369656e742066604482015263756e647360e01b6064820152608401610415565b5f8481526007602090815260408083203380855292529091208290556004546107b2916001600160a01b039091169083610f34565b604051818152849033907f10d8dedfc0745b8c25ba10b06e304138b251c18dcaadf2d71c7f3214719dc4d19060200160405180910390a350505061080260015f8051602061122083398151915255565b50565b61080d610f6e565b6108165f610f9a565b565b610820610f6e565b610828610f19565b60025460408051636a18890b60e11b815290515f926001600160a01b03169163d43112169160048083019260209291908290030181865afa15801561086f573d5f803e3d5ffd5b505050506040513d601f19601f820116820180604052508101906108939190611178565b90505f81116108f95760405162461bcd60e51b815260206004820152602c60248201527f5969656c644469737472696275746f723a206e6f20646973747269627574616260448201526b6c65206361736820666c6f7760a01b6064820152608401610415565b600154604080516318160ddd60e01b815290515f926001600160a01b0316916318160ddd9160048083019260209291908290030181865afa158015610940573d5f803e3d5ffd5b505050506040513d601f19601f820116820180604052508101906109649190611178565b90505f81116109bf5760405162461bcd60e51b815260206004820152602160248201527f5969656c644469737472696275746f723a206e6f2073686172657320657869736044820152601d60fa1b6064820152608401610415565b600580545f90815260086020908152604080832085905592548252600681528282208590556003548351629032ff60e51b8152935192936001600160a01b03909116926312065fe0926004808401939192918290030181865afa158015610a28573d5f803e3d5ffd5b505050506040513d601f19601f82011682018060405250810190610a4c9190611178565b905080831115610b42575f610a6182856111d9565b90505f60025f9054906101000a90046001600160a01b03166001600160a01b031663a1df2abb6040518163ffffffff1660e01b8152600401602060405180830381865afa158015610ab4573d5f803e3d5ffd5b505050506040513d601f19601f82011682018060405250810190610ad891906111ec565b90506001600160a01b03811615610b3f5760405163d9b3e92f60e01b8152600481018390526001600160a01b0382169063d9b3e92f906024015f604051808303815f87803b158015610b28575f80fd5b505af1158015610b3a573d5f803e3d5ffd5b505050505b50505b60035460405163f3fef3a360e01b8152306004820152602481018590526001600160a01b039091169063f3fef3a3906044015f604051808303815f87803b158015610b8b575f80fd5b505af1158015610b9d573d5f803e3d5ffd5b505060055460408051878152602081018790529193507ff571bb88b0ec5dc25398fc62c69d5970d50ea313a0a6596b0ca7f0197d37383f92500160405180910390a250505061081660015f8051602061122083398151915255565b610c00610f6e565b6001600160a01b038216610c625760405162461bcd60e51b815260206004820152602360248201527f5969656c644469737472696275746f723a20696e76616c696420726563697069604482015262195b9d60ea1b6064820152608401610415565b600454610c79906001600160a01b03168383610f34565b5050565b610c85610f6e565b6001600160a01b038116610cae57604051631e4fbdf760e01b81525f6004820152602401610415565b61080281610f9a565b610cbf610f6e565b6001600160a01b038416610d2f5760405162461bcd60e51b815260206004820152603160248201527f5969656c644469737472696275746f723a20696e76616c69642070726f706572604482015270747920736861726573206164647265737360781b6064820152608401610415565b6001600160a01b038316610da05760405162461bcd60e51b815260206004820152603260248201527f5969656c644469737472696275746f723a20696e76616c6964206361736820666044820152716c6f7720656e67696e65206164647265737360701b6064820152608401610415565b6001600160a01b038216610e0b5760405162461bcd60e51b815260206004820152602c60248201527f5969656c644469737472696275746f723a20696e76616c69642072656e74207660448201526b61756c74206164647265737360a01b6064820152608401610415565b6001600160a01b038116610e705760405162461bcd60e51b815260206004820152602660248201527f5969656c644469737472696275746f723a20696e76616c69642055534443206160448201526564647265737360d01b6064820152608401610415565b600180546001600160a01b039586166001600160a01b0319918216179091556002805494861694821694909417909355600380549285169284169290921790915560048054919093169116179055565b610ec8610f6e565b60058054905f610ed783611207565b91905055507f836e7fc3eb64d45400ae2936f7d89cb08de8febae9a61c9ed58f0cd2afad6072600554604051610f0f91815260200190565b60405180910390a1565b610f21610fe9565b60025f8051602061122083398151915255565b610f418383836001611018565b610f6957604051635274afe760e01b81526001600160a01b0384166004820152602401610415565b505050565b5f546001600160a01b031633146108165760405163118cdaa760e01b8152336004820152602401610415565b5f80546001600160a01b038381166001600160a01b0319831681178455604051919092169283917f8be0079c531659141344cd1fd0a4f28419497f9722a3daafe3b4186f6b6457e09190a35050565b5f805160206112208339815191525460020361081657604051633ee5aeb560e01b815260040160405180910390fd5b60405163a9059cbb60e01b5f8181526001600160a01b038616600452602485905291602083604481808b5af1925060015f5114831661106e578383151615611062573d5f823e3d81fd5b5f873b113d1516831692505b60405250949350505050565b6001600160a01b0381168114610802575f80fd5b5f806040838503121561109f575f80fd5b82356110aa8161107a565b946020939093013593505050565b5f602082840312156110c8575f80fd5b5035919050565b5f80604083850312156110e0575f80fd5b8235915060208301356110f28161107a565b809150509250929050565b5f6020828403121561110d575f80fd5b81356111188161107a565b9392505050565b5f805f8060808587031215611132575f80fd5b843561113d8161107a565b9350602085013561114d8161107a565b9250604085013561115d8161107a565b9150606085013561116d8161107a565b939692955090935050565b5f60208284031215611188575f80fd5b5051919050565b634e487b7160e01b5f52601160045260245ffd5b80820281158282048414176103a8576103a861118f565b5f826111d457634e487b7160e01b5f52601260045260245ffd5b500490565b818103818111156103a8576103a861118f565b5f602082840312156111fc575f80fd5b81516111188161107a565b5f600182016112185761121861118f565b506001019056fe9b779b17422d0df92223018b32b4d1fa46e071723d6817e2486d003becc55f00a2646970667358221220f7eb7d75f25d8250afcf9069e733a5e76cb6eac635f0f87ec5b5ed997e15e50e64736f6c63430008180033","linkReferences":{}},"methodIdentifiers":{"cashFlowEngine()":"fee7ad5a","claimYield(uint256)":"40bd2e23","claimedPerPeriod(uint256,address)":"6128ce50","currentDistributionPeriod()":"967a1d45","distributeYield()":"8a570a12","emergencyWithdraw(address,uint256)":"95ccea67","getClaimableYield(address,uint256)":"350415af","getCurrentPeriod()":"086146d2","initialize(address,address,address,address)":"f8c8765e","owner()":"8da5cb5b","propertyShares()":"7964293c","renounceOwnership()":"715018a6","rentVault()":"9c9c5d0c","resetDistributionPeriod()":"ff86ad55","snapshotTotalSupply(uint256)":"5ee7a942","totalDistributablePerPeriod(uint256)":"8109873c","transferOwnership(address)":"f2fde38b","usdc()":"3e413bee"},"id":7}