{"abi":[{"type":"constructor","inputs":[{"name":"initialOwner","type":"address","internalType":"address"}],"stateMutability":"nonpayable"},{"type":"function","name":"cashFlowEngine","inputs":[],"outputs":[{"name":"","type":"address","internalType":"contract CashFlowEngine"}],"stateMutability":"view"},{"type":"function","name":"claimYield","inputs":[{"name":"period","type":"uint256","internalType":"uint256"}],"outputs":[],"stateMutability":"nonpayable"},{"type":"function","name":"claimedPerPeriod","inputs":[{"name":"","type":"uint256","internalType":"uint256"},{"name":"","type":"address","internalType":"address"}],"outputs":[{"name":"","type":"uint256","internalType":"uint256"}],"stateMutability":"view"},{"type":"function","name":"currentDistributionPeriod","inputs":[],"outputs":[{"name":"","type":"uint256","internalType":"uint256"}],"stateMutability":"view"},{"type":"function","name":"distributeYield","inputs":[],"outputs":[],"stateMutability":"nonpayable"},{"type":"function","name":"emergencyWithdraw","inputs":[{"name":"to","type":"address","internalType":"address"},{"name":"amount","type":"uint256","internalType":"uint256"}],"outputs":[],"stateMutability":"nonpayable"},{"type":"function","name":"getClaimableYield","inputs":[{"name":"user","type":"address","internalType":"address"},{"name":"period","type":"uint256","internalType":"uint256"}],"outputs":[{"name":"","type":"uint256","internalType":"uint256"}],"stateMutability":"view"},{"type":"function","name":"getCurrentPeriod","inputs":[],"outputs":[{"name":"","type":"uint256","internalType":"uint256"}],"stateMutability":"view"},{"type":"function","name":"initialize","inputs":[{"name":"_propertyShares","type":"address","internalType":"address"},{"name":"_cashFlowEngine","type":"address","internalType":"address"},{"name":"_rentVault","type":"address","internalType":"address"},{"name":"_usdc","type":"address","internalType":"address"}],"outputs":[],"stateMutability":"nonpayable"},{"type":"function","name":"owner","inputs":[],"outputs":[{"name":"","type":"address","internalType":"address"}],"stateMutability":"view"},{"type":"function","name":"propertyShares","inputs":[],"outputs":[{"name":"","type":"address","internalType":"contract PropertyShares"}],"stateMutability":"view"},{"type":"function","name":"renounceOwnership","inputs":[],"outputs":[],"stateMutability":"nonpayable"},{"type":"function","name":"rentVault","inputs":[],"outputs":[{"name":"","type":"address","internalType":"contract RentVault"}],"stateMutability":"view"},{"type":"function","name":"resetDistributionPeriod","inputs":[],"outputs":[],"stateMutability":"nonpayable"},{"type":"function","name":"snapshotTotalSupply","inputs":[{"name":"","type":"uint256","internalType":"uint256"}],"outputs":[{"name":"","type":"uint256","internalType":"uint256"}],"stateMutability":"view"},{"type":"function","name":"totalDistributablePerPeriod","inputs":[{"name":"","type":"uint256","internalType":"uint256"}],"outputs":[{"name":"","type":"uint256","internalType":"uint256"}],"stateMutability":"view"},{"type":"function","name":"transferOwnership","inputs":[{"name":"newOwner","type":"address","internalType":"address"}],"outputs":[],"stateMutability":"nonpayable"},{"type":"function","name":"usdc","inputs":[],"outputs":[{"name":"","type":"address","internalType":"contract IERC20"}],"stateMutability":"view"},{"type":"event","name":"DistributionPeriodReset","inputs":[{"name":"newPeriod","type":"uint256","indexed":false,"internalType":"uint256"}],"anonymous":false},{"type":"event","name":"OwnershipTransferred","inputs":[{"name":"previousOwner","type":"address","indexed":true,"internalType":"address"},{"name":"newOwner","type":"address","indexed":true,"internalType":"address"}],"anonymous":false},{"type":"event","name":"YieldClaimed","inputs":[{"name":"claimant","type":"address","indexed":true,"internalType":"address"},{"name":"period","type":"uint256","indexed":true,"internalType":"uint256"},{"name":"amount","type":"uint256","indexed":false,"internalType":"uint256"}],"anonymous":false},{"type":"event","name":"YieldDistributed","inputs":[{"name":"period","type":"uint256","indexed":true,"internalType":"uint256"},{"name":"totalAmount","type":"uint256","indexed":false,"internalType":"uint256"},{"name":"totalSupply","type":"uint256","indexed":false,"internalType":"uint256"}],"anonymous":false},{"type":"error","name":"OwnableInvalidOwner","inputs":[{"name":"owner","type":"address","internalType":"address"}]},{"type":"error","name":"OwnableUnauthorizedAccount","inputs":[{"name":"account","type":"address","internalType":"address"}]},{"type":"error","name":"ReentrancyGuardReentrantCall","inputs":[]},{"type":"error","name":"SafeERC20FailedOperation","inputs":[{"name":"token","type":"address","internalType":"address"}]}],"bytecode":{"object":"0x6080346100dd57601f61120c38819003918201601f19168301916001600160401b038311848410176100e1578084926020946040528339810103126100dd57516001600160a01b0390818116908190036100dd5780156100c5575f80546001600160a01b03198116831782556040519316907f8be0079c531659141344cd1fd0a4f28419497f9722a3daafe3b4186f6b6457e09080a360017f9b779b17422d0df92223018b32b4d1fa46e071723d6817e2486d003becc55f005561111690816100f68239f35b604051631e4fbdf760e01b81525f6004820152602490fd5b5f80fd5b634e487b7160e01b5f52604160045260245ffdfe60806040818152600480361015610014575f80fd5b5f925f3560e01c908163086146d214610e0557508063350415af14610dd65780633e413bee14610dae57806340bd2e23146109c45780635ee7a9421461099c5780636128ce501461095c578063715018a6146109185780637964293c146108f05780638109873c146108c85780638a570a12146105005780638da5cb5b146104d857806395ccea6714610442578063967a1d45146104235780639c9c5d0c146103fa578063f2fde38b14610388578063f8c8765e14610184578063fee7ad5a146101575763ff86ad55146100e6575f80fd5b346101535782600319360112610153576100fe611075565b600554905f19821461014057507f836e7fc3eb64d45400ae2936f7d89cb08de8febae9a61c9ed58f0cd2afad607291600160209201908160055551908152a180f35b634e487b7160e01b845260119052602483fd5b8280fd5b50503461018057816003193601126101805760025490516001600160a01b039091168152602090f35b5080fd5b5090346101535760803660031901126101535761019f610e1f565b906101a8610e35565b906044356001600160a01b03818116929183900361038457606435948186168096036103845781906101d8611075565b1693841561032757169081156102ca578215610273578415610222575060018060a01b03199283600154161760015582600254161760025581600354161760035582541617905580f35b5162461bcd60e51b8152602081870152602660248201527f5969656c644469737472696275746f723a20696e76616c69642055534443206160448201526564647265737360d01b6064820152608490fd5b5162461bcd60e51b8152602081870152602c60248201527f5969656c644469737472696275746f723a20696e76616c69642072656e74207660448201526b61756c74206164647265737360a01b6064820152608490fd5b5162461bcd60e51b8152602081870152603260248201527f5969656c644469737472696275746f723a20696e76616c6964206361736820666044820152716c6f7720656e67696e65206164647265737360701b6064820152608490fd5b825162461bcd60e51b8152602081890152603160248201527f5969656c644469737472696275746f723a20696e76616c69642070726f706572604482015270747920736861726573206164647265737360781b6064820152608490fd5b5f80fd5b5034610153576020366003190112610153576103a2610e1f565b906103ab611075565b6001600160a01b039182169283156103e45750505f548260018060a01b03198216175f55165f805160206110a18339815191525f80a380f35b51631e4fbdf760e01b8152908101849052602490fd5b50503461018057816003193601126101805760035490516001600160a01b039091168152602090f35b5050346101805781600319360112610180576020906005549051908152f35b5082903461018057826003193601126101805761045d610e1f565b610465611075565b6001600160a01b038181161561048957610486939450602435925416610ff7565b80f35b845162461bcd60e51b8152602081850152602360248201527f5969656c644469737472696275746f723a20696e76616c696420726563697069604482015262195b9d60ea1b6064820152608490fd5b505034610180578160031936011261018057905490516001600160a01b039091168152602090f35b5034610384575f36600319011261038457610519611075565b610521610fc8565b6002548251636a18890b60e11b8152602093916001600160a01b0390859083908690829085165afa9182156108be575f9261088f575b5081156108375780858592600154168551968780926318160ddd60e01b82525afa94851561082d575f956107fe575b5084156107b1576005545f526008865284845f20556005545f526006865282845f205581868260035416865192838092629032ff60e51b82525afa90811561071d5790889392915f91610780575b50808511610680575b506003541690813b15610153578291604483928751948593849263f3fef3a360e01b845230908401528860248401525af180156106765761065e575b50507ff571bb88b0ec5dc25398fc62c69d5970d50ea313a0a6596b0ca7f0197d37383f92600554948351928352820152a260015f805160206110c18339815191525580f35b61066790610e4b565b61067257845f610619565b8480fd5b84513d84823e3d90fd5b90919250830383811161076d578287836002541687519283809263a1df2abb60e01b82525afa908115610763579089949392915f91610727575b50821690816106ca575b506105dd565b9080929394503b15610384575f91602483928851948593849263d9b3e92f60e01b8452898401525af1801561071d57610708575b90818893926106c4565b61071491929750610e4b565b5f95905f6106fe565b85513d5f823e3d90fd5b80929550898092503d831161075c575b6107418183610e72565b810103126103845751928184168403610384578893826106ba565b503d610737565b86513d5f823e3d90fd5b601183634e487b7160e01b5f525260245ffd5b809450888092503d83116107aa575b6107998183610e72565b81010312610384578792515f6105d4565b503d61078f565b835162461bcd60e51b8152808301879052602160248201527f5969656c644469737472696275746f723a206e6f2073686172657320657869736044820152601d60fa1b6064820152608490fd5b9094508581813d8311610826575b6108168183610e72565b810103126103845751935f610586565b503d61080c565b84513d5f823e3d90fd5b825162461bcd60e51b8152808501869052602c60248201527f5969656c644469737472696275746f723a206e6f20646973747269627574616260448201526b6c65206361736820666c6f7760a01b6064820152608490fd5b9091508481813d83116108b7575b6108a78183610e72565b810103126103845751905f610557565b503d61089d565b83513d5f823e3d90fd5b50903461038457602036600319011261038457602091355f5260068252805f20549051908152f35b8234610384575f3660031901126103845760015490516001600160a01b039091168152602090f35b34610384575f36600319011261038457610930611075565b5f80546001600160a01b0319811682556001600160a01b03165f805160206110a18339815191528280a3005b509034610384578060031936011261038457602091610979610e35565b90355f5260078352815f209060018060a01b03165f528252805f20549051908152f35b50903461038457602036600319011261038457602091355f5260088252805f20549051908152f35b5090346103845760209081600319360112610384578235916109e4610fc8565b6005548311610d5b57825f5260068152815f205415610d065760015482516370a0823160e01b808252338783015293916001600160a01b0391602491859082908490829087165afa90811561082d575f91610cd9575b508015610c8657865f5260078552835f20335f528552835f2054610c3a57865f5260088552835f2054908115610bed5790610a82610a8792895f5260068852865f2054610e95565b610ebc565b948515610b9a57848389541691838651809481938252308d8301525afa90811561082d579086915f91610b69575b5010610b1c5750838596610b02927f10d8dedfc0745b8c25ba10b06e304138b251c18dcaadf2d71c7f3214719dc4d196975f5260078652845f20335f52865282855f205533915416610ff7565b519283523392a360015f805160206110c183398151915255005b866084918585519262461bcd60e51b8452830152808201527f5969656c644469737472696275746f723a20696e73756666696369656e742066604482015263756e647360e01b6064820152fd5b809250868092503d8311610b93575b610b828183610e72565b810103126103845785905189610ab5565b503d610b78565b835162461bcd60e51b81528089018690526028818401527f5969656c644469737472696275746f723a207969656c6420616d6f756e7420746044820152671bdbc81cdb585b1b60c21b6064820152608490fd5b845162461bcd60e51b8152808a018790526022818501527f5969656c644469737472696275746f723a20696e76616c696420736e617073686044820152611bdd60f21b6064820152608490fd5b835162461bcd60e51b81528089018690526021818401527f5969656c644469737472696275746f723a20616c726561647920636c61696d656044820152601960fa1b6064820152608490fd5b835162461bcd60e51b81528089018690526028818401527f5969656c644469737472696275746f723a206e6f2073686172657320746f20636044820152673630b4b6903337b960c11b6064820152608490fd5b90508481813d8311610cff575b610cf08183610e72565b81010312610384575188610a3a565b503d610ce6565b8390608492519162461bcd60e51b8352820152602a60248201527f5969656c644469737472696275746f723a206e6f207969656c6420666f7220746044820152691a1a5cc81c195c9a5bd960b21b6064820152fd5b8390608492519162461bcd60e51b8352820152602860248201527f5969656c644469737472696275746f723a20706572696f64206e6f74206469736044820152671d1c9a589d5d195960c21b6064820152fd5b509034610384575f36600319011261038457905490516001600160a01b039091168152602090f35b8234610384578060031936011261038457602090610dfe610df5610e1f565b60243590610eda565b9051908152f35b34610384575f366003190112610384576020906005548152f35b600435906001600160a01b038216820361038457565b602435906001600160a01b038216820361038457565b6001600160401b038111610e5e57604052565b634e487b7160e01b5f52604160045260245ffd5b601f909101601f19168101906001600160401b03821190821017610e5e57604052565b81810292918115918404141715610ea857565b634e487b7160e01b5f52601160045260245ffd5b8115610ec6570490565b634e487b7160e01b5f52601260045260245ffd5b60055482118015610fb4575b610fae57815f52602060078152604092835f209260018060a01b0380911693845f528352845f2054610fa5578290600154169360248651809681936370a0823160e01b835260048301525afa92831561082d575f93610f76575b508215610f6e575f5260088152825f2054918215610f6e57610f6b936006610a8293525f2054610e95565b90565b505050505f90565b9092508181813d8311610f9e575b610f8e8183610e72565b810103126103845751915f610f40565b503d610f84565b50505050505f90565b50505f90565b50815f52600660205260405f205415610ee6565b5f805160206110c18339815191526002815414610fe55760029055565b604051633ee5aeb560e01b8152600490fd5b60405163a9059cbb60e01b5f9081526001600160a01b039384166004526024949094529260209060448180855af160015f5114811615611056575b836040521561104057505050565b635274afe760e01b835216600482015260249150fd5b600181151661106c57813b15153d151616611032565b833d5f823e3d90fd5b5f546001600160a01b0316330361108857565b60405163118cdaa760e01b8152336004820152602490fdfe8be0079c531659141344cd1fd0a4f28419497f9722a3daafe3b4186f6b6457e09b779b17422d0df92223018b32b4d1fa46e071723d6817e2486d003becc55f00a2646970667358221220cb464717f43011633e1f9333faeb1a6fefd73c4b281fc84cea72c8668ea07aa064736f6c63430008180033","linkReferences":{}},"methodIdentifiers":{"cashFlowEngine()":"fee7ad5a","claimYield(uint256)":"40bd2e23","claimedPerPeriod(uint256,address)":"6128ce50","currentDistributionPeriod()":"967a1d45","distributeYield()":"8a570a12","emergencyWithdraw(address,uint256)":"95ccea67","getClaimableYield(address,uint256)":"350415af","getCurrentPeriod()":"086146d2","initialize(address,address,address,address)":"f8c8765e","owner()":"8da5cb5b","propertyShares()":"7964293c","renounceOwnership()":"715018a6","rentVault()":"9c9c5d0c","resetDistributionPeriod()":"ff86ad55","snapshotTotalSupply(uint256)":"5ee7a942","totalDistributablePerPeriod(uint256)":"8109873c","transferOwnership(address)":"f2fde38b","usdc()":"3e413bee"},"id":9}