{"abi":[{"type":"constructor","inputs":[{"name":"initialOwner","type":"address","internalType":"address"}],"stateMutability":"nonpayable"},{"type":"function","name":"allocateWorkingCapital","inputs":[{"name":"amount","type":"uint256","internalType":"uint256"}],"outputs":[],"stateMutability":"nonpayable"},{"type":"function","name":"capexSpent","inputs":[],"outputs":[{"name":"","type":"uint256","internalType":"uint256"}],"stateMutability":"view"},{"type":"function","name":"dao","inputs":[],"outputs":[{"name":"","type":"address","internalType":"contract SimpleDAO"}],"stateMutability":"view"},{"type":"function","name":"getCashFlowFromAssets","inputs":[],"outputs":[{"name":"","type":"int256","internalType":"int256"}],"stateMutability":"view"},{"type":"function","name":"getCurrentPeriod","inputs":[],"outputs":[{"name":"","type":"uint256","internalType":"uint256"}],"stateMutability":"view"},{"type":"function","name":"getDistributableCashFlow","inputs":[],"outputs":[{"name":"","type":"uint256","internalType":"uint256"}],"stateMutability":"view"},{"type":"function","name":"lastCapexChange","inputs":[],"outputs":[{"name":"","type":"uint256","internalType":"uint256"}],"stateMutability":"view"},{"type":"function","name":"lastWorkingCapitalChange","inputs":[],"outputs":[{"name":"","type":"int256","internalType":"int256"}],"stateMutability":"view"},{"type":"function","name":"manager","inputs":[],"outputs":[{"name":"","type":"address","internalType":"address"}],"stateMutability":"view"},{"type":"function","name":"operatingExpenses","inputs":[],"outputs":[{"name":"","type":"uint256","internalType":"uint256"}],"stateMutability":"view"},{"type":"function","name":"owner","inputs":[],"outputs":[{"name":"","type":"address","internalType":"address"}],"stateMutability":"view"},{"type":"function","name":"recordCapEx","inputs":[{"name":"amount","type":"uint256","internalType":"uint256"},{"name":"proposalId","type":"uint256","internalType":"uint256"}],"outputs":[],"stateMutability":"nonpayable"},{"type":"function","name":"recordOperatingExpense","inputs":[{"name":"amount","type":"uint256","internalType":"uint256"}],"outputs":[],"stateMutability":"nonpayable"},{"type":"function","name":"releaseWorkingCapital","inputs":[{"name":"amount","type":"uint256","internalType":"uint256"}],"outputs":[],"stateMutability":"nonpayable"},{"type":"function","name":"renounceOwnership","inputs":[],"outputs":[],"stateMutability":"nonpayable"},{"type":"function","name":"rentVault","inputs":[],"outputs":[{"name":"","type":"address","internalType":"contract RentVault"}],"stateMutability":"view"},{"type":"function","name":"resetPeriod","inputs":[],"outputs":[],"stateMutability":"nonpayable"},{"type":"function","name":"setDAO","inputs":[{"name":"_dao","type":"address","internalType":"address"}],"outputs":[],"stateMutability":"nonpayable"},{"type":"function","name":"setManager","inputs":[{"name":"_manager","type":"address","internalType":"address"}],"outputs":[],"stateMutability":"nonpayable"},{"type":"function","name":"setRentVault","inputs":[{"name":"_rentVault","type":"address","internalType":"address"}],"outputs":[],"stateMutability":"nonpayable"},{"type":"function","name":"setYieldStackingManager","inputs":[{"name":"_yieldStackingManager","type":"address","internalType":"address"}],"outputs":[],"stateMutability":"nonpayable"},{"type":"function","name":"transferOwnership","inputs":[{"name":"newOwner","type":"address","internalType":"address"}],"outputs":[],"stateMutability":"nonpayable"},{"type":"function","name":"workingCapitalReserve","inputs":[],"outputs":[{"name":"","type":"uint256","internalType":"uint256"}],"stateMutability":"view"},{"type":"function","name":"yieldStackingManager","inputs":[],"outputs":[{"name":"","type":"address","internalType":"contract YieldStackingManager"}],"stateMutability":"view"},{"type":"event","name":"CapExRecorded","inputs":[{"name":"dao","type":"address","indexed":true,"internalType":"address"},{"name":"amount","type":"uint256","indexed":false,"internalType":"uint256"},{"name":"proposalId","type":"uint256","indexed":false,"internalType":"uint256"}],"anonymous":false},{"type":"event","name":"DAOSet","inputs":[{"name":"dao","type":"address","indexed":true,"internalType":"address"}],"anonymous":false},{"type":"event","name":"ManagerSet","inputs":[{"name":"newManager","type":"address","indexed":true,"internalType":"address"}],"anonymous":false},{"type":"event","name":"OperatingExpenseRecorded","inputs":[{"name":"manager","type":"address","indexed":true,"internalType":"address"},{"name":"amount","type":"uint256","indexed":false,"internalType":"uint256"}],"anonymous":false},{"type":"event","name":"OwnershipTransferred","inputs":[{"name":"previousOwner","type":"address","indexed":true,"internalType":"address"},{"name":"newOwner","type":"address","indexed":true,"internalType":"address"}],"anonymous":false},{"type":"event","name":"RentVaultSet","inputs":[{"name":"rentVault","type":"address","indexed":true,"internalType":"address"}],"anonymous":false},{"type":"event","name":"WorkingCapitalAllocated","inputs":[{"name":"manager","type":"address","indexed":true,"internalType":"address"},{"name":"amount","type":"uint256","indexed":false,"internalType":"uint256"}],"anonymous":false},{"type":"event","name":"YieldStackingManagerSet","inputs":[{"name":"yieldStackingManager","type":"address","indexed":true,"internalType":"address"}],"anonymous":false},{"type":"error","name":"OwnableInvalidOwner","inputs":[{"name":"owner","type":"address","internalType":"address"}]},{"type":"error","name":"OwnableUnauthorizedAccount","inputs":[{"name":"account","type":"address","internalType":"address"}]},{"type":"error","name":"ReentrancyGuardReentrantCall","inputs":[]}],"bytecode":{"object":"0x6080346100e657601f61101d38819003918201601f19168301916001600160401b038311848410176100ea578084926020946040528339810103126100e657516001600160a01b0390818116908190036100e65780156100ce575f54918160018060a01b03199181838616175f5560405194167f8be0079c531659141344cd1fd0a4f28419497f9722a3daafe3b4186f6b6457e05f80a360017f9b779b17422d0df92223018b32b4d1fa46e071723d6817e2486d003becc55f00556009541617600955610f1e90816100ff8239f35b604051631e4fbdf760e01b81525f6004820152602490fd5b5f80fd5b634e487b7160e01b5f52604160045260245ffdfe6080604081815260049182361015610015575f80fd5b5f3560e01c908163081aa018146109d657508063086146d2146109435780631ff65770146109085780633010a7f7146108435780634162169f1461081b5780634542734e146107fd578063481c6a75146107d5578063715018a6146107915780637da3bbd9146107735780638da5cb5b1461074c578063944c1d971461070e5780639c9c5d0c146106e6578063a1df2abb146106be578063a369f4ca146105ef578063a6b5a8ec14610577578063afffd5bc14610559578063c295202914610490578063ccefccdb14610472578063d0ebdbe7146103b0578063d43112161461038d578063df2c2b5e14610278578063e20c78741461025c578063e73a914c1461019e5763f2fde38b14610127575f80fd5b3461019a57602036600319011261019a576001600160a01b0382358181169391929084900361019a57610158610e7d565b83156101845750505f548260018060a01b03198216175f55165f80516020610ea98339815191525f80a3005b905f6024925191631e4fbdf760e01b8352820152fd5b5f80fd5b50903461019a57602036600319011261019a5780356001600160a01b038116929083900361019a576101ce610e7d565b821561020d57600280546001600160a01b03191684179055827f8aad84fcad50e723fa3bcf0fb32c5bea4c71078b77b9aedfa638f146f3a3f7b95f80a2005b906020608492519162461bcd60e51b8352820152602360248201527f43617368466c6f77456e67696e653a20696e76616c69642044414f206164647260448201526265737360e81b6064820152fd5b503461019a575f36600319011261019a57602091549051908152f35b503461019a57602036600319011261019a576009546001600160a01b0390833590821633148015610381575b6102ad90610cf1565b6102b8811515610bb2565b6102c3818554610c4e565b845582519081527f9895ef9fb1b1c849968c8199ee15a63b66e3d0a706a8eb3597acd1ebc808675c60203392a26003541691826102fc57005b8151637b7d3f9360e01b602082019081528282526001600160401b0394918085018681118282101761036e578552515f9283929083905af1503d15610359573d92831161035b57505161035991601f01601f191660200190610c17565b005b604190634e487b7160e01b5f525260245ffd5b604185634e487b7160e01b5f525260245ffd5b505f54821633146102a4565b503461019a575f36600319011261019a576020906103a9610d48565b9051908152f35b50903461019a57602036600319011261019a5780356001600160a01b038116929083900361019a576103e0610e7d565b821561041f57600980546001600160a01b03191684179055827f60a0f5b9f9e81e98216071b85826681c796256fe3d1354ecb675580fba64fa695f80a2005b906020608492519162461bcd60e51b8352820152602760248201527f43617368466c6f77456e67696e653a20696e76616c6964206d616e61676572206044820152666164647265737360c81b6064820152fd5b503461019a575f36600319011261019a576020906006549051908152f35b50903461019a57602036600319011261019a5780356001600160a01b038116929083900361019a576104c0610e7d565b82156104ff57600380546001600160a01b03191684179055827fadf3e660b435d8e57cb2346c441bad1c90a3eff3aa70fd5a0fd39f6e4a0c5fc75f80a2005b906020608492519162461bcd60e51b8352820152602e60248201527f43617368466c6f77456e67696e653a20696e76616c6964207969656c6420737460448201526d30b1b5b4b7339036b0b730b3b2b960911b6064820152fd5b503461019a575f36600319011261019a576020906005549051908152f35b50903461019a57602036600319011261019a5735906105ab60018060a01b03806009541633149081156105e2575b50610cf1565b6105b6821515610bb2565b6105c282600654610c4e565b60065581600855519081525f80516020610ec983398151915260203392a2005b90505f541633145f6105a5565b503461019a57602036600319011261019a576009548235929061062690336001600160a01b03918216149081156105e25750610cf1565b610631831515610bb2565b6006549081841161066f57508261064791610d3b565b60065561065382610cc6565b600855519081525f80516020610ec983398151915260203392a2005b608490602084519162461bcd60e51b83528201526024808201527f43617368466c6f77456e67696e653a20696e73756666696369656e74207265736044820152636572766560e01b6064820152fd5b503461019a575f36600319011261019a5760035490516001600160a01b039091168152602090f35b503461019a575f36600319011261019a5760015490516001600160a01b039091168152602090f35b823461019a575f36600319011261019a575f90610729610e7d565b600154610740906001600160a01b03161515610c6f565b555f6007819055600855005b503461019a575f36600319011261019a575f5490516001600160a01b039091168152602090f35b503461019a575f36600319011261019a576020906008549051908152f35b3461019a575f36600319011261019a576107a9610e7d565b5f80546001600160a01b0319811682556001600160a01b03165f80516020610ea98339815191528280a3005b503461019a575f36600319011261019a5760095490516001600160a01b039091168152602090f35b503461019a575f36600319011261019a576020906007549051908152f35b503461019a575f36600319011261019a5760025490516001600160a01b039091168152602090f35b50903461019a57602036600319011261019a5780356001600160a01b038116929083900361019a57610873610e7d565b82156108b257600180546001600160a01b03191684179055827f255c04595fc06df93f15f4a53425dce3e27a4a1d0aef44176a1d8691f2bb71d75f80a2005b906020608492519162461bcd60e51b8352820152602a60248201527f43617368466c6f77456e67696e653a20696e76616c69642072656e74207661756044820152696c74206164647265737360b01b6064820152fd5b503461019a575f36600319011261019a576020906103a9610927610d48565b61093e610935600754610cc6565b60085492610cd6565b610cd6565b503461019a575f36600319011261019a576001546020906001600160a01b031661096e811515610c6f565b825162c080c360e31b815293849182905afa9081156109cd575f91610998575b6020925051908152f35b90506020823d6020116109c5575b816109b360209383610c17565b8101031261019a57602091519061098e565b3d91506109a6565b513d5f823e3d90fd5b83833461019a578060031936011261019a576002546001600160a01b039081169383359360243592909190338714908115610ba5575b5015610b6b5750610a1e841515610bb2565b8415610b2a57825180956326af303360e21b8252838383015281602460209889935afa908115610b20575f91610aea575b5015610a9957508293610a857f686558c5d09d02c5e337e5389798d589800b2ff2bf8208f0f03364e297e4104094600554610c4e565b6005558460075582519485528401523392a2005b825162461bcd60e51b8152908101859052602560248201527f43617368466c6f77456e67696e653a2070726f706f73616c206e6f74206170706044820152641c9bdd995960da1b6064820152608490fd5b90508581813d8311610b19575b610b018183610c17565b8101031261019a5751801515810361019a5786610a4f565b503d610af7565b84513d5f823e3d90fd5b606490602084519162461bcd60e51b8352820152601b60248201527a10d85cda119b1bddd15b99da5b994e88111053c81b9bdd081cd95d602a1b6044820152fd5b602060649262461bcd60e51b8352820152601760248201527643617368466c6f77456e67696e653a206e6f742044414f60481b6044820152fd5b90505f5416331487610a0c565b15610bb957565b60405162461bcd60e51b815260206004820152603060248201527f43617368466c6f77456e67696e653a20616d6f756e74206d757374206265206760448201526f726561746572207468616e207a65726f60801b6064820152608490fd5b601f909101601f19168101906001600160401b03821190821017610c3a57604052565b634e487b7160e01b5f52604160045260245ffd5b91908201809211610c5b57565b634e487b7160e01b5f52601160045260245ffd5b15610c7657565b60405162461bcd60e51b815260206004820152602260248201527f43617368466c6f77456e67696e653a2072656e74207661756c74206e6f742073604482015261195d60f21b6064820152608490fd5b600160ff1b8114610c5b575f0390565b9190915f8382019384129112908015821691151617610c5b57565b15610cf857565b60405162461bcd60e51b815260206004820152601b60248201527a21b0b9b4233637bba2b733b4b7329d103737ba1036b0b730b3b2b960291b6044820152606490fd5b91908203918211610c5b57565b6001546001600160a01b03908116610d61811515610c6f565b6040518091630bdaba5360e11b825281600460209384935afa918215610e25575f92610e4e575b505f9160045460065491610d9c8383610c4e565b8111610e30575b5050505f926003541680610dc1575b505090610dbe91610c4e565b90565b604051638501de0160e01b815293508190849060049082905afa908115610e25575f91610df5575b509150610dbe5f610db2565b905082813d8311610e1e575b610e0b8183610c17565b8101031261019a57610dbe91515f610de9565b503d610e01565b6040513d5f823e3d90fd5b610e4593945090610e4091610d3b565b610d3b565b905f8080610da3565b9080925081813d8311610e76575b610e668183610c17565b8101031261019a5751905f610d88565b503d610e5c565b5f546001600160a01b03163303610e9057565b60405163118cdaa760e01b8152336004820152602490fdfe8be0079c531659141344cd1fd0a4f28419497f9722a3daafe3b4186f6b6457e0cc47de79a4c481b12583a290a56d7007708a5f013d7989daf9b542b844b39f76a2646970667358221220dac404269fd0410f503b7dcd5fc57ca85f851604a6c03d097deb65ea5865e02a64736f6c63430008180033","linkReferences":{}},"methodIdentifiers":{"allocateWorkingCapital(uint256)":"a6b5a8ec","capexSpent()":"afffd5bc","dao()":"4162169f","getCashFlowFromAssets()":"1ff65770","getCurrentPeriod()":"086146d2","getDistributableCashFlow()":"d4311216","lastCapexChange()":"4542734e","lastWorkingCapitalChange()":"7da3bbd9","manager()":"481c6a75","operatingExpenses()":"e20c7874","owner()":"8da5cb5b","recordCapEx(uint256,uint256)":"081aa018","recordOperatingExpense(uint256)":"df2c2b5e","releaseWorkingCapital(uint256)":"a369f4ca","renounceOwnership()":"715018a6","rentVault()":"9c9c5d0c","resetPeriod()":"944c1d97","setDAO(address)":"e73a914c","setManager(address)":"d0ebdbe7","setRentVault(address)":"3010a7f7","setYieldStackingManager(address)":"c2952029","transferOwnership(address)":"f2fde38b","workingCapitalReserve()":"ccefccdb","yieldStackingManager()":"a1df2abb"},"id":0}