{"abi":[{"type":"constructor","inputs":[{"name":"initialOwner","type":"address","internalType":"address"}],"stateMutability":"nonpayable"},{"type":"function","name":"allowance","inputs":[{"name":"owner","type":"address","internalType":"address"},{"name":"spender","type":"address","internalType":"address"}],"outputs":[{"name":"","type":"uint256","internalType":"uint256"}],"stateMutability":"view"},{"type":"function","name":"approve","inputs":[{"name":"spender","type":"address","internalType":"address"},{"name":"value","type":"uint256","internalType":"uint256"}],"outputs":[{"name":"","type":"bool","internalType":"bool"}],"stateMutability":"nonpayable"},{"type":"function","name":"balanceOf","inputs":[{"name":"account","type":"address","internalType":"address"}],"outputs":[{"name":"","type":"uint256","internalType":"uint256"}],"stateMutability":"view"},{"type":"function","name":"decimals","inputs":[],"outputs":[{"name":"","type":"uint8","internalType":"uint8"}],"stateMutability":"view"},{"type":"function","name":"initialize","inputs":[{"name":"_propertyNFT","type":"address","internalType":"address"},{"name":"_propertyId","type":"uint256","internalType":"uint256"},{"name":"totalSupply","type":"uint256","internalType":"uint256"},{"name":"initialOwner","type":"address","internalType":"address"}],"outputs":[],"stateMutability":"nonpayable"},{"type":"function","name":"initialized","inputs":[],"outputs":[{"name":"","type":"bool","internalType":"bool"}],"stateMutability":"view"},{"type":"function","name":"isInitialized","inputs":[],"outputs":[{"name":"","type":"bool","internalType":"bool"}],"stateMutability":"view"},{"type":"function","name":"name","inputs":[],"outputs":[{"name":"","type":"string","internalType":"string"}],"stateMutability":"view"},{"type":"function","name":"owner","inputs":[],"outputs":[{"name":"","type":"address","internalType":"address"}],"stateMutability":"view"},{"type":"function","name":"propertyId","inputs":[],"outputs":[{"name":"","type":"uint256","internalType":"uint256"}],"stateMutability":"view"},{"type":"function","name":"propertyNFT","inputs":[],"outputs":[{"name":"","type":"address","internalType":"address"}],"stateMutability":"view"},{"type":"function","name":"renounceOwnership","inputs":[],"outputs":[],"stateMutability":"nonpayable"},{"type":"function","name":"symbol","inputs":[],"outputs":[{"name":"","type":"string","internalType":"string"}],"stateMutability":"view"},{"type":"function","name":"totalSupply","inputs":[],"outputs":[{"name":"","type":"uint256","internalType":"uint256"}],"stateMutability":"view"},{"type":"function","name":"transfer","inputs":[{"name":"to","type":"address","internalType":"address"},{"name":"value","type":"uint256","internalType":"uint256"}],"outputs":[{"name":"","type":"bool","internalType":"bool"}],"stateMutability":"nonpayable"},{"type":"function","name":"transferFrom","inputs":[{"name":"from","type":"address","internalType":"address"},{"name":"to","type":"address","internalType":"address"},{"name":"value","type":"uint256","internalType":"uint256"}],"outputs":[{"name":"","type":"bool","internalType":"bool"}],"stateMutability":"nonpayable"},{"type":"function","name":"transferOwnership","inputs":[{"name":"newOwner","type":"address","internalType":"address"}],"outputs":[],"stateMutability":"nonpayable"},{"type":"event","name":"Approval","inputs":[{"name":"owner","type":"address","indexed":true,"internalType":"address"},{"name":"spender","type":"address","indexed":true,"internalType":"address"},{"name":"value","type":"uint256","indexed":false,"internalType":"uint256"}],"anonymous":false},{"type":"event","name":"OwnershipTransferred","inputs":[{"name":"previousOwner","type":"address","indexed":true,"internalType":"address"},{"name":"newOwner","type":"address","indexed":true,"internalType":"address"}],"anonymous":false},{"type":"event","name":"Transfer","inputs":[{"name":"from","type":"address","indexed":true,"internalType":"address"},{"name":"to","type":"address","indexed":true,"internalType":"address"},{"name":"value","type":"uint256","indexed":false,"internalType":"uint256"}],"anonymous":false},{"type":"error","name":"ERC20InsufficientAllowance","inputs":[{"name":"spender","type":"address","internalType":"address"},{"name":"allowance","type":"uint256","internalType":"uint256"},{"name":"needed","type":"uint256","internalType":"uint256"}]},{"type":"error","name":"ERC20InsufficientBalance","inputs":[{"name":"sender","type":"address","internalType":"address"},{"name":"balance","type":"uint256","internalType":"uint256"},{"name":"needed","type":"uint256","internalType":"uint256"}]},{"type":"error","name":"ERC20InvalidApprover","inputs":[{"name":"approver","type":"address","internalType":"address"}]},{"type":"error","name":"ERC20InvalidReceiver","inputs":[{"name":"receiver","type":"address","internalType":"address"}]},{"type":"error","name":"ERC20InvalidSender","inputs":[{"name":"sender","type":"address","internalType":"address"}]},{"type":"error","name":"ERC20InvalidSpender","inputs":[{"name":"spender","type":"address","internalType":"address"}]},{"type":"error","name":"OwnableInvalidOwner","inputs":[{"name":"owner","type":"address","internalType":"address"}]},{"type":"error","name":"OwnableUnauthorizedAccount","inputs":[{"name":"account","type":"address","internalType":"address"}]}],"bytecode":{"object":"0x6080346200038c57601f906001600160401b0390601f1962000e3c3881900385810183168401858111858210176200029b578492829160405283396020938491810103126200038c57516001600160a01b039485821694918590036200038c576200006962000390565b600f81526e50726f70657274792053686172657360881b858201526200008e62000390565b91600683526550534841524560d01b868401528151928484116200029b5760039384546001948582811c9216801562000381575b8a8310146200036d5781858493116200031a575b508990858311600114620002bb575f92620002af575b50505f1982871b1c191690841b1784555b80519485116200029b5760049687548481811c9116801562000290575b828210146200027d5783811162000235575b5080928611600114620001cd5750849550908492915f95620001c1575b50501b925f19911b1c19161781555b8115620001aa5750600580546001600160a01b03198116831790915560405192167f8be0079c531659141344cd1fd0a4f28419497f9722a3daafe3b4186f6b6457e05f80a3610a8b9081620003b18239f35b6024905f60405191631e4fbdf760e01b8352820152fd5b015193505f8062000149565b93929585908116885f52855f20955f905b898383106200021a575050501062000200575b50505050811b01815562000158565b01519060f8845f19921b161c191690555f808080620001f1565b858701518955909701969485019488935090810190620001de565b885f52815f208480890160051c820192848a1062000273575b0160051c019085905b828110620002675750506200012c565b5f815501859062000257565b925081926200024e565b602289634e487b7160e01b5f525260245ffd5b90607f16906200011a565b634e487b7160e01b5f52604160045260245ffd5b015190505f80620000ec565b908987941691885f528b5f20925f5b8d828210620003035750508411620002eb575b505050811b018455620000fd565b01515f1983891b60f8161c191690555f8080620002dd565b8385015186558a97909501949384019301620002ca565b909150865f52895f208580850160051c8201928c861062000363575b918891869594930160051c01915b82811062000354575050620000d6565b5f815585945088910162000344565b9250819262000336565b634e487b7160e01b5f52602260045260245ffd5b91607f1691620000c2565b5f80fd5b60408051919082016001600160401b038111838210176200029b5760405256fe608060409080825260049081361015610016575f80fd5b5f3560e01c90816306fdde03146107ce57508063095ea7b314610725578063158ef93e146105ba57806318160ddd1461070757806323b872dd14610620578063313ce5671461060557806337f76838146105dd578063392e53cd146105ba57806370a0823114610584578063715018a61461053c5780638da5cb5b1461051457806395d89b41146104115780639e3d87cd146101ea578063a9059cbb146101ba578063dd62ed3e14610171578063ee7a3b8e146101535763f2fde38b146100db575f80fd5b3461014f57602036600319011261014f576100f46108ed565b906100fd6109e9565b6001600160a01b03918216928315610139575050600580546001600160a01b031981168417909155165f80516020610a168339815191525f80a3005b905f6024925191631e4fbdf760e01b8352820152fd5b5f80fd5b823461014f575f36600319011261014f576020906007549051908152f35b823461014f578060031936011261014f5760209061018d6108ed565b610195610903565b9060018060a01b038091165f5260018452825f2091165f528252805f20549051908152f35b823461014f578060031936011261014f576020906101e36101d96108ed565b6024359033610937565b5160018152f35b503461014f57608036600319011261014f576102046108ed565b6001600160a01b0360643581811694604435949093909260249287900361014f5761022d6109e9565b6008549160ff83166103c35716801561036c57851561030b5786156102bb57600680546001600160a01b0319169091179055813560075560ff1916600117600855600254848101929083106102aa57855f5f80516020610a36833981519152602088888860025585855284835280852082815401905551908152a3005b601190634e487b7160e01b5f52525ffd5b845162461bcd60e51b81526020818601526025818501527f50726f70657274795368617265733a20696e76616c696420696e697469616c2060448201526437bbb732b960d91b6064820152608490fd5b845162461bcd60e51b81526020818601526036818501527f50726f70657274795368617265733a20746f74616c20737570706c79206d7573604482015275742062652067726561746572207468616e207a65726f60501b6064820152608490fd5b845162461bcd60e51b8152602081860152602c818501527f50726f70657274795368617265733a20696e76616c69642070726f706572747960448201526b204e4654206164647265737360a01b6064820152608490fd5b855162461bcd60e51b81526020818701526023818601527f50726f70657274795368617265733a20616c726561647920696e697469616c696044820152621e995960ea1b6064820152608490fd5b50903461014f575f36600319011261014f578051905f835460018160011c906001831692831561050a575b60209384841081146104f7578388529081156104db57506001146104a3575b505050829003601f01601f19168201926001600160401b03841183851017610490575082918261048c9252826108a6565b0390f35b604190634e487b7160e01b5f525260245ffd5b919250855f52825f2091835f935b8385106104c757505050508301015f808061045b565b8054888601830152930192849082016104b1565b60ff1916878501525050151560051b84010190505f808061045b565b602289634e487b7160e01b5f525260245ffd5b91607f169161043c565b823461014f575f36600319011261014f5760055490516001600160a01b039091168152602090f35b3461014f575f36600319011261014f576105546109e9565b600580546001600160a01b031981169091555f906001600160a01b03165f80516020610a168339815191528280a3005b823461014f57602036600319011261014f576020906001600160a01b036105a96108ed565b165f525f8252805f20549051908152f35b823461014f575f36600319011261014f5760209060ff6008541690519015158152f35b823461014f575f36600319011261014f5760065490516001600160a01b039091168152602090f35b823461014f575f36600319011261014f576020905160128152f35b503461014f57606036600319011261014f5761063a6108ed565b610642610903565b906044359260018060a01b038216805f526001602052855f20335f52602052855f2054915f19831061067d575b6020876101e3888888610937565b8583106106e55781156106cf5733156106b957505f908152600160209081528682203383528152908690209185900390915582906101e361066f565b6024905f885191634a1406b160e11b8352820152fd5b6024905f88519163e602df0560e01b8352820152fd5b9050610703858751938493637dc7a0d960e11b855233908501610919565b0390fd5b823461014f575f36600319011261014f576020906002549051908152f35b50903461014f578060031936011261014f5761073f6108ed565b6024359033156107b8576001600160a01b03169081156107a25760209350335f5260018452825f20825f52845280835f205582519081527f8c5be1e5ebec7d5bd14f71427d1e84f3dd0314c0f7b2291e5b200ac8c7c3b925843392a35160018152f35b8251634a1406b160e11b81525f81860152602490fd5b825163e602df0560e01b81525f81860152602490fd5b9050823461014f575f36600319011261014f575f60035460018160011c906001831692831561089c575b60209384841081146104f757838852908115610880575060011461084757505050829003601f01601f19168201926001600160401b03841183851017610490575082918261048c9252826108a6565b91925060035f52825f2091835f935b83851061086c575050505083010184808061045b565b805488860183015293019284908201610856565b60ff1916878501525050151560051b840101905084808061045b565b91607f16916107f8565b602080825282518183018190529093925f5b8281106108d957505060409293505f838284010152601f8019910116010190565b8181018601518482016040015285016108b8565b600435906001600160a01b038216820361014f57565b602435906001600160a01b038216820361014f57565b604091949392606082019560018060a01b0316825260208201520152565b916001600160a01b038084169283156109d157169283156109b957825f525f60205260405f20549082821061099c5750815f80516020610a3683398151915292602092855f525f84520360405f2055845f5260405f20818154019055604051908152a3565b6107038360405193849363391434e360e21b855260048501610919565b60405163ec442f0560e01b81525f6004820152602490fd5b604051634b637e8f60e11b81525f6004820152602490fd5b6005546001600160a01b031633036109fd57565b60405163118cdaa760e01b8152336004820152602490fdfe8be0079c531659141344cd1fd0a4f28419497f9722a3daafe3b4186f6b6457e0ddf252ad1be2c89b69c2b068fc378daa952ba7f163c4a11628f55a4df523b3efa26469706673582212202fc78995cc07a9534c89e01ae8b609c3fc9841a76170847a18d6477f30becca364736f6c63430008180033","linkReferences":{}},"methodIdentifiers":{"allowance(address,address)":"dd62ed3e","approve(address,uint256)":"095ea7b3","balanceOf(address)":"70a08231","decimals()":"313ce567","initialize(address,uint256,uint256,address)":"9e3d87cd","initialized()":"158ef93e","isInitialized()":"392e53cd","name()":"06fdde03","owner()":"8da5cb5b","propertyId()":"ee7a3b8e","propertyNFT()":"37f76838","renounceOwnership()":"715018a6","symbol()":"95d89b41","totalSupply()":"18160ddd","transfer(address,uint256)":"a9059cbb","transferFrom(address,address,uint256)":"23b872dd","transferOwnership(address)":"f2fde38b"},"id":5}