{"abi":[{"type":"constructor","inputs":[{"name":"_usdc","type":"address","internalType":"address"},{"name":"initialOwner","type":"address","internalType":"address"}],"stateMutability":"nonpayable"},{"type":"function","name":"currentPeriod","inputs":[],"outputs":[{"name":"","type":"uint256","internalType":"uint256"}],"stateMutability":"view"},{"type":"function","name":"depositRent","inputs":[{"name":"amount","type":"uint256","internalType":"uint256"}],"outputs":[],"stateMutability":"nonpayable"},{"type":"function","name":"getBalance","inputs":[],"outputs":[{"name":"","type":"uint256","internalType":"uint256"}],"stateMutability":"view"},{"type":"function","name":"getRentForPeriod","inputs":[{"name":"period","type":"uint256","internalType":"uint256"}],"outputs":[{"name":"","type":"uint256","internalType":"uint256"}],"stateMutability":"view"},{"type":"function","name":"owner","inputs":[],"outputs":[{"name":"","type":"address","internalType":"address"}],"stateMutability":"view"},{"type":"function","name":"renounceOwnership","inputs":[],"outputs":[],"stateMutability":"nonpayable"},{"type":"function","name":"rentCollected","inputs":[],"outputs":[{"name":"","type":"uint256","internalType":"uint256"}],"stateMutability":"view"},{"type":"function","name":"rentPerPeriod","inputs":[{"name":"","type":"uint256","internalType":"uint256"}],"outputs":[{"name":"","type":"uint256","internalType":"uint256"}],"stateMutability":"view"},{"type":"function","name":"resetPeriod","inputs":[],"outputs":[],"stateMutability":"nonpayable"},{"type":"function","name":"setYieldDistributor","inputs":[{"name":"_yieldDistributor","type":"address","internalType":"address"}],"outputs":[],"stateMutability":"nonpayable"},{"type":"function","name":"setYieldStackingManager","inputs":[{"name":"_yieldStackingManager","type":"address","internalType":"address"}],"outputs":[],"stateMutability":"nonpayable"},{"type":"function","name":"transferOwnership","inputs":[{"name":"newOwner","type":"address","internalType":"address"}],"outputs":[],"stateMutability":"nonpayable"},{"type":"function","name":"usdc","inputs":[],"outputs":[{"name":"","type":"address","internalType":"contract IERC20"}],"stateMutability":"view"},{"type":"function","name":"withdraw","inputs":[{"name":"to","type":"address","internalType":"address"},{"name":"amount","type":"uint256","internalType":"uint256"}],"outputs":[],"stateMutability":"nonpayable"},{"type":"function","name":"yieldDistributor","inputs":[],"outputs":[{"name":"","type":"address","internalType":"address"}],"stateMutability":"view"},{"type":"function","name":"yieldStackingManager","inputs":[],"outputs":[{"name":"","type":"address","internalType":"address"}],"stateMutability":"view"},{"type":"event","name":"OwnershipTransferred","inputs":[{"name":"previousOwner","type":"address","indexed":true,"internalType":"address"},{"name":"newOwner","type":"address","indexed":true,"internalType":"address"}],"anonymous":false},{"type":"event","name":"PeriodReset","inputs":[{"name":"newPeriod","type":"uint256","indexed":false,"internalType":"uint256"}],"anonymous":false},{"type":"event","name":"RentDeposited","inputs":[{"name":"depositor","type":"address","indexed":true,"internalType":"address"},{"name":"amount","type":"uint256","indexed":false,"internalType":"uint256"},{"name":"period","type":"uint256","indexed":false,"internalType":"uint256"}],"anonymous":false},{"type":"error","name":"OwnableInvalidOwner","inputs":[{"name":"owner","type":"address","internalType":"address"}]},{"type":"error","name":"OwnableUnauthorizedAccount","inputs":[{"name":"account","type":"address","internalType":"address"}]},{"type":"error","name":"ReentrancyGuardReentrantCall","inputs":[]},{"type":"error","name":"SafeERC20FailedOperation","inputs":[{"name":"token","type":"address","internalType":"address"}]}],"bytecode":{"object":"0x60a03461015b57601f610ac938819003918201601f19168301916001600160401b0383118484101761015f57808492604094855283398101031261015b57602061004882610173565b916001600160a01b0391829161005e9101610173565b16918215610143575f80546001600160a01b03198116851782556040519491908416907f8be0079c531659141344cd1fd0a4f28419497f9722a3daafe3b4186f6b6457e09080a360017f9b779b17422d0df92223018b32b4d1fa46e071723d6817e2486d003becc55f00551690811561010157506080526040516109419081610188823960805181818160f8015281816102610152818161060701526107120152f35b62461bcd60e51b815260206004820152601f60248201527f52656e745661756c743a20696e76616c696420555344432061646472657373006044820152606490fd5b604051631e4fbdf760e01b81525f6004820152602490fd5b5f80fd5b634e487b7160e01b5f52604160045260245ffd5b51906001600160a01b038216820361015b5756fe6080604081815260049182361015610015575f80fd5b5f3560e01c90816306040618146107c05750806312065fe0146106e657806317b574a6146106c85780633038a60d146106365780633e413bee146105f35780634b28206f14610588578063715018a6146105af5780637b39024d146105885780638da5cb5b14610561578063944c1d97146104f4578063a1df2abb146104cc578063a38c2c3d146104a5578063c295202914610409578063f2fde38b14610397578063f3fef3a3146102025763f6e96ced146100cf575f80fd5b346101fe5760203660031901126101fe578135916100eb61089c565b6100f68315156107f0565b7f0000000000000000000000000000000000000000000000000000000000000000908251916323b872dd60e01b5f52338252306024528460445260205f60648180855af160015f51148116156101df575b8385525f606052156101c257847ff335f24c222716a32e307b843fe125d20c7fd660660a5538ded173c33ac219b38561018283600154610850565b6001556002545f526003602052805f2061019d848254610850565b9055600254815193845260208401523392a260015f805160206108ec83398151915255005b635274afe760e01b83526001600160a01b03169082015260249150fd5b60018115166101f557813b15153d151616610147565b833d5f823e3d90fd5b5f80fd5b50346101fe57806003193601126101fe5761021b6107da565b916024359261022861089c565b5f546001600160a01b03919082163314801561038b575b801561037e575b1561033f5781169283156102fe5761025f8515156107f0565b7f00000000000000000000000000000000000000000000000000000000000000009481519463a9059cbb60e01b5f5284526024528360205f604481808a5af19160015f51148316156102d9575b52156102c55760015f805160206108ec83398151915255005b602493635274afe760e01b84521690820152fd5b91905060018115166102f5578490863b15153d151616916102ac565b843d5f823e3d90fd5b5162461bcd60e51b8152602081840152601c60248201527b14995b9d15985d5b1d0e881a5b9d985b1a59081c9958da5c1a595b9d60221b6044820152606490fd5b835162461bcd60e51b8152602081850152601960248201527814995b9d15985d5b1d0e881b9bdd08185d5d1a1bdc9a5e9959603a1b6044820152606490fd5b5081600554163314610246565b5081835416331461023f565b5090346101fe5760203660031901126101fe576103b26107da565b906103bb610871565b6001600160a01b039182169283156103f35750505f548260018060a01b03198216175f55165f805160206108cc8339815191525f80a3005b905f6024925191631e4fbdf760e01b8352820152fd5b5090346101fe5760203660031901126101fe576104246107da565b61042c610871565b6001600160a01b031691821561045057600580546001600160a01b03191684179055005b906020608492519162461bcd60e51b8352820152602960248201527f52656e745661756c743a20696e76616c6964207969656c6420737461636b696e604482015268339036b0b730b3b2b960b91b6064820152fd5b50346101fe575f3660031901126101fe57905490516001600160a01b039091168152602090f35b50346101fe575f3660031901126101fe5760055490516001600160a01b039091168152602090f35b5090346101fe575f3660031901126101fe5761050e610871565b600254905f19821461054e577f4711e52c972094536a2b69a08c2257ab02b644f374a725bbccd324122bd7f12460208460018501908160025551908152a1005b601190634e487b7160e01b5f525260245ffd5b50346101fe575f3660031901126101fe575f5490516001600160a01b039091168152602090f35b50346101fe5760203660031901126101fe57602091355f5260038252805f20549051908152f35b346101fe575f3660031901126101fe576105c7610871565b5f80546001600160a01b0319811682556001600160a01b03165f805160206108cc8339815191528280a3005b50346101fe575f3660031901126101fe57517f00000000000000000000000000000000000000000000000000000000000000006001600160a01b03168152602090f35b50346101fe5760203660031901126101fe576106506107da565b610658610871565b6001600160a01b031690811561067a575081546001600160a01b031916179055005b5162461bcd60e51b81526020818401526024808201527f52656e745661756c743a20696e76616c6964207969656c6420646973747269626044820152633aba37b960e11b6064820152608490fd5b50346101fe575f3660031901126101fe576020906001549051908152f35b5090346101fe575f3660031901126101fe5781516370a0823160e01b81523082820152916020836024817f00000000000000000000000000000000000000000000000000000000000000006001600160a01b03165afa9182156107b6575f92610754575b6020838351908152f35b9091506020903d6020116107ae575b601f8201601f19168401906001600160401b0382118583101761079b575060209184918452810103126101fe5760209151905f61074a565b604190634e487b7160e01b5f525260245ffd5b3d9150610763565b50513d5f823e3d90fd5b346101fe575f3660031901126101fe576020906002548152f35b600435906001600160a01b03821682036101fe57565b156107f757565b60405162461bcd60e51b815260206004820152602b60248201527f52656e745661756c743a20616d6f756e74206d7573742062652067726561746560448201526a72207468616e207a65726f60a81b6064820152608490fd5b9190820180921161085d57565b634e487b7160e01b5f52601160045260245ffd5b5f546001600160a01b0316330361088457565b60405163118cdaa760e01b8152336004820152602490fd5b5f805160206108ec83398151915260028154146108b95760029055565b604051633ee5aeb560e01b8152600490fdfe8be0079c531659141344cd1fd0a4f28419497f9722a3daafe3b4186f6b6457e09b779b17422d0df92223018b32b4d1fa46e071723d6817e2486d003becc55f00a264697066735822122020fce249d761e516adf8a9741d66c82f2989b54ebf6e44bcbfda19e9de743dcf64736f6c63430008180033","linkReferences":{}},"methodIdentifiers":{"currentPeriod()":"06040618","depositRent(uint256)":"f6e96ced","getBalance()":"12065fe0","getRentForPeriod(uint256)":"7b39024d","owner()":"8da5cb5b","renounceOwnership()":"715018a6","rentCollected()":"17b574a6","rentPerPeriod(uint256)":"4b28206f","resetPeriod()":"944c1d97","setYieldDistributor(address)":"3038a60d","setYieldStackingManager(address)":"c2952029","transferOwnership(address)":"f2fde38b","usdc()":"3e413bee","withdraw(address,uint256)":"f3fef3a3","yieldDistributor()":"a38c2c3d","yieldStackingManager()":"a1df2abb"},"id":6}