{"abi":[{"type":"constructor","inputs":[{"name":"initialOwner","type":"address","internalType":"address"}],"stateMutability":"nonpayable"},{"type":"function","name":"approveProposal","inputs":[{"name":"proposalId","type":"uint256","internalType":"uint256"}],"outputs":[],"stateMutability":"nonpayable"},{"type":"function","name":"cashFlowEngine","inputs":[],"outputs":[{"name":"","type":"address","internalType":"address"}],"stateMutability":"view"},{"type":"function","name":"createProposal","inputs":[{"name":"amount","type":"uint256","internalType":"uint256"},{"name":"description","type":"string","internalType":"string"}],"outputs":[{"name":"","type":"uint256","internalType":"uint256"}],"stateMutability":"nonpayable"},{"type":"function","name":"getProposal","inputs":[{"name":"proposalId","type":"uint256","internalType":"uint256"}],"outputs":[{"name":"","type":"tuple","internalType":"struct SimpleDAO.Proposal","components":[{"name":"amount","type":"uint256","internalType":"uint256"},{"name":"description","type":"string","internalType":"string"},{"name":"approved","type":"bool","internalType":"bool"},{"name":"proposer","type":"address","internalType":"address"},{"name":"timestamp","type":"uint256","internalType":"uint256"}]}],"stateMutability":"view"},{"type":"function","name":"isProposalApproved","inputs":[{"name":"proposalId","type":"uint256","internalType":"uint256"}],"outputs":[{"name":"","type":"bool","internalType":"bool"}],"stateMutability":"view"},{"type":"function","name":"owner","inputs":[],"outputs":[{"name":"","type":"address","internalType":"address"}],"stateMutability":"view"},{"type":"function","name":"proposalCount","inputs":[],"outputs":[{"name":"","type":"uint256","internalType":"uint256"}],"stateMutability":"view"},{"type":"function","name":"proposals","inputs":[{"name":"","type":"uint256","internalType":"uint256"}],"outputs":[{"name":"amount","type":"uint256","internalType":"uint256"},{"name":"description","type":"string","internalType":"string"},{"name":"approved","type":"bool","internalType":"bool"},{"name":"proposer","type":"address","internalType":"address"},{"name":"timestamp","type":"uint256","internalType":"uint256"}],"stateMutability":"view"},{"type":"function","name":"renounceOwnership","inputs":[],"outputs":[],"stateMutability":"nonpayable"},{"type":"function","name":"setCashFlowEngine","inputs":[{"name":"_cashFlowEngine","type":"address","internalType":"address"}],"outputs":[],"stateMutability":"nonpayable"},{"type":"function","name":"transferOwnership","inputs":[{"name":"newOwner","type":"address","internalType":"address"}],"outputs":[],"stateMutability":"nonpayable"},{"type":"event","name":"CashFlowEngineSet","inputs":[{"name":"engine","type":"address","indexed":true,"internalType":"address"}],"anonymous":false},{"type":"event","name":"OwnershipTransferred","inputs":[{"name":"previousOwner","type":"address","indexed":true,"internalType":"address"},{"name":"newOwner","type":"address","indexed":true,"internalType":"address"}],"anonymous":false},{"type":"event","name":"ProposalApproved","inputs":[{"name":"proposalId","type":"uint256","indexed":true,"internalType":"uint256"}],"anonymous":false},{"type":"event","name":"ProposalCreated","inputs":[{"name":"proposalId","type":"uint256","indexed":true,"internalType":"uint256"},{"name":"proposer","type":"address","indexed":true,"internalType":"address"},{"name":"amount","type":"uint256","indexed":false,"internalType":"uint256"},{"name":"description","type":"string","indexed":false,"internalType":"string"}],"anonymous":false},{"type":"error","name":"OwnableInvalidOwner","inputs":[{"name":"owner","type":"address","internalType":"address"}]},{"type":"error","name":"OwnableUnauthorizedAccount","inputs":[{"name":"account","type":"address","internalType":"address"}]}],"bytecode":{"object":"0x6080346100b957601f610bbb38819003918201601f19168301916001600160401b038311848410176100bd578084926020946040528339810103126100b957516001600160a01b0390818116908190036100b95780156100a1575f80546001600160a01b03198116831782556040519316907f8be0079c531659141344cd1fd0a4f28419497f9722a3daafe3b4186f6b6457e09080a3610ae990816100d28239f35b604051631e4fbdf760e01b81525f6004820152602490fd5b5f80fd5b634e487b7160e01b5f52604160045260245ffdfe6080604052600480361015610012575f80fd5b5f3560e01c908163013cf08b1461080d57816302d52fa4146104a5578163715018a6146104615781638da5cb5b1461043a57816398951b56146103765781639abcc0cc14610339578163c7f758a814610255578163da35c66414610238578163f2fde38b146101c7578163feab8939146100c1575063fee7ad5a14610095575f80fd5b346100bd575f3660031901126100bd576003546040516001600160a01b039091168152602090f35b5f80fd5b346100bd5760203660031901126100bd5780356001600160a01b03818116918290036100bd576100ef610a48565b600354908116610175578115610134576001600160a01b03191681176003557f65bb62dffafaff7b808ecee7659b8d1556884f676fbb10b8a2ced53ec45223d65f80a2005b60405162461bcd60e51b8152602081850152601a60248201527953696d706c6544414f3a20696e76616c6964206164647265737360301b6044820152606490fd5b60405162461bcd60e51b8152602081850152602560248201527f53696d706c6544414f3a2043617368466c6f77456e67696e6520616c726561646044820152641e481cd95d60da1b6064820152608490fd5b346100bd5760203660031901126100bd576001600160a01b03813581811692908390036100bd576101f6610a48565b821561022157505f548260018060a01b03198216175f55165f80516020610a948339815191525f80a3005b6024905f60405191631e4fbdf760e01b8352820152fd5b346100bd575f3660031901126100bd576020600254604051908152f35b346100bd57602090816003193601126100bd57355f6080604051610278816108bf565b828152606085820152826040820152826060820152015261029c60025482106109f1565b5f526001815260405f20604051906102b3826108bf565b805482526102c360018201610911565b838301908152600282015491604084019260ff81161515845261031f600360018060a01b039384606089019460081c1684520154936080870194855260405197889781895251908801525160a0604088015260c08701906109b3565b935115156060860152511660808401525160a08301520390f35b346100bd5760203660031901126100bd573561035860025482106109f1565b5f526001602052602060ff600260405f200154166040519015158152f35b346100bd5760203660031901126100bd57803590610392610a48565b61039f60025483106109f1565b815f526001602052600260405f20019081549060ff82166103ea575060ff191660011790557f28ec9e38ba73636ceb2f6c1574136f83bd46284a3c74734b711bf45e12f8d9295f80a2005b60849060206040519162461bcd60e51b83528201526024808201527f53696d706c6544414f3a2070726f706f73616c20616c726561647920617070726044820152631bdd995960e21b6064820152fd5b346100bd575f3660031901126100bd575f546040516001600160a01b039091168152602090f35b346100bd575f3660031901126100bd57610479610a48565b5f80546001600160a01b0319811682556001600160a01b03165f80516020610a948339815191528280a3005b346100bd5760403660031901126100bd576001600160401b036024358181116100bd57366023820112156100bd578181840135116100bd5736602482850135830101116100bd578235156107b557808301351561076257600254915f19831461074f576001830160025560405161051b816108bf565b843581526040519061053a84870135601f01601f1916602001836108ee565b858401358083526024850160208401375f60208588013584010152602081019182525f6040820152336060820152426080820152845f52600160205260405f20918151835551805193841161073c576105966001840154610887565b601f81116106f4575b50916020969186938890601f87116001146106735791865f80516020610a7483398151915296976080936003955f92610668575b50505f1982861b1c1916600191821b17908501555b6002840160408201511515815460ff610100600160a81b03606086015160081b1692169060018060a81b03191617179055015191015560606040518281933582526040898301528681013560408301528681013560248801848401375f9601358181018301969096523395601f01601f19168101030190a3604051908152f35b015190508c806105d3565b9590600184015f52895f20965f5b601f19841681106106da5750825f80516020610a74833981519152979860039593600193608096601f198116106106c3575b505050811b0160018501556105e8565b01515f1983881b60f8161c191690558c80806106b3565b8282015189556001909801978a9750918b01918b01610681565b600184015f5260205f20601f860160051c81019160208710610732575b601f0160051c01905b818110610727575061059f565b5f815560010161071a565b9091508190610711565b604187634e487b7160e01b5f525260245ffd5b601184634e487b7160e01b5f525260245ffd5b60405162461bcd60e51b8152602081850152602660248201527f53696d706c6544414f3a206465736372697074696f6e2063616e6e6f7420626560448201526520656d70747960d01b6064820152608490fd5b60405162461bcd60e51b8152602081850152602b60248201527f53696d706c6544414f3a20616d6f756e74206d7573742062652067726561746560448201526a72207468616e207a65726f60a81b6064820152608490fd5b346100bd5760203660031901126100bd57355f52600160205260405f20805461083860018301610911565b916003600282015491015461085f604051948594855260a0602086015260a08501906109b3565b60ff83161515604085015260089290921c6001600160a01b0316606084015260808301520390f35b90600182811c921680156108b5575b60208310146108a157565b634e487b7160e01b5f52602260045260245ffd5b91607f1691610896565b60a081019081106001600160401b038211176108da57604052565b634e487b7160e01b5f52604160045260245ffd5b601f909101601f19168101906001600160401b038211908210176108da57604052565b9060405191825f825461092381610887565b908184526020946001916001811690815f146109915750600114610953575b505050610951925003836108ee565b565b5f90815285812095935091905b81831061097957505061095193508201015f8080610942565b85548884018501529485019487945091830191610960565b9250505061095194925060ff191682840152151560051b8201015f8080610942565b91908251928382525f5b8481106109dd575050825f602080949584010152601f8019910116010190565b6020818301810151848301820152016109bd565b156109f857565b60405162461bcd60e51b815260206004820152602260248201527f53696d706c6544414f3a2070726f706f73616c20646f6573206e6f74206578696044820152611cdd60f21b6064820152608490fd5b5f546001600160a01b03163303610a5b57565b60405163118cdaa760e01b8152336004820152602490fdfe85b1e5bd1e58840265c40582ff09f8cbfab823e041a824467b654a99b5156d398be0079c531659141344cd1fd0a4f28419497f9722a3daafe3b4186f6b6457e0a26469706673582212201e84298508d2527b01ab663310bb3bdc80b796ff1b1a144b0603115ff8e1e38564736f6c63430008180033","linkReferences":{}},"methodIdentifiers":{"approveProposal(uint256)":"98951b56","cashFlowEngine()":"fee7ad5a","createProposal(uint256,string)":"02d52fa4","getProposal(uint256)":"c7f758a8","isProposalApproved(uint256)":"9abcc0cc","owner()":"8da5cb5b","proposalCount()":"da35c664","proposals(uint256)":"013cf08b","renounceOwnership()":"715018a6","setCashFlowEngine(address)":"feab8939","transferOwnership(address)":"f2fde38b"},"id":7}