{"abi":[{"type":"constructor","inputs":[{"name":"_usdc","type":"address","internalType":"address"},{"name":"_rentVault","type":"address","internalType":"address"},{"name":"initialOwner","type":"address","internalType":"address"}],"stateMutability":"nonpayable"},{"type":"function","name":"WITHDRAWAL_SLIPPAGE_TOLERANCE_BPS","inputs":[],"outputs":[{"name":"","type":"uint256","internalType":"uint256"}],"stateMutability":"view"},{"type":"function","name":"autoDepositEnabled","inputs":[],"outputs":[{"name":"","type":"bool","internalType":"bool"}],"stateMutability":"view"},{"type":"function","name":"autoDepositIdleFunds","inputs":[],"outputs":[],"stateMutability":"nonpayable"},{"type":"function","name":"calculateIdleFunds","inputs":[],"outputs":[{"name":"","type":"uint256","internalType":"uint256"}],"stateMutability":"view"},{"type":"function","name":"cashFlowEngine","inputs":[],"outputs":[{"name":"","type":"address","internalType":"contract CashFlowEngine"}],"stateMutability":"view"},{"type":"function","name":"depositToVault","inputs":[{"name":"amount","type":"uint256","internalType":"uint256"}],"outputs":[],"stateMutability":"nonpayable"},{"type":"function","name":"depositsPerPeriod","inputs":[{"name":"","type":"uint256","internalType":"uint256"}],"outputs":[{"name":"","type":"uint256","internalType":"uint256"}],"stateMutability":"view"},{"type":"function","name":"emergencyWithdraw","inputs":[],"outputs":[],"stateMutability":"nonpayable"},{"type":"function","name":"getCurrentPeriod","inputs":[],"outputs":[{"name":"","type":"uint256","internalType":"uint256"}],"stateMutability":"view"},{"type":"function","name":"getTotalAssetsInVault","inputs":[],"outputs":[{"name":"","type":"uint256","internalType":"uint256"}],"stateMutability":"view"},{"type":"function","name":"getYieldEarned","inputs":[],"outputs":[{"name":"","type":"uint256","internalType":"uint256"}],"stateMutability":"view"},{"type":"function","name":"lastDepositTime","inputs":[],"outputs":[{"name":"","type":"uint256","internalType":"uint256"}],"stateMutability":"view"},{"type":"function","name":"minimumDepositAmount","inputs":[],"outputs":[{"name":"","type":"uint256","internalType":"uint256"}],"stateMutability":"view"},{"type":"function","name":"owner","inputs":[],"outputs":[{"name":"","type":"address","internalType":"address"}],"stateMutability":"view"},{"type":"function","name":"renounceOwnership","inputs":[],"outputs":[],"stateMutability":"nonpayable"},{"type":"function","name":"rentVault","inputs":[],"outputs":[{"name":"","type":"address","internalType":"contract RentVault"}],"stateMutability":"view"},{"type":"function","name":"reserveThreshold","inputs":[],"outputs":[{"name":"","type":"uint256","internalType":"uint256"}],"stateMutability":"view"},{"type":"function","name":"setAutoDepositEnabled","inputs":[{"name":"_enabled","type":"bool","internalType":"bool"}],"outputs":[],"stateMutability":"nonpayable"},{"type":"function","name":"setCashFlowEngine","inputs":[{"name":"_cashFlowEngine","type":"address","internalType":"address"}],"outputs":[],"stateMutability":"nonpayable"},{"type":"function","name":"setMinimumDepositAmount","inputs":[{"name":"_minimum","type":"uint256","internalType":"uint256"}],"outputs":[],"stateMutability":"nonpayable"},{"type":"function","name":"setReserveThreshold","inputs":[{"name":"_threshold","type":"uint256","internalType":"uint256"}],"outputs":[],"stateMutability":"nonpayable"},{"type":"function","name":"setYieldVault","inputs":[{"name":"_vault","type":"address","internalType":"address"}],"outputs":[],"stateMutability":"nonpayable"},{"type":"function","name":"totalDeposited","inputs":[],"outputs":[{"name":"","type":"uint256","internalType":"uint256"}],"stateMutability":"view"},{"type":"function","name":"transferOwnership","inputs":[{"name":"newOwner","type":"address","internalType":"address"}],"outputs":[],"stateMutability":"nonpayable"},{"type":"function","name":"usdc","inputs":[],"outputs":[{"name":"","type":"address","internalType":"contract IERC20"}],"stateMutability":"view"},{"type":"function","name":"withdrawForDistribution","inputs":[{"name":"amount","type":"uint256","internalType":"uint256"}],"outputs":[],"stateMutability":"nonpayable"},{"type":"function","name":"yieldVault","inputs":[],"outputs":[{"name":"","type":"address","internalType":"contract IERC4626"}],"stateMutability":"view"},{"type":"event","name":"AutoDepositToggled","inputs":[{"name":"enabled","type":"bool","indexed":false,"internalType":"bool"}],"anonymous":false},{"type":"event","name":"FundsDeposited","inputs":[{"name":"amount","type":"uint256","indexed":false,"internalType":"uint256"},{"name":"shares","type":"uint256","indexed":false,"internalType":"uint256"},{"name":"period","type":"uint256","indexed":false,"internalType":"uint256"}],"anonymous":false},{"type":"event","name":"FundsWithdrawn","inputs":[{"name":"amount","type":"uint256","indexed":false,"internalType":"uint256"},{"name":"shares","type":"uint256","indexed":false,"internalType":"uint256"}],"anonymous":false},{"type":"event","name":"MinimumDepositSet","inputs":[{"name":"minimum","type":"uint256","indexed":false,"internalType":"uint256"}],"anonymous":false},{"type":"event","name":"OwnershipTransferred","inputs":[{"name":"previousOwner","type":"address","indexed":true,"internalType":"address"},{"name":"newOwner","type":"address","indexed":true,"internalType":"address"}],"anonymous":false},{"type":"event","name":"ReserveThresholdSet","inputs":[{"name":"threshold","type":"uint256","indexed":false,"internalType":"uint256"}],"anonymous":false},{"type":"event","name":"YieldEarned","inputs":[{"name":"yieldAmount","type":"uint256","indexed":false,"internalType":"uint256"}],"anonymous":false},{"type":"event","name":"YieldVaultSet","inputs":[{"name":"vault","type":"address","indexed":true,"internalType":"address"}],"anonymous":false},{"type":"error","name":"OwnableInvalidOwner","inputs":[{"name":"owner","type":"address","internalType":"address"}]},{"type":"error","name":"OwnableUnauthorizedAccount","inputs":[{"name":"account","type":"address","internalType":"address"}]},{"type":"error","name":"ReentrancyGuardReentrantCall","inputs":[]},{"type":"error","name":"SafeERC20FailedOperation","inputs":[{"name":"token","type":"address","internalType":"address"}]}],"bytecode":{"object":"0x6080346200020557601f62001a8938819003918201601f191683019291906001600160401b0384118385101762000209578160609284926040968752833981010312620002055762000051816200021d565b908262000061602083016200021d565b916001600160a01b039182916200007991016200021d565b16918215620001ee57815f549460018060a01b03199480868816175f5582885197167f8be0079c531659141344cd1fd0a4f28419497f9722a3daafe3b4186f6b6457e05f80a360017f9b779b17422d0df92223018b32b4d1fa46e071723d6817e2486d003becc55f005516938415620001995750169182156200013c578160025416176002556003541617600355686c6b935b8bbd400000600555683635c9adc5dea00000600655600160ff196007541617600755516118569081620002338239f35b835162461bcd60e51b815260206004820152603060248201527f5969656c64537461636b696e674d616e616765723a20696e76616c696420726560448201526f6e74207661756c74206164647265737360801b6064820152608490fd5b62461bcd60e51b815260206004820152602a60248201527f5969656c64537461636b696e674d616e616765723a20696e76616c69642055536044820152694443206164647265737360b01b6064820152608490fd5b8451631e4fbdf760e01b81525f6004820152602490fd5b5f80fd5b634e487b7160e01b5f52604160045260245ffd5b51906001600160a01b0382168203620002055756fe6080604090808252600480361015610015575f80fd5b5f3560e01c918263080c279a14610e0e57508163086146d214610d85578163137c3f6914610c0e5781632b1dc88414610bf25781632ca6be1f14610ba55781632e2ad07914610b875781633519118114610b255781633e413bee14610afd578163627d95e414610ada578163715018a614610a965781637b7d3f931461092d57816380499078146109115781638501de01146108ee5781638da5cb5b146108c75781639c9c5d0c1461089f578163a7f8a5e214610877578163aab483d61461082a578163b0462296146107dd578163bd28f351146107bf578163c2c7b652146107a3578163c89a91db1461077c578163d9b3e92f14610412578163db2e21bc146102ad578163f2fde38b14610239578163feab893914610191578163fee7ad5a1461016a575063ff50abdc14610149575f80fd5b34610166575f366003190112610166576020906008549051908152f35b5f80fd5b8234610166575f36600319011261016657905490516001600160a01b039091168152602090f35b82346101665760203660031901126101665781356001600160a01b0381169190829003610166576101c0611213565b81156101d8575081546001600160a01b031916179055005b5162461bcd60e51b8152602081840152603660248201527f5969656c64537461636b696e674d616e616765723a20696e76616c6964206361604482015275736820666c6f7720656e67696e65206164647265737360501b6064820152608490fd5b8234610166576020366003190112610166576001600160a01b038235818116939192908490036101665761026b611213565b83156102975750505f548260018060a01b03198216175f55165f805160206117c18339815191525f80a3005b905f6024925191631e4fbdf760e01b8352820152fd5b8234610166575f366003190112610166576102c6611213565b6102ce61123e565b6001546001600160a01b03929083166102e8811515610fb8565b82516370a0823160e01b81523083820152906020908183602481845afa928315610408575f936103d9575b508261032d575b60015f805160206117e183398151915255005b61035282915f958751968780948193635d043b2960e11b835230908a309185016111f3565b03925af19283156103cf575f9361039c575b5061038883865f805160206118018339815191529760025416906003541690611702565b8351928352820152a180808080808061031a565b9492508085813d83116103c8575b6103b48183610e28565b810103126101665793519193610388610364565b503d6103aa565b84513d5f823e3d90fd5b9092508181813d8311610401575b6103f18183610e28565b8101031261016657519186610313565b503d6103e7565b85513d5f823e3d90fd5b82346101665760209182600319360112610166575f546001600160a01b03938235929185163314801561076f575b8015610763575b80156106fd575b61045790610f60565b61045f61123e565b846001541692610470841515610fb8565b80159261047d8415611188565b8551630a28a47760e01b8152818101839052938385602481895afa94851561064b575f956106ce575b508651636c82bbbf60e11b8152308382015284816024818a5afa9081156106c4575f91610697575b508511610655578387518097635d043b2960e11b8252815f816104f530308d8b85016111f3565b03925af195861561064b575f9661061c575b506101f4908184029184830414171561060957612710610528910483611031565b85106105be5750835f80516020611801833981519152968261055c93831015610578575b5060025460035482169116611702565b8351928352820152a160015f805160206117e183398151915255005b6105829083611031565b848161058f575b5061054c565b7f0fdcac51e9ac7e6c32c155794ef3971695f83dd47a7982cbfd4a7e2fe991c7cc918951908152a18884610589565b855162461bcd60e51b8152908101839052603260248201525f805160206117a18339815191526044820152711b9d08185cdcd95d1cc81c9958d95a5d995960721b6064820152608490fd5b601182634e487b7160e01b5f525260245ffd5b9095508381813d8311610644575b6106348183610e28565b8101031261016657519488610507565b503d61062a565b87513d5f823e3d90fd5b865162461bcd60e51b8152808301859052602960248201525f805160206117a18339815191526044820152686e742073686172657360b81b6064820152608490fd5b90508481813d83116106bd575b6106ae8183610e28565b810103126101665751896104ce565b503d6106a4565b88513d5f823e3d90fd5b9094508381813d83116106f6575b6106e68183610e28565b81010312610166575193886104a6565b503d6106dc565b5081818660035416865192838092638da5cb5b60e01b82525afa908115610408576104579187915f91610736575b50163314905061044e565b6107569150843d861161075c575b61074e8183610e28565b810190610e5f565b8861072b565b503d610744565b50848254163314610447565b5084600354163314610440565b823461016657602036600319011261016657602091355f52600a8252805f20549051908152f35b8234610166575f36600319011261016657602090516101f48152f35b8234610166575f366003190112610166576020906009549051908152f35b346101665760203660031901126101665761031a90356107fb611213565b61080361123e565b60015461081a906001600160a01b03161515610fb8565b610825811515611188565b61126d565b905034610166576020366003190112610166577fca2e9e3e71d8dcab383b61e219dc9f736ee812dbb08aff666933b85949553d3991602091359061086c611213565b8160065551908152a1005b8234610166575f3660031901126101665760015490516001600160a01b039091168152602090f35b8234610166575f3660031901126101665760035490516001600160a01b039091168152602090f35b8234610166575f366003190112610166575f5490516001600160a01b039091168152602090f35b8234610166575f3660031901126101665760209061090a61114a565b9051908152f35b8234610166575f3660031901126101665760209061090a61103e565b905034610166575f366003190112610166575f546001600160a01b039290831633148015610a89575b8015610a7d575b8015610a1a575b61096d90610f60565b61097561123e565b60ff60075416156109c35761098f83600154161515610fb8565b61099761103e565b6006548110156109b45760015f805160206117e183398151915255005b6109bd9061126d565b8061031a565b906020608492519162461bcd60e51b8352820152602b60248201527f5969656c64537461636b696e674d616e616765723a206175746f2d6465706f7360448201526a1a5d08191a5cd8589b195960aa1b6064820152fd5b508160208460035416835192838092638da5cb5b60e01b82525afa908115610a735761096d9185915f91610a54575b501633149050610964565b610a6d915060203d60201161075c5761074e8183610e28565b5f610a49565b82513d5f823e3d90fd5b5082825416331461095d565b5082600354163314610956565b34610166575f36600319011261016657610aae611213565b5f80546001600160a01b0319811682556001600160a01b03165f805160206117c18339815191528280a3005b8234610166575f3660031901126101665760209060ff6007541690519015158152f35b8234610166575f3660031901126101665760025490516001600160a01b039091168152602090f35b905034610166576020366003190112610166573590811515809203610166577f8eeec181d36d9012eaaed8d7860cb5fa6e815254a5a2fa238fb197c03732247e91602091610b71611213565b60ff196007541660ff83161760075551908152a1005b8234610166575f366003190112610166576020906005549051908152f35b905034610166576020366003190112610166577f9530355cac0969404662db60e90664d90fdf47c37c69fa53616fc509fde4c294916020913590610be7611213565b8160055551908152a1005b8234610166575f3660031901126101665760209061090a610e7e565b905034610166576020806003193601126101665781356001600160a01b03818116949185900361016657610c40611213565b8415610d2f5781516338d52e0f60e01b81529083828681895afa918215610d25575f92610d06575b508060025416911603610cae57600180546001600160a01b03191685179055837ff2a68c50468a5edde97a8d5f74eed762dfa952416e57cb30e2494df93a6fc7775f80a2005b5162461bcd60e51b815291820152602e60248201527f5969656c64537461636b696e674d616e616765723a207661756c74206173736560448201526d74206d757374206265205553444360901b606482015260849150fd5b610d1e919250843d861161075c5761074e8183610e28565b905f610c68565b83513d5f823e3d90fd5b505162461bcd60e51b815291820152602b60248201527f5969656c64537461636b696e674d616e616765723a20696e76616c696420766160448201526a756c74206164647265737360a81b606482015260849150fd5b8234610166575f36600319011261016657600354815162c080c360e31b81529260209184919082906001600160a01b03165afa908115610e05575f91610dd0575b6020925051908152f35b90506020823d602011610dfd575b81610deb60209383610e28565b81010312610166576020915190610dc6565b3d9150610dde565b513d5f823e3d90fd5b34610166575f366003190112610166576020906006548152f35b601f909101601f19168101906001600160401b03821190821017610e4b57604052565b634e487b7160e01b5f52604160045260245ffd5b9081602091031261016657516001600160a01b03811681036101665790565b6001546001600160a01b03168015610f5b576040516370a0823160e01b8152306004820152602091908281602481855afa908115610f1c575f91610f2e575b508015610f275782906024604051809481936303d1689d60e11b835260048301525afa918215610f1c575f92610ef257505090565b90809250813d8311610f15575b610f098183610e28565b81010312610166575190565b503d610eff565b6040513d5f823e3d90fd5b5050505f90565b90508281813d8311610f54575b610f458183610e28565b8101031261016657515f610ebd565b503d610f3b565b505f90565b15610f6757565b60405162461bcd60e51b8152602060048201526024808201527f5969656c64537461636b696e674d616e616765723a206e6f7420617574686f726044820152631a5e995960e21b6064820152608490fd5b15610fbf57565b60405162461bcd60e51b815260206004820152602360248201527f5969656c64537461636b696e674d616e616765723a207661756c74206e6f74206044820152621cd95d60ea1b6064820152608490fd5b9190820180921161101d57565b634e487b7160e01b5f52601160045260245ffd5b9190820391821161101d57565b6002546003546040516370a0823160e01b81526001600160a01b039182166004820152909160209081908390602490829087165afa918215610f1c575f9261111b575b505f9260045416806110ba575b50506005549061109e8284611010565b811115610f27576110b7926110b291611031565b611031565b90565b8192935090600491604051928380926338831e1d60e21b82525afa918215610f1c575f926110ed575b5050905f8061108e565b90809250813d8311611114575b6111048183610e28565b8101031261016657515f806110e3565b503d6110fa565b9080925081813d8311611143575b6111338183610e28565b810103126101665751905f611081565b503d611129565b6001546001600160a01b031615611184576008548015610f5b5761116c610e7e565b908082111561117e576110b791611031565b50505f90565b5f90565b1561118f57565b60405162461bcd60e51b815260206004820152603660248201527f5969656c64537461636b696e674d616e616765723a20616d6f756e74206d7573604482015275742062652067726561746572207468616e207a65726f60501b6064820152608490fd5b9081526001600160a01b0391821660208201529116604082015260600190565b5f546001600160a01b0316330361122657565b60405163118cdaa760e01b8152336004820152602490fd5b5f805160206117e1833981519152600281541461125b5760029055565b604051633ee5aeb560e01b8152600490fd5b600254600354604080516370a0823160e01b81526001600160a01b0392831660048083018290526020969590946024935f939192899082908790829087165afa908115611685579088915f916116d1575b501061168f57803b15610166575f90818651809263f3fef3a360e01b8252308a8301528a888301528160449586925af1801561168557611658575b5060018054865163ef8b30f760e01b81528881018a905295919084168a878481845afa96871561164e57869761161f575b5086156115ca5790888b86938c8560025416928c51918363095ea7b360e01b96875f525288525f898180875af1855f51148116156115bd575b818d52156114ff575b505050505416948989848a888b519a8b948593636e553f6560e01b855284015230888401525af19586156114f55785966114c6575b50851061146b57505086906113b887600854611010565b600855426009556003541684519586809262c080c360e31b82525afa93841561145f57819461141d575b50905f805160206117818339815191529583838660609897969552600a83522061140d868254611010565b90558251948552840152820152a1565b94935091908585813d8311611458575b6114378183610e28565b81010312610166579351929390915f805160206117818339815191526113e2565b503d61142d565b508251903d90823e3d90fd5b7f5969656c64537461636b696e674d616e616765723a20736c6970706167652074608492603289938c8a519562461bcd60e51b8752860152840152820152711bdbc81a1a59da081bdb8819195c1bdcda5d60721b6064820152fd5b9095508981813d83116114ee575b6114de8183610e28565b810103126101665751945f6113a1565b503d6114d4565b87513d87823e3d90fd5b909192939450835f52818c525f86528d5f888180875af1855f511481161561159f575b818c521561158b57508951925f528a528a84528b5f868180855af1835f511481161561156d575b828a521561155b57808087949361136c565b635274afe760e01b8252898201529050fd5b8381151661158257813b15153d151616611549565b823d5f823e3d90fd5b635274afe760e01b81528b81018390528590fd5b858115166115b457833b15153d151616611522565b503d5f823e3d90fd5b833b15153d151616611363565b50865162461bcd60e51b81528089018b9052602a818401527f5969656c64537461636b696e674d616e616765723a207a65726f20736861726581850152691cc8195e1c1958dd195960b21b6064820152608490fd5b9096508a81813d8311611647575b6116378183610e28565b810103126101665751955f61132a565b503d61162d565b88513d88823e3d90fd5b9092506001600160401b0381116116735784525f915f6112f9565b83604187634e487b7160e01b5f52525ffd5b86513d5f823e3d90fd5b845162461bcd60e51b8152808701899052602a818601525f805160206117a18339815191526044820152696e742062616c616e636560b01b6064820152608490fd5b8092508a8092503d83116116fb575b6116ea8183610e28565b81010312610166578790515f6112be565b503d6116e0565b60405163a9059cbb60e01b5f9081526001600160a01b039384166004526024949094529260209060448180855af160015f5114811615611761575b836040521561174b57505050565b635274afe760e01b835216600482015260249150fd5b600181151661177757813b15153d15161661173d565b833d5f823e3d90fdfeed2de103da084463a1b2895568d352fd796dfd1d033c0e8ee9fabe73a67153895969656c64537461636b696e674d616e616765723a20696e73756666696369658be0079c531659141344cd1fd0a4f28419497f9722a3daafe3b4186f6b6457e09b779b17422d0df92223018b32b4d1fa46e071723d6817e2486d003becc55f00d66662c0ded9e58fd31d5e44944bcfd07ffc15e6927ecc1382e7941cb7bd24c4a2646970667358221220e348421878c431049d85dffe9b1895138e3fe964f40a85686e07b701f8ca471964736f6c63430008180033","linkReferences":{}},"methodIdentifiers":{"WITHDRAWAL_SLIPPAGE_TOLERANCE_BPS()":"c2c7b652","autoDepositEnabled()":"627d95e4","autoDepositIdleFunds()":"7b7d3f93","calculateIdleFunds()":"80499078","cashFlowEngine()":"fee7ad5a","depositToVault(uint256)":"b0462296","depositsPerPeriod(uint256)":"c89a91db","emergencyWithdraw()":"db2e21bc","getCurrentPeriod()":"086146d2","getTotalAssetsInVault()":"2b1dc884","getYieldEarned()":"8501de01","lastDepositTime()":"bd28f351","minimumDepositAmount()":"080c279a","owner()":"8da5cb5b","renounceOwnership()":"715018a6","rentVault()":"9c9c5d0c","reserveThreshold()":"2e2ad079","setAutoDepositEnabled(bool)":"35191181","setCashFlowEngine(address)":"feab8939","setMinimumDepositAmount(uint256)":"aab483d6","setReserveThreshold(uint256)":"2ca6be1f","setYieldVault(address)":"137c3f69","totalDeposited()":"ff50abdc","transferOwnership(address)":"f2fde38b","usdc()":"3e413bee","withdrawForDistribution(uint256)":"d9b3e92f","yieldVault()":"a7f8a5e2"},"id":10}