{"abi":[{"type":"constructor","inputs":[{"name":"_usdc","type":"address","internalType":"address"},{"name":"initialOwner","type":"address","internalType":"address"}],"stateMutability":"nonpayable"},{"type":"function","name":"approveCapExProposal","inputs":[{"name":"proposalId","type":"uint256","internalType":"uint256"}],"outputs":[],"stateMutability":"nonpayable"},{"type":"function","name":"cashFlowEngine","inputs":[],"outputs":[{"name":"","type":"address","internalType":"contract CashFlowEngine"}],"stateMutability":"view"},{"type":"function","name":"claimYield","inputs":[{"name":"period","type":"uint256","internalType":"uint256"}],"outputs":[],"stateMutability":"nonpayable"},{"type":"function","name":"configureYieldStacking","inputs":[{"name":"reserveThreshold","type":"uint256","internalType":"uint256"},{"name":"minimumDeposit","type":"uint256","internalType":"uint256"}],"outputs":[],"stateMutability":"nonpayable"},{"type":"function","name":"createCapExProposal","inputs":[{"name":"amount","type":"uint256","internalType":"uint256"},{"name":"description","type":"string","internalType":"string"}],"outputs":[{"name":"","type":"uint256","internalType":"uint256"}],"stateMutability":"nonpayable"},{"type":"function","name":"dao","inputs":[],"outputs":[{"name":"","type":"address","internalType":"contract SimpleDAO"}],"stateMutability":"view"},{"type":"function","name":"depositRent","inputs":[{"name":"amount","type":"uint256","internalType":"uint256"}],"outputs":[],"stateMutability":"nonpayable"},{"type":"function","name":"distributeYield","inputs":[],"outputs":[],"stateMutability":"nonpayable"},{"type":"function","name":"getCashFlowFromAssets","inputs":[],"outputs":[{"name":"","type":"int256","internalType":"int256"}],"stateMutability":"view"},{"type":"function","name":"getContracts","inputs":[],"outputs":[{"name":"_propertyNFT","type":"address","internalType":"address"},{"name":"_propertyShares","type":"address","internalType":"address"},{"name":"_rentVault","type":"address","internalType":"address"},{"name":"_cashFlowEngine","type":"address","internalType":"address"},{"name":"_yieldDistributor","type":"address","internalType":"address"},{"name":"_dao","type":"address","internalType":"address"},{"name":"_yieldStackingManager","type":"address","internalType":"address"}],"stateMutability":"view"},{"type":"function","name":"getDistributableCashFlow","inputs":[],"outputs":[{"name":"","type":"uint256","internalType":"uint256"}],"stateMutability":"view"},{"type":"function","name":"getPropertyData","inputs":[],"outputs":[{"name":"","type":"tuple","internalType":"struct IPropertyNFT.PropertyData","components":[{"name":"location","type":"string","internalType":"string"},{"name":"valuation","type":"uint256","internalType":"uint256"},{"name":"monthlyRent","type":"uint256","internalType":"uint256"},{"name":"metadataURI","type":"string","internalType":"string"}]}],"stateMutability":"view"},{"type":"function","name":"getTotalAssetsInVault","inputs":[],"outputs":[{"name":"","type":"uint256","internalType":"uint256"}],"stateMutability":"view"},{"type":"function","name":"getYieldEarned","inputs":[],"outputs":[{"name":"","type":"uint256","internalType":"uint256"}],"stateMutability":"view"},{"type":"function","name":"initialize","inputs":[{"name":"propertyData","type":"tuple","internalType":"struct IPropertyNFT.PropertyData","components":[{"name":"location","type":"string","internalType":"string"},{"name":"valuation","type":"uint256","internalType":"uint256"},{"name":"monthlyRent","type":"uint256","internalType":"uint256"},{"name":"metadataURI","type":"string","internalType":"string"}]},{"name":"_totalShares","type":"uint256","internalType":"uint256"},{"name":"initialShareholder","type":"address","internalType":"address"}],"outputs":[],"stateMutability":"nonpayable"},{"type":"function","name":"initialized","inputs":[],"outputs":[{"name":"","type":"bool","internalType":"bool"}],"stateMutability":"view"},{"type":"function","name":"owner","inputs":[],"outputs":[{"name":"","type":"address","internalType":"address"}],"stateMutability":"view"},{"type":"function","name":"propertyId","inputs":[],"outputs":[{"name":"","type":"uint256","internalType":"uint256"}],"stateMutability":"view"},{"type":"function","name":"propertyNFT","inputs":[],"outputs":[{"name":"","type":"address","internalType":"contract PropertyNFT"}],"stateMutability":"view"},{"type":"function","name":"propertyShares","inputs":[],"outputs":[{"name":"","type":"address","internalType":"contract PropertyShares"}],"stateMutability":"view"},{"type":"function","name":"recordCapEx","inputs":[{"name":"amount","type":"uint256","internalType":"uint256"},{"name":"proposalId","type":"uint256","internalType":"uint256"}],"outputs":[],"stateMutability":"nonpayable"},{"type":"function","name":"recordOperatingExpense","inputs":[{"name":"amount","type":"uint256","internalType":"uint256"}],"outputs":[],"stateMutability":"nonpayable"},{"type":"function","name":"renounceOwnership","inputs":[],"outputs":[],"stateMutability":"nonpayable"},{"type":"function","name":"rentVault","inputs":[],"outputs":[{"name":"","type":"address","internalType":"contract RentVault"}],"stateMutability":"view"},{"type":"function","name":"resetPeriod","inputs":[],"outputs":[],"stateMutability":"nonpayable"},{"type":"function","name":"setAutoDepositEnabled","inputs":[{"name":"enabled","type":"bool","internalType":"bool"}],"outputs":[],"stateMutability":"nonpayable"},{"type":"function","name":"setManager","inputs":[{"name":"manager","type":"address","internalType":"address"}],"outputs":[],"stateMutability":"nonpayable"},{"type":"function","name":"setYieldVault","inputs":[{"name":"vaultAddress","type":"address","internalType":"address"}],"outputs":[],"stateMutability":"nonpayable"},{"type":"function","name":"totalShares","inputs":[],"outputs":[{"name":"","type":"uint256","internalType":"uint256"}],"stateMutability":"view"},{"type":"function","name":"transferOwnership","inputs":[{"name":"newOwner","type":"address","internalType":"address"}],"outputs":[],"stateMutability":"nonpayable"},{"type":"function","name":"usdc","inputs":[],"outputs":[{"name":"","type":"address","internalType":"address"}],"stateMutability":"view"},{"type":"function","name":"yieldDistributor","inputs":[],"outputs":[{"name":"","type":"address","internalType":"contract YieldDistributor"}],"stateMutability":"view"},{"type":"function","name":"yieldStackingManager","inputs":[],"outputs":[{"name":"","type":"address","internalType":"contract YieldStackingManager"}],"stateMutability":"view"},{"type":"event","name":"OwnershipTransferred","inputs":[{"name":"previousOwner","type":"address","indexed":true,"internalType":"address"},{"name":"newOwner","type":"address","indexed":true,"internalType":"address"}],"anonymous":false},{"type":"event","name":"SystemInitialized","inputs":[{"name":"propertyId","type":"uint256","indexed":true,"internalType":"uint256"},{"name":"propertyNFT","type":"address","indexed":false,"internalType":"address"},{"name":"propertyShares","type":"address","indexed":false,"internalType":"address"},{"name":"rentVault","type":"address","indexed":false,"internalType":"address"},{"name":"cashFlowEngine","type":"address","indexed":false,"internalType":"address"},{"name":"yieldDistributor","type":"address","indexed":false,"internalType":"address"},{"name":"dao","type":"address","indexed":false,"internalType":"address"}],"anonymous":false},{"type":"error","name":"OwnableInvalidOwner","inputs":[{"name":"owner","type":"address","internalType":"address"}]},{"type":"error","name":"OwnableUnauthorizedAccount","inputs":[{"name":"account","type":"address","internalType":"address"}]}],"bytecode":{"object":"0x608060405234801562000010575f80fd5b5060405162009e9938038062009e9983398101604081905262000033916200016e565b806001600160a01b0381166200006357604051631e4fbdf760e01b81525f60048201526024015b60405180910390fd5b6200006e8162000103565b506001600160a01b038216620000dc5760405162461bcd60e51b815260206004820152602c60248201527f50726f706572747943617368466c6f7753797374656d3a20696e76616c69642060448201526b55534443206164647265737360a01b60648201526084016200005a565b50600a80546001600160a01b0319166001600160a01b0392909216919091179055620001a4565b5f80546001600160a01b038381166001600160a01b0319831681178455604051919092169283917f8be0079c531659141344cd1fd0a4f28419497f9722a3daafe3b4186f6b6457e09190a35050565b80516001600160a01b038116811462000169575f80fd5b919050565b5f806040838503121562000180575f80fd5b6200018b8362000152565b91506200019b6020840162000152565b90509250929050565b619ce780620001b25f395ff3fe608060405234801562000010575f80fd5b50600436106200021c575f3560e01c80637b3e2387116200012b578063c3a2a93a11620000b7578063df2c2b5e1162000083578063df2c2b5e14620004a9578063ee7a3b8e14620004c0578063f2fde38b14620004ca578063f6e96ced14620004e1578063fee7ad5a14620004f8575f80fd5b8063c3a2a93a1462000411578063c6e215841462000471578063d0ebdbe71462000488578063d4311216146200049f575f80fd5b8063944c1d9711620000f7578063944c1d9714620003cb5780639c9c5d0c14620003d5578063a1df2abb14620003e9578063a38c2c3d14620003fd575f80fd5b80637b3e2387146200038f5780638501de0114620003a65780638a570a1214620003b05780638da5cb5b14620003ba575f80fd5b806337f7683811620001ab5780634162169f11620001775780634162169f1462000346578063697b8d75146200035a578063715018a614620003715780637964293c146200037b575f80fd5b806337f7683814620002e45780633a98ef3914620003115780633e413bee146200031b57806340bd2e23146200032f575f80fd5b80631ff6577011620001eb5780631ff657701462000293578063279266e114620002ac5780632b1dc88414620002c35780633519118114620002cd575f80fd5b8063081aa0181462000220578063137c3f691462000239578063158ef93e14620002505780631d7450ac146200027a575b5f80fd5b6200023762000231366004620014c2565b6200050c565b005b620002376200024a366004620014ff565b62000571565b600a546200026590600160a01b900460ff1681565b60405190151581526020015b60405180910390f35b62000284620005db565b60405162000271919062001573565b6200029d62000684565b60405190815260200162000271565b6200029d620002bd366004620015cc565b620006fc565b6200029d6200077c565b62000237620002de36600462001646565b620007c4565b600154620002f8906001600160a01b031681565b6040516001600160a01b03909116815260200162000271565b6200029d60095481565b600a54620002f8906001600160a01b031681565b620002376200034036600462001667565b62000801565b600654620002f8906001600160a01b031681565b620002376200036b36600462001667565b62000833565b6200023762000865565b600254620002f8906001600160a01b031681565b62000237620003a03660046200167f565b6200087c565b6200029d62001126565b620002376200116e565b5f546001600160a01b0316620002f8565b62000237620011d4565b600354620002f8906001600160a01b031681565b600754620002f8906001600160a01b031681565b600554620002f8906001600160a01b031681565b600154600254600354600454600554600654600754604080516001600160a01b039889168152968816602088015294871694860194909452918516606085015284166080840152831660a08301529190911660c082015260e00162000271565b6200023762000482366004620014c2565b62001216565b6200023762000499366004620014ff565b620012ad565b6200029d620012ec565b62000237620004ba36600462001667565b6200133e565b6200029d60085481565b62000237620004db366004620014ff565b6200136e565b62000237620004f236600462001667565b620013b1565b600454620002f8906001600160a01b031681565b60048054604051630103540360e31b8152918201849052602482018390526001600160a01b03169063081aa018906044015b5f604051808303815f87803b15801562000556575f80fd5b505af115801562000569573d5f803e3d5ffd5b505050505050565b6200057b620013e3565b60075460405163137c3f6960e01b81526001600160a01b0383811660048301529091169063137c3f69906024015b5f604051808303815f87803b158015620005c1575f80fd5b505af1158015620005d4573d5f803e3d5ffd5b5050505050565b620006056040518060800160405280606081526020015f81526020015f8152602001606081525090565b60015460085460405163176c655760e31b81526001600160a01b039092169163bb632ab8916200063b9160040190815260200190565b5f60405180830381865afa15801562000656573d5f803e3d5ffd5b505050506040513d5f823e601f3d908101601f191682016040526200067f9190810190620017aa565b905090565b5f60045f9054906101000a90046001600160a01b03166001600160a01b0316631ff657706040518163ffffffff1660e01b8152600401602060405180830381865afa158015620006d6573d5f803e3d5ffd5b505050506040513d601f19601f820116820180604052508101906200067f919062001854565b60065460405162b54be960e21b81525f916001600160a01b0316906302d52fa490620007319087908790879060040162001894565b6020604051808303815f875af11580156200074e573d5f803e3d5ffd5b505050506040513d601f19601f8201168201806040525081019062000774919062001854565b949350505050565b60075460408051630ac7722160e21b815290515f926001600160a01b031691632b1dc8849160048083019260209291908290030181865afa158015620006d6573d5f803e3d5ffd5b620007ce620013e3565b600754604051633519118160e01b815282151560048201526001600160a01b0390911690633519118190602401620005a9565b6005546040516340bd2e2360e01b8152600481018390526001600160a01b03909116906340bd2e2390602401620005a9565b600654604051634c4a8dab60e11b8152600481018390526001600160a01b03909116906398951b5690602401620005a9565b6200086f620013e3565b6200087a5f62001411565b565b62000886620013e3565b600a54600160a01b900460ff1615620008fa5760405162461bcd60e51b815260206004820152602b60248201527f50726f706572747943617368466c6f7753797374656d3a20616c72656164792060448201526a1a5b9a5d1a585b1a5e995960aa1b60648201526084015b60405180910390fd5b5f8211620009715760405162461bcd60e51b815260206004820152603e60248201527f50726f706572747943617368466c6f7753797374656d3a20746f74616c20736860448201527f61726573206d7573742062652067726561746572207468616e207a65726f00006064820152608401620008f1565b6001600160a01b038116620009dd5760405162461bcd60e51b815260206004820152602b60248201527f50726f706572747943617368466c6f7753797374656d3a20696e76616c69642060448201526a39b430b932b437b63232b960a91b6064820152608401620008f1565b30604051620009ec9062001460565b6001600160a01b039091168152602001604051809103905ff08015801562000a16573d5f803e3d5ffd5b50600180546001600160a01b0319166001600160a01b0392909216919091179055604051309062000a47906200146e565b6001600160a01b039091168152602001604051809103905ff08015801562000a71573d5f803e3d5ffd5b50600280546001600160a01b0319166001600160a01b0392909216919091179055604051309062000aa2906200147c565b6001600160a01b039091168152602001604051809103905ff08015801562000acc573d5f803e3d5ffd5b50600480546001600160a01b0319166001600160a01b03928316179055600a54604051911690309062000aff906200148a565b6001600160a01b03928316815291166020820152604001604051809103905ff08015801562000b30573d5f803e3d5ffd5b50600380546001600160a01b0319166001600160a01b0392909216919091179055604051309062000b619062001498565b6001600160a01b039091168152602001604051809103905ff08015801562000b8b573d5f803e3d5ffd5b50600580546001600160a01b0319166001600160a01b0392909216919091179055604051309062000bbc90620014a6565b6001600160a01b039091168152602001604051809103905ff08015801562000be6573d5f803e3d5ffd5b50600680546001600160a01b0319166001600160a01b03928316179055600a54600354604051918316921690309062000c1f90620014b4565b6001600160a01b03938416815291831660208301529091166040820152606001604051809103905ff08015801562000c59573d5f803e3d5ffd5b50600780546001600160a01b039283166001600160a01b03199091161790556001541663fd0e3fb762000c935f546001600160a01b031690565b856040518363ffffffff1660e01b815260040162000cb3929190620018fb565b6020604051808303815f875af115801562000cd0573d5f803e3d5ffd5b505050506040513d601f19601f8201168201806040525081019062000cf6919062001854565b6008819055600254600154604051639e3d87cd60e01b81526001600160a01b03918216600482015260248101939093526044830185905283811660648401521690639e3d87cd906084015f604051808303815f87803b15801562000d58575f80fd5b505af115801562000d6b573d5f803e3d5ffd5b50505060098390555060048054600354604051633010a7f760e01b81526001600160a01b03918216938101939093521690633010a7f7906024015f604051808303815f87803b15801562000dbd575f80fd5b505af115801562000dd0573d5f803e3d5ffd5b5050600480546006546040516339cea45360e21b81526001600160a01b039182169381019390935216925063e73a914c91506024015f604051808303815f87803b15801562000e1d575f80fd5b505af115801562000e30573d5f803e3d5ffd5b50506004805460075460405163c295202960e01b81526001600160a01b039182169381019390935216925063c295202991506024015f604051808303815f87803b15801562000e7d575f80fd5b505af115801562000e90573d5f803e3d5ffd5b50506006546004805460405163feab893960e01b81526001600160a01b0391821692810192909252909116925063feab893991506024015f604051808303815f87803b15801562000edf575f80fd5b505af115801562000ef2573d5f803e3d5ffd5b505060055460025460048054600354600a54604051637c643b2f60e11b81526001600160a01b0395861694810194909452918416602484015283166044830152821660648201529116925063f8c8765e91506084015f604051808303815f87803b15801562000f5f575f80fd5b505af115801562000f72573d5f803e3d5ffd5b5050600354600554604051633038a60d60e01b81526001600160a01b03918216600482015291169250633038a60d91506024015f604051808303815f87803b15801562000fbd575f80fd5b505af115801562000fd0573d5f803e3d5ffd5b505060035460075460405163c295202960e01b81526001600160a01b0391821660048201529116925063c295202991506024015f604051808303815f87803b1580156200101b575f80fd5b505af11580156200102e573d5f803e3d5ffd5b50506007546004805460405163feab893960e01b81526001600160a01b0391821692810192909252909116925063feab893991506024015f604051808303815f87803b1580156200107d575f80fd5b505af115801562001090573d5f803e3d5ffd5b5050600a805460ff60a01b1916600160a01b1790555050600854600154600254600354600454600554600654604080516001600160a01b0397881681529587166020870152938616858501529185166060850152841660808401529290921660a082015290517f3d615335f1fed78772e006a19db0a2855de26acc0fec4b4af6d02716713108da9160c0908290030190a2505050565b60075460408051638501de0160e01b815290515f926001600160a01b031691638501de019160048083019260209291908290030181865afa158015620006d6573d5f803e3d5ffd5b60055f9054906101000a90046001600160a01b03166001600160a01b0316638a570a126040518163ffffffff1660e01b81526004015f604051808303815f87803b158015620011bb575f80fd5b505af1158015620011ce573d5f803e3d5ffd5b50505050565b600480546040805163944c1d9760e01b815290516001600160a01b039092169263944c1d9792828201925f929082900301818387803b158015620011bb575f80fd5b62001220620013e3565b600754604051632ca6be1f60e01b8152600481018490526001600160a01b0390911690632ca6be1f906024015f604051808303815f87803b15801562001264575f80fd5b505af115801562001277573d5f803e3d5ffd5b505060075460405163555a41eb60e11b8152600481018590526001600160a01b03909116925063aab483d691506024016200053e565b620012b7620013e3565b6004805460405163d0ebdbe760e01b81526001600160a01b038481169382019390935291169063d0ebdbe790602401620005a9565b5f60045f9054906101000a90046001600160a01b03166001600160a01b031663d43112166040518163ffffffff1660e01b8152600401602060405180830381865afa158015620006d6573d5f803e3d5ffd5b60048054604051636f9615af60e11b81529182018390526001600160a01b03169063df2c2b5e90602401620005a9565b62001378620013e3565b6001600160a01b038116620013a357604051631e4fbdf760e01b81525f6004820152602401620008f1565b620013ae8162001411565b50565b60035460405163f6e96ced60e01b8152600481018390526001600160a01b039091169063f6e96ced90602401620005a9565b5f546001600160a01b031633146200087a5760405163118cdaa760e01b8152336004820152602401620008f1565b5f80546001600160a01b038381166001600160a01b0319831681178455604051919092169283917f8be0079c531659141344cd1fd0a4f28419497f9722a3daafe3b4186f6b6457e09190a35050565b611a55806200197d83390190565b610df880620033d283390190565b61119480620041ca83390190565b610c24806200535e83390190565b61138e8062005f8283390190565b610d4c806200731083390190565b611c56806200805c83390190565b5f8060408385031215620014d4575f80fd5b50508035926020909101359150565b80356001600160a01b0381168114620014fa575f80fd5b919050565b5f6020828403121562001510575f80fd5b6200151b82620014e3565b9392505050565b5f5b838110156200153e57818101518382015260200162001524565b50505f910152565b5f81518084526200155f81602086016020860162001522565b601f01601f19169290920160200192915050565b602081525f8251608060208401526200159060a084018262001546565b905060208401516040840152604084015160608401526060840151601f19848303016080850152620015c3828262001546565b95945050505050565b5f805f60408486031215620015df575f80fd5b83359250602084013567ffffffffffffffff80821115620015fe575f80fd5b818601915086601f83011262001612575f80fd5b81358181111562001621575f80fd5b87602082850101111562001633575f80fd5b6020830194508093505050509250925092565b5f6020828403121562001657575f80fd5b813580151581146200151b575f80fd5b5f6020828403121562001678575f80fd5b5035919050565b5f805f6060848603121562001692575f80fd5b833567ffffffffffffffff811115620016a9575f80fd5b840160808187031215620016bb575f80fd5b925060208401359150620016d260408501620014e3565b90509250925092565b634e487b7160e01b5f52604160045260245ffd5b6040516080810167ffffffffffffffff81118282101715620017155762001715620016db565b60405290565b5f82601f8301126200172b575f80fd5b815167ffffffffffffffff80821115620017495762001749620016db565b604051601f8301601f19908116603f01168101908282118183101715620017745762001774620016db565b816040528381528660208588010111156200178d575f80fd5b620017a084602083016020890162001522565b9695505050505050565b5f60208284031215620017bb575f80fd5b815167ffffffffffffffff80821115620017d3575f80fd5b9083019060808286031215620017e7575f80fd5b620017f1620016ef565b82518281111562001800575f80fd5b6200180e878286016200171b565b825250602083015160208201526040830151604082015260608301518281111562001837575f80fd5b62001845878286016200171b565b60608301525095945050505050565b5f6020828403121562001865575f80fd5b5051919050565b81835281816020850137505f828201602090810191909152601f909101601f19169091010190565b838152604060208201525f620015c36040830184866200186c565b5f808335601e19843603018112620018c5575f80fd5b830160208101925035905067ffffffffffffffff811115620018e5575f80fd5b803603821315620018f4575f80fd5b9250929050565b6001600160a01b0383168152604060208201525f6200191b8380620018af565b608060408501526200193260c0850182846200186c565b9150506020840135606084015260408401356080840152620019586060850185620018af565b848303603f190160a0860152620019718382846200186c565b97965050505050505056fe608060405234801562000010575f80fd5b5060405162001a5538038062001a5583398101604081905262000033916200013a565b806040518060400160405280601481526020017f5265616c204573746174652050726f70657274790000000000000000000000008152506040518060400160405280600381526020016205245560ec1b815250815f908162000096919062000207565b506001620000a5828262000207565b5050506001600160a01b038116620000d657604051631e4fbdf760e01b81525f600482015260240160405180910390fd5b620000e181620000e9565b5050620002d3565b600680546001600160a01b038381166001600160a01b0319831681179093556040519116919082907f8be0079c531659141344cd1fd0a4f28419497f9722a3daafe3b4186f6b6457e0905f90a35050565b5f602082840312156200014b575f80fd5b81516001600160a01b038116811462000162575f80fd5b9392505050565b634e487b7160e01b5f52604160045260245ffd5b600181811c908216806200019257607f821691505b602082108103620001b157634e487b7160e01b5f52602260045260245ffd5b50919050565b601f8211156200020257805f5260205f20601f840160051c81016020851015620001de5750805b601f840160051c820191505b81811015620001ff575f8155600101620001ea565b50505b505050565b81516001600160401b0381111562000223576200022362000169565b6200023b816200023484546200017d565b84620001b7565b602080601f83116001811462000271575f8415620002595750858301515b5f19600386901b1c1916600185901b178555620002cb565b5f85815260208120601f198616915b82811015620002a15788860151825594840194600190910190840162000280565b5085821015620002bf57878501515f19600388901b60f8161c191681555b505060018460011b0185555b505050505050565b61177480620002e15f395ff3fe608060405234801561000f575f80fd5b506004361061011c575f3560e01c806375794a3c116100a9578063bb632ab81161006e578063bb632ab814610246578063c87b56dd14610266578063e985e9c514610279578063f2fde38b1461028c578063fd0e3fb71461029f575f80fd5b806375794a3c146101ff5780638da5cb5b1461020757806395d89b4114610218578063a22cb46514610220578063b88d4fde14610233575f80fd5b806323b872dd116100ef57806323b872dd1461019d57806342842e0e146101b05780636352211e146101c357806370a08231146101d6578063715018a6146101f7575f80fd5b806301ffc9a71461012057806306fdde0314610148578063081812fc1461015d578063095ea7b314610188575b5f80fd5b61013361012e366004611110565b6102b2565b60405190151581526020015b60405180910390f35b610150610303565b60405161013f9190611178565b61017061016b36600461118a565b610392565b6040516001600160a01b03909116815260200161013f565b61019b6101963660046111bc565b6103b9565b005b61019b6101ab3660046111e4565b6103c8565b61019b6101be3660046111e4565b610456565b6101706101d136600461118a565b610475565b6101e96101e436600461121d565b61047f565b60405190815260200161013f565b61019b6104c4565b6007546101e9565b6006546001600160a01b0316610170565b6101506104d7565b61019b61022e366004611236565b6104e6565b61019b610241366004611283565b6104f1565b61025961025436600461118a565b610509565b60405161013f9190611358565b61015061027436600461118a565b6106f1565b6101336102873660046113ad565b610762565b61019b61029a36600461121d565b61078f565b6101e96102ad3660046113de565b6107cc565b5f6001600160e01b031982166380ac58cd60e01b14806102e257506001600160e01b03198216635b5e139f60e01b145b806102fd57506301ffc9a760e01b6001600160e01b03198316145b92915050565b60605f805461031190611424565b80601f016020809104026020016040519081016040528092919081815260200182805461033d90611424565b80156103885780601f1061035f57610100808354040283529160200191610388565b820191905f5260205f20905b81548152906001019060200180831161036b57829003601f168201915b5050505050905090565b5f61039c826109bc565b505f828152600460205260409020546001600160a01b03166102fd565b6103c48282336109f4565b5050565b6001600160a01b0382166103f657604051633250574960e11b81525f60048201526024015b60405180910390fd5b5f610402838333610a01565b9050836001600160a01b0316816001600160a01b031614610450576040516364283d7b60e01b81526001600160a01b03808616600483015260248201849052821660448201526064016103ed565b50505050565b61047083838360405180602001604052805f8152506104f1565b505050565b5f6102fd826109bc565b5f6001600160a01b0382166104a9576040516322718ad960e21b81525f60048201526024016103ed565b506001600160a01b03165f9081526003602052604090205490565b6104cc610af3565b6104d55f610b20565b565b60606001805461031190611424565b6103c4338383610b71565b6104fc8484846103c8565b6104503385858585610c0f565b6105326040518060800160405280606081526020015f81526020015f8152602001606081525090565b5f828152600260205260409020546001600160a01b031661059f5760405162461bcd60e51b815260206004820152602160248201527f50726f70657274794e46543a20746f6b656e20646f6573206e6f7420657869736044820152601d60fa1b60648201526084016103ed565b5f82815260086020526040908190208151608081019092528054829082906105c690611424565b80601f01602080910402602001604051908101604052809291908181526020018280546105f290611424565b801561063d5780601f106106145761010080835404028352916020019161063d565b820191905f5260205f20905b81548152906001019060200180831161062057829003601f168201915b50505050508152602001600182015481526020016002820154815260200160038201805461066a90611424565b80601f016020809104026020016040519081016040528092919081815260200182805461069690611424565b80156106e15780601f106106b8576101008083540402835291602001916106e1565b820191905f5260205f20905b8154815290600101906020018083116106c457829003601f168201915b5050505050815250509050919050565b60606106fc826109bc565b505f61071260408051602081019091525f815290565b90505f8151116107305760405180602001604052805f81525061075b565b8061073a84610d37565b60405160200161074b92919061145c565b6040516020818303038152906040525b9392505050565b6001600160a01b039182165f90815260056020908152604080832093909416825291909152205460ff1690565b610797610af3565b6001600160a01b0381166107c057604051631e4fbdf760e01b81525f60048201526024016103ed565b6107c981610b20565b50565b5f6107d5610af3565b6001600160a01b03831661083c5760405162461bcd60e51b815260206004820152602860248201527f50726f70657274794e46543a2063616e6e6f74206d696e7420746f207a65726f604482015267206164647265737360c01b60648201526084016103ed565b5f8260200135116108a85760405162461bcd60e51b815260206004820152603060248201527f50726f70657274794e46543a2076616c756174696f6e206d757374206265206760448201526f726561746572207468616e207a65726f60801b60648201526084016103ed565b5f8260400135116109175760405162461bcd60e51b815260206004820152603360248201527f50726f70657274794e46543a206d6f6e74686c792072656e74206d7573742062604482015272652067726561746572207468616e207a65726f60681b60648201526084016103ed565b5f610922838061148a565b90501161097f5760405162461bcd60e51b815260206004820152602560248201527f50726f70657274794e46543a206c6f636174696f6e2063616e6e6f7420626520604482015264656d70747960d81b60648201526084016103ed565b600780545f918261098f836114d4565b909155505f81815260086020526040902090915083906109af82826115f6565b90505061075b8482610dc7565b5f818152600260205260408120546001600160a01b0316806102fd57604051637e27328960e01b8152600481018490526024016103ed565b6104708383836001610de0565b5f828152600260205260408120546001600160a01b0390811690831615610a2d57610a2d818486610ee4565b6001600160a01b03811615610a6757610a485f855f80610de0565b6001600160a01b0381165f90815260036020526040902080545f190190555b6001600160a01b03851615610a95576001600160a01b0385165f908152600360205260409020805460010190555b5f8481526002602052604080822080546001600160a01b0319166001600160a01b0389811691821790925591518793918516917fddf252ad1be2c89b69c2b068fc378daa952ba7f163c4a11628f55a4df523b3ef91a4949350505050565b6006546001600160a01b031633146104d55760405163118cdaa760e01b81523360048201526024016103ed565b600680546001600160a01b038381166001600160a01b0319831681179093556040519116919082907f8be0079c531659141344cd1fd0a4f28419497f9722a3daafe3b4186f6b6457e0905f90a35050565b6001600160a01b038216610ba357604051630b61174360e31b81526001600160a01b03831660048201526024016103ed565b6001600160a01b038381165f81815260056020908152604080832094871680845294825291829020805460ff191686151590811790915591519182527f17307eab39ab6107e8899845ad3d59bd9653f200f220920489ca2b5937696c31910160405180910390a3505050565b6001600160a01b0383163b15610d3057604051630a85bd0160e11b81526001600160a01b0384169063150b7a0290610c519088908890879087906004016116e7565b6020604051808303815f875af1925050508015610c8b575060408051601f3d908101601f19168201909252610c8891810190611723565b60015b610cf2573d808015610cb8576040519150601f19603f3d011682016040523d82523d5f602084013e610cbd565b606091505b5080515f03610cea57604051633250574960e11b81526001600160a01b03851660048201526024016103ed565b805160208201fd5b6001600160e01b03198116630a85bd0160e11b14610d2e57604051633250574960e11b81526001600160a01b03851660048201526024016103ed565b505b5050505050565b60605f610d4383610f48565b60010190505f8167ffffffffffffffff811115610d6257610d6261126f565b6040519080825280601f01601f191660200182016040528015610d8c576020820181803683370190505b5090508181016020015b5f19016f181899199a1a9b1b9c1cb0b131b232b360811b600a86061a8153600a8504945084610d9657509392505050565b6103c4828260405180602001604052805f81525061101f565b8080610df457506001600160a01b03821615155b15610eb5575f610e03846109bc565b90506001600160a01b03831615801590610e2f5750826001600160a01b0316816001600160a01b031614155b8015610e425750610e408184610762565b155b15610e6b5760405163a9fbf51f60e01b81526001600160a01b03841660048201526024016103ed565b8115610eb35783856001600160a01b0316826001600160a01b03167f8c5be1e5ebec7d5bd14f71427d1e84f3dd0314c0f7b2291e5b200ac8c7c3b92560405160405180910390a45b505b50505f90815260046020526040902080546001600160a01b0319166001600160a01b0392909216919091179055565b610eef838383611036565b610470576001600160a01b038316610f1d57604051637e27328960e01b8152600481018290526024016103ed565b60405163177e802f60e01b81526001600160a01b0383166004820152602481018290526044016103ed565b5f8072184f03e93ff9f4daa797ed6e38ed64bf6a1f0160401b8310610f865772184f03e93ff9f4daa797ed6e38ed64bf6a1f0160401b830492506040015b6d04ee2d6d415b85acef81000000008310610fb2576d04ee2d6d415b85acef8100000000830492506020015b662386f26fc100008310610fd057662386f26fc10000830492506010015b6305f5e1008310610fe8576305f5e100830492506008015b6127108310610ffc57612710830492506004015b6064831061100e576064830492506002015b600a83106102fd5760010192915050565b611029838361109a565b610470335f858585610c0f565b5f6001600160a01b038316158015906110925750826001600160a01b0316846001600160a01b0316148061106f575061106f8484610762565b8061109257505f828152600460205260409020546001600160a01b038481169116145b949350505050565b6001600160a01b0382166110c357604051633250574960e11b81525f60048201526024016103ed565b5f6110cf83835f610a01565b90506001600160a01b03811615610470576040516339e3563760e11b81525f60048201526024016103ed565b6001600160e01b0319811681146107c9575f80fd5b5f60208284031215611120575f80fd5b813561075b816110fb565b5f5b8381101561114557818101518382015260200161112d565b50505f910152565b5f815180845261116481602086016020860161112b565b601f01601f19169290920160200192915050565b602081525f61075b602083018461114d565b5f6020828403121561119a575f80fd5b5035919050565b80356001600160a01b03811681146111b7575f80fd5b919050565b5f80604083850312156111cd575f80fd5b6111d6836111a1565b946020939093013593505050565b5f805f606084860312156111f6575f80fd5b6111ff846111a1565b925061120d602085016111a1565b9150604084013590509250925092565b5f6020828403121561122d575f80fd5b61075b826111a1565b5f8060408385031215611247575f80fd5b611250836111a1565b915060208301358015158114611264575f80fd5b809150509250929050565b634e487b7160e01b5f52604160045260245ffd5b5f805f8060808587031215611296575f80fd5b61129f856111a1565b93506112ad602086016111a1565b925060408501359150606085013567ffffffffffffffff808211156112d0575f80fd5b818701915087601f8301126112e3575f80fd5b8135818111156112f5576112f561126f565b604051601f8201601f19908116603f0116810190838211818310171561131d5761131d61126f565b816040528281528a6020848701011115611335575f80fd5b826020860160208301375f60208483010152809550505050505092959194509250565b602081525f82516080602084015261137360a084018261114d565b905060208401516040840152604084015160608401526060840151601f198483030160808501526113a4828261114d565b95945050505050565b5f80604083850312156113be575f80fd5b6113c7836111a1565b91506113d5602084016111a1565b90509250929050565b5f80604083850312156113ef575f80fd5b6113f8836111a1565b9150602083013567ffffffffffffffff811115611413575f80fd5b830160808186031215611264575f80fd5b600181811c9082168061143857607f821691505b60208210810361145657634e487b7160e01b5f52602260045260245ffd5b50919050565b5f835161146d81846020880161112b565b83519083019061148181836020880161112b565b01949350505050565b5f808335601e1984360301811261149f575f80fd5b83018035915067ffffffffffffffff8211156114b9575f80fd5b6020019150368190038213156114cd575f80fd5b9250929050565b5f600182016114f157634e487b7160e01b5f52601160045260245ffd5b5060010190565b601f82111561047057805f5260205f20601f840160051c8101602085101561151d5750805b601f840160051c820191505b81811015610d30575f8155600101611529565b67ffffffffffffffff8311156115545761155461126f565b611568836115628354611424565b836114f8565b5f601f841160018114611599575f85156115825750838201355b5f19600387901b1c1916600186901b178355610d30565b5f83815260208120601f198716915b828110156115c857868501358255602094850194600190920191016115a8565b50868210156115e4575f1960f88860031b161c19848701351681555b505060018560011b0183555050505050565b611600828361148a565b67ffffffffffffffff8111156116185761161861126f565b61162c816116268554611424565b856114f8565b5f601f82116001811461165d575f83156116465750838201355b5f19600385901b1c1916600184901b1785556116b4565b5f85815260208120601f198516915b8281101561168c578685013582556020948501946001909201910161166c565b50848210156116a8575f1960f88660031b161c19848701351681555b505060018360011b0185555b5050505060208201356001820155604082013560028201556116d9606083018361148a565b61045081836003860161153c565b6001600160a01b03858116825284166020820152604081018390526080606082018190525f906117199083018461114d565b9695505050505050565b5f60208284031215611733575f80fd5b815161075b816110fb56fea264697066735822122098d85cbfcf91c33a50460699a4f5ba223296cdc194278f4268f52d965744cb2364736f6c63430008180033608060405234801562000010575f80fd5b5060405162000df838038062000df8833981016040819052620000339162000130565b806040518060400160405280600f81526020016e50726f70657274792053686172657360881b8152506040518060400160405280600681526020016550534841524560d01b81525081600390816200008c9190620001fd565b5060046200009b8282620001fd565b5050506001600160a01b038116620000cc57604051631e4fbdf760e01b81525f600482015260240160405180910390fd5b620000d781620000df565b5050620002c9565b600580546001600160a01b038381166001600160a01b0319831681179093556040519116919082907f8be0079c531659141344cd1fd0a4f28419497f9722a3daafe3b4186f6b6457e0905f90a35050565b5f6020828403121562000141575f80fd5b81516001600160a01b038116811462000158575f80fd5b9392505050565b634e487b7160e01b5f52604160045260245ffd5b600181811c908216806200018857607f821691505b602082108103620001a757634e487b7160e01b5f52602260045260245ffd5b50919050565b601f821115620001f857805f5260205f20601f840160051c81016020851015620001d45750805b601f840160051c820191505b81811015620001f5575f8155600101620001e0565b50505b505050565b81516001600160401b038111156200021957620002196200015f565b62000231816200022a845462000173565b84620001ad565b602080601f83116001811462000267575f84156200024f5750858301515b5f19600386901b1c1916600185901b178555620002c1565b5f85815260208120601f198616915b82811015620002975788860151825594840194600190910190840162000276565b5085821015620002b557878501515f19600388901b60f8161c191681555b505060018460011b0185555b505050505050565b610b2180620002d75f395ff3fe608060405234801561000f575f80fd5b5060043610610106575f3560e01c806370a082311161009e5780639e3d87cd1161006e5780639e3d87cd1461020d578063a9059cbb14610220578063dd62ed3e14610233578063ee7a3b8e1461026b578063f2fde38b14610274575f80fd5b806370a08231146101c2578063715018a6146101ea5780638da5cb5b146101f457806395d89b4114610205575f80fd5b806323b872dd116100d957806323b872dd1461016a578063313ce5671461017d57806337f768381461018c578063392e53cd146101b7575f80fd5b806306fdde031461010a578063095ea7b314610128578063158ef93e1461014b57806318160ddd14610158575b5f80fd5b610112610287565b60405161011f9190610938565b60405180910390f35b61013b61013636600461099f565b610317565b604051901515815260200161011f565b60085461013b9060ff1681565b6002545b60405190815260200161011f565b61013b6101783660046109c7565b610330565b6040516012815260200161011f565b60065461019f906001600160a01b031681565b6040516001600160a01b03909116815260200161011f565b60085460ff1661013b565b61015c6101d0366004610a00565b6001600160a01b03165f9081526020819052604090205490565b6101f2610353565b005b6005546001600160a01b031661019f565b610112610366565b6101f261021b366004610a20565b610375565b61013b61022e36600461099f565b61055b565b61015c610241366004610a63565b6001600160a01b039182165f90815260016020908152604080832093909416825291909152205490565b61015c60075481565b6101f2610282366004610a00565b610568565b60606003805461029690610a94565b80601f01602080910402602001604051908101604052809291908181526020018280546102c290610a94565b801561030d5780601f106102e45761010080835404028352916020019161030d565b820191905f5260205f20905b8154815290600101906020018083116102f057829003601f168201915b5050505050905090565b5f336103248185856105a5565b60019150505b92915050565b5f3361033d8582856105b7565b61034885858561062d565b506001949350505050565b61035b61068a565b6103645f6106b7565b565b60606004805461029690610a94565b61037d61068a565b60085460ff16156103e15760405162461bcd60e51b815260206004820152602360248201527f50726f70657274795368617265733a20616c726561647920696e697469616c696044820152621e995960ea1b60648201526084015b60405180910390fd5b6001600160a01b03841661044c5760405162461bcd60e51b815260206004820152602c60248201527f50726f70657274795368617265733a20696e76616c69642070726f706572747960448201526b204e4654206164647265737360a01b60648201526084016103d8565b5f82116104ba5760405162461bcd60e51b815260206004820152603660248201527f50726f70657274795368617265733a20746f74616c20737570706c79206d7573604482015275742062652067726561746572207468616e207a65726f60501b60648201526084016103d8565b6001600160a01b03811661051e5760405162461bcd60e51b815260206004820152602560248201527f50726f70657274795368617265733a20696e76616c696420696e697469616c2060448201526437bbb732b960d91b60648201526084016103d8565b600680546001600160a01b0319166001600160a01b03861617905560078390556008805460ff191660011790556105558183610708565b50505050565b5f3361032481858561062d565b61057061068a565b6001600160a01b03811661059957604051631e4fbdf760e01b81525f60048201526024016103d8565b6105a2816106b7565b50565b6105b28383836001610740565b505050565b6001600160a01b038381165f908152600160209081526040808320938616835292905220545f19811015610555578181101561061f57604051637dc7a0d960e11b81526001600160a01b038416600482015260248101829052604481018390526064016103d8565b61055584848484035f610740565b6001600160a01b03831661065657604051634b637e8f60e11b81525f60048201526024016103d8565b6001600160a01b03821661067f5760405163ec442f0560e01b81525f60048201526024016103d8565b6105b2838383610812565b6005546001600160a01b031633146103645760405163118cdaa760e01b81523360048201526024016103d8565b600580546001600160a01b038381166001600160a01b0319831681179093556040519116919082907f8be0079c531659141344cd1fd0a4f28419497f9722a3daafe3b4186f6b6457e0905f90a35050565b6001600160a01b0382166107315760405163ec442f0560e01b81525f60048201526024016103d8565b61073c5f8383610812565b5050565b6001600160a01b0384166107695760405163e602df0560e01b81525f60048201526024016103d8565b6001600160a01b03831661079257604051634a1406b160e11b81525f60048201526024016103d8565b6001600160a01b038085165f908152600160209081526040808320938716835292905220829055801561055557826001600160a01b0316846001600160a01b03167f8c5be1e5ebec7d5bd14f71427d1e84f3dd0314c0f7b2291e5b200ac8c7c3b9258460405161080491815260200190565b60405180910390a350505050565b6001600160a01b03831661083c578060025f8282546108319190610acc565b909155506108ac9050565b6001600160a01b0383165f908152602081905260409020548181101561088e5760405163391434e360e21b81526001600160a01b038516600482015260248101829052604481018390526064016103d8565b6001600160a01b0384165f9081526020819052604090209082900390555b6001600160a01b0382166108c8576002805482900390556108e6565b6001600160a01b0382165f9081526020819052604090208054820190555b816001600160a01b0316836001600160a01b03167fddf252ad1be2c89b69c2b068fc378daa952ba7f163c4a11628f55a4df523b3ef8360405161092b91815260200190565b60405180910390a3505050565b5f602080835283518060208501525f5b8181101561096457858101830151858201604001528201610948565b505f604082860101526040601f19601f8301168501019250505092915050565b80356001600160a01b038116811461099a575f80fd5b919050565b5f80604083850312156109b0575f80fd5b6109b983610984565b946020939093013593505050565b5f805f606084860312156109d9575f80fd5b6109e284610984565b92506109f060208501610984565b9150604084013590509250925092565b5f60208284031215610a10575f80fd5b610a1982610984565b9392505050565b5f805f8060808587031215610a33575f80fd5b610a3c85610984565b93506020850135925060408501359150610a5860608601610984565b905092959194509250565b5f8060408385031215610a74575f80fd5b610a7d83610984565b9150610a8b60208401610984565b90509250929050565b600181811c90821680610aa857607f821691505b602082108103610ac657634e487b7160e01b5f52602260045260245ffd5b50919050565b8082018082111561032a57634e487b7160e01b5f52601160045260245ffdfea2646970667358221220948d1b1617849a0ecad9f6daff743fe7ed5b92120de0117124042655675231a664736f6c63430008180033608060405234801561000f575f80fd5b5060405161119438038061119483398101604081905261002e916100fe565b806001600160a01b03811661005c57604051631e4fbdf760e01b81525f600482015260240160405180910390fd5b610065816100af565b5060017f9b779b17422d0df92223018b32b4d1fa46e071723d6817e2486d003becc55f0055600980546001600160a01b0319166001600160a01b039290921691909117905561012b565b5f80546001600160a01b038381166001600160a01b0319831681178455604051919092169283917f8be0079c531659141344cd1fd0a4f28419497f9722a3daafe3b4186f6b6457e09190a35050565b5f6020828403121561010e575f80fd5b81516001600160a01b0381168114610124575f80fd5b9392505050565b61105c806101385f395ff3fe608060405234801561000f575f80fd5b5060043610610153575f3560e01c8063a1df2abb116100bf578063d0ebdbe711610079578063d0ebdbe714610283578063d431121614610296578063df2c2b5e1461029e578063e20c7874146102b1578063e73a914c146102ba578063f2fde38b146102cd575f80fd5b8063a1df2abb14610225578063a369f4ca14610238578063a6b5a8ec1461024b578063afffd5bc1461025e578063c295202914610267578063ccefccdb1461027a575f80fd5b8063481c6a7511610110578063481c6a75146101d6578063715018a6146101e95780637da3bbd9146101f15780638da5cb5b146101fa578063944c1d971461020a5780639c9c5d0c14610212575f80fd5b8063081aa01814610157578063086146d21461016c5780631ff65770146101875780633010a7f71461018f5780634162169f146101a25780634542734e146101cd575b5f80fd5b61016a610165366004610e16565b6102e0565b005b6101746104eb565b6040519081526020015b60405180910390f35b61017461058e565b61016a61019d366004610e36565b6105ca565b6002546101b5906001600160a01b031681565b6040516001600160a01b03909116815260200161017e565b61017460075481565b6009546101b5906001600160a01b031681565b61016a610684565b61017460085481565b5f546001600160a01b03166101b5565b61016a610697565b6001546101b5906001600160a01b031681565b6003546101b5906001600160a01b031681565b61016a610246366004610e63565b6106d7565b61016a610259366004610e63565b6107ee565b61017460055481565b61016a610275366004610e36565b610898565b61017460065481565b61016a610291366004610e36565b610956565b610174610a0d565b61016a6102ac366004610e63565b610b6d565b61017460045481565b61016a6102c8366004610e36565b610cae565b61016a6102db366004610e36565b610d61565b6002546001600160a01b031633148061030257505f546001600160a01b031633145b6103535760405162461bcd60e51b815260206004820152601760248201527f43617368466c6f77456e67696e653a206e6f742044414f00000000000000000060448201526064015b60405180910390fd5b5f82116103725760405162461bcd60e51b815260040161034a90610e7a565b6002546001600160a01b03166103ca5760405162461bcd60e51b815260206004820152601b60248201527f43617368466c6f77456e67696e653a2044414f206e6f74207365740000000000604482015260640161034a565b6002546040516326af303360e21b8152600481018390526001600160a01b0390911690639abcc0cc90602401602060405180830381865afa158015610411573d5f803e3d5ffd5b505050506040513d601f19601f820116820180604052508101906104359190610eca565b61048f5760405162461bcd60e51b815260206004820152602560248201527f43617368466c6f77456e67696e653a2070726f706f73616c206e6f74206170706044820152641c9bdd995960da1b606482015260840161034a565b600580549083905f6104a18385610efd565b90915550506007839055604080518481526020810184905233917f686558c5d09d02c5e337e5389798d589800b2ff2bf8208f0f03364e297e41040910160405180910390a2505050565b6001545f906001600160a01b03166105155760405162461bcd60e51b815260040161034a90610f16565b60015f9054906101000a90046001600160a01b03166001600160a01b031663060406186040518163ffffffff1660e01b8152600401602060405180830381865afa158015610565573d5f803e3d5ffd5b505050506040513d601f19601f820116820180604052508101906105899190610f58565b905090565b5f80610598610a0d565b90505f6007546105a790610f6f565b600854909150806105b88385610f89565b6105c29190610f89565b935050505090565b6105d2610d9b565b6001600160a01b03811661063b5760405162461bcd60e51b815260206004820152602a60248201527f43617368466c6f77456e67696e653a20696e76616c69642072656e74207661756044820152696c74206164647265737360b01b606482015260840161034a565b600180546001600160a01b0319166001600160a01b0383169081179091556040517f255c04595fc06df93f15f4a53425dce3e27a4a1d0aef44176a1d8691f2bb71d7905f90a250565b61068c610d9b565b6106955f610dc7565b565b61069f610d9b565b6001546001600160a01b03166106c75760405162461bcd60e51b815260040161034a90610f16565b5f60048190556007819055600855565b6009546001600160a01b03163314806106f957505f546001600160a01b031633145b6107155760405162461bcd60e51b815260040161034a90610fb0565b5f81116107345760405162461bcd60e51b815260040161034a90610e7a565b6006548111156107925760405162461bcd60e51b8152602060048201526024808201527f43617368466c6f77456e67696e653a20696e73756666696369656e74207265736044820152636572766560e01b606482015260840161034a565b8060065f8282546107a39190610fe7565b909155506107b2905081610f6f565b60085560405181815233907fcc47de79a4c481b12583a290a56d7007708a5f013d7989daf9b542b844b39f76906020015b60405180910390a250565b6009546001600160a01b031633148061081057505f546001600160a01b031633145b61082c5760405162461bcd60e51b815260040161034a90610fb0565b5f811161084b5760405162461bcd60e51b815260040161034a90610e7a565b8060065f82825461085c9190610efd565b9091555050600881905560405181815233907fcc47de79a4c481b12583a290a56d7007708a5f013d7989daf9b542b844b39f76906020016107e3565b6108a0610d9b565b6001600160a01b03811661090d5760405162461bcd60e51b815260206004820152602e60248201527f43617368466c6f77456e67696e653a20696e76616c6964207969656c6420737460448201526d30b1b5b4b7339036b0b730b3b2b960911b606482015260840161034a565b600380546001600160a01b0319166001600160a01b0383169081179091556040517fadf3e660b435d8e57cb2346c441bad1c90a3eff3aa70fd5a0fd39f6e4a0c5fc7905f90a250565b61095e610d9b565b6001600160a01b0381166109c45760405162461bcd60e51b815260206004820152602760248201527f43617368466c6f77456e67696e653a20696e76616c6964206d616e61676572206044820152666164647265737360c81b606482015260840161034a565b600980546001600160a01b0319166001600160a01b0383169081179091556040517f60a0f5b9f9e81e98216071b85826681c796256fe3d1354ecb675580fba64fa69905f90a250565b6001545f906001600160a01b0316610a375760405162461bcd60e51b815260040161034a90610f16565b60015460408051630bdaba5360e11b815290515f926001600160a01b0316916317b574a69160048083019260209291908290030181865afa158015610a7e573d5f803e3d5ffd5b505050506040513d601f19601f82011682018060405250810190610aa29190610f58565b90505f600654600454610ab59190610efd565b821115610ad957600654600454610acc9084610fe7565b610ad69190610fe7565b90505b6003545f906001600160a01b031615610b635760035f9054906101000a90046001600160a01b03166001600160a01b0316638501de016040518163ffffffff1660e01b8152600401602060405180830381865afa158015610b3c573d5f803e3d5ffd5b505050506040513d601f19601f82011682018060405250810190610b609190610f58565b90505b6105c28183610efd565b6009546001600160a01b0316331480610b8f57505f546001600160a01b031633145b610bab5760405162461bcd60e51b815260040161034a90610fb0565b5f8111610bca5760405162461bcd60e51b815260040161034a90610e7a565b8060045f828254610bdb9190610efd565b909155505060405181815233907f9895ef9fb1b1c849968c8199ee15a63b66e3d0a706a8eb3597acd1ebc808675c9060200160405180910390a26003546001600160a01b031615610cab5760035460408051600481526024810182526020810180516001600160e01b0316637b7d3f9360e01b17905290515f926001600160a01b031691610c6891610ffa565b5f604051808303815f865af19150503d805f8114610ca1576040519150601f19603f3d011682016040523d82523d5f602084013e610ca6565b606091505b505050505b50565b610cb6610d9b565b6001600160a01b038116610d185760405162461bcd60e51b815260206004820152602360248201527f43617368466c6f77456e67696e653a20696e76616c69642044414f206164647260448201526265737360e81b606482015260840161034a565b600280546001600160a01b0319166001600160a01b0383169081179091556040517f8aad84fcad50e723fa3bcf0fb32c5bea4c71078b77b9aedfa638f146f3a3f7b9905f90a250565b610d69610d9b565b6001600160a01b038116610d9257604051631e4fbdf760e01b81525f600482015260240161034a565b610cab81610dc7565b5f546001600160a01b031633146106955760405163118cdaa760e01b815233600482015260240161034a565b5f80546001600160a01b038381166001600160a01b0319831681178455604051919092169283917f8be0079c531659141344cd1fd0a4f28419497f9722a3daafe3b4186f6b6457e09190a35050565b5f8060408385031215610e27575f80fd5b50508035926020909101359150565b5f60208284031215610e46575f80fd5b81356001600160a01b0381168114610e5c575f80fd5b9392505050565b5f60208284031215610e73575f80fd5b5035919050565b60208082526030908201527f43617368466c6f77456e67696e653a20616d6f756e74206d757374206265206760408201526f726561746572207468616e207a65726f60801b606082015260800190565b5f60208284031215610eda575f80fd5b81518015158114610e5c575f80fd5b634e487b7160e01b5f52601160045260245ffd5b80820180821115610f1057610f10610ee9565b92915050565b60208082526022908201527f43617368466c6f77456e67696e653a2072656e74207661756c74206e6f742073604082015261195d60f21b606082015260800190565b5f60208284031215610f68575f80fd5b5051919050565b5f600160ff1b8201610f8357610f83610ee9565b505f0390565b8082018281125f831280158216821582161715610fa857610fa8610ee9565b505092915050565b6020808252601b908201527f43617368466c6f77456e67696e653a206e6f74206d616e616765720000000000604082015260600190565b81810381811115610f1057610f10610ee9565b5f82515f5b818110156110195760208186018101518583015201610fff565b505f92019182525091905056fea26469706673582212204a67946780ac1c76c1fd990d028beee725c2c12ffdaefbdaab5bb8596d7e0d8164736f6c6343000818003360a060405234801561000f575f80fd5b50604051610c24380380610c2483398101604081905261002e9161015d565b806001600160a01b03811661005d57604051631e4fbdf760e01b81525f60048201526024015b60405180910390fd5b610066816100f3565b5060017f9b779b17422d0df92223018b32b4d1fa46e071723d6817e2486d003becc55f00556001600160a01b0382166100e15760405162461bcd60e51b815260206004820152601f60248201527f52656e745661756c743a20696e76616c696420555344432061646472657373006044820152606401610054565b506001600160a01b031660805261018e565b5f80546001600160a01b038381166001600160a01b0319831681178455604051919092169283917f8be0079c531659141344cd1fd0a4f28419497f9722a3daafe3b4186f6b6457e09190a35050565b80516001600160a01b0381168114610158575f80fd5b919050565b5f806040838503121561016e575f80fd5b61017783610142565b915061018560208401610142565b90509250929050565b608051610a696101bb5f395f818161014601528181610267015281816105b6015261062b0152610a695ff3fe608060405234801561000f575f80fd5b50600436106100fb575f3560e01c80638da5cb5b11610093578063c295202911610063578063c295202914610204578063f2fde38b14610217578063f3fef3a31461022a578063f6e96ced1461023d575f80fd5b80638da5cb5b146101c6578063944c1d97146101d6578063a1df2abb146101de578063a38c2c3d146101f1575f80fd5b80633e413bee116100ce5780633e413bee146101415780634b28206f14610180578063715018a61461019f5780637b39024d146101a7575f80fd5b806306040618146100ff57806312065fe01461011b57806317b574a6146101235780633038a60d1461012c575b5f80fd5b61010860025481565b6040519081526020015b60405180910390f35b610108610250565b61010860015481565b61013f61013a36600461090d565b6102dd565b005b6101687f000000000000000000000000000000000000000000000000000000000000000081565b6040516001600160a01b039091168152602001610112565b61010861018e36600461092d565b60036020525f908152604090205481565b61013f61036e565b6101086101b536600461092d565b5f9081526003602052604090205490565b5f546001600160a01b0316610168565b61013f610381565b600554610168906001600160a01b031681565b600454610168906001600160a01b031681565b61013f61021236600461090d565b6103da565b61013f61022536600461090d565b61046c565b61013f610238366004610944565b6104a9565b61013f61024b36600461092d565b6105f7565b6040516370a0823160e01b81523060048201525f907f00000000000000000000000000000000000000000000000000000000000000006001600160a01b0316906370a0823190602401602060405180830381865afa1580156102b4573d5f803e3d5ffd5b505050506040513d601f19601f820116820180604052508101906102d8919061096c565b905090565b6102e56106e8565b6001600160a01b03811661034c5760405162461bcd60e51b8152602060048201526024808201527f52656e745661756c743a20696e76616c6964207969656c6420646973747269626044820152633aba37b960e11b60648201526084015b60405180910390fd5b600480546001600160a01b0319166001600160a01b0392909216919091179055565b6103766106e8565b61037f5f610714565b565b6103896106e8565b60028054905f61039883610997565b91905055507f4711e52c972094536a2b69a08c2257ab02b644f374a725bbccd324122bd7f1246002546040516103d091815260200190565b60405180910390a1565b6103e26106e8565b6001600160a01b03811661044a5760405162461bcd60e51b815260206004820152602960248201527f52656e745661756c743a20696e76616c6964207969656c6420737461636b696e604482015268339036b0b730b3b2b960b91b6064820152608401610343565b600580546001600160a01b0319166001600160a01b0392909216919091179055565b6104746106e8565b6001600160a01b03811661049d57604051631e4fbdf760e01b81525f6004820152602401610343565b6104a681610714565b50565b6104b1610763565b5f546001600160a01b03163314806104d357506004546001600160a01b031633145b806104e857506005546001600160a01b031633145b6105345760405162461bcd60e51b815260206004820152601960248201527f52656e745661756c743a206e6f7420617574686f72697a6564000000000000006044820152606401610343565b6001600160a01b03821661058a5760405162461bcd60e51b815260206004820152601c60248201527f52656e745661756c743a20696e76616c696420726563697069656e74000000006044820152606401610343565b5f81116105a95760405162461bcd60e51b8152600401610343906109af565b6105dd6001600160a01b037f000000000000000000000000000000000000000000000000000000000000000016838361077e565b6105f360015f80516020610a1483398151915255565b5050565b6105ff610763565b5f811161061e5760405162461bcd60e51b8152600401610343906109af565b6106536001600160a01b037f0000000000000000000000000000000000000000000000000000000000000000163330846107b8565b8060015f82825461066491906109fa565b90915550506002545f90815260036020526040812080548392906106899084906109fa565b909155505060025460405133917ff335f24c222716a32e307b843fe125d20c7fd660660a5538ded173c33ac219b3916106ca91858252602082015260400190565b60405180910390a26104a660015f80516020610a1483398151915255565b5f546001600160a01b0316331461037f5760405163118cdaa760e01b8152336004820152602401610343565b5f80546001600160a01b038381166001600160a01b0319831681178455604051919092169283917f8be0079c531659141344cd1fd0a4f28419497f9722a3daafe3b4186f6b6457e09190a35050565b61076b6107f4565b60025f80516020610a1483398151915255565b61078b8383836001610823565b6107b357604051635274afe760e01b81526001600160a01b0384166004820152602401610343565b505050565b6107c6848484846001610885565b6107ee57604051635274afe760e01b81526001600160a01b0385166004820152602401610343565b50505050565b5f80516020610a148339815191525460020361037f57604051633ee5aeb560e01b815260040160405180910390fd5b60405163a9059cbb60e01b5f8181526001600160a01b038616600452602485905291602083604481808b5af1925060015f5114831661087957838315161561086d573d5f823e3d81fd5b5f873b113d1516831692505b60405250949350505050565b6040516323b872dd60e01b5f8181526001600160a01b038781166004528616602452604485905291602083606481808c5af1925060015f511483166108e15783831516156108d5573d5f823e3d81fd5b5f883b113d1516831692505b604052505f60605295945050505050565b80356001600160a01b0381168114610908575f80fd5b919050565b5f6020828403121561091d575f80fd5b610926826108f2565b9392505050565b5f6020828403121561093d575f80fd5b5035919050565b5f8060408385031215610955575f80fd5b61095e836108f2565b946020939093013593505050565b5f6020828403121561097c575f80fd5b5051919050565b634e487b7160e01b5f52601160045260245ffd5b5f600182016109a8576109a8610983565b5060010190565b6020808252602b908201527f52656e745661756c743a20616d6f756e74206d7573742062652067726561746560408201526a72207468616e207a65726f60a81b606082015260800190565b80820180821115610a0d57610a0d610983565b9291505056fe9b779b17422d0df92223018b32b4d1fa46e071723d6817e2486d003becc55f00a2646970667358221220b11a6e50983bb9f98a1e4745114dff1c01b10235f3f7b2f4732537e831aaefaf64736f6c63430008180033608060405234801561000f575f80fd5b5060405161138e38038061138e83398101604081905261002e916100df565b806001600160a01b03811661005c57604051631e4fbdf760e01b81525f600482015260240160405180910390fd5b61006581610090565b5060017f9b779b17422d0df92223018b32b4d1fa46e071723d6817e2486d003becc55f00555061010c565b5f80546001600160a01b038381166001600160a01b0319831681178455604051919092169283917f8be0079c531659141344cd1fd0a4f28419497f9722a3daafe3b4186f6b6457e09190a35050565b5f602082840312156100ef575f80fd5b81516001600160a01b0381168114610105575f80fd5b9392505050565b611275806101195f395ff3fe608060405234801561000f575f80fd5b5060043610610111575f3560e01c80638a570a121161009e5780639c9c5d0c1161006e5780639c9c5d0c14610236578063f2fde38b14610249578063f8c8765e1461025c578063fee7ad5a1461026f578063ff86ad5514610282575f80fd5b80638a570a12146102025780638da5cb5b1461020a57806395ccea671461021a578063967a1d451461022d575f80fd5b80635ee7a942116100e45780635ee7a9421461017f5780636128ce501461019e578063715018a6146101c85780637964293c146101d05780638109873c146101e3575f80fd5b8063086146d214610115578063350415af1461012c5780633e413bee1461013f57806340bd2e231461016a575b5f80fd5b6005545b6040519081526020015b60405180910390f35b61011961013a36600461108e565b61028a565b600454610152906001600160a01b031681565b6040516001600160a01b039091168152602001610123565b61017d6101783660046110b8565b6103ae565b005b61011961018d3660046110b8565b60086020525f908152604090205481565b6101196101ac3660046110cf565b600760209081525f928352604080842090915290825290205481565b61017d610805565b600154610152906001600160a01b031681565b6101196101f13660046110b8565b60066020525f908152604090205481565b61017d610818565b5f546001600160a01b0316610152565b61017d61022836600461108e565b610bf8565b61011960055481565b600354610152906001600160a01b031681565b61017d6102573660046110fd565b610c7d565b61017d61026a36600461111f565b610cb7565b600254610152906001600160a01b031681565b61017d610ec0565b5f6005548211806102a657505f82815260066020526040902054155b156102b257505f6103a8565b5f8281526007602090815260408083206001600160a01b0387168452909152902054156102e057505f6103a8565b6001546040516370a0823160e01b81526001600160a01b0385811660048301525f9216906370a0823190602401602060405180830381865afa158015610328573d5f803e3d5ffd5b505050506040513d601f19601f8201168201806040525081019061034c9190611178565b9050805f0361035e575f9150506103a8565b5f838152600860205260408120549081900361037e575f925050506103a8565b5f8481526006602052604090205481906103999084906111a3565b6103a391906111ba565b925050505b92915050565b6103b6610f19565b60055481111561041e5760405162461bcd60e51b815260206004820152602860248201527f5969656c644469737472696275746f723a20706572696f64206e6f74206469736044820152671d1c9a589d5d195960c21b60648201526084015b60405180910390fd5b5f8181526006602052604090205461048b5760405162461bcd60e51b815260206004820152602a60248201527f5969656c644469737472696275746f723a206e6f207969656c6420666f7220746044820152691a1a5cc81c195c9a5bd960b21b6064820152608401610415565b6001546040516370a0823160e01b81523360048201525f916001600160a01b0316906370a0823190602401602060405180830381865afa1580156104d1573d5f803e3d5ffd5b505050506040513d601f19601f820116820180604052508101906104f59190611178565b90505f81116105575760405162461bcd60e51b815260206004820152602860248201527f5969656c644469737472696275746f723a206e6f2073686172657320746f20636044820152673630b4b6903337b960c11b6064820152608401610415565b5f828152600760209081526040808320338452909152902054156105c75760405162461bcd60e51b815260206004820152602160248201527f5969656c644469737472696275746f723a20616c726561647920636c61696d656044820152601960fa1b6064820152608401610415565b5f828152600860205260409020548061062d5760405162461bcd60e51b815260206004820152602260248201527f5969656c644469737472696275746f723a20696e76616c696420736e617073686044820152611bdd60f21b6064820152608401610415565b5f8381526006602052604081205482906106489085906111a3565b61065291906111ba565b90505f81116106b45760405162461bcd60e51b815260206004820152602860248201527f5969656c644469737472696275746f723a207969656c6420616d6f756e7420746044820152671bdbc81cdb585b1b60c21b6064820152608401610415565b600480546040516370a0823160e01b8152309281019290925282916001600160a01b03909116906370a0823190602401602060405180830381865afa1580156106ff573d5f803e3d5ffd5b505050506040513d601f19601f820116820180604052508101906107239190611178565b101561077d5760405162461bcd60e51b8152602060048201526024808201527f5969656c644469737472696275746f723a20696e73756666696369656e742066604482015263756e647360e01b6064820152608401610415565b5f8481526007602090815260408083203380855292529091208290556004546107b2916001600160a01b039091169083610f34565b604051818152849033907f10d8dedfc0745b8c25ba10b06e304138b251c18dcaadf2d71c7f3214719dc4d19060200160405180910390a350505061080260015f8051602061122083398151915255565b50565b61080d610f6e565b6108165f610f9a565b565b610820610f6e565b610828610f19565b60025460408051636a18890b60e11b815290515f926001600160a01b03169163d43112169160048083019260209291908290030181865afa15801561086f573d5f803e3d5ffd5b505050506040513d601f19601f820116820180604052508101906108939190611178565b90505f81116108f95760405162461bcd60e51b815260206004820152602c60248201527f5969656c644469737472696275746f723a206e6f20646973747269627574616260448201526b6c65206361736820666c6f7760a01b6064820152608401610415565b600154604080516318160ddd60e01b815290515f926001600160a01b0316916318160ddd9160048083019260209291908290030181865afa158015610940573d5f803e3d5ffd5b505050506040513d601f19601f820116820180604052508101906109649190611178565b90505f81116109bf5760405162461bcd60e51b815260206004820152602160248201527f5969656c644469737472696275746f723a206e6f2073686172657320657869736044820152601d60fa1b6064820152608401610415565b600580545f90815260086020908152604080832085905592548252600681528282208590556003548351629032ff60e51b8152935192936001600160a01b03909116926312065fe0926004808401939192918290030181865afa158015610a28573d5f803e3d5ffd5b505050506040513d601f19601f82011682018060405250810190610a4c9190611178565b905080831115610b42575f610a6182856111d9565b90505f60025f9054906101000a90046001600160a01b03166001600160a01b031663a1df2abb6040518163ffffffff1660e01b8152600401602060405180830381865afa158015610ab4573d5f803e3d5ffd5b505050506040513d601f19601f82011682018060405250810190610ad891906111ec565b90506001600160a01b03811615610b3f5760405163d9b3e92f60e01b8152600481018390526001600160a01b0382169063d9b3e92f906024015f604051808303815f87803b158015610b28575f80fd5b505af1158015610b3a573d5f803e3d5ffd5b505050505b50505b60035460405163f3fef3a360e01b8152306004820152602481018590526001600160a01b039091169063f3fef3a3906044015f604051808303815f87803b158015610b8b575f80fd5b505af1158015610b9d573d5f803e3d5ffd5b505060055460408051878152602081018790529193507ff571bb88b0ec5dc25398fc62c69d5970d50ea313a0a6596b0ca7f0197d37383f92500160405180910390a250505061081660015f8051602061122083398151915255565b610c00610f6e565b6001600160a01b038216610c625760405162461bcd60e51b815260206004820152602360248201527f5969656c644469737472696275746f723a20696e76616c696420726563697069604482015262195b9d60ea1b6064820152608401610415565b600454610c79906001600160a01b03168383610f34565b5050565b610c85610f6e565b6001600160a01b038116610cae57604051631e4fbdf760e01b81525f6004820152602401610415565b61080281610f9a565b610cbf610f6e565b6001600160a01b038416610d2f5760405162461bcd60e51b815260206004820152603160248201527f5969656c644469737472696275746f723a20696e76616c69642070726f706572604482015270747920736861726573206164647265737360781b6064820152608401610415565b6001600160a01b038316610da05760405162461bcd60e51b815260206004820152603260248201527f5969656c644469737472696275746f723a20696e76616c6964206361736820666044820152716c6f7720656e67696e65206164647265737360701b6064820152608401610415565b6001600160a01b038216610e0b5760405162461bcd60e51b815260206004820152602c60248201527f5969656c644469737472696275746f723a20696e76616c69642072656e74207660448201526b61756c74206164647265737360a01b6064820152608401610415565b6001600160a01b038116610e705760405162461bcd60e51b815260206004820152602660248201527f5969656c644469737472696275746f723a20696e76616c69642055534443206160448201526564647265737360d01b6064820152608401610415565b600180546001600160a01b039586166001600160a01b0319918216179091556002805494861694821694909417909355600380549285169284169290921790915560048054919093169116179055565b610ec8610f6e565b60058054905f610ed783611207565b91905055507f836e7fc3eb64d45400ae2936f7d89cb08de8febae9a61c9ed58f0cd2afad6072600554604051610f0f91815260200190565b60405180910390a1565b610f21610fe9565b60025f8051602061122083398151915255565b610f418383836001611018565b610f6957604051635274afe760e01b81526001600160a01b0384166004820152602401610415565b505050565b5f546001600160a01b031633146108165760405163118cdaa760e01b8152336004820152602401610415565b5f80546001600160a01b038381166001600160a01b0319831681178455604051919092169283917f8be0079c531659141344cd1fd0a4f28419497f9722a3daafe3b4186f6b6457e09190a35050565b5f805160206112208339815191525460020361081657604051633ee5aeb560e01b815260040160405180910390fd5b60405163a9059cbb60e01b5f8181526001600160a01b038616600452602485905291602083604481808b5af1925060015f5114831661106e578383151615611062573d5f823e3d81fd5b5f873b113d1516831692505b60405250949350505050565b6001600160a01b0381168114610802575f80fd5b5f806040838503121561109f575f80fd5b82356110aa8161107a565b946020939093013593505050565b5f602082840312156110c8575f80fd5b5035919050565b5f80604083850312156110e0575f80fd5b8235915060208301356110f28161107a565b809150509250929050565b5f6020828403121561110d575f80fd5b81356111188161107a565b9392505050565b5f805f8060808587031215611132575f80fd5b843561113d8161107a565b9350602085013561114d8161107a565b9250604085013561115d8161107a565b9150606085013561116d8161107a565b939692955090935050565b5f60208284031215611188575f80fd5b5051919050565b634e487b7160e01b5f52601160045260245ffd5b80820281158282048414176103a8576103a861118f565b5f826111d457634e487b7160e01b5f52601260045260245ffd5b500490565b818103818111156103a8576103a861118f565b5f602082840312156111fc575f80fd5b81516111188161107a565b5f600182016112185761121861118f565b506001019056fe9b779b17422d0df92223018b32b4d1fa46e071723d6817e2486d003becc55f00a2646970667358221220f7eb7d75f25d8250afcf9069e733a5e76cb6eac635f0f87ec5b5ed997e15e50e64736f6c63430008180033608060405234801561000f575f80fd5b50604051610d4c380380610d4c83398101604081905261002e916100bb565b806001600160a01b03811661005c57604051631e4fbdf760e01b81525f600482015260240160405180910390fd5b6100658161006c565b50506100e8565b5f80546001600160a01b038381166001600160a01b0319831681178455604051919092169283917f8be0079c531659141344cd1fd0a4f28419497f9722a3daafe3b4186f6b6457e09190a35050565b5f602082840312156100cb575f80fd5b81516001600160a01b03811681146100e1575f80fd5b9392505050565b610c57806100f55f395ff3fe608060405234801561000f575f80fd5b50600436106100a6575f3560e01c80639abcc0cc1161006e5780639abcc0cc14610139578063c7f758a81461015c578063da35c6641461017c578063f2fde38b14610185578063feab893914610198578063fee7ad5a146101ab575f80fd5b8063013cf08b146100aa57806302d52fa4146100d7578063715018a6146100f85780638da5cb5b1461010257806398951b5614610126575b5f80fd5b6100bd6100b836600461089b565b6101be565b6040516100ce9594939291906108f5565b60405180910390f35b6100ea6100e5366004610933565b61027f565b6040519081526020016100ce565b610100610476565b005b5f546001600160a01b03165b6040516001600160a01b0390911681526020016100ce565b61010061013436600461089b565b610489565b61014c61014736600461089b565b61055d565b60405190151581526020016100ce565b61016f61016a36600461089b565b610597565b6040516100ce91906109a8565b6100ea60025481565b610100610193366004610a01565b6106d5565b6101006101a6366004610a01565b610712565b60035461010e906001600160a01b031681565b600160208190525f9182526040909120805491810180546101de90610a2e565b80601f016020809104026020016040519081016040528092919081815260200182805461020a90610a2e565b80156102555780601f1061022c57610100808354040283529160200191610255565b820191905f5260205f20905b81548152906001019060200180831161023857829003601f168201915b505050506002830154600390930154919260ff8116926101009091046001600160a01b0316915085565b5f8084116102e85760405162461bcd60e51b815260206004820152602b60248201527f53696d706c6544414f3a20616d6f756e74206d7573742062652067726561746560448201526a72207468616e207a65726f60a81b60648201526084015b60405180910390fd5b816103445760405162461bcd60e51b815260206004820152602660248201527f53696d706c6544414f3a206465736372697074696f6e2063616e6e6f7420626560448201526520656d70747960d01b60648201526084016102df565b600280545f918261035483610a66565b9190505590506040518060a0016040528086815260200185858080601f0160208091040260200160405190810160405280939291908181526020018383808284375f92018290525093855250505060208083018290523360408085019190915242606090940193909352848252600180825292909120835181559083015190918201906103e19082610aea565b5060408281015160028301805460608601516001600160a01b031661010002610100600160a81b0319931515939093166001600160a81b03199091161791909117905560809092015160039091015551339082907f85b1e5bd1e58840265c40582ff09f8cbfab823e041a824467b654a99b5156d399061046690899089908990610baa565b60405180910390a3949350505050565b61047e610820565b6104875f61084c565b565b610491610820565b60025481106104b25760405162461bcd60e51b81526004016102df90610bdf565b5f818152600160205260409020600281015460ff16156105205760405162461bcd60e51b8152602060048201526024808201527f53696d706c6544414f3a2070726f706f73616c20616c726561647920617070726044820152631bdd995960e21b60648201526084016102df565b60028101805460ff1916600117905560405182907f28ec9e38ba73636ceb2f6c1574136f83bd46284a3c74734b711bf45e12f8d929905f90a25050565b5f600254821061057f5760405162461bcd60e51b81526004016102df90610bdf565b505f9081526001602052604090206002015460ff1690565b6105d06040518060a001604052805f8152602001606081526020015f151581526020015f6001600160a01b031681526020015f81525090565b60025482106105f15760405162461bcd60e51b81526004016102df90610bdf565b5f82815260016020818152604092839020835160a081019094528054845291820180549184019161062190610a2e565b80601f016020809104026020016040519081016040528092919081815260200182805461064d90610a2e565b80156106985780601f1061066f57610100808354040283529160200191610698565b820191905f5260205f20905b81548152906001019060200180831161067b57829003601f168201915b5050509183525050600282015460ff81161515602083015261010090046001600160a01b0316604082015260039091015460609091015292915050565b6106dd610820565b6001600160a01b03811661070657604051631e4fbdf760e01b81525f60048201526024016102df565b61070f8161084c565b50565b61071a610820565b6003546001600160a01b0316156107815760405162461bcd60e51b815260206004820152602560248201527f53696d706c6544414f3a2043617368466c6f77456e67696e6520616c726561646044820152641e481cd95d60da1b60648201526084016102df565b6001600160a01b0381166107d75760405162461bcd60e51b815260206004820152601a60248201527f53696d706c6544414f3a20696e76616c6964206164647265737300000000000060448201526064016102df565b600380546001600160a01b0319166001600160a01b0383169081179091556040517f65bb62dffafaff7b808ecee7659b8d1556884f676fbb10b8a2ced53ec45223d6905f90a250565b5f546001600160a01b031633146104875760405163118cdaa760e01b81523360048201526024016102df565b5f80546001600160a01b038381166001600160a01b0319831681178455604051919092169283917f8be0079c531659141344cd1fd0a4f28419497f9722a3daafe3b4186f6b6457e09190a35050565b5f602082840312156108ab575f80fd5b5035919050565b5f81518084525f5b818110156108d6576020818501810151868301820152016108ba565b505f602082860101526020601f19601f83011685010191505092915050565b85815260a060208201525f61090d60a08301876108b2565b9415156040830152506001600160a01b0392909216606083015260809091015292915050565b5f805f60408486031215610945575f80fd5b83359250602084013567ffffffffffffffff80821115610963575f80fd5b818601915086601f830112610976575f80fd5b813581811115610984575f80fd5b876020828501011115610995575f80fd5b6020830194508093505050509250925092565b60208152815160208201525f602083015160a060408401526109cd60c08401826108b2565b905060408401511515606084015260018060a01b036060850151166080840152608084015160a08401528091505092915050565b5f60208284031215610a11575f80fd5b81356001600160a01b0381168114610a27575f80fd5b9392505050565b600181811c90821680610a4257607f821691505b602082108103610a6057634e487b7160e01b5f52602260045260245ffd5b50919050565b5f60018201610a8357634e487b7160e01b5f52601160045260245ffd5b5060010190565b634e487b7160e01b5f52604160045260245ffd5b601f821115610ae557805f5260205f20601f840160051c81016020851015610ac35750805b601f840160051c820191505b81811015610ae2575f8155600101610acf565b50505b505050565b815167ffffffffffffffff811115610b0457610b04610a8a565b610b1881610b128454610a2e565b84610a9e565b602080601f831160018114610b4b575f8415610b345750858301515b5f19600386901b1c1916600185901b178555610ba2565b5f85815260208120601f198616915b82811015610b7957888601518255948401946001909101908401610b5a565b5085821015610b9657878501515f19600388901b60f8161c191681555b505060018460011b0185555b505050505050565b83815260406020820152816040820152818360608301375f818301606090810191909152601f909201601f1916010192915050565b60208082526022908201527f53696d706c6544414f3a2070726f706f73616c20646f6573206e6f74206578696040820152611cdd60f21b60608201526080019056fea26469706673582212208697a409ce4b82eda8913bf97f372b2f95203d5a55eda710d311d26f384b688464736f6c63430008180033608060405234801562000010575f80fd5b5060405162001c5638038062001c56833981016040819052620000339162000234565b806001600160a01b0381166200006357604051631e4fbdf760e01b81525f60048201526024015b60405180910390fd5b6200006e81620001c9565b5060017f9b779b17422d0df92223018b32b4d1fa46e071723d6817e2486d003becc55f00556001600160a01b038316620000fe5760405162461bcd60e51b815260206004820152602a60248201527f5969656c64537461636b696e674d616e616765723a20696e76616c69642055536044820152694443206164647265737360b01b60648201526084016200005a565b6001600160a01b0382166200016f5760405162461bcd60e51b815260206004820152603060248201527f5969656c64537461636b696e674d616e616765723a20696e76616c696420726560448201526f6e74207661756c74206164647265737360801b60648201526084016200005a565b50600280546001600160a01b039384166001600160a01b03199182161790915560038054929093169116179055686c6b935b8bbd400000600555683635c9adc5dea000006006556007805460ff191660011790556200027b565b5f80546001600160a01b038381166001600160a01b0319831681178455604051919092169283917f8be0079c531659141344cd1fd0a4f28419497f9722a3daafe3b4186f6b6457e09190a35050565b80516001600160a01b03811681146200022f575f80fd5b919050565b5f805f6060848603121562000247575f80fd5b620002528462000218565b9250620002626020850162000218565b9150620002726040850162000218565b90509250925092565b6119cd80620002895f395ff3fe608060405234801561000f575f80fd5b50600436106101a1575f3560e01c80638da5cb5b116100f3578063c89a91db11610093578063f2fde38b1161006e578063f2fde38b14610325578063feab893914610338578063fee7ad5a1461034b578063ff50abdc1461035e575f80fd5b8063c89a91db146102eb578063d9b3e92f1461030a578063db2e21bc1461031d575f80fd5b8063aab483d6116100ce578063aab483d6146102b3578063b0462296146102c6578063bd28f351146102d9578063c2c7b652146102e2575f80fd5b80638da5cb5b1461027d5780639c9c5d0c1461028d578063a7f8a5e2146102a0575f80fd5b8063351911811161015e578063715018a611610139578063715018a61461025d5780637b7d3f9314610265578063804990781461026d5780638501de0114610275575f80fd5b806335191181146102025780633e413bee14610215578063627d95e414610240575f80fd5b8063080c279a146101a5578063086146d2146101c1578063137c3f69146101c95780632b1dc884146101de5780632ca6be1f146101e65780632e2ad079146101f9575b5f80fd5b6101ae60065481565b6040519081526020015b60405180910390f35b6101ae610367565b6101dc6101d736600461179a565b6103d6565b005b6101ae610571565b6101dc6101f43660046117bc565b610673565b6101ae60055481565b6101dc6102103660046117d3565b6106b7565b600254610228906001600160a01b031681565b6040516001600160a01b0390911681526020016101b8565b60075461024d9060ff1681565b60405190151581526020016101b8565b6101dc610700565b6101dc610713565b6101ae6108bf565b6101ae6109ee565b5f546001600160a01b0316610228565b600354610228906001600160a01b031681565b600154610228906001600160a01b031681565b6101dc6102c13660046117bc565b610a3b565b6101dc6102d43660046117bc565b610a78565b6101ae60095481565b6101ae6101f481565b6101ae6102f93660046117bc565b600a6020525f908152604090205481565b6101dc6103183660046117bc565b610af1565b6101dc610f2b565b6101dc61033336600461179a565b6110bf565b6101dc61034636600461179a565b6110f9565b600454610228906001600160a01b031681565b6101ae60085481565b6003546040805162c080c360e31b815290515f926001600160a01b03169163060406189160048083019260209291908290030181865afa1580156103ad573d5f803e3d5ffd5b505050506040513d601f19601f820116820180604052508101906103d191906117f2565b905090565b6103de611198565b6001600160a01b03811661044d5760405162461bcd60e51b815260206004820152602b60248201527f5969656c64537461636b696e674d616e616765723a20696e76616c696420766160448201526a756c74206164647265737360a81b60648201526084015b60405180910390fd5b600254604080516338d52e0f60e01b815290516001600160a01b03928316928416916338d52e0f9160048083019260209291908290030181865afa158015610497573d5f803e3d5ffd5b505050506040513d601f19601f820116820180604052508101906104bb9190611809565b6001600160a01b0316146105285760405162461bcd60e51b815260206004820152602e60248201527f5969656c64537461636b696e674d616e616765723a207661756c74206173736560448201526d74206d757374206265205553444360901b6064820152608401610444565b600180546001600160a01b0319166001600160a01b0383169081179091556040517ff2a68c50468a5edde97a8d5f74eed762dfa952416e57cb30e2494df93a6fc777905f90a250565b6001545f906001600160a01b031661058857505f90565b6001546040516370a0823160e01b81523060048201525f916001600160a01b0316906370a0823190602401602060405180830381865afa1580156105ce573d5f803e3d5ffd5b505050506040513d601f19601f820116820180604052508101906105f291906117f2565b9050805f03610602575f91505090565b6001546040516303d1689d60e11b8152600481018390526001600160a01b03909116906307a2d13a90602401602060405180830381865afa158015610649573d5f803e3d5ffd5b505050506040513d601f19601f8201168201806040525081019061066d91906117f2565b91505090565b61067b611198565b60058190556040518181527f9530355cac0969404662db60e90664d90fdf47c37c69fa53616fc509fde4c294906020015b60405180910390a150565b6106bf611198565b6007805460ff19168215159081179091556040519081527f8eeec181d36d9012eaaed8d7860cb5fa6e815254a5a2fa238fb197c03732247e906020016106ac565b610708611198565b6107115f6111c4565b565b5f546001600160a01b031633148061073557506003546001600160a01b031633145b8061074a57506004546001600160a01b031633145b806107d9575060035f9054906101000a90046001600160a01b03166001600160a01b0316638da5cb5b6040518163ffffffff1660e01b8152600401602060405180830381865afa1580156107a0573d5f803e3d5ffd5b505050506040513d601f19601f820116820180604052508101906107c49190611809565b6001600160a01b0316336001600160a01b0316145b6107f55760405162461bcd60e51b815260040161044490611824565b6107fd611213565b60075460ff166108635760405162461bcd60e51b815260206004820152602b60248201527f5969656c64537461636b696e674d616e616765723a206175746f2d6465706f7360448201526a1a5d08191a5cd8589b195960aa1b6064820152608401610444565b6001546001600160a01b031661088b5760405162461bcd60e51b815260040161044490611868565b5f6108946108bf565b905060065481106108a8576108a88161122e565b5061071160015f8051602061197883398151915255565b6002546003546040516370a0823160e01b81526001600160a01b0391821660048201525f92839216906370a0823190602401602060405180830381865afa15801561090c573d5f803e3d5ffd5b505050506040513d601f19601f8201168201806040525081019061093091906117f2565b6004549091505f906001600160a01b0316156109b25760048054604080516338831e1d60e21b815290516001600160a01b039092169263e20c78749282820192602092908290030181865afa15801561098b573d5f803e3d5ffd5b505050506040513d601f19601f820116820180604052508101906109af91906117f2565b90505b6005546109bf90826118bf565b82116109cd575f9250505090565b6005545f906109dc83856118d8565b6109e691906118d8565b949350505050565b6001545f906001600160a01b0316610a0557505f90565b6008545f03610a1357505f90565b5f610a1c610571565b90506008548111610a2e575f91505090565b60085461066d90826118d8565b610a43611198565b60068190556040518181527fca2e9e3e71d8dcab383b61e219dc9f736ee812dbb08aff666933b85949553d39906020016106ac565b610a80611198565b610a88611213565b6001546001600160a01b0316610ab05760405162461bcd60e51b815260040161044490611868565b5f8111610acf5760405162461bcd60e51b8152600401610444906118eb565b610ad88161122e565b610aee60015f8051602061197883398151915255565b50565b5f546001600160a01b0316331480610b1357506003546001600160a01b031633145b80610b2857506004546001600160a01b031633145b80610bb7575060035f9054906101000a90046001600160a01b03166001600160a01b0316638da5cb5b6040518163ffffffff1660e01b8152600401602060405180830381865afa158015610b7e573d5f803e3d5ffd5b505050506040513d601f19601f82011682018060405250810190610ba29190611809565b6001600160a01b0316336001600160a01b0316145b610bd35760405162461bcd60e51b815260040161044490611824565b610bdb611213565b6001546001600160a01b0316610c035760405162461bcd60e51b815260040161044490611868565b5f8111610c225760405162461bcd60e51b8152600401610444906118eb565b600154604051630a28a47760e01b8152600481018390525f916001600160a01b031690630a28a47790602401602060405180830381865afa158015610c69573d5f803e3d5ffd5b505050506040513d601f19601f82011682018060405250810190610c8d91906117f2565b600154604051636c82bbbf60e11b81523060048201529192505f916001600160a01b039091169063d905777e90602401602060405180830381865afa158015610cd8573d5f803e3d5ffd5b505050506040513d601f19601f82011682018060405250810190610cfc91906117f2565b905080821115610d605760405162461bcd60e51b815260206004820152602960248201527f5969656c64537461636b696e674d616e616765723a20696e73756666696369656044820152686e742073686172657360b81b6064820152608401610444565b600154604051635d043b2960e11b815260048101849052306024820181905260448201525f916001600160a01b03169063ba087652906064016020604051808303815f875af1158015610db5573d5f803e3d5ffd5b505050506040513d601f19601f82011682018060405250810190610dd991906117f2565b90505f612710610deb6101f487611941565b610df59190611958565b9050610e0181866118d8565b821015610e6b5760405162461bcd60e51b815260206004820152603260248201527f5969656c64537461636b696e674d616e616765723a20696e73756666696369656044820152711b9d08185cdcd95d1cc81c9958d95a5d995960721b6064820152608401610444565b848210610ebb575f610e7d86846118d8565b90508015610eb9576040518181527f0fdcac51e9ac7e6c32c155794ef3971695f83dd47a7982cbfd4a7e2fe991c7cc9060200160405180910390a15b505b600354600254610ed8916001600160a01b0391821691168461161f565b60408051838152602081018690527fd66662c0ded9e58fd31d5e44944bcfd07ffc15e6927ecc1382e7941cb7bd24c4910160405180910390a150505050610aee60015f8051602061197883398151915255565b610f33611198565b610f3b611213565b6001546001600160a01b0316610f635760405162461bcd60e51b815260040161044490611868565b6001546040516370a0823160e01b81523060048201525f916001600160a01b0316906370a0823190602401602060405180830381865afa158015610fa9573d5f803e3d5ffd5b505050506040513d601f19601f82011682018060405250810190610fcd91906117f2565b905080156108a857600154604051635d043b2960e11b815260048101839052306024820181905260448201525f916001600160a01b03169063ba087652906064016020604051808303815f875af115801561102a573d5f803e3d5ffd5b505050506040513d601f19601f8201168201806040525081019061104e91906117f2565b60035460025491925061106e916001600160a01b0390811691168361161f565b60408051828152602081018490527fd66662c0ded9e58fd31d5e44944bcfd07ffc15e6927ecc1382e7941cb7bd24c4910160405180910390a1505061071160015f8051602061197883398151915255565b6110c7611198565b6001600160a01b0381166110f057604051631e4fbdf760e01b81525f6004820152602401610444565b610aee816111c4565b611101611198565b6001600160a01b0381166111765760405162461bcd60e51b815260206004820152603660248201527f5969656c64537461636b696e674d616e616765723a20696e76616c6964206361604482015275736820666c6f7720656e67696e65206164647265737360501b6064820152608401610444565b600480546001600160a01b0319166001600160a01b0392909216919091179055565b5f546001600160a01b031633146107115760405163118cdaa760e01b8152336004820152602401610444565b5f80546001600160a01b038381166001600160a01b0319831681178455604051919092169283917f8be0079c531659141344cd1fd0a4f28419497f9722a3daafe3b4186f6b6457e09190a35050565b61121b611659565b60025f8051602061197883398151915255565b6002546003546040516370a0823160e01b81526001600160a01b039182166004820152839291909116906370a0823190602401602060405180830381865afa15801561127c573d5f803e3d5ffd5b505050506040513d601f19601f820116820180604052508101906112a091906117f2565b10156113015760405162461bcd60e51b815260206004820152602a60248201527f5969656c64537461636b696e674d616e616765723a20696e73756666696369656044820152696e742062616c616e636560b01b6064820152608401610444565b60035460405163f3fef3a360e01b8152306004820152602481018390526001600160a01b039091169063f3fef3a3906044015f604051808303815f87803b15801561134a575f80fd5b505af115801561135c573d5f803e3d5ffd5b505060015460405163ef8b30f760e01b8152600481018590525f93506001600160a01b03909116915063ef8b30f790602401602060405180830381865afa1580156113a9573d5f803e3d5ffd5b505050506040513d601f19601f820116820180604052508101906113cd91906117f2565b90505f81116114315760405162461bcd60e51b815260206004820152602a60248201527f5969656c64537461636b696e674d616e616765723a207a65726f2073686172656044820152691cc8195e1c1958dd195960b21b6064820152608401610444565b60015460025461144e916001600160a01b03918216911684611688565b600154604051636e553f6560e01b8152600481018490523060248201525f916001600160a01b031690636e553f65906044016020604051808303815f875af115801561149c573d5f803e3d5ffd5b505050506040513d601f19601f820116820180604052508101906114c091906117f2565b90508181101561152d5760405162461bcd60e51b815260206004820152603260248201527f5969656c64537461636b696e674d616e616765723a20736c69707061676520746044820152711bdbc81a1a59da081bdb8819195c1bdcda5d60721b6064820152608401610444565b8260085f82825461153e91906118bf565b9091555050426009556003546040805162c080c360e31b815290515f926001600160a01b03169163060406189160048083019260209291908290030181865afa15801561158d573d5f803e3d5ffd5b505050506040513d601f19601f820116820180604052508101906115b191906117f2565b905083600a5f8381526020019081526020015f205f8282546115d391906118bf565b909155505060408051858152602081018490529081018290527fed2de103da084463a1b2895568d352fd796dfd1d033c0e8ee9fabe73a67153899060600160405180910390a150505050565b61162c83838360016116da565b61165457604051635274afe760e01b81526001600160a01b0384166004820152602401610444565b505050565b5f805160206119788339815191525460020361071157604051633ee5aeb560e01b815260040160405180910390fd5b6116948383835f61173c565b611654576116a583835f600161173c565b6116cd57604051635274afe760e01b81526001600160a01b0384166004820152602401610444565b61162c838383600161173c565b60405163a9059cbb60e01b5f8181526001600160a01b038616600452602485905291602083604481808b5af1925060015f51148316611730578383151615611724573d5f823e3d81fd5b5f873b113d1516831692505b60405250949350505050565b60405163095ea7b360e01b5f8181526001600160a01b038616600452602485905291602083604481808b5af1925060015f51148316611730578383151615611724573d5f823e3d81fd5b6001600160a01b0381168114610aee575f80fd5b5f602082840312156117aa575f80fd5b81356117b581611786565b9392505050565b5f602082840312156117cc575f80fd5b5035919050565b5f602082840312156117e3575f80fd5b813580151581146117b5575f80fd5b5f60208284031215611802575f80fd5b5051919050565b5f60208284031215611819575f80fd5b81516117b581611786565b60208082526024908201527f5969656c64537461636b696e674d616e616765723a206e6f7420617574686f726040820152631a5e995960e21b606082015260800190565b60208082526023908201527f5969656c64537461636b696e674d616e616765723a207661756c74206e6f74206040820152621cd95d60ea1b606082015260800190565b634e487b7160e01b5f52601160045260245ffd5b808201808211156118d2576118d26118ab565b92915050565b818103818111156118d2576118d26118ab565b60208082526036908201527f5969656c64537461636b696e674d616e616765723a20616d6f756e74206d7573604082015275742062652067726561746572207468616e207a65726f60501b606082015260800190565b80820281158282048414176118d2576118d26118ab565b5f8261197257634e487b7160e01b5f52601260045260245ffd5b50049056fe9b779b17422d0df92223018b32b4d1fa46e071723d6817e2486d003becc55f00a2646970667358221220733b4671c3b776429b4567d9dc9d977977613b715824e4bd8bf949d653d7407164736f6c63430008180033a2646970667358221220d5e7a4a9bcdf21b05b20c0f7119506d955ae615dfb1a5f2d92c85a6ec16f52e164736f6c63430008180033","linkReferences":{}},"methodIdentifiers":{"approveCapExProposal(uint256)":"697b8d75","cashFlowEngine()":"fee7ad5a","claimYield(uint256)":"40bd2e23","configureYieldStacking(uint256,uint256)":"c6e21584","createCapExProposal(uint256,string)":"279266e1","dao()":"4162169f","depositRent(uint256)":"f6e96ced","distributeYield()":"8a570a12","getCashFlowFromAssets()":"1ff65770","getContracts()":"c3a2a93a","getDistributableCashFlow()":"d4311216","getPropertyData()":"1d7450ac","getTotalAssetsInVault()":"2b1dc884","getYieldEarned()":"8501de01","initialize((string,uint256,uint256,string),uint256,address)":"7b3e2387","initialized()":"158ef93e","owner()":"8da5cb5b","propertyId()":"ee7a3b8e","propertyNFT()":"37f76838","propertyShares()":"7964293c","recordCapEx(uint256,uint256)":"081aa018","recordOperatingExpense(uint256)":"df2c2b5e","renounceOwnership()":"715018a6","rentVault()":"9c9c5d0c","resetPeriod()":"944c1d97","setAutoDepositEnabled(bool)":"35191181","setManager(address)":"d0ebdbe7","setYieldVault(address)":"137c3f69","totalShares()":"3a98ef39","transferOwnership(address)":"f2fde38b","usdc()":"3e413bee","yieldDistributor()":"a38c2c3d","yieldStackingManager()":"a1df2abb"},"id":2}