{"abi":[{"type":"constructor","inputs":[],"stateMutability":"nonpayable"},{"type":"function","name":"UPGRADE_INTERFACE_VERSION","inputs":[],"outputs":[{"name":"","type":"string","internalType":"string"}],"stateMutability":"view"},{"type":"function","name":"cashFlowEngine","inputs":[],"outputs":[{"name":"","type":"address","internalType":"contract CashFlowEngine"}],"stateMutability":"view"},{"type":"function","name":"configureYieldStacking","inputs":[{"name":"_yieldStackingManager","type":"address","internalType":"contract YieldStackingManager"},{"name":"yieldVaultAddress","type":"address","internalType":"address"},{"name":"reserveThreshold","type":"uint256","internalType":"uint256"},{"name":"minimumDeposit","type":"uint256","internalType":"uint256"},{"name":"autoDepositEnabled","type":"bool","internalType":"bool"}],"outputs":[],"stateMutability":"nonpayable"},{"type":"function","name":"dao","inputs":[],"outputs":[{"name":"","type":"address","internalType":"contract SimpleDAO"}],"stateMutability":"view"},{"type":"function","name":"initializeContract","inputs":[{"name":"_usdc","type":"address","internalType":"address"},{"name":"initialOwner","type":"address","internalType":"address"}],"outputs":[],"stateMutability":"nonpayable"},{"type":"function","name":"initializePropertyShares","inputs":[{"name":"_propertyShares","type":"address","internalType":"contract PropertyShares"},{"name":"_propertyNFT","type":"address","internalType":"address"},{"name":"_propertyId","type":"uint256","internalType":"uint256"},{"name":"_totalShares","type":"uint256","internalType":"uint256"},{"name":"initialShareholder","type":"address","internalType":"address"}],"outputs":[],"stateMutability":"nonpayable"},{"type":"function","name":"initialized","inputs":[],"outputs":[{"name":"","type":"bool","internalType":"bool"}],"stateMutability":"view"},{"type":"function","name":"linkContracts","inputs":[{"name":"_cashFlowEngine","type":"address","internalType":"contract CashFlowEngine"},{"name":"_rentVault","type":"address","internalType":"contract RentVault"},{"name":"_dao","type":"address","internalType":"contract SimpleDAO"},{"name":"_yieldDistributor","type":"address","internalType":"contract YieldDistributor"},{"name":"_yieldStackingManager","type":"address","internalType":"contract YieldStackingManager"},{"name":"_propertyShares","type":"address","internalType":"address"},{"name":"_cashFlowEngineAddr","type":"address","internalType":"address"},{"name":"_rentVaultAddr","type":"address","internalType":"address"},{"name":"_yieldDistributorAddr","type":"address","internalType":"address"},{"name":"_usdc","type":"address","internalType":"address"}],"outputs":[],"stateMutability":"nonpayable"},{"type":"function","name":"mintPropertyNFT","inputs":[{"name":"_propertyNFT","type":"address","internalType":"contract PropertyNFT"},{"name":"propertyData","type":"tuple","internalType":"struct IPropertyNFT.PropertyData","components":[{"name":"location","type":"string","internalType":"string"},{"name":"valuation","type":"uint256","internalType":"uint256"},{"name":"monthlyRent","type":"uint256","internalType":"uint256"},{"name":"metadataURI","type":"string","internalType":"string"}]}],"outputs":[{"name":"","type":"uint256","internalType":"uint256"}],"stateMutability":"nonpayable"},{"type":"function","name":"owner","inputs":[],"outputs":[{"name":"","type":"address","internalType":"address"}],"stateMutability":"view"},{"type":"function","name":"propertyId","inputs":[],"outputs":[{"name":"","type":"uint256","internalType":"uint256"}],"stateMutability":"view"},{"type":"function","name":"propertyNFT","inputs":[],"outputs":[{"name":"","type":"address","internalType":"contract PropertyNFT"}],"stateMutability":"view"},{"type":"function","name":"propertyShares","inputs":[],"outputs":[{"name":"","type":"address","internalType":"contract PropertyShares"}],"stateMutability":"view"},{"type":"function","name":"proxiableUUID","inputs":[],"outputs":[{"name":"","type":"bytes32","internalType":"bytes32"}],"stateMutability":"view"},{"type":"function","name":"renounceOwnership","inputs":[],"outputs":[],"stateMutability":"nonpayable"},{"type":"function","name":"rentVault","inputs":[],"outputs":[{"name":"","type":"address","internalType":"contract RentVault"}],"stateMutability":"view"},{"type":"function","name":"setContracts","inputs":[{"name":"_propertyNFT","type":"address","internalType":"contract PropertyNFT"},{"name":"_propertyShares","type":"address","internalType":"contract PropertyShares"},{"name":"_rentVault","type":"address","internalType":"contract RentVault"},{"name":"_cashFlowEngine","type":"address","internalType":"contract CashFlowEngine"},{"name":"_yieldDistributor","type":"address","internalType":"contract YieldDistributor"},{"name":"_dao","type":"address","internalType":"contract SimpleDAO"},{"name":"_yieldStackingManager","type":"address","internalType":"contract YieldStackingManager"},{"name":"_propertyId","type":"uint256","internalType":"uint256"},{"name":"_totalShares","type":"uint256","internalType":"uint256"}],"outputs":[],"stateMutability":"nonpayable"},{"type":"function","name":"totalShares","inputs":[],"outputs":[{"name":"","type":"uint256","internalType":"uint256"}],"stateMutability":"view"},{"type":"function","name":"transferOwnership","inputs":[{"name":"newOwner","type":"address","internalType":"address"}],"outputs":[],"stateMutability":"nonpayable"},{"type":"function","name":"upgradeToAndCall","inputs":[{"name":"newImplementation","type":"address","internalType":"address"},{"name":"data","type":"bytes","internalType":"bytes"}],"outputs":[],"stateMutability":"payable"},{"type":"function","name":"usdc","inputs":[],"outputs":[{"name":"","type":"address","internalType":"address"}],"stateMutability":"view"},{"type":"function","name":"yieldDistributor","inputs":[],"outputs":[{"name":"","type":"address","internalType":"contract YieldDistributor"}],"stateMutability":"view"},{"type":"function","name":"yieldStackingManager","inputs":[],"outputs":[{"name":"","type":"address","internalType":"contract YieldStackingManager"}],"stateMutability":"view"},{"type":"event","name":"Initialized","inputs":[{"name":"version","type":"uint64","indexed":false,"internalType":"uint64"}],"anonymous":false},{"type":"event","name":"OwnershipTransferred","inputs":[{"name":"previousOwner","type":"address","indexed":true,"internalType":"address"},{"name":"newOwner","type":"address","indexed":true,"internalType":"address"}],"anonymous":false},{"type":"event","name":"SystemInitialized","inputs":[{"name":"propertyId","type":"uint256","indexed":true,"internalType":"uint256"},{"name":"propertyNFT","type":"address","indexed":false,"internalType":"address"},{"name":"propertyShares","type":"address","indexed":false,"internalType":"address"},{"name":"rentVault","type":"address","indexed":false,"internalType":"address"},{"name":"cashFlowEngine","type":"address","indexed":false,"internalType":"address"},{"name":"yieldDistributor","type":"address","indexed":false,"internalType":"address"},{"name":"dao","type":"address","indexed":false,"internalType":"address"}],"anonymous":false},{"type":"event","name":"Upgraded","inputs":[{"name":"implementation","type":"address","indexed":true,"internalType":"address"}],"anonymous":false},{"type":"error","name":"AddressEmptyCode","inputs":[{"name":"target","type":"address","internalType":"address"}]},{"type":"error","name":"ERC1967InvalidImplementation","inputs":[{"name":"implementation","type":"address","internalType":"address"}]},{"type":"error","name":"ERC1967NonPayable","inputs":[]},{"type":"error","name":"FailedCall","inputs":[]},{"type":"error","name":"InvalidInitialization","inputs":[]},{"type":"error","name":"NotInitializing","inputs":[]},{"type":"error","name":"OwnableInvalidOwner","inputs":[{"name":"owner","type":"address","internalType":"address"}]},{"type":"error","name":"OwnableUnauthorizedAccount","inputs":[{"name":"account","type":"address","internalType":"address"}]},{"type":"error","name":"UUPSUnauthorizedCallContext","inputs":[]},{"type":"error","name":"UUPSUnsupportedProxiableUUID","inputs":[{"name":"slot","type":"bytes32","internalType":"bytes32"}]}],"bytecode":{"object":"0x60a080604052346100cc57306080527ff0c57e16840df040f15088dc2f81fe391c3923bec73e23a9662efc9c229c6a009081549060ff8260401c166100bd57506001600160401b036002600160401b031982821601610078575b60405161145e90816100d18239608051818181610c8c0152610d650152f35b6001600160401b031990911681179091556040519081527fc7f505b2f371ae2175ee4913f4499e1f2633a7b5936321eed1cdaeb6115181d290602090a15f8080610059565b63f92ee8a960e01b8152600490fd5b5f80fdfe6080806040526004361015610012575f80fd5b5f905f3560e01c908163158ef93e146110ab575080631b40293914610f7d57806337f7683814610f565780633a98ef3914610f395780633e413bee14610f115780634162169f14610ee95780634f1ef28614610ce357806352d1902d14610c7a578063715018a614610c265780637964293c14610bfe5780638da5cb5b14610bca5780639240945114610b1f57806393e194231461097e578063978a31c9146105d45780639c9c5d0c146105ab5780639db571e814610470578063a1df2abb14610447578063a38c2c3d1461041e578063ad3cb1cc1461037b578063ee7a3b8e1461035d578063f2fde38b14610330578063f77d0443146101465763fee7ad5a1461011b575f80fd5b346101435780600319360112610143576003546040516001600160a01b039091168152602090f35b80fd5b50346101435760a036600319011261014357806101616110cd565b6101696110e3565b60443591606435608435938415158095036102665761019060ff60095460a01c161561119d565b6001600160a01b03938416806102cf575b508061026a575b5080610204575b501690813b15610200578291602483926040519485938492633519118160e01b845260048401525af180156101f5576101e55750f35b6101ee90611167565b6101435780f35b6040513d84823e3d90fd5b5050fd5b82821690813b1561026657859160248392604051948593849263555a41eb60e11b845260048401525af190811561025b578591610242575b506101af565b61024b90611167565b61025657835f61023c565b505050fd5b6040513d87823e3d90fd5b8580fd5b83831690813b156102cb578691602483926040519485938492632ca6be1f60e01b845260048401525af19081156102c05786916102a8575b506101a8565b6102b190611167565b6102bc57845f6102a2565b8480fd5b6040513d88823e3d90fd5b8680fd5b84841690813b1561032c57879160248392604051948593849263137c3f6960e01b845260048401525af190811561032157879161030d575b506101a1565b61031690611167565b61026657855f610307565b6040513d89823e3d90fd5b8780fd5b50346101435760203660031901126101435761035a61034d6110cd565b6103556112b1565b611253565b80f35b50346101435780600319360112610143576020600754604051908152f35b5034610143578060031936011261014357604080519081016001600160401b0381118282101761040a5760405260058152602091640352e302e360dc1b602083015260405192839160208352835191826020850152815b8381106103f357505060408094508284010152601f80199101168101030190f35b8086018201518782016040015286945081016103d2565b634e487b7160e01b5f52604160045260245ffd5b50346101435780600319360112610143576004546040516001600160a01b039091168152602090f35b50346101435780600319360112610143576006546040516001600160a01b039091168152602090f35b50346101435760031960403682011261059b5761048b6110cd565b602435916001600160401b0383116105a7576080836004019184360301126105a75760209161053d916104c660ff60095460a01c161561119d565b8560018060a01b03805f805160206113a9833981519152541661054f6040519889978896879463fd0e3fb760e01b865260048601526040602486015260646105226105118380611201565b608060448a015260c4890191611233565b93602481013582880152604481013560848801520190611201565b8483036043190160a486015290611233565b0393165af19081156101f557829161056d575b602082604051908152f35b90506020813d60201161059f575b816105886020938361117a565b8101031261059b5760209150515f610562565b5080fd5b3d915061057b565b8380fd5b50346101435780600319360112610143576002546040516001600160a01b039091168152602090f35b503461014357610140366003190112610143576105ef6110cd565b6105f76110e3565b6105ff6110f9565b61060761110f565b61060f611125565b9261061861113b565b92610621611151565b9360e4356001600160a01b038116810361097a5761010435946001600160a01b038616860361097a5761012435936001600160a01b038516850361097a578a9961067360ff60095460a01c161561119d565b6001600160a01b0316803b1561094357604051633010a7f760e01b81526001600160a01b03851660048201528b8160248183865af190811561095b578c91610966575b5050803b15610943576040516339cea45360e21b81526001600160a01b03831660048201528b8160248183865af190811561095b578c91610947575b5050803b156109435760405163c295202960e01b81526001600160a01b038b166004820152908b908290602490829084905af1908115610938578b91610924575b50506001600160a01b0381163b156109205760405163feab893960e01b81526001600160a01b03808a16600483015290918b91839160249183918591165af1908115610915578a91610901575b50506001600160a01b0316803b156108fd57604051637c643b2f60e11b81526001600160a01b0393841660048201528784166024820152918316604483015291909216606483015286908290608490829084905af19081156102c05786916108e9575b50506001600160a01b031690813b156102bc57604051633038a60d60e01b81526001600160a01b039091166004820152848160248183865af190811561025b5785916108d5575b5050803b156102565760405163c295202960e01b81526001600160a01b03841660048201529084908290602490829084905af19081156108ca5784916108b6575b50506001600160a01b0382163b156102005760405163feab893960e01b81526001600160a01b039182166004820152918391839160249183918591165af180156101f5576101e55750f35b6108bf90611167565b61020057825f61086b565b6040513d86823e3d90fd5b6108de90611167565b61025657835f61082a565b6108f290611167565b6102bc57845f6107e3565b8880fd5b61090a90611167565b6108fd57885f610780565b6040513d8c823e3d90fd5b8980fd5b61092d90611167565b61092057895f610733565b6040513d8d823e3d90fd5b8a80fd5b61095090611167565b610943578a5f6106f2565b6040513d8e823e3d90fd5b61096f90611167565b610943578a5f6106b6565b5f80fd5b5034610143576040366003190112610143576109986110cd565b6109a06110e3565b5f8051602061140983398151915280549092604082901c60ff161592916001600160401b03811680159081610b17575b6001149081610b0d575b159081610b04575b50610af2576001600160401b03198116600117855583610ad7575b506001600160a01b0316908115610a7957610a2290610a1a6112e9565b6103556112e9565b600980546001600160a01b031916919091179055610a3e575080f35b805460ff60401b19169055604051600181527fc7f505b2f371ae2175ee4913f4499e1f2633a7b5936321eed1cdaeb6115181d290602090a180f35b60405162461bcd60e51b815260206004820152603060248201527f50726f706572747943617368466c6f7753797374656d436f72653a20696e766160448201526f6c69642055534443206164647265737360801b6064820152608490fd5b6001600160481b0319166001600160401b011784555f6109fd565b60405163f92ee8a960e01b8152600490fd5b9050155f6109e2565b303b1591506109da565b8591506109d0565b503461097a5760a036600319011261097a57610b396110cd565b610b416110e3565b610b49611125565b91610b5c60ff60095460a01c161561119d565b6001600160a01b03908116803b1561097a575f9283608492846040519788968795639e3d87cd60e01b8752166004860152604435602486015260643560448601521660648401525af18015610bbf57610bb3575080f35b610bbd9150611167565b005b6040513d5f823e3d90fd5b3461097a575f36600319011261097a575f805160206113a9833981519152546040516001600160a01b039091168152602090f35b3461097a575f36600319011261097a576001546040516001600160a01b039091168152602090f35b3461097a575f36600319011261097a57610c3e6112b1565b5f805160206113a983398151915280546001600160a01b031981169091555f906001600160a01b03165f805160206113e98339815191528280a3005b3461097a575f36600319011261097a577f00000000000000000000000000000000000000000000000000000000000000006001600160a01b03163003610cd15760206040515f805160206113c98339815191528152f35b60405163703e46dd60e11b8152600490fd5b604036600319011261097a57610cf76110cd565b6024906001600160401b039082359082821161097a573660238301121561097a578160040135928311610ed65760209260405192610d3e85601f19601f850116018561117a565b8184523686838301011161097a57815f928787930183870137840101526001600160a01b037f00000000000000000000000000000000000000000000000000000000000000008116308114908115610ebb575b50610cd157610d9e6112b1565b6040516352d1902d60e01b8152908216938082600481885afa9182915f93610e8b575b5050610ddf5750505060405190634c9c8ce360e01b82526004820152fd5b845f805160206113c983398151915291828103610e765750823b15610e60575080546001600160a01b03191684179055604051927fbc7cd75a20ee27fd9adebab32041f755214dbc6bffa90cc0225b39da2e5c2d3b5f80a2815115610e4857610bbd9250611317565b505034610e5157005b63b398979f60e01b8152600490fd5b604051634c9c8ce360e01b815260048101869052fd5b60405190632a87526960e21b82526004820152fd5b9080929350813d8311610eb4575b610ea3818361117a565b8101031261097a5751908680610dc1565b503d610e99565b9050815f805160206113c98339815191525416141586610d91565b83634e487b7160e01b5f5260416004525ffd5b3461097a575f36600319011261097a576005546040516001600160a01b039091168152602090f35b3461097a575f36600319011261097a576009546040516001600160a01b039091168152602090f35b3461097a575f36600319011261097a576020600854604051908152f35b3461097a575f36600319011261097a575f546040516001600160a01b039091168152602090f35b3461097a5761012036600319011261097a57610f976110cd565b7f3d615335f1fed78772e006a19db0a2855de26acc0fec4b4af6d02716713108da60c0610fc26110e3565b92610fcb6110f9565b610fd361110f565b610fdb611125565b610fe361113b565b91610fec611151565b9360e435986009549061100560ff8360a01c161561119d565b60018060a01b038080808080809d169c8d9660018060a01b031997885f5416175f55169788876001541617600155169788866002541617600255169788856003541617600355169788846004541617600455169788836005541617600555169060065416176006558960075561010435600855600160a01b9060ff60a01b191617600955604051958652602086015260408501526060840152608083015260a0820152a2005b3461097a575f36600319011261097a5760209060ff60095460a01c1615158152f35b600435906001600160a01b038216820361097a57565b602435906001600160a01b038216820361097a57565b604435906001600160a01b038216820361097a57565b606435906001600160a01b038216820361097a57565b608435906001600160a01b038216820361097a57565b60a435906001600160a01b038216820361097a57565b60c435906001600160a01b038216820361097a57565b6001600160401b03811161040a57604052565b601f909101601f19168101906001600160401b0382119082101761040a57604052565b156111a457565b60405162461bcd60e51b815260206004820152602f60248201527f50726f706572747943617368466c6f7753797374656d436f72653a20616c726560448201526e18591e481a5b9a5d1a585b1a5e9959608a1b6064820152608490fd5b9035601e198236030181121561097a570160208101919035906001600160401b03821161097a57813603831361097a57565b908060209392818452848401375f828201840152601f01601f1916010190565b6001600160a01b03908116908115611299575f805160206113a983398151915280546001600160a01b031981168417909155165f805160206113e98339815191525f80a3565b604051631e4fbdf760e01b81525f6004820152602490fd5b5f805160206113a9833981519152546001600160a01b031633036112d157565b60405163118cdaa760e01b8152336004820152602490fd5b60ff5f805160206114098339815191525460401c161561130557565b604051631afcd79f60e31b8152600490fd5b905f8091602081519101845af48080611395575b1561134b5750506040513d81523d5f602083013e60203d82010160405290565b1561137257604051639996b31560e01b81526001600160a01b039091166004820152602490fd5b3d15611383576040513d5f823e3d90fd5b60405163d6bda27560e01b8152600490fd5b503d15158061132b5750813b151561132b56fe9016d09d72d40fdae2fd8ceac6b6234c7706214fd39c1cd1e609a0528c199300360894a13ba1a3210667c828492db98dca3e2076cc3735a920a3ca505d382bbc8be0079c531659141344cd1fd0a4f28419497f9722a3daafe3b4186f6b6457e0f0c57e16840df040f15088dc2f81fe391c3923bec73e23a9662efc9c229c6a00a2646970667358221220d6feb417bb7784a4e1ca0930d7874902ed482572bfa7a2578139fa215572af9964736f6c63430008180033","linkReferences":{}},"methodIdentifiers":{"UPGRADE_INTERFACE_VERSION()":"ad3cb1cc","cashFlowEngine()":"fee7ad5a","configureYieldStacking(address,address,uint256,uint256,bool)":"f77d0443","dao()":"4162169f","initializeContract(address,address)":"93e19423","initializePropertyShares(address,address,uint256,uint256,address)":"92409451","initialized()":"158ef93e","linkContracts(address,address,address,address,address,address,address,address,address,address)":"978a31c9","mintPropertyNFT(address,(string,uint256,uint256,string))":"9db571e8","owner()":"8da5cb5b","propertyId()":"ee7a3b8e","propertyNFT()":"37f76838","propertyShares()":"7964293c","proxiableUUID()":"52d1902d","renounceOwnership()":"715018a6","rentVault()":"9c9c5d0c","setContracts(address,address,address,address,address,address,address,uint256,uint256)":"1b402939","totalShares()":"3a98ef39","transferOwnership(address)":"f2fde38b","upgradeToAndCall(address,bytes)":"4f1ef286","usdc()":"3e413bee","yieldDistributor()":"a38c2c3d","yieldStackingManager()":"a1df2abb"},"id":3}