{"abi":[{"type":"constructor","inputs":[],"stateMutability":"nonpayable"},{"type":"function","name":"UPGRADE_INTERFACE_VERSION","inputs":[],"outputs":[{"name":"","type":"string","internalType":"string"}],"stateMutability":"view"},{"type":"function","name":"cashFlowEngine","inputs":[],"outputs":[{"name":"","type":"address","internalType":"contract CashFlowEngine"}],"stateMutability":"view"},{"type":"function","name":"configureYieldStacking","inputs":[{"name":"_yieldStackingManager","type":"address","internalType":"contract YieldStackingManager"},{"name":"yieldVaultAddress","type":"address","internalType":"address"},{"name":"reserveThreshold","type":"uint256","internalType":"uint256"},{"name":"minimumDeposit","type":"uint256","internalType":"uint256"},{"name":"autoDepositEnabled","type":"bool","internalType":"bool"}],"outputs":[],"stateMutability":"nonpayable"},{"type":"function","name":"dao","inputs":[],"outputs":[{"name":"","type":"address","internalType":"contract SimpleDAO"}],"stateMutability":"view"},{"type":"function","name":"initializeContract","inputs":[{"name":"initialOwner","type":"address","internalType":"address"}],"outputs":[],"stateMutability":"nonpayable"},{"type":"function","name":"initializePropertyShares","inputs":[{"name":"_propertyShares","type":"address","internalType":"contract PropertyShares"},{"name":"_propertyNFT","type":"address","internalType":"address"},{"name":"_propertyId","type":"uint256","internalType":"uint256"},{"name":"_totalShares","type":"uint256","internalType":"uint256"},{"name":"initialShareholder","type":"address","internalType":"address"}],"outputs":[],"stateMutability":"nonpayable"},{"type":"function","name":"initialized","inputs":[],"outputs":[{"name":"","type":"bool","internalType":"bool"}],"stateMutability":"view"},{"type":"function","name":"linkContracts","inputs":[{"name":"_cashFlowEngine","type":"address","internalType":"contract CashFlowEngine"},{"name":"_rentVault","type":"address","internalType":"contract RentVault"},{"name":"_dao","type":"address","internalType":"contract SimpleDAO"},{"name":"_yieldDistributor","type":"address","internalType":"contract YieldDistributor"},{"name":"_yieldStackingManager","type":"address","internalType":"contract YieldStackingManager"},{"name":"_propertyShares","type":"address","internalType":"address"},{"name":"_cashFlowEngineAddr","type":"address","internalType":"address"},{"name":"_rentVaultAddr","type":"address","internalType":"address"},{"name":"_yieldDistributorAddr","type":"address","internalType":"address"}],"outputs":[],"stateMutability":"nonpayable"},{"type":"function","name":"mintPropertyNFT","inputs":[{"name":"_propertyNFT","type":"address","internalType":"contract PropertyNFT"},{"name":"propertyData","type":"tuple","internalType":"struct IPropertyNFT.PropertyData","components":[{"name":"location","type":"string","internalType":"string"},{"name":"valuation","type":"uint256","internalType":"uint256"},{"name":"monthlyRent","type":"uint256","internalType":"uint256"},{"name":"metadataURI","type":"string","internalType":"string"}]}],"outputs":[{"name":"","type":"uint256","internalType":"uint256"}],"stateMutability":"nonpayable"},{"type":"function","name":"owner","inputs":[],"outputs":[{"name":"","type":"address","internalType":"address"}],"stateMutability":"view"},{"type":"function","name":"propertyId","inputs":[],"outputs":[{"name":"","type":"uint256","internalType":"uint256"}],"stateMutability":"view"},{"type":"function","name":"propertyNFT","inputs":[],"outputs":[{"name":"","type":"address","internalType":"contract PropertyNFT"}],"stateMutability":"view"},{"type":"function","name":"propertyShares","inputs":[],"outputs":[{"name":"","type":"address","internalType":"contract PropertyShares"}],"stateMutability":"view"},{"type":"function","name":"proxiableUUID","inputs":[],"outputs":[{"name":"","type":"bytes32","internalType":"bytes32"}],"stateMutability":"view"},{"type":"function","name":"renounceOwnership","inputs":[],"outputs":[],"stateMutability":"nonpayable"},{"type":"function","name":"rentVault","inputs":[],"outputs":[{"name":"","type":"address","internalType":"contract RentVault"}],"stateMutability":"view"},{"type":"function","name":"setContracts","inputs":[{"name":"_propertyNFT","type":"address","internalType":"contract PropertyNFT"},{"name":"_propertyShares","type":"address","internalType":"contract PropertyShares"},{"name":"_rentVault","type":"address","internalType":"contract RentVault"},{"name":"_cashFlowEngine","type":"address","internalType":"contract CashFlowEngine"},{"name":"_yieldDistributor","type":"address","internalType":"contract YieldDistributor"},{"name":"_dao","type":"address","internalType":"contract SimpleDAO"},{"name":"_yieldStackingManager","type":"address","internalType":"contract YieldStackingManager"},{"name":"_propertyId","type":"uint256","internalType":"uint256"},{"name":"_totalShares","type":"uint256","internalType":"uint256"}],"outputs":[],"stateMutability":"nonpayable"},{"type":"function","name":"totalShares","inputs":[],"outputs":[{"name":"","type":"uint256","internalType":"uint256"}],"stateMutability":"view"},{"type":"function","name":"transferOwnership","inputs":[{"name":"newOwner","type":"address","internalType":"address"}],"outputs":[],"stateMutability":"nonpayable"},{"type":"function","name":"upgradeToAndCall","inputs":[{"name":"newImplementation","type":"address","internalType":"address"},{"name":"data","type":"bytes","internalType":"bytes"}],"outputs":[],"stateMutability":"payable"},{"type":"function","name":"yieldDistributor","inputs":[],"outputs":[{"name":"","type":"address","internalType":"contract YieldDistributor"}],"stateMutability":"view"},{"type":"function","name":"yieldStackingManager","inputs":[],"outputs":[{"name":"","type":"address","internalType":"contract YieldStackingManager"}],"stateMutability":"view"},{"type":"event","name":"Initialized","inputs":[{"name":"version","type":"uint64","indexed":false,"internalType":"uint64"}],"anonymous":false},{"type":"event","name":"OwnershipTransferred","inputs":[{"name":"previousOwner","type":"address","indexed":true,"internalType":"address"},{"name":"newOwner","type":"address","indexed":true,"internalType":"address"}],"anonymous":false},{"type":"event","name":"SystemInitialized","inputs":[{"name":"propertyId","type":"uint256","indexed":true,"internalType":"uint256"},{"name":"propertyNFT","type":"address","indexed":false,"internalType":"address"},{"name":"propertyShares","type":"address","indexed":false,"internalType":"address"},{"name":"rentVault","type":"address","indexed":false,"internalType":"address"},{"name":"cashFlowEngine","type":"address","indexed":false,"internalType":"address"},{"name":"yieldDistributor","type":"address","indexed":false,"internalType":"address"},{"name":"dao","type":"address","indexed":false,"internalType":"address"}],"anonymous":false},{"type":"event","name":"Upgraded","inputs":[{"name":"implementation","type":"address","indexed":true,"internalType":"address"}],"anonymous":false},{"type":"error","name":"AddressEmptyCode","inputs":[{"name":"target","type":"address","internalType":"address"}]},{"type":"error","name":"ERC1967InvalidImplementation","inputs":[{"name":"implementation","type":"address","internalType":"address"}]},{"type":"error","name":"ERC1967NonPayable","inputs":[]},{"type":"error","name":"FailedCall","inputs":[]},{"type":"error","name":"InvalidInitialization","inputs":[]},{"type":"error","name":"NotInitializing","inputs":[]},{"type":"error","name":"OwnableInvalidOwner","inputs":[{"name":"owner","type":"address","internalType":"address"}]},{"type":"error","name":"OwnableUnauthorizedAccount","inputs":[{"name":"account","type":"address","internalType":"address"}]},{"type":"error","name":"UUPSUnauthorizedCallContext","inputs":[]},{"type":"error","name":"UUPSUnsupportedProxiableUUID","inputs":[{"name":"slot","type":"bytes32","internalType":"bytes32"}]}],"bytecode":{"object":"0x60a080604052346100cc57306080527ff0c57e16840df040f15088dc2f81fe391c3923bec73e23a9662efc9c229c6a009081549060ff8260401c166100bd57506001600160401b036002600160401b031982821601610078575b60405161136590816100d18239608051818181610bcc0152610ca50152f35b6001600160401b031990911681179091556040519081527fc7f505b2f371ae2175ee4913f4499e1f2633a7b5936321eed1cdaeb6115181d290602090a15f8080610059565b63f92ee8a960e01b8152600490fd5b5f80fdfe6080806040526004361015610012575f80fd5b5f905f3560e01c908163158ef93e14610fb5575080631b40293914610e9557806337f7683814610e6e5780633a98ef3914610e515780634162169f14610e295780634f1ef28614610c2357806352d1902d14610bba578063715018a614610b665780637964293c14610b3e5780638da5cb5b14610b0a5780639240945114610a625780639c9c5d0c14610a395780639db571e814610901578063a1df2abb146108d8578063a38c2c3d146108af578063a482b89314610527578063ad3cb1cc14610484578063b558a3871461036d578063ee7a3b8e1461034f578063f2fde38b14610322578063f77d04431461013b5763fee7ad5a14610110575f80fd5b346101385780600319360112610138576003546040516001600160a01b039091168152602090f35b80fd5b50346101385760a03660031901126101385780610156610fd4565b61015e610fea565b60443591606435608435938415158095036102585761018260ff60095416156110a4565b6001600160a01b03938416806102c1575b508061025c575b50806101f6575b501690813b156101f2578291602483926040519485938492633519118160e01b845260048401525af180156101e7576101d75750f35b6101e09061106e565b6101385780f35b6040513d84823e3d90fd5b5050fd5b82821690813b1561025857859160248392604051948593849263555a41eb60e11b845260048401525af190811561024d578591610234575b506101a1565b61023d9061106e565b61024857835f61022e565b505050fd5b6040513d87823e3d90fd5b8580fd5b83831690813b156102bd578691602483926040519485938492632ca6be1f60e01b845260048401525af19081156102b257869161029a575b5061019a565b6102a39061106e565b6102ae57845f610294565b8480fd5b6040513d88823e3d90fd5b8680fd5b84841690813b1561031e57879160248392604051948593849263137c3f6960e01b845260048401525af19081156103135787916102ff575b50610193565b6103089061106e565b61025857855f6102f9565b6040513d89823e3d90fd5b8780fd5b50346101385760203660031901126101385761034c61033f610fd4565b6103476111b8565b61115a565b80f35b50346101385780600319360112610138576020600754604051908152f35b503461013857602036600319011261013857610387610fd4565b5f8051602061131083398151915280549091604082901c60ff161591906001600160401b0382168015908161047c575b6001149081610472575b159081610469575b50610457576001600160401b0319821660011784556103f9918361043c575b506103f16111f0565b6103476111f0565b610401575080f35b805460ff60401b19169055604051600181527fc7f505b2f371ae2175ee4913f4499e1f2633a7b5936321eed1cdaeb6115181d290602090a180f35b6001600160481b0319166001600160401b011784555f6103e8565b60405163f92ee8a960e01b8152600490fd5b9050155f6103c9565b303b1591506103c1565b8491506103b7565b5034610138578060031936011261013857604080519081016001600160401b038111828210176105135760405260058152602091640352e302e360dc1b602083015260405192839160208352835191826020850152815b8381106104fc57505060408094508284010152601f80199101168101030190f35b8086018201518782016040015286945081016104db565b634e487b7160e01b5f52604160045260245ffd5b50346101385761012036600319011261013857610542610fd4565b61054a610fea565b610552611000565b61055a611016565b9061056361102c565b9261056c611042565b92610575611058565b9360e435916001600160a01b03831683036108ab5761010435946001600160a01b03861686036108ab5789986105b060ff60095416156110a4565b6001600160a01b0316803b1561087457604051633010a7f760e01b81526001600160a01b03861660048201528a8160248183865af190811561088c578b91610897575b5050803b15610874576040516339cea45360e21b81526001600160a01b03831660048201528a8160248183865af190811561088c578b91610878575b5050803b156108745760405163c295202960e01b81526001600160a01b038a166004820152908a908290602490829084905af1908115610869578a91610855575b50506001600160a01b0381163b156108515760405163feab893960e01b81526001600160a01b03888116600483015290918a91839160249183918591165af1908115610846578991610832575b50506001600160a01b031691823b1561031e5760405163c0c53b8b60e01b81526001600160a01b0392831660048201528683166024820152911660448201529086908290606490829084905af19081156102b257869161081e575b50506001600160a01b031690813b156102ae57604051633038a60d60e01b81526001600160a01b039091166004820152848160248183865af190811561024d57859161080a575b5050803b156102485760405163c295202960e01b81526001600160a01b03841660048201529084908290602490829084905af19081156107ff5784916107eb575b50506001600160a01b0382163b156101f25760405163feab893960e01b81526001600160a01b039182166004820152918391839160249183918591165af180156101e7576101d75750f35b6107f49061106e565b6101f257825f6107a0565b6040513d86823e3d90fd5b6108139061106e565b61024857835f61075f565b6108279061106e565b6102ae57845f610718565b61083b9061106e565b61031e57875f6106bd565b6040513d8b823e3d90fd5b8880fd5b61085e9061106e565b61085157885f610670565b6040513d8c823e3d90fd5b8980fd5b6108819061106e565b61087457895f61062f565b6040513d8d823e3d90fd5b6108a09061106e565b61087457895f6105f3565b5f80fd5b50346101385780600319360112610138576004546040516001600160a01b039091168152602090f35b50346101385780600319360112610138576006546040516001600160a01b039091168152602090f35b503461013857600319604036820112610a295761091c610fd4565b602435916001600160401b038311610a3557608083600401918436030112610a35576020916109cb9161095460ff60095416156110a4565b8560018060a01b03805f805160206112b083398151915254166109dd6040519889978896879463fd0e3fb760e01b865260048601526040602486015260646109b061099f8380611108565b608060448a015260c489019161113a565b93602481013582880152604481013560848801520190611108565b8483036043190160a48601529061113a565b0393165af19081156101e75782916109fb575b602082604051908152f35b90506020813d602011610a2d575b81610a1660209383611081565b81010312610a295760209150515f6109f0565b5080fd5b3d9150610a09565b8380fd5b50346101385780600319360112610138576002546040516001600160a01b039091168152602090f35b50346108ab5760a03660031901126108ab57610a7c610fd4565b610a84610fea565b610a8c61102c565b91610a9c60ff60095416156110a4565b6001600160a01b03908116803b156108ab575f9283608492846040519788968795639e3d87cd60e01b8752166004860152604435602486015260643560448601521660648401525af18015610aff57610af3575080f35b610afd915061106e565b005b6040513d5f823e3d90fd5b346108ab575f3660031901126108ab575f805160206112b0833981519152546040516001600160a01b039091168152602090f35b346108ab575f3660031901126108ab576001546040516001600160a01b039091168152602090f35b346108ab575f3660031901126108ab57610b7e6111b8565b5f805160206112b083398151915280546001600160a01b031981169091555f906001600160a01b03165f805160206112f08339815191528280a3005b346108ab575f3660031901126108ab577f00000000000000000000000000000000000000000000000000000000000000006001600160a01b03163003610c115760206040515f805160206112d08339815191528152f35b60405163703e46dd60e11b8152600490fd5b60403660031901126108ab57610c37610fd4565b6024906001600160401b03908235908282116108ab57366023830112156108ab578160040135928311610e165760209260405192610c7e85601f19601f8501160185611081565b818452368683830101116108ab57815f928787930183870137840101526001600160a01b037f00000000000000000000000000000000000000000000000000000000000000008116308114908115610dfb575b50610c1157610cde6111b8565b6040516352d1902d60e01b8152908216938082600481885afa9182915f93610dcb575b5050610d1f5750505060405190634c9c8ce360e01b82526004820152fd5b845f805160206112d083398151915291828103610db65750823b15610da0575080546001600160a01b03191684179055604051927fbc7cd75a20ee27fd9adebab32041f755214dbc6bffa90cc0225b39da2e5c2d3b5f80a2815115610d8857610afd925061121e565b505034610d9157005b63b398979f60e01b8152600490fd5b604051634c9c8ce360e01b815260048101869052fd5b60405190632a87526960e21b82526004820152fd5b9080929350813d8311610df4575b610de38183611081565b810103126108ab5751908680610d01565b503d610dd9565b9050815f805160206112d08339815191525416141586610cd1565b83634e487b7160e01b5f5260416004525ffd5b346108ab575f3660031901126108ab576005546040516001600160a01b039091168152602090f35b346108ab575f3660031901126108ab576020600854604051908152f35b346108ab575f3660031901126108ab575f546040516001600160a01b039091168152602090f35b346108ab576101203660031901126108ab57610eaf610fd4565b7f3d615335f1fed78772e006a19db0a2855de26acc0fec4b4af6d02716713108da60c0610eda610fea565b92610ee3611000565b610eeb611016565b610ef361102c565b610efb611042565b91610f04611058565b93600160e4359960095490610f1c60ff8316156110a4565b828060a01b038080808080809e169d8e96898060a01b031997885f5416175f55169889878a5416178955169889866002541617600255169889856003541617600355169889846004541617600455169889836005541617600555169060065416176006558a6007556101043560085560ff191617600955604051958652602086015260408501526060840152608083015260a0820152a2005b346108ab575f3660031901126108ab5760209060ff6009541615158152f35b600435906001600160a01b03821682036108ab57565b602435906001600160a01b03821682036108ab57565b604435906001600160a01b03821682036108ab57565b606435906001600160a01b03821682036108ab57565b608435906001600160a01b03821682036108ab57565b60a435906001600160a01b03821682036108ab57565b60c435906001600160a01b03821682036108ab57565b6001600160401b03811161051357604052565b601f909101601f19168101906001600160401b0382119082101761051357604052565b156110ab57565b60405162461bcd60e51b815260206004820152602f60248201527f50726f706572747943617368466c6f7753797374656d436f72653a20616c726560448201526e18591e481a5b9a5d1a585b1a5e9959608a1b6064820152608490fd5b9035601e19823603018112156108ab570160208101919035906001600160401b0382116108ab5781360383136108ab57565b908060209392818452848401375f828201840152601f01601f1916010190565b6001600160a01b039081169081156111a0575f805160206112b083398151915280546001600160a01b031981168417909155165f805160206112f08339815191525f80a3565b604051631e4fbdf760e01b81525f6004820152602490fd5b5f805160206112b0833981519152546001600160a01b031633036111d857565b60405163118cdaa760e01b8152336004820152602490fd5b60ff5f805160206113108339815191525460401c161561120c57565b604051631afcd79f60e31b8152600490fd5b905f8091602081519101845af4808061129c575b156112525750506040513d81523d5f602083013e60203d82010160405290565b1561127957604051639996b31560e01b81526001600160a01b039091166004820152602490fd5b3d1561128a576040513d5f823e3d90fd5b60405163d6bda27560e01b8152600490fd5b503d1515806112325750813b151561123256fe9016d09d72d40fdae2fd8ceac6b6234c7706214fd39c1cd1e609a0528c199300360894a13ba1a3210667c828492db98dca3e2076cc3735a920a3ca505d382bbc8be0079c531659141344cd1fd0a4f28419497f9722a3daafe3b4186f6b6457e0f0c57e16840df040f15088dc2f81fe391c3923bec73e23a9662efc9c229c6a00a26469706673582212208f64b10a676d9f5908f17163785888e7f497ec31e044345187b324fa5561225764736f6c63430008180033","linkReferences":{}},"methodIdentifiers":{"UPGRADE_INTERFACE_VERSION()":"ad3cb1cc","cashFlowEngine()":"fee7ad5a","configureYieldStacking(address,address,uint256,uint256,bool)":"f77d0443","dao()":"4162169f","initializeContract(address)":"b558a387","initializePropertyShares(address,address,uint256,uint256,address)":"92409451","initialized()":"158ef93e","linkContracts(address,address,address,address,address,address,address,address,address)":"a482b893","mintPropertyNFT(address,(string,uint256,uint256,string))":"9db571e8","owner()":"8da5cb5b","propertyId()":"ee7a3b8e","propertyNFT()":"37f76838","propertyShares()":"7964293c","proxiableUUID()":"52d1902d","renounceOwnership()":"715018a6","rentVault()":"9c9c5d0c","setContracts(address,address,address,address,address,address,address,uint256,uint256)":"1b402939","totalShares()":"3a98ef39","transferOwnership(address)":"f2fde38b","upgradeToAndCall(address,bytes)":"4f1ef286","yieldDistributor()":"a38c2c3d","yieldStackingManager()":"a1df2abb"},"id":3}