{"abi":[{"type":"constructor","inputs":[{"name":"_usdc","type":"address","internalType":"address"},{"name":"initialOwner","type":"address","internalType":"address"}],"stateMutability":"nonpayable"},{"type":"function","name":"currentPeriod","inputs":[],"outputs":[{"name":"","type":"uint256","internalType":"uint256"}],"stateMutability":"view"},{"type":"function","name":"depositRent","inputs":[{"name":"amount","type":"uint256","internalType":"uint256"}],"outputs":[],"stateMutability":"nonpayable"},{"type":"function","name":"getBalance","inputs":[],"outputs":[{"name":"","type":"uint256","internalType":"uint256"}],"stateMutability":"view"},{"type":"function","name":"getRentForPeriod","inputs":[{"name":"period","type":"uint256","internalType":"uint256"}],"outputs":[{"name":"","type":"uint256","internalType":"uint256"}],"stateMutability":"view"},{"type":"function","name":"owner","inputs":[],"outputs":[{"name":"","type":"address","internalType":"address"}],"stateMutability":"view"},{"type":"function","name":"renounceOwnership","inputs":[],"outputs":[],"stateMutability":"nonpayable"},{"type":"function","name":"rentCollected","inputs":[],"outputs":[{"name":"","type":"uint256","internalType":"uint256"}],"stateMutability":"view"},{"type":"function","name":"rentPerPeriod","inputs":[{"name":"","type":"uint256","internalType":"uint256"}],"outputs":[{"name":"","type":"uint256","internalType":"uint256"}],"stateMutability":"view"},{"type":"function","name":"resetPeriod","inputs":[],"outputs":[],"stateMutability":"nonpayable"},{"type":"function","name":"setYieldDistributor","inputs":[{"name":"_yieldDistributor","type":"address","internalType":"address"}],"outputs":[],"stateMutability":"nonpayable"},{"type":"function","name":"setYieldStackingManager","inputs":[{"name":"_yieldStackingManager","type":"address","internalType":"address"}],"outputs":[],"stateMutability":"nonpayable"},{"type":"function","name":"transferOwnership","inputs":[{"name":"newOwner","type":"address","internalType":"address"}],"outputs":[],"stateMutability":"nonpayable"},{"type":"function","name":"usdc","inputs":[],"outputs":[{"name":"","type":"address","internalType":"contract IERC20"}],"stateMutability":"view"},{"type":"function","name":"withdraw","inputs":[{"name":"to","type":"address","internalType":"address"},{"name":"amount","type":"uint256","internalType":"uint256"}],"outputs":[],"stateMutability":"nonpayable"},{"type":"function","name":"yieldDistributor","inputs":[],"outputs":[{"name":"","type":"address","internalType":"address"}],"stateMutability":"view"},{"type":"function","name":"yieldStackingManager","inputs":[],"outputs":[{"name":"","type":"address","internalType":"address"}],"stateMutability":"view"},{"type":"event","name":"OwnershipTransferred","inputs":[{"name":"previousOwner","type":"address","indexed":true,"internalType":"address"},{"name":"newOwner","type":"address","indexed":true,"internalType":"address"}],"anonymous":false},{"type":"event","name":"PeriodReset","inputs":[{"name":"newPeriod","type":"uint256","indexed":false,"internalType":"uint256"}],"anonymous":false},{"type":"event","name":"RentDeposited","inputs":[{"name":"depositor","type":"address","indexed":true,"internalType":"address"},{"name":"amount","type":"uint256","indexed":false,"internalType":"uint256"},{"name":"period","type":"uint256","indexed":false,"internalType":"uint256"}],"anonymous":false},{"type":"error","name":"OwnableInvalidOwner","inputs":[{"name":"owner","type":"address","internalType":"address"}]},{"type":"error","name":"OwnableUnauthorizedAccount","inputs":[{"name":"account","type":"address","internalType":"address"}]},{"type":"error","name":"ReentrancyGuardReentrantCall","inputs":[]},{"type":"error","name":"SafeERC20FailedOperation","inputs":[{"name":"token","type":"address","internalType":"address"}]}],"bytecode":{"object":"0x60a060405234801561000f575f80fd5b50604051610c24380380610c2483398101604081905261002e9161015d565b806001600160a01b03811661005d57604051631e4fbdf760e01b81525f60048201526024015b60405180910390fd5b610066816100f3565b5060017f9b779b17422d0df92223018b32b4d1fa46e071723d6817e2486d003becc55f00556001600160a01b0382166100e15760405162461bcd60e51b815260206004820152601f60248201527f52656e745661756c743a20696e76616c696420555344432061646472657373006044820152606401610054565b506001600160a01b031660805261018e565b5f80546001600160a01b038381166001600160a01b0319831681178455604051919092169283917f8be0079c531659141344cd1fd0a4f28419497f9722a3daafe3b4186f6b6457e09190a35050565b80516001600160a01b0381168114610158575f80fd5b919050565b5f806040838503121561016e575f80fd5b61017783610142565b915061018560208401610142565b90509250929050565b608051610a696101bb5f395f818161014601528181610267015281816105b6015261062b0152610a695ff3fe608060405234801561000f575f80fd5b50600436106100fb575f3560e01c80638da5cb5b11610093578063c295202911610063578063c295202914610204578063f2fde38b14610217578063f3fef3a31461022a578063f6e96ced1461023d575f80fd5b80638da5cb5b146101c6578063944c1d97146101d6578063a1df2abb146101de578063a38c2c3d146101f1575f80fd5b80633e413bee116100ce5780633e413bee146101415780634b28206f14610180578063715018a61461019f5780637b39024d146101a7575f80fd5b806306040618146100ff57806312065fe01461011b57806317b574a6146101235780633038a60d1461012c575b5f80fd5b61010860025481565b6040519081526020015b60405180910390f35b610108610250565b61010860015481565b61013f61013a36600461090d565b6102dd565b005b6101687f000000000000000000000000000000000000000000000000000000000000000081565b6040516001600160a01b039091168152602001610112565b61010861018e36600461092d565b60036020525f908152604090205481565b61013f61036e565b6101086101b536600461092d565b5f9081526003602052604090205490565b5f546001600160a01b0316610168565b61013f610381565b600554610168906001600160a01b031681565b600454610168906001600160a01b031681565b61013f61021236600461090d565b6103da565b61013f61022536600461090d565b61046c565b61013f610238366004610944565b6104a9565b61013f61024b36600461092d565b6105f7565b6040516370a0823160e01b81523060048201525f907f00000000000000000000000000000000000000000000000000000000000000006001600160a01b0316906370a0823190602401602060405180830381865afa1580156102b4573d5f803e3d5ffd5b505050506040513d601f19601f820116820180604052508101906102d8919061096c565b905090565b6102e56106e8565b6001600160a01b03811661034c5760405162461bcd60e51b8152602060048201526024808201527f52656e745661756c743a20696e76616c6964207969656c6420646973747269626044820152633aba37b960e11b60648201526084015b60405180910390fd5b600480546001600160a01b0319166001600160a01b0392909216919091179055565b6103766106e8565b61037f5f610714565b565b6103896106e8565b60028054905f61039883610997565b91905055507f4711e52c972094536a2b69a08c2257ab02b644f374a725bbccd324122bd7f1246002546040516103d091815260200190565b60405180910390a1565b6103e26106e8565b6001600160a01b03811661044a5760405162461bcd60e51b815260206004820152602960248201527f52656e745661756c743a20696e76616c6964207969656c6420737461636b696e604482015268339036b0b730b3b2b960b91b6064820152608401610343565b600580546001600160a01b0319166001600160a01b0392909216919091179055565b6104746106e8565b6001600160a01b03811661049d57604051631e4fbdf760e01b81525f6004820152602401610343565b6104a681610714565b50565b6104b1610763565b5f546001600160a01b03163314806104d357506004546001600160a01b031633145b806104e857506005546001600160a01b031633145b6105345760405162461bcd60e51b815260206004820152601960248201527f52656e745661756c743a206e6f7420617574686f72697a6564000000000000006044820152606401610343565b6001600160a01b03821661058a5760405162461bcd60e51b815260206004820152601c60248201527f52656e745661756c743a20696e76616c696420726563697069656e74000000006044820152606401610343565b5f81116105a95760405162461bcd60e51b8152600401610343906109af565b6105dd6001600160a01b037f000000000000000000000000000000000000000000000000000000000000000016838361077e565b6105f360015f80516020610a1483398151915255565b5050565b6105ff610763565b5f811161061e5760405162461bcd60e51b8152600401610343906109af565b6106536001600160a01b037f0000000000000000000000000000000000000000000000000000000000000000163330846107b8565b8060015f82825461066491906109fa565b90915550506002545f90815260036020526040812080548392906106899084906109fa565b909155505060025460405133917ff335f24c222716a32e307b843fe125d20c7fd660660a5538ded173c33ac219b3916106ca91858252602082015260400190565b60405180910390a26104a660015f80516020610a1483398151915255565b5f546001600160a01b0316331461037f5760405163118cdaa760e01b8152336004820152602401610343565b5f80546001600160a01b038381166001600160a01b0319831681178455604051919092169283917f8be0079c531659141344cd1fd0a4f28419497f9722a3daafe3b4186f6b6457e09190a35050565b61076b6107f4565b60025f80516020610a1483398151915255565b61078b8383836001610823565b6107b357604051635274afe760e01b81526001600160a01b0384166004820152602401610343565b505050565b6107c6848484846001610885565b6107ee57604051635274afe760e01b81526001600160a01b0385166004820152602401610343565b50505050565b5f80516020610a148339815191525460020361037f57604051633ee5aeb560e01b815260040160405180910390fd5b60405163a9059cbb60e01b5f8181526001600160a01b038616600452602485905291602083604481808b5af1925060015f5114831661087957838315161561086d573d5f823e3d81fd5b5f873b113d1516831692505b60405250949350505050565b6040516323b872dd60e01b5f8181526001600160a01b038781166004528616602452604485905291602083606481808c5af1925060015f511483166108e15783831516156108d5573d5f823e3d81fd5b5f883b113d1516831692505b604052505f60605295945050505050565b80356001600160a01b0381168114610908575f80fd5b919050565b5f6020828403121561091d575f80fd5b610926826108f2565b9392505050565b5f6020828403121561093d575f80fd5b5035919050565b5f8060408385031215610955575f80fd5b61095e836108f2565b946020939093013593505050565b5f6020828403121561097c575f80fd5b5051919050565b634e487b7160e01b5f52601160045260245ffd5b5f600182016109a8576109a8610983565b5060010190565b6020808252602b908201527f52656e745661756c743a20616d6f756e74206d7573742062652067726561746560408201526a72207468616e207a65726f60a81b606082015260800190565b80820180821115610a0d57610a0d610983565b9291505056fe9b779b17422d0df92223018b32b4d1fa46e071723d6817e2486d003becc55f00a2646970667358221220b11a6e50983bb9f98a1e4745114dff1c01b10235f3f7b2f4732537e831aaefaf64736f6c63430008180033","linkReferences":{}},"methodIdentifiers":{"currentPeriod()":"06040618","depositRent(uint256)":"f6e96ced","getBalance()":"12065fe0","getRentForPeriod(uint256)":"7b39024d","owner()":"8da5cb5b","renounceOwnership()":"715018a6","rentCollected()":"17b574a6","rentPerPeriod(uint256)":"4b28206f","resetPeriod()":"944c1d97","setYieldDistributor(address)":"3038a60d","setYieldStackingManager(address)":"c2952029","transferOwnership(address)":"f2fde38b","usdc()":"3e413bee","withdraw(address,uint256)":"f3fef3a3","yieldDistributor()":"a38c2c3d","yieldStackingManager()":"a1df2abb"},"id":2}