{"abi":[{"type":"constructor","inputs":[{"name":"initialOwner","type":"address","internalType":"address"}],"stateMutability":"nonpayable"},{"type":"receive","stateMutability":"payable"},{"type":"function","name":"currentPeriod","inputs":[],"outputs":[{"name":"","type":"uint256","internalType":"uint256"}],"stateMutability":"view"},{"type":"function","name":"depositRent","inputs":[{"name":"amount","type":"uint256","internalType":"uint256"}],"outputs":[],"stateMutability":"payable"},{"type":"function","name":"getBalance","inputs":[],"outputs":[{"name":"","type":"uint256","internalType":"uint256"}],"stateMutability":"view"},{"type":"function","name":"getRentForPeriod","inputs":[{"name":"period","type":"uint256","internalType":"uint256"}],"outputs":[{"name":"","type":"uint256","internalType":"uint256"}],"stateMutability":"view"},{"type":"function","name":"owner","inputs":[],"outputs":[{"name":"","type":"address","internalType":"address"}],"stateMutability":"view"},{"type":"function","name":"renounceOwnership","inputs":[],"outputs":[],"stateMutability":"nonpayable"},{"type":"function","name":"rentCollected","inputs":[],"outputs":[{"name":"","type":"uint256","internalType":"uint256"}],"stateMutability":"view"},{"type":"function","name":"rentPerPeriod","inputs":[{"name":"","type":"uint256","internalType":"uint256"}],"outputs":[{"name":"","type":"uint256","internalType":"uint256"}],"stateMutability":"view"},{"type":"function","name":"resetPeriod","inputs":[],"outputs":[],"stateMutability":"nonpayable"},{"type":"function","name":"setYieldDistributor","inputs":[{"name":"_yieldDistributor","type":"address","internalType":"address"}],"outputs":[],"stateMutability":"nonpayable"},{"type":"function","name":"setYieldStackingManager","inputs":[{"name":"_yieldStackingManager","type":"address","internalType":"address"}],"outputs":[],"stateMutability":"nonpayable"},{"type":"function","name":"transferOwnership","inputs":[{"name":"newOwner","type":"address","internalType":"address"}],"outputs":[],"stateMutability":"nonpayable"},{"type":"function","name":"withdraw","inputs":[{"name":"to","type":"address","internalType":"address"},{"name":"amount","type":"uint256","internalType":"uint256"}],"outputs":[],"stateMutability":"nonpayable"},{"type":"function","name":"yieldDistributor","inputs":[],"outputs":[{"name":"","type":"address","internalType":"address"}],"stateMutability":"view"},{"type":"function","name":"yieldStackingManager","inputs":[],"outputs":[{"name":"","type":"address","internalType":"address"}],"stateMutability":"view"},{"type":"event","name":"OwnershipTransferred","inputs":[{"name":"previousOwner","type":"address","indexed":true,"internalType":"address"},{"name":"newOwner","type":"address","indexed":true,"internalType":"address"}],"anonymous":false},{"type":"event","name":"PeriodReset","inputs":[{"name":"newPeriod","type":"uint256","indexed":false,"internalType":"uint256"}],"anonymous":false},{"type":"event","name":"RentDeposited","inputs":[{"name":"depositor","type":"address","indexed":true,"internalType":"address"},{"name":"amount","type":"uint256","indexed":false,"internalType":"uint256"},{"name":"period","type":"uint256","indexed":false,"internalType":"uint256"}],"anonymous":false},{"type":"error","name":"OwnableInvalidOwner","inputs":[{"name":"owner","type":"address","internalType":"address"}]},{"type":"error","name":"OwnableUnauthorizedAccount","inputs":[{"name":"account","type":"address","internalType":"address"}]},{"type":"error","name":"ReentrancyGuardReentrantCall","inputs":[]}],"bytecode":{"object":"0x6080346100dd57601f6109b838819003918201601f19168301916001600160401b038311848410176100e1578084926020946040528339810103126100dd57516001600160a01b0390818116908190036100dd5780156100c5575f80546001600160a01b03198116831782556040519316907f8be0079c531659141344cd1fd0a4f28419497f9722a3daafe3b4186f6b6457e09080a360017f9b779b17422d0df92223018b32b4d1fa46e071723d6817e2486d003becc55f00556108c290816100f68239f35b604051631e4fbdf760e01b81525f6004820152602490fd5b5f80fd5b634e487b7160e01b5f52604160045260245ffdfe60806040908082526004908136101561006a575b5050361561001f575f80fd5b61002b346001546107b1565b6001556002545f526003602052805f206100463482546107b1565b90555f8051602061082d8339815191526002549180519234845260208401523392a2005b5f3560e01c90816306040618146107215750806312065fe01461070757806317b574a6146106e95780633038a60d146106565780634b28206f146105ea578063715018a6146106125780637b39024d146105ea5780638da5cb5b146105c3578063944c1d9714610557578063a1df2abb1461052f578063a38c2c3d14610507578063c29520291461046c578063f2fde38b146103fb578063f3fef3a3146101f65763f6e96ced1461011b5780610013565b9060203660031901126101f2578135916101336107fd565b61013e831515610751565b8234036101a157505f8051602061082d83398151915290610161836001546107b1565b6001556002545f526003602052805f2061017c8482546107b1565b9055600254815193845260208401523392a260015f8051602061086d83398151915255005b6020608492519162461bcd60e51b8352820152602660248201527f52656e745661756c743a20616d6f756e74206d757374206d61746368206d73676044820152652e76616c756560d01b6064820152fd5b5f80fd5b50346101f257816003193601126101f25761020f61073b565b9160249283359061021e6107fd565b5f546001600160a01b0391908216331480156103ef575b80156103e2575b156103a45716801561036357610253821515610751565b814710610321575f80809381935af13d1561031c576001600160401b033d81811161030a57835191601f8201601f19908116603f01168301908111838210176102f857845281525f60203d92013e5b156102ba5760015f8051602061086d83398151915255005b6064926020601a92519362461bcd60e51b85528401528201527914995b9d15985d5b1d0e881d1c985b9cd9995c8819985a5b195960321b6044820152fd5b86604187634e487b7160e01b5f52525ffd5b85604186634e487b7160e01b5f52525ffd5b6102a2565b825162461bcd60e51b8152602081860152601f818701527f52656e745661756c743a20696e73756666696369656e742062616c616e6365006044820152606490fd5b825162461bcd60e51b8152602081860152601c818701527b14995b9d15985d5b1d0e881a5b9d985b1a59081c9958da5c1a595b9d60221b6044820152606490fd5b835162461bcd60e51b81526020818701526019818801527814995b9d15985d5b1d0e881b9bdd08185d5d1a1bdc9a5e9959603a1b6044820152606490fd5b508160055416331461023c565b50818554163314610235565b50346101f25760203660031901126101f25761041561073b565b9061041e6107d2565b6001600160a01b039182169283156104565750505f548260018060a01b03198216175f55165f8051602061084d8339815191525f80a3005b905f6024925191631e4fbdf760e01b8352820152fd5b50346101f25760203660031901126101f25761048661073b565b61048e6107d2565b6001600160a01b03169182156104b257600580546001600160a01b03191684179055005b906020608492519162461bcd60e51b8352820152602960248201527f52656e745661756c743a20696e76616c6964207969656c6420737461636b696e604482015268339036b0b730b3b2b960b91b6064820152fd5b5090346101f2575f3660031901126101f257905490516001600160a01b039091168152602090f35b82346101f2575f3660031901126101f25760055490516001600160a01b039091168152602090f35b50346101f2575f3660031901126101f2576105706107d2565b600254905f1982146105b0577f4711e52c972094536a2b69a08c2257ab02b644f374a725bbccd324122bd7f12460208460018501908160025551908152a1005b601190634e487b7160e01b5f525260245ffd5b82346101f2575f3660031901126101f2575f5490516001600160a01b039091168152602090f35b5090346101f25760203660031901126101f257602091355f5260038252805f20549051908152f35b346101f2575f3660031901126101f25761062a6107d2565b5f80546001600160a01b0319811682556001600160a01b03165f8051602061084d8339815191528280a3005b5090346101f25760203660031901126101f25761067161073b565b6106796107d2565b6001600160a01b031690811561069b575081546001600160a01b031916179055005b5162461bcd60e51b81526020818401526024808201527f52656e745661756c743a20696e76616c6964207969656c6420646973747269626044820152633aba37b960e11b6064820152608490fd5b82346101f2575f3660031901126101f2576020906001549051908152f35b82346101f2575f3660031901126101f25751478152602090f35b346101f2575f3660031901126101f2576020906002548152f35b600435906001600160a01b03821682036101f257565b1561075857565b60405162461bcd60e51b815260206004820152602b60248201527f52656e745661756c743a20616d6f756e74206d7573742062652067726561746560448201526a72207468616e207a65726f60a81b6064820152608490fd5b919082018092116107be57565b634e487b7160e01b5f52601160045260245ffd5b5f546001600160a01b031633036107e557565b60405163118cdaa760e01b8152336004820152602490fd5b5f8051602061086d833981519152600281541461081a5760029055565b604051633ee5aeb560e01b8152600490fdfef335f24c222716a32e307b843fe125d20c7fd660660a5538ded173c33ac219b38be0079c531659141344cd1fd0a4f28419497f9722a3daafe3b4186f6b6457e09b779b17422d0df92223018b32b4d1fa46e071723d6817e2486d003becc55f00a26469706673582212207199c437b39af16e0ef825b958bf2c7f5afdb1042f93fc1ae02cd728967b18a864736f6c63430008180033","linkReferences":{}},"methodIdentifiers":{"currentPeriod()":"06040618","depositRent(uint256)":"f6e96ced","getBalance()":"12065fe0","getRentForPeriod(uint256)":"7b39024d","owner()":"8da5cb5b","renounceOwnership()":"715018a6","rentCollected()":"17b574a6","rentPerPeriod(uint256)":"4b28206f","resetPeriod()":"944c1d97","setYieldDistributor(address)":"3038a60d","setYieldStackingManager(address)":"c2952029","transferOwnership(address)":"f2fde38b","withdraw(address,uint256)":"f3fef3a3","yieldDistributor()":"a38c2c3d","yieldStackingManager()":"a1df2abb"},"id":6}