{"abi":[{"type":"function","name":"initializeSystem","inputs":[{"name":"system","type":"address","internalType":"contract PropertyCashFlowSystemCore"},{"name":"propertyData","type":"tuple","internalType":"struct IPropertyNFT.PropertyData","components":[{"name":"location","type":"string","internalType":"string"},{"name":"valuation","type":"uint256","internalType":"uint256"},{"name":"monthlyRent","type":"uint256","internalType":"uint256"},{"name":"metadataURI","type":"string","internalType":"string"}]},{"name":"_totalShares","type":"uint256","internalType":"uint256"},{"name":"initialShareholder","type":"address","internalType":"address"},{"name":"yieldVaultAddress","type":"address","internalType":"address"},{"name":"reserveThreshold","type":"uint256","internalType":"uint256"},{"name":"minimumDeposit","type":"uint256","internalType":"uint256"},{"name":"autoDepositEnabled","type":"bool","internalType":"bool"}],"outputs":[],"stateMutability":"nonpayable"}],"bytecode":{"object":"0x6080806040523461001657618330908161001b8239f35b5f80fdfe6080604052600436101562000012575f80fd5b5f803560e01c6326234e531462000027575f80fd5b34620006885760031990610100368301126200068857600435916001600160a01b038316830362000688576001600160401b036024351162000688576080906024353603011262000688576064356001600160a01b038116810362000688576084356001600160a01b0381168103620006885760e4359384151585036200068857630ac77c9f60e11b60809081526020906004816001600160a01b0385165afa80156200067d575f9062000832575b620007de576044351562000777576001600160a01b038316156200072357604051631f209df760e11b81526020816004816001600160a01b0386165afa9081156200067d575f91620006da575b506040516001600160401b0361188d820190811190821117620006c65761188d6200191982396001600160a01b03831661188d8201908152819003602001905ff080156200067d576040516001600160401b03610e3c820190811190821117620006c657610e3c620031a682396001600160a01b038416610e3c8201908152819003602001905ff09283156200067d576040516001600160401b0361101d820190811190821117620006c65761101d620008fc82396001600160a01b03821661101d8201908152819003602001905ff09081156200067d576040516001600160401b03610ac9820190811190821117620006c657610ac962003fe282396001600160a01b03858116610ac983019081529083166020820152819003604001905ff09687156200067d576040516001600160401b0361120c820190811190821117620006c65761120c6200566682396001600160a01b03831661120c8201908152819003602001905ff09485156200067d576040516001600160401b03610bbb820190811190821117620006c657610bbb62004aab82396001600160a01b038416610bbb8201908152819003602001905ff09788156200067d576040516001600160401b03611a89820190811190821117620006c657611a896200687282396001600160a01b03838116611a8983019081528c821660208201529086166040820152819003606001905ff09182156200067d57604051936313b6ae3d60e31b855260018060a01b03881660048601526040602486015260208580620003cc6200038c6200037a602435600401602435600401620008a6565b6080604486015260c4850191620008db565b6024803501356064840152604460243501356084840152620003b9606460243501602435600401620008a6565b8483036043190160a486015290620008db565b03815f6001600160a01b038b165af19485156200067d575f956200068c575b506001600160a01b0386163b156200068857604051639240945160e01b81526001600160a01b038b81166004830152898116602483015260448083018890523560648301529182166084820152905f90829060a490829084908b165af180156200067d5762000667575b509a9b8c9b6001600160a01b0386163b15620006635760405163978a31c960e01b81526001600160a01b03888116600483018190528e8216602484018190528e831660448501528c83166064850181905288841660848601528e841660a486015260c485019290925260e4840152610104830152918216610124820152908d90829061014490829084908b165af190811562000658578d9162000640575b50506001600160a01b0385163b156200063c5760405163f77d044360e01b81526001600160a01b038481166004830152928316602482015260a48035604483015260c43560648301529115156084820152918c9183918290849089165af190811562000631578b9162000619575b50506001600160a01b0383163b156200061557604051631b40293960e01b81526001600160a01b03958616600482015296851660248801529784166044808801919091529284166064870152938316608486015294821660a485015294811660c484015260e4830191909152923561010482015291839183916101249183918591165af180156200060a57620005f45750f35b620005ff906200086e565b620006075780f35b80fd5b6040513d84823e3d90fd5b8980fd5b62000624906200086e565b6200061557895f62000561565b6040513d8d823e3d90fd5b8b80fd5b6200064b906200086e565b6200063c578b5f620004f3565b6040513d8f823e3d90fd5b8c80fd5b62000674919c506200086e565b5f9a5f62000455565b6040513d5f823e3d90fd5b5f80fd5b9094506020813d602011620006bd575b81620006ab6020938362000882565b81010312620006885751935f620003eb565b3d91506200069c565b634e487b7160e01b5f52604160045260245ffd5b90506020813d6020116200071a575b81620006f86020938362000882565b810103126200068857516001600160a01b038116810362000688575f62000123565b3d9150620006e9565b60405162461bcd60e51b815260206004820152602660248201527f53797374656d496e697469616c697a65723a20696e76616c69642073686172656044820152653437b63232b960d11b6064820152608490fd5b60405162461bcd60e51b815260206004820152603960248201527f53797374656d496e697469616c697a65723a20746f74616c20736861726573206044820152786d7573742062652067726561746572207468616e207a65726f60381b6064820152608490fd5b60405162461bcd60e51b815260206004820152602660248201527f53797374656d496e697469616c697a65723a20616c726561647920696e697469604482015265185b1a5e995960d21b6064820152608490fd5b5060203d60201162000866575b806200084f602092608062000882565b1262000688576080518015158114620000d6575f80fd5b503d6200083f565b6001600160401b038111620006c657604052565b601f909101601f19168101906001600160401b03821190821017620006c657604052565b9035601e198236030181121562000688570160208101919035906001600160401b038211620006885781360383136200068857565b908060209392818452848401375f828201840152601f01601f191601019056fe6080346100e657601f61101d38819003918201601f19168301916001600160401b038311848410176100ea578084926020946040528339810103126100e657516001600160a01b0390818116908190036100e65780156100ce575f54918160018060a01b03199181838616175f5560405194167f8be0079c531659141344cd1fd0a4f28419497f9722a3daafe3b4186f6b6457e05f80a360017f9b779b17422d0df92223018b32b4d1fa46e071723d6817e2486d003becc55f00556009541617600955610f1e90816100ff8239f35b604051631e4fbdf760e01b81525f6004820152602490fd5b5f80fd5b634e487b7160e01b5f52604160045260245ffdfe6080604081815260049182361015610015575f80fd5b5f3560e01c908163081aa018146109d657508063086146d2146109435780631ff65770146109085780633010a7f7146108435780634162169f1461081b5780634542734e146107fd578063481c6a75146107d5578063715018a6146107915780637da3bbd9146107735780638da5cb5b1461074c578063944c1d971461070e5780639c9c5d0c146106e6578063a1df2abb146106be578063a369f4ca146105ef578063a6b5a8ec14610577578063afffd5bc14610559578063c295202914610490578063ccefccdb14610472578063d0ebdbe7146103b0578063d43112161461038d578063df2c2b5e14610278578063e20c78741461025c578063e73a914c1461019e5763f2fde38b14610127575f80fd5b3461019a57602036600319011261019a576001600160a01b0382358181169391929084900361019a57610158610e7d565b83156101845750505f548260018060a01b03198216175f55165f80516020610ea98339815191525f80a3005b905f6024925191631e4fbdf760e01b8352820152fd5b5f80fd5b50903461019a57602036600319011261019a5780356001600160a01b038116929083900361019a576101ce610e7d565b821561020d57600280546001600160a01b03191684179055827f8aad84fcad50e723fa3bcf0fb32c5bea4c71078b77b9aedfa638f146f3a3f7b95f80a2005b906020608492519162461bcd60e51b8352820152602360248201527f43617368466c6f77456e67696e653a20696e76616c69642044414f206164647260448201526265737360e81b6064820152fd5b503461019a575f36600319011261019a57602091549051908152f35b503461019a57602036600319011261019a576009546001600160a01b0390833590821633148015610381575b6102ad90610cf1565b6102b8811515610bb2565b6102c3818554610c4e565b845582519081527f9895ef9fb1b1c849968c8199ee15a63b66e3d0a706a8eb3597acd1ebc808675c60203392a26003541691826102fc57005b8151637b7d3f9360e01b602082019081528282526001600160401b0394918085018681118282101761036e578552515f9283929083905af1503d15610359573d92831161035b57505161035991601f01601f191660200190610c17565b005b604190634e487b7160e01b5f525260245ffd5b604185634e487b7160e01b5f525260245ffd5b505f54821633146102a4565b503461019a575f36600319011261019a576020906103a9610d48565b9051908152f35b50903461019a57602036600319011261019a5780356001600160a01b038116929083900361019a576103e0610e7d565b821561041f57600980546001600160a01b03191684179055827f60a0f5b9f9e81e98216071b85826681c796256fe3d1354ecb675580fba64fa695f80a2005b906020608492519162461bcd60e51b8352820152602760248201527f43617368466c6f77456e67696e653a20696e76616c6964206d616e61676572206044820152666164647265737360c81b6064820152fd5b503461019a575f36600319011261019a576020906006549051908152f35b50903461019a57602036600319011261019a5780356001600160a01b038116929083900361019a576104c0610e7d565b82156104ff57600380546001600160a01b03191684179055827fadf3e660b435d8e57cb2346c441bad1c90a3eff3aa70fd5a0fd39f6e4a0c5fc75f80a2005b906020608492519162461bcd60e51b8352820152602e60248201527f43617368466c6f77456e67696e653a20696e76616c6964207969656c6420737460448201526d30b1b5b4b7339036b0b730b3b2b960911b6064820152fd5b503461019a575f36600319011261019a576020906005549051908152f35b50903461019a57602036600319011261019a5735906105ab60018060a01b03806009541633149081156105e2575b50610cf1565b6105b6821515610bb2565b6105c282600654610c4e565b60065581600855519081525f80516020610ec983398151915260203392a2005b90505f541633145f6105a5565b503461019a57602036600319011261019a576009548235929061062690336001600160a01b03918216149081156105e25750610cf1565b610631831515610bb2565b6006549081841161066f57508261064791610d3b565b60065561065382610cc6565b600855519081525f80516020610ec983398151915260203392a2005b608490602084519162461bcd60e51b83528201526024808201527f43617368466c6f77456e67696e653a20696e73756666696369656e74207265736044820152636572766560e01b6064820152fd5b503461019a575f36600319011261019a5760035490516001600160a01b039091168152602090f35b503461019a575f36600319011261019a5760015490516001600160a01b039091168152602090f35b823461019a575f36600319011261019a575f90610729610e7d565b600154610740906001600160a01b03161515610c6f565b555f6007819055600855005b503461019a575f36600319011261019a575f5490516001600160a01b039091168152602090f35b503461019a575f36600319011261019a576020906008549051908152f35b3461019a575f36600319011261019a576107a9610e7d565b5f80546001600160a01b0319811682556001600160a01b03165f80516020610ea98339815191528280a3005b503461019a575f36600319011261019a5760095490516001600160a01b039091168152602090f35b503461019a575f36600319011261019a576020906007549051908152f35b503461019a575f36600319011261019a5760025490516001600160a01b039091168152602090f35b50903461019a57602036600319011261019a5780356001600160a01b038116929083900361019a57610873610e7d565b82156108b257600180546001600160a01b03191684179055827f255c04595fc06df93f15f4a53425dce3e27a4a1d0aef44176a1d8691f2bb71d75f80a2005b906020608492519162461bcd60e51b8352820152602a60248201527f43617368466c6f77456e67696e653a20696e76616c69642072656e74207661756044820152696c74206164647265737360b01b6064820152fd5b503461019a575f36600319011261019a576020906103a9610927610d48565b61093e610935600754610cc6565b60085492610cd6565b610cd6565b503461019a575f36600319011261019a576001546020906001600160a01b031661096e811515610c6f565b825162c080c360e31b815293849182905afa9081156109cd575f91610998575b6020925051908152f35b90506020823d6020116109c5575b816109b360209383610c17565b8101031261019a57602091519061098e565b3d91506109a6565b513d5f823e3d90fd5b83833461019a578060031936011261019a576002546001600160a01b039081169383359360243592909190338714908115610ba5575b5015610b6b5750610a1e841515610bb2565b8415610b2a57825180956326af303360e21b8252838383015281602460209889935afa908115610b20575f91610aea575b5015610a9957508293610a857f686558c5d09d02c5e337e5389798d589800b2ff2bf8208f0f03364e297e4104094600554610c4e565b6005558460075582519485528401523392a2005b825162461bcd60e51b8152908101859052602560248201527f43617368466c6f77456e67696e653a2070726f706f73616c206e6f74206170706044820152641c9bdd995960da1b6064820152608490fd5b90508581813d8311610b19575b610b018183610c17565b8101031261019a5751801515810361019a5786610a4f565b503d610af7565b84513d5f823e3d90fd5b606490602084519162461bcd60e51b8352820152601b60248201527a10d85cda119b1bddd15b99da5b994e88111053c81b9bdd081cd95d602a1b6044820152fd5b602060649262461bcd60e51b8352820152601760248201527643617368466c6f77456e67696e653a206e6f742044414f60481b6044820152fd5b90505f5416331487610a0c565b15610bb957565b60405162461bcd60e51b815260206004820152603060248201527f43617368466c6f77456e67696e653a20616d6f756e74206d757374206265206760448201526f726561746572207468616e207a65726f60801b6064820152608490fd5b601f909101601f19168101906001600160401b03821190821017610c3a57604052565b634e487b7160e01b5f52604160045260245ffd5b91908201809211610c5b57565b634e487b7160e01b5f52601160045260245ffd5b15610c7657565b60405162461bcd60e51b815260206004820152602260248201527f43617368466c6f77456e67696e653a2072656e74207661756c74206e6f742073604482015261195d60f21b6064820152608490fd5b600160ff1b8114610c5b575f0390565b9190915f8382019384129112908015821691151617610c5b57565b15610cf857565b60405162461bcd60e51b815260206004820152601b60248201527a21b0b9b4233637bba2b733b4b7329d103737ba1036b0b730b3b2b960291b6044820152606490fd5b91908203918211610c5b57565b6001546001600160a01b03908116610d61811515610c6f565b6040518091630bdaba5360e11b825281600460209384935afa918215610e25575f92610e4e575b505f9160045460065491610d9c8383610c4e565b8111610e30575b5050505f926003541680610dc1575b505090610dbe91610c4e565b90565b604051638501de0160e01b815293508190849060049082905afa908115610e25575f91610df5575b509150610dbe5f610db2565b905082813d8311610e1e575b610e0b8183610c17565b8101031261019a57610dbe91515f610de9565b503d610e01565b6040513d5f823e3d90fd5b610e4593945090610e4091610d3b565b610d3b565b905f8080610da3565b9080925081813d8311610e76575b610e668183610c17565b8101031261019a5751905f610d88565b503d610e5c565b5f546001600160a01b03163303610e9057565b60405163118cdaa760e01b8152336004820152602490fdfe8be0079c531659141344cd1fd0a4f28419497f9722a3daafe3b4186f6b6457e0cc47de79a4c481b12583a290a56d7007708a5f013d7989daf9b542b844b39f76a2646970667358221220dac404269fd0410f503b7dcd5fc57ca85f851604a6c03d097deb65ea5865e02a64736f6c634300081800336080346200038157601f1990601f906001600160401b03906200188d388190038481018616830184811184821017620002a3578392829160405283396020928391810103126200038157516001600160a01b0393848216939184900362000381576200006a62000385565b92601484527f5265616c204573746174652050726f7065727479000000000000000000000000818501526200009e62000385565b96600388526205245560ec1b828901528451848111620002a3575f546001968782811c9216801562000376575b858310146200028457818684931162000323575b508490868311600114620002c3575f92620002b7575b50505f19600383901b1c191690861b175f555b8751938411620002a35784548581811c9116801562000298575b8382101462000284578381116200023c575b5081928411600114620001d857505081929394955f92620001cc575b50505f19600383901b1c191690821b1790555b8015620001b457600680546001600160a01b03198116831790915560405192167f8be0079c531659141344cd1fd0a4f28419497f9722a3daafe3b4186f6b6457e05f80a36114e79081620003a68239f35b604051631e4fbdf760e01b81525f6004820152602490fd5b015190505f8062000150565b5f858152828120918516989193925b898210620002245750508385969798106200020b575b505050811b01905562000163565b01515f1960f88460031b161c191690555f8080620001fd565b808785968294968601518155019501930190620001e7565b855f52825f208480870160051c8201928588106200027a575b0160051c019086905b8281106200026e57505062000134565b5f81550186906200025e565b9250819262000255565b634e487b7160e01b5f52602260045260245ffd5b90607f169062000122565b634e487b7160e01b5f52604160045260245ffd5b015190505f80620000f5565b9084899416915f8052865f20925f5b888282106200030c5750508411620002f3575b505050811b015f5562000108565b01515f1960f88460031b161c191690555f8080620002e5565b8385015186558c97909501949384019301620002d2565b9091505f8052845f208680850160051c8201928786106200036c575b918a91869594930160051c01915b8281106200035d575050620000df565b5f81558594508a91016200034d565b925081926200033f565b91607f1691620000cb565b5f80fd5b60408051919082016001600160401b03811183821017620002a35760405256fe6080806040526004361015610012575f80fd5b5f3560e01c90816301ffc9a714610ea75750806306fdde0314610e1d578063081812fc14610de1578063095ea7b314610d0057806323b872dd14610ce957806342842e0e14610cbc5780636352211e14610c8c57806370a0823114610c36578063715018a614610bee57806375794a3c14610bd15780638da5cb5b14610ba957806395d89b4114610ae9578063a22cb46514610a48578063b88d4fde146109b2578063bb632ab814610888578063c87b56dd14610833578063e985e9c5146107e1578063f2fde38b1461076e5763fd0e3fb7146100ed575f80fd5b3461042d5760031960403682011261042d57610107610f50565b906001600160401b036024351161042d576080906024353603011261042d5761012e6112de565b6001600160a01b0381161561071857602480350135156106ba5760446024350135156106595761016360046024350180611272565b905015610606576007545f1981146105f257600181016007555f8181526008602052604090209161019960046024350180611272565b9093906001600160401b03811161052f576101b48254611025565b601f81116105b1575b505f601f821160011461054e5781929394955f92610543575b50508160011b915f199060031b1c19161781555b6024803501356001820155604460243501356002820155610215606460243501602435600401611272565b906001600160401b03821161052f576102316003840154611025565b601f81116104e7575b505f90601f831160011461047d57600392915f9183610472575b50508160011b915f1990841b1c1916179101555b60405161027481610fcc565b5f808252838152600260205260409020546001600160a01b031680151590849082610451575b6001600160a01b0385165f818152600360209081526040808320805460010190558583526002909152812080546001600160a01b031916831790559091905f805160206114928339815191529080a461043957813b6102ff575b602083604051908152f35b60405160208180610338630a85bd0160e11b958683523360048401525f6024840152886044840152608060648401526084830190610f12565b03815f6001600160a01b0388165af15f91816103f0575b506103b657823d156103ae573d906103668261100a565b916103746040519384610fe7565b82523d5f602084013e5b815191826103a757604051633250574960e11b81526001600160a01b0383166004820152602490fd5b6020915001fd5b60609061037e565b6001600160e01b031916036103ce575060205f6102f4565b604051633250574960e11b81526001600160a01b039091166004820152602490fd5b9091506020813d602011610431575b8161040c60209383610fe7565b8101031261042d57516001600160e01b03198116810361042d57905f61034f565b5f80fd5b3d91506103ff565b6040516339e3563760e11b81525f6004820152602490fd5b61045a82611454565b805f52600360205260405f205f19815401905561029a565b013590505f80610254565b600384015f5260205f20915f5b601f19851681106104cf5750918391600193600395601f198116106104b8575b505050811b01910155610268565b01355f1983861b60f8161c191690555f80806104aa565b9092602060018192868601358155019401910161048a565b600384015f5260205f20601f840160051c81019160208510610525575b601f0160051c01905b81811061051a575061023a565b5f815560010161050d565b9091508190610504565b634e487b7160e01b5f52604160045260245ffd5b013590505f806101d6565b601f19821695835f5260205f20915f5b88811061059957508360019596979810610580575b505050811b0181556101ea565b01355f19600384901b60f8161c191690555f8080610573565b9092602060018192868601358155019401910161055e565b825f5260205f20601f830160051c8101602084106105eb575b601f830160051c820181106105e05750506101bd565b5f81556001016105ca565b50806105ca565b634e487b7160e01b5f52601160045260245ffd5b60405162461bcd60e51b815260206004820152602560248201527f50726f70657274794e46543a206c6f636174696f6e2063616e6e6f7420626520604482015264656d70747960d81b6064820152608490fd5b60405162461bcd60e51b815260206004820152603360248201527f50726f70657274794e46543a206d6f6e74686c792072656e74206d7573742062604482015272652067726561746572207468616e207a65726f60681b6064820152608490fd5b60405162461bcd60e51b815260206004820152603060248201527f50726f70657274794e46543a2076616c756174696f6e206d757374206265206760448201526f726561746572207468616e207a65726f60801b6064820152608490fd5b60405162461bcd60e51b815260206004820152602860248201527f50726f70657274794e46543a2063616e6e6f74206d696e7420746f207a65726f604482015267206164647265737360c01b6064820152608490fd5b3461042d57602036600319011261042d57610787610f50565b61078f6112de565b6001600160a01b039081169081156107c957600680546001600160a01b031981168417909155165f805160206114728339815191525f80a3005b604051631e4fbdf760e01b81525f6004820152602490fd5b3461042d57604036600319011261042d576107fa610f50565b610802610f66565b9060018060a01b038091165f52600560205260405f2091165f52602052602060ff60405f2054166040519015158152f35b3461042d57602036600319011261042d5761084f6004356112a4565b505f60405161085d81610fcc565b5261088460405161086d81610fcc565b5f8152604051918291602083526020830190610f12565b0390f35b3461042d5760208060031936011261042d57600435906060806040516108ad81610fb1565b8181525f848201525f60408201520152815f526002815260018060a01b0360405f20541615610964576080915f526008815261088460405f20604051926108f384610fb1565b6108fc8261105d565b84526001820154918185019283526109456109256003600284015493604089019485520161105d565b9260608701938452604051978897828952519188015260a0870190610f12565b9251604086015251606085015251838203601f19016080850152610f12565b6084906040519062461bcd60e51b82526004820152602160248201527f50726f70657274794e46543a20746f6b656e20646f6573206e6f7420657869736044820152601d60fa1b6064820152fd5b3461042d57608036600319011261042d576109cb610f50565b6109d3610f66565b6064359190604435906001600160401b03841161042d573660238501121561042d57836004013592610a048461100a565b93610a126040519586610fe7565b808552366024828801011161042d576020815f926024610a4699018389013786010152610a408383836110ff565b3361130a565b005b3461042d57604036600319011261042d57610a61610f50565b6024359081151580920361042d576001600160a01b0316908115610ad057335f52600560205260405f20825f5260205260405f2060ff1981541660ff83161790556040519081527f17307eab39ab6107e8899845ad3d59bd9653f200f220920489ca2b5937696c3160203392a3005b604051630b61174360e31b815260048101839052602490fd5b3461042d575f36600319011261042d576040515f60018260015492610b0d84611025565b92838352602094856001821691825f14610b89575050600114610b4c575b50610b3892500383610fe7565b610884604051928284938452830190610f12565b84915060015f52815f20905f915b858310610b71575050610b38935082010185610b2b565b80548389018501528794508693909201918101610b5a565b60ff191685820152610b3895151560051b8501019250879150610b2b9050565b3461042d575f36600319011261042d576006546040516001600160a01b039091168152602090f35b3461042d575f36600319011261042d576020600754604051908152f35b3461042d575f36600319011261042d57610c066112de565b600680546001600160a01b031981169091555f906001600160a01b03165f805160206114728339815191528280a3005b3461042d57602036600319011261042d576001600160a01b03610c57610f50565b168015610c74575f526003602052602060405f2054604051908152f35b6040516322718ad960e21b81525f6004820152602490fd5b3461042d57602036600319011261042d576020610caa6004356112a4565b6040516001600160a01b039091168152f35b3461042d57610a46610ccd36610f7c565b9060405192610cdb84610fcc565b5f8452610a408383836110ff565b3461042d57610a46610cfa36610f7c565b916110ff565b3461042d57604036600319011261042d57610d19610f50565b602435610d25816112a4565b33151580610dce575b80610da5575b610d8d576001600160a01b039283169282918491167f8c5be1e5ebec7d5bd14f71427d1e84f3dd0314c0f7b2291e5b200ac8c7c3b9255f80a45f90815260046020526040902080546001600160a01b0319169091179055005b60405163a9fbf51f60e01b8152336004820152602490fd5b5060018060a01b0381165f52600560205260405f20335f5260205260ff60405f20541615610d34565b506001600160a01b038116331415610d2e565b3461042d57602036600319011261042d57600435610dfe816112a4565b505f526004602052602060018060a01b0360405f205416604051908152f35b3461042d575f36600319011261042d576040515f80549082610e3e83611025565b91828252602093600190856001821691825f14610b89575050600114610e6b5750610b3892500383610fe7565b8491505f8052815f20905f915b858310610e8f575050610b38935082010185610b2b565b80548389018501528794508693909201918101610e78565b3461042d57602036600319011261042d576004359063ffffffff60e01b821680920361042d576020916380ac58cd60e01b8114908115610f01575b8115610ef0575b5015158152f35b6301ffc9a760e01b14905083610ee9565b635b5e139f60e01b81149150610ee2565b91908251928382525f5b848110610f3c575050825f602080949584010152601f8019910116010190565b602081830181015184830182015201610f1c565b600435906001600160a01b038216820361042d57565b602435906001600160a01b038216820361042d57565b606090600319011261042d576001600160a01b0390600435828116810361042d5791602435908116810361042d579060443590565b608081019081106001600160401b0382111761052f57604052565b602081019081106001600160401b0382111761052f57604052565b601f909101601f19168101906001600160401b0382119082101761052f57604052565b6001600160401b03811161052f57601f01601f191660200190565b90600182811c92168015611053575b602083101461103f57565b634e487b7160e01b5f52602260045260245ffd5b91607f1691611034565b9060405191825f825461106f81611025565b908184526020946001916001811690815f146110dd575060011461109f575b50505061109d92500383610fe7565b565b5f90815285812095935091905b8183106110c557505061109d93508201015f808061108e565b855488840185015294850194879450918301916110ac565b9250505061109d94925060ff191682840152151560051b8201015f808061108e565b6001600160a01b03918216929091831561125a57815f52602092600284528260409583875f20541695331515806111c8575b50600290876111a9575b5f838152600382528981208054600101905584815291905287812080546001600160a01b0319168317905586905f805160206114928339815191529080a416928383036111885750505050565b6064945051926364283d7b60e01b8452600484015260248301526044820152fd5b6111b284611454565b875f5260038152885f205f19815401905561113b565b9192509080611219575b156111e0579084915f611131565b8685876111fd576024915190637e27328960e01b82526004820152fd5b604491519063177e802f60e01b82523360048301526024820152fd5b50338614801561123e575b806111d25750845f52600481523384885f205416146111d2565b50855f5260058152865f20335f52815260ff875f205416611224565b604051633250574960e11b81525f6004820152602490fd5b903590601e198136030182121561042d57018035906001600160401b03821161042d5760200191813603831361042d57565b5f818152600260205260409020546001600160a01b03169081156112c6575090565b60249060405190637e27328960e01b82526004820152fd5b6006546001600160a01b031633036112f257565b60405163118cdaa760e01b8152336004820152602490fd5b9293909193843b61131d575b5050505050565b604051630a85bd0160e11b8082526001600160a01b039586166004830152938516602482015260448101919091526080606482015260209594909316939290859082908190611370906084830190610f12565b03815f885af15f9181611414575b506113dd575050503d5f146113d5573d916113988361100a565b926113a66040519485610fe7565b83523d5f8285013e5b825192836113d057604051633250574960e11b815260048101849052602490fd5b019050fd5b6060916113af565b9193506001600160e01b0319909116036113fc57505f80808080611316565b60249060405190633250574960e11b82526004820152fd5b9091508581813d831161144d575b61142c8183610fe7565b8101031261042d57516001600160e01b03198116810361042d57905f61137e565b503d611422565b5f90815260046020526040902080546001600160a01b031916905556fe8be0079c531659141344cd1fd0a4f28419497f9722a3daafe3b4186f6b6457e0ddf252ad1be2c89b69c2b068fc378daa952ba7f163c4a11628f55a4df523b3efa2646970667358221220bed9e474a6b29d62f9d48a8831502dc766f4a45a06547a819d034c571bcca5d264736f6c634300081800336080346200038c57601f906001600160401b0390601f1962000e3c3881900385810183168401858111858210176200029b578492829160405283396020938491810103126200038c57516001600160a01b039485821694918590036200038c576200006962000390565b600f81526e50726f70657274792053686172657360881b858201526200008e62000390565b91600683526550534841524560d01b868401528151928484116200029b5760039384546001948582811c9216801562000381575b8a8310146200036d5781858493116200031a575b508990858311600114620002bb575f92620002af575b50505f1982871b1c191690841b1784555b80519485116200029b5760049687548481811c9116801562000290575b828210146200027d5783811162000235575b5080928611600114620001cd5750849550908492915f95620001c1575b50501b925f19911b1c19161781555b8115620001aa5750600580546001600160a01b03198116831790915560405192167f8be0079c531659141344cd1fd0a4f28419497f9722a3daafe3b4186f6b6457e05f80a3610a8b9081620003b18239f35b6024905f60405191631e4fbdf760e01b8352820152fd5b015193505f8062000149565b93929585908116885f52855f20955f905b898383106200021a575050501062000200575b50505050811b01815562000158565b01519060f8845f19921b161c191690555f808080620001f1565b858701518955909701969485019488935090810190620001de565b885f52815f208480890160051c820192848a1062000273575b0160051c019085905b828110620002675750506200012c565b5f815501859062000257565b925081926200024e565b602289634e487b7160e01b5f525260245ffd5b90607f16906200011a565b634e487b7160e01b5f52604160045260245ffd5b015190505f80620000ec565b908987941691885f528b5f20925f5b8d828210620003035750508411620002eb575b505050811b018455620000fd565b01515f1983891b60f8161c191690555f8080620002dd565b8385015186558a97909501949384019301620002ca565b909150865f52895f208580850160051c8201928c861062000363575b918891869594930160051c01915b82811062000354575050620000d6565b5f815585945088910162000344565b9250819262000336565b634e487b7160e01b5f52602260045260245ffd5b91607f1691620000c2565b5f80fd5b60408051919082016001600160401b038111838210176200029b5760405256fe608060409080825260049081361015610016575f80fd5b5f3560e01c90816306fdde03146107ce57508063095ea7b314610725578063158ef93e146105ba57806318160ddd1461070757806323b872dd14610620578063313ce5671461060557806337f76838146105dd578063392e53cd146105ba57806370a0823114610584578063715018a61461053c5780638da5cb5b1461051457806395d89b41146104115780639e3d87cd146101ea578063a9059cbb146101ba578063dd62ed3e14610171578063ee7a3b8e146101535763f2fde38b146100db575f80fd5b3461014f57602036600319011261014f576100f46108ed565b906100fd6109e9565b6001600160a01b03918216928315610139575050600580546001600160a01b031981168417909155165f80516020610a168339815191525f80a3005b905f6024925191631e4fbdf760e01b8352820152fd5b5f80fd5b823461014f575f36600319011261014f576020906007549051908152f35b823461014f578060031936011261014f5760209061018d6108ed565b610195610903565b9060018060a01b038091165f5260018452825f2091165f528252805f20549051908152f35b823461014f578060031936011261014f576020906101e36101d96108ed565b6024359033610937565b5160018152f35b503461014f57608036600319011261014f576102046108ed565b6001600160a01b0360643581811694604435949093909260249287900361014f5761022d6109e9565b6008549160ff83166103c35716801561036c57851561030b5786156102bb57600680546001600160a01b0319169091179055813560075560ff1916600117600855600254848101929083106102aa57855f5f80516020610a36833981519152602088888860025585855284835280852082815401905551908152a3005b601190634e487b7160e01b5f52525ffd5b845162461bcd60e51b81526020818601526025818501527f50726f70657274795368617265733a20696e76616c696420696e697469616c2060448201526437bbb732b960d91b6064820152608490fd5b845162461bcd60e51b81526020818601526036818501527f50726f70657274795368617265733a20746f74616c20737570706c79206d7573604482015275742062652067726561746572207468616e207a65726f60501b6064820152608490fd5b845162461bcd60e51b8152602081860152602c818501527f50726f70657274795368617265733a20696e76616c69642070726f706572747960448201526b204e4654206164647265737360a01b6064820152608490fd5b855162461bcd60e51b81526020818701526023818601527f50726f70657274795368617265733a20616c726561647920696e697469616c696044820152621e995960ea1b6064820152608490fd5b50903461014f575f36600319011261014f578051905f835460018160011c906001831692831561050a575b60209384841081146104f7578388529081156104db57506001146104a3575b505050829003601f01601f19168201926001600160401b03841183851017610490575082918261048c9252826108a6565b0390f35b604190634e487b7160e01b5f525260245ffd5b919250855f52825f2091835f935b8385106104c757505050508301015f808061045b565b8054888601830152930192849082016104b1565b60ff1916878501525050151560051b84010190505f808061045b565b602289634e487b7160e01b5f525260245ffd5b91607f169161043c565b823461014f575f36600319011261014f5760055490516001600160a01b039091168152602090f35b3461014f575f36600319011261014f576105546109e9565b600580546001600160a01b031981169091555f906001600160a01b03165f80516020610a168339815191528280a3005b823461014f57602036600319011261014f576020906001600160a01b036105a96108ed565b165f525f8252805f20549051908152f35b823461014f575f36600319011261014f5760209060ff6008541690519015158152f35b823461014f575f36600319011261014f5760065490516001600160a01b039091168152602090f35b823461014f575f36600319011261014f576020905160128152f35b503461014f57606036600319011261014f5761063a6108ed565b610642610903565b906044359260018060a01b038216805f526001602052855f20335f52602052855f2054915f19831061067d575b6020876101e3888888610937565b8583106106e55781156106cf5733156106b957505f908152600160209081528682203383528152908690209185900390915582906101e361066f565b6024905f885191634a1406b160e11b8352820152fd5b6024905f88519163e602df0560e01b8352820152fd5b9050610703858751938493637dc7a0d960e11b855233908501610919565b0390fd5b823461014f575f36600319011261014f576020906002549051908152f35b50903461014f578060031936011261014f5761073f6108ed565b6024359033156107b8576001600160a01b03169081156107a25760209350335f5260018452825f20825f52845280835f205582519081527f8c5be1e5ebec7d5bd14f71427d1e84f3dd0314c0f7b2291e5b200ac8c7c3b925843392a35160018152f35b8251634a1406b160e11b81525f81860152602490fd5b825163e602df0560e01b81525f81860152602490fd5b9050823461014f575f36600319011261014f575f60035460018160011c906001831692831561089c575b60209384841081146104f757838852908115610880575060011461084757505050829003601f01601f19168201926001600160401b03841183851017610490575082918261048c9252826108a6565b91925060035f52825f2091835f935b83851061086c575050505083010184808061045b565b805488860183015293019284908201610856565b60ff1916878501525050151560051b840101905084808061045b565b91607f16916107f8565b602080825282518183018190529093925f5b8281106108d957505060409293505f838284010152601f8019910116010190565b8181018601518482016040015285016108b8565b600435906001600160a01b038216820361014f57565b602435906001600160a01b038216820361014f57565b604091949392606082019560018060a01b0316825260208201520152565b916001600160a01b038084169283156109d157169283156109b957825f525f60205260405f20549082821061099c5750815f80516020610a3683398151915292602092855f525f84520360405f2055845f5260405f20818154019055604051908152a3565b6107038360405193849363391434e360e21b855260048501610919565b60405163ec442f0560e01b81525f6004820152602490fd5b604051634b637e8f60e11b81525f6004820152602490fd5b6005546001600160a01b031633036109fd57565b60405163118cdaa760e01b8152336004820152602490fdfe8be0079c531659141344cd1fd0a4f28419497f9722a3daafe3b4186f6b6457e0ddf252ad1be2c89b69c2b068fc378daa952ba7f163c4a11628f55a4df523b3efa26469706673582212202fc78995cc07a9534c89e01ae8b609c3fc9841a76170847a18d6477f30becca364736f6c6343000818003360a03461015b57601f610ac938819003918201601f19168301916001600160401b0383118484101761015f57808492604094855283398101031261015b57602061004882610173565b916001600160a01b0391829161005e9101610173565b16918215610143575f80546001600160a01b03198116851782556040519491908416907f8be0079c531659141344cd1fd0a4f28419497f9722a3daafe3b4186f6b6457e09080a360017f9b779b17422d0df92223018b32b4d1fa46e071723d6817e2486d003becc55f00551690811561010157506080526040516109419081610188823960805181818160f8015281816102610152818161060701526107120152f35b62461bcd60e51b815260206004820152601f60248201527f52656e745661756c743a20696e76616c696420555344432061646472657373006044820152606490fd5b604051631e4fbdf760e01b81525f6004820152602490fd5b5f80fd5b634e487b7160e01b5f52604160045260245ffd5b51906001600160a01b038216820361015b5756fe6080604081815260049182361015610015575f80fd5b5f3560e01c90816306040618146107c05750806312065fe0146106e657806317b574a6146106c85780633038a60d146106365780633e413bee146105f35780634b28206f14610588578063715018a6146105af5780637b39024d146105885780638da5cb5b14610561578063944c1d97146104f4578063a1df2abb146104cc578063a38c2c3d146104a5578063c295202914610409578063f2fde38b14610397578063f3fef3a3146102025763f6e96ced146100cf575f80fd5b346101fe5760203660031901126101fe578135916100eb61089c565b6100f68315156107f0565b7f0000000000000000000000000000000000000000000000000000000000000000908251916323b872dd60e01b5f52338252306024528460445260205f60648180855af160015f51148116156101df575b8385525f606052156101c257847ff335f24c222716a32e307b843fe125d20c7fd660660a5538ded173c33ac219b38561018283600154610850565b6001556002545f526003602052805f2061019d848254610850565b9055600254815193845260208401523392a260015f805160206108ec83398151915255005b635274afe760e01b83526001600160a01b03169082015260249150fd5b60018115166101f557813b15153d151616610147565b833d5f823e3d90fd5b5f80fd5b50346101fe57806003193601126101fe5761021b6107da565b916024359261022861089c565b5f546001600160a01b03919082163314801561038b575b801561037e575b1561033f5781169283156102fe5761025f8515156107f0565b7f00000000000000000000000000000000000000000000000000000000000000009481519463a9059cbb60e01b5f5284526024528360205f604481808a5af19160015f51148316156102d9575b52156102c55760015f805160206108ec83398151915255005b602493635274afe760e01b84521690820152fd5b91905060018115166102f5578490863b15153d151616916102ac565b843d5f823e3d90fd5b5162461bcd60e51b8152602081840152601c60248201527b14995b9d15985d5b1d0e881a5b9d985b1a59081c9958da5c1a595b9d60221b6044820152606490fd5b835162461bcd60e51b8152602081850152601960248201527814995b9d15985d5b1d0e881b9bdd08185d5d1a1bdc9a5e9959603a1b6044820152606490fd5b5081600554163314610246565b5081835416331461023f565b5090346101fe5760203660031901126101fe576103b26107da565b906103bb610871565b6001600160a01b039182169283156103f35750505f548260018060a01b03198216175f55165f805160206108cc8339815191525f80a3005b905f6024925191631e4fbdf760e01b8352820152fd5b5090346101fe5760203660031901126101fe576104246107da565b61042c610871565b6001600160a01b031691821561045057600580546001600160a01b03191684179055005b906020608492519162461bcd60e51b8352820152602960248201527f52656e745661756c743a20696e76616c6964207969656c6420737461636b696e604482015268339036b0b730b3b2b960b91b6064820152fd5b50346101fe575f3660031901126101fe57905490516001600160a01b039091168152602090f35b50346101fe575f3660031901126101fe5760055490516001600160a01b039091168152602090f35b5090346101fe575f3660031901126101fe5761050e610871565b600254905f19821461054e577f4711e52c972094536a2b69a08c2257ab02b644f374a725bbccd324122bd7f12460208460018501908160025551908152a1005b601190634e487b7160e01b5f525260245ffd5b50346101fe575f3660031901126101fe575f5490516001600160a01b039091168152602090f35b50346101fe5760203660031901126101fe57602091355f5260038252805f20549051908152f35b346101fe575f3660031901126101fe576105c7610871565b5f80546001600160a01b0319811682556001600160a01b03165f805160206108cc8339815191528280a3005b50346101fe575f3660031901126101fe57517f00000000000000000000000000000000000000000000000000000000000000006001600160a01b03168152602090f35b50346101fe5760203660031901126101fe576106506107da565b610658610871565b6001600160a01b031690811561067a575081546001600160a01b031916179055005b5162461bcd60e51b81526020818401526024808201527f52656e745661756c743a20696e76616c6964207969656c6420646973747269626044820152633aba37b960e11b6064820152608490fd5b50346101fe575f3660031901126101fe576020906001549051908152f35b5090346101fe575f3660031901126101fe5781516370a0823160e01b81523082820152916020836024817f00000000000000000000000000000000000000000000000000000000000000006001600160a01b03165afa9182156107b6575f92610754575b6020838351908152f35b9091506020903d6020116107ae575b601f8201601f19168401906001600160401b0382118583101761079b575060209184918452810103126101fe5760209151905f61074a565b604190634e487b7160e01b5f525260245ffd5b3d9150610763565b50513d5f823e3d90fd5b346101fe575f3660031901126101fe576020906002548152f35b600435906001600160a01b03821682036101fe57565b156107f757565b60405162461bcd60e51b815260206004820152602b60248201527f52656e745661756c743a20616d6f756e74206d7573742062652067726561746560448201526a72207468616e207a65726f60a81b6064820152608490fd5b9190820180921161085d57565b634e487b7160e01b5f52601160045260245ffd5b5f546001600160a01b0316330361088457565b60405163118cdaa760e01b8152336004820152602490fd5b5f805160206108ec83398151915260028154146108b95760029055565b604051633ee5aeb560e01b8152600490fdfe8be0079c531659141344cd1fd0a4f28419497f9722a3daafe3b4186f6b6457e09b779b17422d0df92223018b32b4d1fa46e071723d6817e2486d003becc55f00a264697066735822122020fce249d761e516adf8a9741d66c82f2989b54ebf6e44bcbfda19e9de743dcf64736f6c634300081800336080346100b957601f610bbb38819003918201601f19168301916001600160401b038311848410176100bd578084926020946040528339810103126100b957516001600160a01b0390818116908190036100b95780156100a1575f80546001600160a01b03198116831782556040519316907f8be0079c531659141344cd1fd0a4f28419497f9722a3daafe3b4186f6b6457e09080a3610ae990816100d28239f35b604051631e4fbdf760e01b81525f6004820152602490fd5b5f80fd5b634e487b7160e01b5f52604160045260245ffdfe6080604052600480361015610012575f80fd5b5f3560e01c908163013cf08b1461080d57816302d52fa4146104a5578163715018a6146104615781638da5cb5b1461043a57816398951b56146103765781639abcc0cc14610339578163c7f758a814610255578163da35c66414610238578163f2fde38b146101c7578163feab8939146100c1575063fee7ad5a14610095575f80fd5b346100bd575f3660031901126100bd576003546040516001600160a01b039091168152602090f35b5f80fd5b346100bd5760203660031901126100bd5780356001600160a01b03818116918290036100bd576100ef610a48565b600354908116610175578115610134576001600160a01b03191681176003557f65bb62dffafaff7b808ecee7659b8d1556884f676fbb10b8a2ced53ec45223d65f80a2005b60405162461bcd60e51b8152602081850152601a60248201527953696d706c6544414f3a20696e76616c6964206164647265737360301b6044820152606490fd5b60405162461bcd60e51b8152602081850152602560248201527f53696d706c6544414f3a2043617368466c6f77456e67696e6520616c726561646044820152641e481cd95d60da1b6064820152608490fd5b346100bd5760203660031901126100bd576001600160a01b03813581811692908390036100bd576101f6610a48565b821561022157505f548260018060a01b03198216175f55165f80516020610a948339815191525f80a3005b6024905f60405191631e4fbdf760e01b8352820152fd5b346100bd575f3660031901126100bd576020600254604051908152f35b346100bd57602090816003193601126100bd57355f6080604051610278816108bf565b828152606085820152826040820152826060820152015261029c60025482106109f1565b5f526001815260405f20604051906102b3826108bf565b805482526102c360018201610911565b838301908152600282015491604084019260ff81161515845261031f600360018060a01b039384606089019460081c1684520154936080870194855260405197889781895251908801525160a0604088015260c08701906109b3565b935115156060860152511660808401525160a08301520390f35b346100bd5760203660031901126100bd573561035860025482106109f1565b5f526001602052602060ff600260405f200154166040519015158152f35b346100bd5760203660031901126100bd57803590610392610a48565b61039f60025483106109f1565b815f526001602052600260405f20019081549060ff82166103ea575060ff191660011790557f28ec9e38ba73636ceb2f6c1574136f83bd46284a3c74734b711bf45e12f8d9295f80a2005b60849060206040519162461bcd60e51b83528201526024808201527f53696d706c6544414f3a2070726f706f73616c20616c726561647920617070726044820152631bdd995960e21b6064820152fd5b346100bd575f3660031901126100bd575f546040516001600160a01b039091168152602090f35b346100bd575f3660031901126100bd57610479610a48565b5f80546001600160a01b0319811682556001600160a01b03165f80516020610a948339815191528280a3005b346100bd5760403660031901126100bd576001600160401b036024358181116100bd57366023820112156100bd578181840135116100bd5736602482850135830101116100bd578235156107b557808301351561076257600254915f19831461074f576001830160025560405161051b816108bf565b843581526040519061053a84870135601f01601f1916602001836108ee565b858401358083526024850160208401375f60208588013584010152602081019182525f6040820152336060820152426080820152845f52600160205260405f20918151835551805193841161073c576105966001840154610887565b601f81116106f4575b50916020969186938890601f87116001146106735791865f80516020610a7483398151915296976080936003955f92610668575b50505f1982861b1c1916600191821b17908501555b6002840160408201511515815460ff610100600160a81b03606086015160081b1692169060018060a81b03191617179055015191015560606040518281933582526040898301528681013560408301528681013560248801848401375f9601358181018301969096523395601f01601f19168101030190a3604051908152f35b015190508c806105d3565b9590600184015f52895f20965f5b601f19841681106106da5750825f80516020610a74833981519152979860039593600193608096601f198116106106c3575b505050811b0160018501556105e8565b01515f1983881b60f8161c191690558c80806106b3565b8282015189556001909801978a9750918b01918b01610681565b600184015f5260205f20601f860160051c81019160208710610732575b601f0160051c01905b818110610727575061059f565b5f815560010161071a565b9091508190610711565b604187634e487b7160e01b5f525260245ffd5b601184634e487b7160e01b5f525260245ffd5b60405162461bcd60e51b8152602081850152602660248201527f53696d706c6544414f3a206465736372697074696f6e2063616e6e6f7420626560448201526520656d70747960d01b6064820152608490fd5b60405162461bcd60e51b8152602081850152602b60248201527f53696d706c6544414f3a20616d6f756e74206d7573742062652067726561746560448201526a72207468616e207a65726f60a81b6064820152608490fd5b346100bd5760203660031901126100bd57355f52600160205260405f20805461083860018301610911565b916003600282015491015461085f604051948594855260a0602086015260a08501906109b3565b60ff83161515604085015260089290921c6001600160a01b0316606084015260808301520390f35b90600182811c921680156108b5575b60208310146108a157565b634e487b7160e01b5f52602260045260245ffd5b91607f1691610896565b60a081019081106001600160401b038211176108da57604052565b634e487b7160e01b5f52604160045260245ffd5b601f909101601f19168101906001600160401b038211908210176108da57604052565b9060405191825f825461092381610887565b908184526020946001916001811690815f146109915750600114610953575b505050610951925003836108ee565b565b5f90815285812095935091905b81831061097957505061095193508201015f8080610942565b85548884018501529485019487945091830191610960565b9250505061095194925060ff191682840152151560051b8201015f8080610942565b91908251928382525f5b8481106109dd575050825f602080949584010152601f8019910116010190565b6020818301810151848301820152016109bd565b156109f857565b60405162461bcd60e51b815260206004820152602260248201527f53696d706c6544414f3a2070726f706f73616c20646f6573206e6f74206578696044820152611cdd60f21b6064820152608490fd5b5f546001600160a01b03163303610a5b57565b60405163118cdaa760e01b8152336004820152602490fdfe85b1e5bd1e58840265c40582ff09f8cbfab823e041a824467b654a99b5156d398be0079c531659141344cd1fd0a4f28419497f9722a3daafe3b4186f6b6457e0a26469706673582212201e84298508d2527b01ab663310bb3bdc80b796ff1b1a144b0603115ff8e1e38564736f6c634300081800336080346100dd57601f61120c38819003918201601f19168301916001600160401b038311848410176100e1578084926020946040528339810103126100dd57516001600160a01b0390818116908190036100dd5780156100c5575f80546001600160a01b03198116831782556040519316907f8be0079c531659141344cd1fd0a4f28419497f9722a3daafe3b4186f6b6457e09080a360017f9b779b17422d0df92223018b32b4d1fa46e071723d6817e2486d003becc55f005561111690816100f68239f35b604051631e4fbdf760e01b81525f6004820152602490fd5b5f80fd5b634e487b7160e01b5f52604160045260245ffdfe60806040818152600480361015610014575f80fd5b5f925f3560e01c908163086146d214610e0557508063350415af14610dd65780633e413bee14610dae57806340bd2e23146109c45780635ee7a9421461099c5780636128ce501461095c578063715018a6146109185780637964293c146108f05780638109873c146108c85780638a570a12146105005780638da5cb5b146104d857806395ccea6714610442578063967a1d45146104235780639c9c5d0c146103fa578063f2fde38b14610388578063f8c8765e14610184578063fee7ad5a146101575763ff86ad55146100e6575f80fd5b346101535782600319360112610153576100fe611075565b600554905f19821461014057507f836e7fc3eb64d45400ae2936f7d89cb08de8febae9a61c9ed58f0cd2afad607291600160209201908160055551908152a180f35b634e487b7160e01b845260119052602483fd5b8280fd5b50503461018057816003193601126101805760025490516001600160a01b039091168152602090f35b5080fd5b5090346101535760803660031901126101535761019f610e1f565b906101a8610e35565b906044356001600160a01b03818116929183900361038457606435948186168096036103845781906101d8611075565b1693841561032757169081156102ca578215610273578415610222575060018060a01b03199283600154161760015582600254161760025581600354161760035582541617905580f35b5162461bcd60e51b8152602081870152602660248201527f5969656c644469737472696275746f723a20696e76616c69642055534443206160448201526564647265737360d01b6064820152608490fd5b5162461bcd60e51b8152602081870152602c60248201527f5969656c644469737472696275746f723a20696e76616c69642072656e74207660448201526b61756c74206164647265737360a01b6064820152608490fd5b5162461bcd60e51b8152602081870152603260248201527f5969656c644469737472696275746f723a20696e76616c6964206361736820666044820152716c6f7720656e67696e65206164647265737360701b6064820152608490fd5b825162461bcd60e51b8152602081890152603160248201527f5969656c644469737472696275746f723a20696e76616c69642070726f706572604482015270747920736861726573206164647265737360781b6064820152608490fd5b5f80fd5b5034610153576020366003190112610153576103a2610e1f565b906103ab611075565b6001600160a01b039182169283156103e45750505f548260018060a01b03198216175f55165f805160206110a18339815191525f80a380f35b51631e4fbdf760e01b8152908101849052602490fd5b50503461018057816003193601126101805760035490516001600160a01b039091168152602090f35b5050346101805781600319360112610180576020906005549051908152f35b5082903461018057826003193601126101805761045d610e1f565b610465611075565b6001600160a01b038181161561048957610486939450602435925416610ff7565b80f35b845162461bcd60e51b8152602081850152602360248201527f5969656c644469737472696275746f723a20696e76616c696420726563697069604482015262195b9d60ea1b6064820152608490fd5b505034610180578160031936011261018057905490516001600160a01b039091168152602090f35b5034610384575f36600319011261038457610519611075565b610521610fc8565b6002548251636a18890b60e11b8152602093916001600160a01b0390859083908690829085165afa9182156108be575f9261088f575b5081156108375780858592600154168551968780926318160ddd60e01b82525afa94851561082d575f956107fe575b5084156107b1576005545f526008865284845f20556005545f526006865282845f205581868260035416865192838092629032ff60e51b82525afa90811561071d5790889392915f91610780575b50808511610680575b506003541690813b15610153578291604483928751948593849263f3fef3a360e01b845230908401528860248401525af180156106765761065e575b50507ff571bb88b0ec5dc25398fc62c69d5970d50ea313a0a6596b0ca7f0197d37383f92600554948351928352820152a260015f805160206110c18339815191525580f35b61066790610e4b565b61067257845f610619565b8480fd5b84513d84823e3d90fd5b90919250830383811161076d578287836002541687519283809263a1df2abb60e01b82525afa908115610763579089949392915f91610727575b50821690816106ca575b506105dd565b9080929394503b15610384575f91602483928851948593849263d9b3e92f60e01b8452898401525af1801561071d57610708575b90818893926106c4565b61071491929750610e4b565b5f95905f6106fe565b85513d5f823e3d90fd5b80929550898092503d831161075c575b6107418183610e72565b810103126103845751928184168403610384578893826106ba565b503d610737565b86513d5f823e3d90fd5b601183634e487b7160e01b5f525260245ffd5b809450888092503d83116107aa575b6107998183610e72565b81010312610384578792515f6105d4565b503d61078f565b835162461bcd60e51b8152808301879052602160248201527f5969656c644469737472696275746f723a206e6f2073686172657320657869736044820152601d60fa1b6064820152608490fd5b9094508581813d8311610826575b6108168183610e72565b810103126103845751935f610586565b503d61080c565b84513d5f823e3d90fd5b825162461bcd60e51b8152808501869052602c60248201527f5969656c644469737472696275746f723a206e6f20646973747269627574616260448201526b6c65206361736820666c6f7760a01b6064820152608490fd5b9091508481813d83116108b7575b6108a78183610e72565b810103126103845751905f610557565b503d61089d565b83513d5f823e3d90fd5b50903461038457602036600319011261038457602091355f5260068252805f20549051908152f35b8234610384575f3660031901126103845760015490516001600160a01b039091168152602090f35b34610384575f36600319011261038457610930611075565b5f80546001600160a01b0319811682556001600160a01b03165f805160206110a18339815191528280a3005b509034610384578060031936011261038457602091610979610e35565b90355f5260078352815f209060018060a01b03165f528252805f20549051908152f35b50903461038457602036600319011261038457602091355f5260088252805f20549051908152f35b5090346103845760209081600319360112610384578235916109e4610fc8565b6005548311610d5b57825f5260068152815f205415610d065760015482516370a0823160e01b808252338783015293916001600160a01b0391602491859082908490829087165afa90811561082d575f91610cd9575b508015610c8657865f5260078552835f20335f528552835f2054610c3a57865f5260088552835f2054908115610bed5790610a82610a8792895f5260068852865f2054610e95565b610ebc565b948515610b9a57848389541691838651809481938252308d8301525afa90811561082d579086915f91610b69575b5010610b1c5750838596610b02927f10d8dedfc0745b8c25ba10b06e304138b251c18dcaadf2d71c7f3214719dc4d196975f5260078652845f20335f52865282855f205533915416610ff7565b519283523392a360015f805160206110c183398151915255005b866084918585519262461bcd60e51b8452830152808201527f5969656c644469737472696275746f723a20696e73756666696369656e742066604482015263756e647360e01b6064820152fd5b809250868092503d8311610b93575b610b828183610e72565b810103126103845785905189610ab5565b503d610b78565b835162461bcd60e51b81528089018690526028818401527f5969656c644469737472696275746f723a207969656c6420616d6f756e7420746044820152671bdbc81cdb585b1b60c21b6064820152608490fd5b845162461bcd60e51b8152808a018790526022818501527f5969656c644469737472696275746f723a20696e76616c696420736e617073686044820152611bdd60f21b6064820152608490fd5b835162461bcd60e51b81528089018690526021818401527f5969656c644469737472696275746f723a20616c726561647920636c61696d656044820152601960fa1b6064820152608490fd5b835162461bcd60e51b81528089018690526028818401527f5969656c644469737472696275746f723a206e6f2073686172657320746f20636044820152673630b4b6903337b960c11b6064820152608490fd5b90508481813d8311610cff575b610cf08183610e72565b81010312610384575188610a3a565b503d610ce6565b8390608492519162461bcd60e51b8352820152602a60248201527f5969656c644469737472696275746f723a206e6f207969656c6420666f7220746044820152691a1a5cc81c195c9a5bd960b21b6064820152fd5b8390608492519162461bcd60e51b8352820152602860248201527f5969656c644469737472696275746f723a20706572696f64206e6f74206469736044820152671d1c9a589d5d195960c21b6064820152fd5b509034610384575f36600319011261038457905490516001600160a01b039091168152602090f35b8234610384578060031936011261038457602090610dfe610df5610e1f565b60243590610eda565b9051908152f35b34610384575f366003190112610384576020906005548152f35b600435906001600160a01b038216820361038457565b602435906001600160a01b038216820361038457565b6001600160401b038111610e5e57604052565b634e487b7160e01b5f52604160045260245ffd5b601f909101601f19168101906001600160401b03821190821017610e5e57604052565b81810292918115918404141715610ea857565b634e487b7160e01b5f52601160045260245ffd5b8115610ec6570490565b634e487b7160e01b5f52601260045260245ffd5b60055482118015610fb4575b610fae57815f52602060078152604092835f209260018060a01b0380911693845f528352845f2054610fa5578290600154169360248651809681936370a0823160e01b835260048301525afa92831561082d575f93610f76575b508215610f6e575f5260088152825f2054918215610f6e57610f6b936006610a8293525f2054610e95565b90565b505050505f90565b9092508181813d8311610f9e575b610f8e8183610e72565b810103126103845751915f610f40565b503d610f84565b50505050505f90565b50505f90565b50815f52600660205260405f205415610ee6565b5f805160206110c18339815191526002815414610fe55760029055565b604051633ee5aeb560e01b8152600490fd5b60405163a9059cbb60e01b5f9081526001600160a01b039384166004526024949094529260209060448180855af160015f5114811615611056575b836040521561104057505050565b635274afe760e01b835216600482015260249150fd5b600181151661106c57813b15153d151616611032565b833d5f823e3d90fd5b5f546001600160a01b0316330361108857565b60405163118cdaa760e01b8152336004820152602490fdfe8be0079c531659141344cd1fd0a4f28419497f9722a3daafe3b4186f6b6457e09b779b17422d0df92223018b32b4d1fa46e071723d6817e2486d003becc55f00a2646970667358221220cb464717f43011633e1f9333faeb1a6fefd73c4b281fc84cea72c8668ea07aa064736f6c634300081800336080346200020557601f62001a8938819003918201601f191683019291906001600160401b0384118385101762000209578160609284926040968752833981010312620002055762000051816200021d565b908262000061602083016200021d565b916001600160a01b039182916200007991016200021d565b16918215620001ee57815f549460018060a01b03199480868816175f5582885197167f8be0079c531659141344cd1fd0a4f28419497f9722a3daafe3b4186f6b6457e05f80a360017f9b779b17422d0df92223018b32b4d1fa46e071723d6817e2486d003becc55f005516938415620001995750169182156200013c578160025416176002556003541617600355686c6b935b8bbd400000600555683635c9adc5dea00000600655600160ff196007541617600755516118569081620002338239f35b835162461bcd60e51b815260206004820152603060248201527f5969656c64537461636b696e674d616e616765723a20696e76616c696420726560448201526f6e74207661756c74206164647265737360801b6064820152608490fd5b62461bcd60e51b815260206004820152602a60248201527f5969656c64537461636b696e674d616e616765723a20696e76616c69642055536044820152694443206164647265737360b01b6064820152608490fd5b8451631e4fbdf760e01b81525f6004820152602490fd5b5f80fd5b634e487b7160e01b5f52604160045260245ffd5b51906001600160a01b0382168203620002055756fe6080604090808252600480361015610015575f80fd5b5f3560e01c918263080c279a14610e0e57508163086146d214610d85578163137c3f6914610c0e5781632b1dc88414610bf25781632ca6be1f14610ba55781632e2ad07914610b875781633519118114610b255781633e413bee14610afd578163627d95e414610ada578163715018a614610a965781637b7d3f931461092d57816380499078146109115781638501de01146108ee5781638da5cb5b146108c75781639c9c5d0c1461089f578163a7f8a5e214610877578163aab483d61461082a578163b0462296146107dd578163bd28f351146107bf578163c2c7b652146107a3578163c89a91db1461077c578163d9b3e92f14610412578163db2e21bc146102ad578163f2fde38b14610239578163feab893914610191578163fee7ad5a1461016a575063ff50abdc14610149575f80fd5b34610166575f366003190112610166576020906008549051908152f35b5f80fd5b8234610166575f36600319011261016657905490516001600160a01b039091168152602090f35b82346101665760203660031901126101665781356001600160a01b0381169190829003610166576101c0611213565b81156101d8575081546001600160a01b031916179055005b5162461bcd60e51b8152602081840152603660248201527f5969656c64537461636b696e674d616e616765723a20696e76616c6964206361604482015275736820666c6f7720656e67696e65206164647265737360501b6064820152608490fd5b8234610166576020366003190112610166576001600160a01b038235818116939192908490036101665761026b611213565b83156102975750505f548260018060a01b03198216175f55165f805160206117c18339815191525f80a3005b905f6024925191631e4fbdf760e01b8352820152fd5b8234610166575f366003190112610166576102c6611213565b6102ce61123e565b6001546001600160a01b03929083166102e8811515610fb8565b82516370a0823160e01b81523083820152906020908183602481845afa928315610408575f936103d9575b508261032d575b60015f805160206117e183398151915255005b61035282915f958751968780948193635d043b2960e11b835230908a309185016111f3565b03925af19283156103cf575f9361039c575b5061038883865f805160206118018339815191529760025416906003541690611702565b8351928352820152a180808080808061031a565b9492508085813d83116103c8575b6103b48183610e28565b810103126101665793519193610388610364565b503d6103aa565b84513d5f823e3d90fd5b9092508181813d8311610401575b6103f18183610e28565b8101031261016657519186610313565b503d6103e7565b85513d5f823e3d90fd5b82346101665760209182600319360112610166575f546001600160a01b03938235929185163314801561076f575b8015610763575b80156106fd575b61045790610f60565b61045f61123e565b846001541692610470841515610fb8565b80159261047d8415611188565b8551630a28a47760e01b8152818101839052938385602481895afa94851561064b575f956106ce575b508651636c82bbbf60e11b8152308382015284816024818a5afa9081156106c4575f91610697575b508511610655578387518097635d043b2960e11b8252815f816104f530308d8b85016111f3565b03925af195861561064b575f9661061c575b506101f4908184029184830414171561060957612710610528910483611031565b85106105be5750835f80516020611801833981519152968261055c93831015610578575b5060025460035482169116611702565b8351928352820152a160015f805160206117e183398151915255005b6105829083611031565b848161058f575b5061054c565b7f0fdcac51e9ac7e6c32c155794ef3971695f83dd47a7982cbfd4a7e2fe991c7cc918951908152a18884610589565b855162461bcd60e51b8152908101839052603260248201525f805160206117a18339815191526044820152711b9d08185cdcd95d1cc81c9958d95a5d995960721b6064820152608490fd5b601182634e487b7160e01b5f525260245ffd5b9095508381813d8311610644575b6106348183610e28565b8101031261016657519488610507565b503d61062a565b87513d5f823e3d90fd5b865162461bcd60e51b8152808301859052602960248201525f805160206117a18339815191526044820152686e742073686172657360b81b6064820152608490fd5b90508481813d83116106bd575b6106ae8183610e28565b810103126101665751896104ce565b503d6106a4565b88513d5f823e3d90fd5b9094508381813d83116106f6575b6106e68183610e28565b81010312610166575193886104a6565b503d6106dc565b5081818660035416865192838092638da5cb5b60e01b82525afa908115610408576104579187915f91610736575b50163314905061044e565b6107569150843d861161075c575b61074e8183610e28565b810190610e5f565b8861072b565b503d610744565b50848254163314610447565b5084600354163314610440565b823461016657602036600319011261016657602091355f52600a8252805f20549051908152f35b8234610166575f36600319011261016657602090516101f48152f35b8234610166575f366003190112610166576020906009549051908152f35b346101665760203660031901126101665761031a90356107fb611213565b61080361123e565b60015461081a906001600160a01b03161515610fb8565b610825811515611188565b61126d565b905034610166576020366003190112610166577fca2e9e3e71d8dcab383b61e219dc9f736ee812dbb08aff666933b85949553d3991602091359061086c611213565b8160065551908152a1005b8234610166575f3660031901126101665760015490516001600160a01b039091168152602090f35b8234610166575f3660031901126101665760035490516001600160a01b039091168152602090f35b8234610166575f366003190112610166575f5490516001600160a01b039091168152602090f35b8234610166575f3660031901126101665760209061090a61114a565b9051908152f35b8234610166575f3660031901126101665760209061090a61103e565b905034610166575f366003190112610166575f546001600160a01b039290831633148015610a89575b8015610a7d575b8015610a1a575b61096d90610f60565b61097561123e565b60ff60075416156109c35761098f83600154161515610fb8565b61099761103e565b6006548110156109b45760015f805160206117e183398151915255005b6109bd9061126d565b8061031a565b906020608492519162461bcd60e51b8352820152602b60248201527f5969656c64537461636b696e674d616e616765723a206175746f2d6465706f7360448201526a1a5d08191a5cd8589b195960aa1b6064820152fd5b508160208460035416835192838092638da5cb5b60e01b82525afa908115610a735761096d9185915f91610a54575b501633149050610964565b610a6d915060203d60201161075c5761074e8183610e28565b5f610a49565b82513d5f823e3d90fd5b5082825416331461095d565b5082600354163314610956565b34610166575f36600319011261016657610aae611213565b5f80546001600160a01b0319811682556001600160a01b03165f805160206117c18339815191528280a3005b8234610166575f3660031901126101665760209060ff6007541690519015158152f35b8234610166575f3660031901126101665760025490516001600160a01b039091168152602090f35b905034610166576020366003190112610166573590811515809203610166577f8eeec181d36d9012eaaed8d7860cb5fa6e815254a5a2fa238fb197c03732247e91602091610b71611213565b60ff196007541660ff83161760075551908152a1005b8234610166575f366003190112610166576020906005549051908152f35b905034610166576020366003190112610166577f9530355cac0969404662db60e90664d90fdf47c37c69fa53616fc509fde4c294916020913590610be7611213565b8160055551908152a1005b8234610166575f3660031901126101665760209061090a610e7e565b905034610166576020806003193601126101665781356001600160a01b03818116949185900361016657610c40611213565b8415610d2f5781516338d52e0f60e01b81529083828681895afa918215610d25575f92610d06575b508060025416911603610cae57600180546001600160a01b03191685179055837ff2a68c50468a5edde97a8d5f74eed762dfa952416e57cb30e2494df93a6fc7775f80a2005b5162461bcd60e51b815291820152602e60248201527f5969656c64537461636b696e674d616e616765723a207661756c74206173736560448201526d74206d757374206265205553444360901b606482015260849150fd5b610d1e919250843d861161075c5761074e8183610e28565b905f610c68565b83513d5f823e3d90fd5b505162461bcd60e51b815291820152602b60248201527f5969656c64537461636b696e674d616e616765723a20696e76616c696420766160448201526a756c74206164647265737360a81b606482015260849150fd5b8234610166575f36600319011261016657600354815162c080c360e31b81529260209184919082906001600160a01b03165afa908115610e05575f91610dd0575b6020925051908152f35b90506020823d602011610dfd575b81610deb60209383610e28565b81010312610166576020915190610dc6565b3d9150610dde565b513d5f823e3d90fd5b34610166575f366003190112610166576020906006548152f35b601f909101601f19168101906001600160401b03821190821017610e4b57604052565b634e487b7160e01b5f52604160045260245ffd5b9081602091031261016657516001600160a01b03811681036101665790565b6001546001600160a01b03168015610f5b576040516370a0823160e01b8152306004820152602091908281602481855afa908115610f1c575f91610f2e575b508015610f275782906024604051809481936303d1689d60e11b835260048301525afa918215610f1c575f92610ef257505090565b90809250813d8311610f15575b610f098183610e28565b81010312610166575190565b503d610eff565b6040513d5f823e3d90fd5b5050505f90565b90508281813d8311610f54575b610f458183610e28565b8101031261016657515f610ebd565b503d610f3b565b505f90565b15610f6757565b60405162461bcd60e51b8152602060048201526024808201527f5969656c64537461636b696e674d616e616765723a206e6f7420617574686f726044820152631a5e995960e21b6064820152608490fd5b15610fbf57565b60405162461bcd60e51b815260206004820152602360248201527f5969656c64537461636b696e674d616e616765723a207661756c74206e6f74206044820152621cd95d60ea1b6064820152608490fd5b9190820180921161101d57565b634e487b7160e01b5f52601160045260245ffd5b9190820391821161101d57565b6002546003546040516370a0823160e01b81526001600160a01b039182166004820152909160209081908390602490829087165afa918215610f1c575f9261111b575b505f9260045416806110ba575b50506005549061109e8284611010565b811115610f27576110b7926110b291611031565b611031565b90565b8192935090600491604051928380926338831e1d60e21b82525afa918215610f1c575f926110ed575b5050905f8061108e565b90809250813d8311611114575b6111048183610e28565b8101031261016657515f806110e3565b503d6110fa565b9080925081813d8311611143575b6111338183610e28565b810103126101665751905f611081565b503d611129565b6001546001600160a01b031615611184576008548015610f5b5761116c610e7e565b908082111561117e576110b791611031565b50505f90565b5f90565b1561118f57565b60405162461bcd60e51b815260206004820152603660248201527f5969656c64537461636b696e674d616e616765723a20616d6f756e74206d7573604482015275742062652067726561746572207468616e207a65726f60501b6064820152608490fd5b9081526001600160a01b0391821660208201529116604082015260600190565b5f546001600160a01b0316330361122657565b60405163118cdaa760e01b8152336004820152602490fd5b5f805160206117e1833981519152600281541461125b5760029055565b604051633ee5aeb560e01b8152600490fd5b600254600354604080516370a0823160e01b81526001600160a01b0392831660048083018290526020969590946024935f939192899082908790829087165afa908115611685579088915f916116d1575b501061168f57803b15610166575f90818651809263f3fef3a360e01b8252308a8301528a888301528160449586925af1801561168557611658575b5060018054865163ef8b30f760e01b81528881018a905295919084168a878481845afa96871561164e57869761161f575b5086156115ca5790888b86938c8560025416928c51918363095ea7b360e01b96875f525288525f898180875af1855f51148116156115bd575b818d52156114ff575b505050505416948989848a888b519a8b948593636e553f6560e01b855284015230888401525af19586156114f55785966114c6575b50851061146b57505086906113b887600854611010565b600855426009556003541684519586809262c080c360e31b82525afa93841561145f57819461141d575b50905f805160206117818339815191529583838660609897969552600a83522061140d868254611010565b90558251948552840152820152a1565b94935091908585813d8311611458575b6114378183610e28565b81010312610166579351929390915f805160206117818339815191526113e2565b503d61142d565b508251903d90823e3d90fd5b7f5969656c64537461636b696e674d616e616765723a20736c6970706167652074608492603289938c8a519562461bcd60e51b8752860152840152820152711bdbc81a1a59da081bdb8819195c1bdcda5d60721b6064820152fd5b9095508981813d83116114ee575b6114de8183610e28565b810103126101665751945f6113a1565b503d6114d4565b87513d87823e3d90fd5b909192939450835f52818c525f86528d5f888180875af1855f511481161561159f575b818c521561158b57508951925f528a528a84528b5f868180855af1835f511481161561156d575b828a521561155b57808087949361136c565b635274afe760e01b8252898201529050fd5b8381151661158257813b15153d151616611549565b823d5f823e3d90fd5b635274afe760e01b81528b81018390528590fd5b858115166115b457833b15153d151616611522565b503d5f823e3d90fd5b833b15153d151616611363565b50865162461bcd60e51b81528089018b9052602a818401527f5969656c64537461636b696e674d616e616765723a207a65726f20736861726581850152691cc8195e1c1958dd195960b21b6064820152608490fd5b9096508a81813d8311611647575b6116378183610e28565b810103126101665751955f61132a565b503d61162d565b88513d88823e3d90fd5b9092506001600160401b0381116116735784525f915f6112f9565b83604187634e487b7160e01b5f52525ffd5b86513d5f823e3d90fd5b845162461bcd60e51b8152808701899052602a818601525f805160206117a18339815191526044820152696e742062616c616e636560b01b6064820152608490fd5b8092508a8092503d83116116fb575b6116ea8183610e28565b81010312610166578790515f6112be565b503d6116e0565b60405163a9059cbb60e01b5f9081526001600160a01b039384166004526024949094529260209060448180855af160015f5114811615611761575b836040521561174b57505050565b635274afe760e01b835216600482015260249150fd5b600181151661177757813b15153d15161661173d565b833d5f823e3d90fdfeed2de103da084463a1b2895568d352fd796dfd1d033c0e8ee9fabe73a67153895969656c64537461636b696e674d616e616765723a20696e73756666696369658be0079c531659141344cd1fd0a4f28419497f9722a3daafe3b4186f6b6457e09b779b17422d0df92223018b32b4d1fa46e071723d6817e2486d003becc55f00d66662c0ded9e58fd31d5e44944bcfd07ffc15e6927ecc1382e7941cb7bd24c4a2646970667358221220e348421878c431049d85dffe9b1895138e3fe964f40a85686e07b701f8ca471964736f6c63430008180033a2646970667358221220f2cd3c7799654a688de34121f18b79b91f047e5043a6c9e70cdc2e9f68f69e5964736f6c63430008180033","linkReferences":{}},"methodIdentifiers":{"initializeSystem(address,(string,uint256,uint256,string),uint256,address,address,uint256,uint256,bool)":"26234e53"},"id":8}