{"abi":[{"type":"constructor","inputs":[{"name":"initialOwner","type":"address","internalType":"address"}],"stateMutability":"nonpayable"},{"type":"function","name":"approve","inputs":[{"name":"to","type":"address","internalType":"address"},{"name":"tokenId","type":"uint256","internalType":"uint256"}],"outputs":[],"stateMutability":"nonpayable"},{"type":"function","name":"balanceOf","inputs":[{"name":"owner","type":"address","internalType":"address"}],"outputs":[{"name":"","type":"uint256","internalType":"uint256"}],"stateMutability":"view"},{"type":"function","name":"getApproved","inputs":[{"name":"tokenId","type":"uint256","internalType":"uint256"}],"outputs":[{"name":"","type":"address","internalType":"address"}],"stateMutability":"view"},{"type":"function","name":"getPropertyData","inputs":[{"name":"tokenId","type":"uint256","internalType":"uint256"}],"outputs":[{"name":"","type":"tuple","internalType":"struct IPropertyNFT.PropertyData","components":[{"name":"location","type":"string","internalType":"string"},{"name":"valuation","type":"uint256","internalType":"uint256"},{"name":"monthlyRent","type":"uint256","internalType":"uint256"},{"name":"metadataURI","type":"string","internalType":"string"}]}],"stateMutability":"view"},{"type":"function","name":"isApprovedForAll","inputs":[{"name":"owner","type":"address","internalType":"address"},{"name":"operator","type":"address","internalType":"address"}],"outputs":[{"name":"","type":"bool","internalType":"bool"}],"stateMutability":"view"},{"type":"function","name":"mintProperty","inputs":[{"name":"to","type":"address","internalType":"address"},{"name":"data","type":"tuple","internalType":"struct IPropertyNFT.PropertyData","components":[{"name":"location","type":"string","internalType":"string"},{"name":"valuation","type":"uint256","internalType":"uint256"},{"name":"monthlyRent","type":"uint256","internalType":"uint256"},{"name":"metadataURI","type":"string","internalType":"string"}]}],"outputs":[{"name":"","type":"uint256","internalType":"uint256"}],"stateMutability":"nonpayable"},{"type":"function","name":"name","inputs":[],"outputs":[{"name":"","type":"string","internalType":"string"}],"stateMutability":"view"},{"type":"function","name":"nextTokenId","inputs":[],"outputs":[{"name":"","type":"uint256","internalType":"uint256"}],"stateMutability":"view"},{"type":"function","name":"owner","inputs":[],"outputs":[{"name":"","type":"address","internalType":"address"}],"stateMutability":"view"},{"type":"function","name":"ownerOf","inputs":[{"name":"tokenId","type":"uint256","internalType":"uint256"}],"outputs":[{"name":"","type":"address","internalType":"address"}],"stateMutability":"view"},{"type":"function","name":"renounceOwnership","inputs":[],"outputs":[],"stateMutability":"nonpayable"},{"type":"function","name":"safeTransferFrom","inputs":[{"name":"from","type":"address","internalType":"address"},{"name":"to","type":"address","internalType":"address"},{"name":"tokenId","type":"uint256","internalType":"uint256"}],"outputs":[],"stateMutability":"nonpayable"},{"type":"function","name":"safeTransferFrom","inputs":[{"name":"from","type":"address","internalType":"address"},{"name":"to","type":"address","internalType":"address"},{"name":"tokenId","type":"uint256","internalType":"uint256"},{"name":"data","type":"bytes","internalType":"bytes"}],"outputs":[],"stateMutability":"nonpayable"},{"type":"function","name":"setApprovalForAll","inputs":[{"name":"operator","type":"address","internalType":"address"},{"name":"approved","type":"bool","internalType":"bool"}],"outputs":[],"stateMutability":"nonpayable"},{"type":"function","name":"supportsInterface","inputs":[{"name":"interfaceId","type":"bytes4","internalType":"bytes4"}],"outputs":[{"name":"","type":"bool","internalType":"bool"}],"stateMutability":"view"},{"type":"function","name":"symbol","inputs":[],"outputs":[{"name":"","type":"string","internalType":"string"}],"stateMutability":"view"},{"type":"function","name":"tokenURI","inputs":[{"name":"tokenId","type":"uint256","internalType":"uint256"}],"outputs":[{"name":"","type":"string","internalType":"string"}],"stateMutability":"view"},{"type":"function","name":"transferFrom","inputs":[{"name":"from","type":"address","internalType":"address"},{"name":"to","type":"address","internalType":"address"},{"name":"tokenId","type":"uint256","internalType":"uint256"}],"outputs":[],"stateMutability":"nonpayable"},{"type":"function","name":"transferOwnership","inputs":[{"name":"newOwner","type":"address","internalType":"address"}],"outputs":[],"stateMutability":"nonpayable"},{"type":"event","name":"Approval","inputs":[{"name":"owner","type":"address","indexed":true,"internalType":"address"},{"name":"approved","type":"address","indexed":true,"internalType":"address"},{"name":"tokenId","type":"uint256","indexed":true,"internalType":"uint256"}],"anonymous":false},{"type":"event","name":"ApprovalForAll","inputs":[{"name":"owner","type":"address","indexed":true,"internalType":"address"},{"name":"operator","type":"address","indexed":true,"internalType":"address"},{"name":"approved","type":"bool","indexed":false,"internalType":"bool"}],"anonymous":false},{"type":"event","name":"OwnershipTransferred","inputs":[{"name":"previousOwner","type":"address","indexed":true,"internalType":"address"},{"name":"newOwner","type":"address","indexed":true,"internalType":"address"}],"anonymous":false},{"type":"event","name":"Transfer","inputs":[{"name":"from","type":"address","indexed":true,"internalType":"address"},{"name":"to","type":"address","indexed":true,"internalType":"address"},{"name":"tokenId","type":"uint256","indexed":true,"internalType":"uint256"}],"anonymous":false},{"type":"error","name":"ERC721IncorrectOwner","inputs":[{"name":"sender","type":"address","internalType":"address"},{"name":"tokenId","type":"uint256","internalType":"uint256"},{"name":"owner","type":"address","internalType":"address"}]},{"type":"error","name":"ERC721InsufficientApproval","inputs":[{"name":"operator","type":"address","internalType":"address"},{"name":"tokenId","type":"uint256","internalType":"uint256"}]},{"type":"error","name":"ERC721InvalidApprover","inputs":[{"name":"approver","type":"address","internalType":"address"}]},{"type":"error","name":"ERC721InvalidOperator","inputs":[{"name":"operator","type":"address","internalType":"address"}]},{"type":"error","name":"ERC721InvalidOwner","inputs":[{"name":"owner","type":"address","internalType":"address"}]},{"type":"error","name":"ERC721InvalidReceiver","inputs":[{"name":"receiver","type":"address","internalType":"address"}]},{"type":"error","name":"ERC721InvalidSender","inputs":[{"name":"sender","type":"address","internalType":"address"}]},{"type":"error","name":"ERC721NonexistentToken","inputs":[{"name":"tokenId","type":"uint256","internalType":"uint256"}]},{"type":"error","name":"OwnableInvalidOwner","inputs":[{"name":"owner","type":"address","internalType":"address"}]},{"type":"error","name":"OwnableUnauthorizedAccount","inputs":[{"name":"account","type":"address","internalType":"address"}]}],"bytecode":{"object":"0x608060405234801562000010575f80fd5b5060405162001a5538038062001a5583398101604081905262000033916200013a565b806040518060400160405280601481526020017f5265616c204573746174652050726f70657274790000000000000000000000008152506040518060400160405280600381526020016205245560ec1b815250815f908162000096919062000207565b506001620000a5828262000207565b5050506001600160a01b038116620000d657604051631e4fbdf760e01b81525f600482015260240160405180910390fd5b620000e181620000e9565b5050620002d3565b600680546001600160a01b038381166001600160a01b0319831681179093556040519116919082907f8be0079c531659141344cd1fd0a4f28419497f9722a3daafe3b4186f6b6457e0905f90a35050565b5f602082840312156200014b575f80fd5b81516001600160a01b038116811462000162575f80fd5b9392505050565b634e487b7160e01b5f52604160045260245ffd5b600181811c908216806200019257607f821691505b602082108103620001b157634e487b7160e01b5f52602260045260245ffd5b50919050565b601f8211156200020257805f5260205f20601f840160051c81016020851015620001de5750805b601f840160051c820191505b81811015620001ff575f8155600101620001ea565b50505b505050565b81516001600160401b0381111562000223576200022362000169565b6200023b816200023484546200017d565b84620001b7565b602080601f83116001811462000271575f8415620002595750858301515b5f19600386901b1c1916600185901b178555620002cb565b5f85815260208120601f198616915b82811015620002a15788860151825594840194600190910190840162000280565b5085821015620002bf57878501515f19600388901b60f8161c191681555b505060018460011b0185555b505050505050565b61177480620002e15f395ff3fe608060405234801561000f575f80fd5b506004361061011c575f3560e01c806375794a3c116100a9578063bb632ab81161006e578063bb632ab814610246578063c87b56dd14610266578063e985e9c514610279578063f2fde38b1461028c578063fd0e3fb71461029f575f80fd5b806375794a3c146101ff5780638da5cb5b1461020757806395d89b4114610218578063a22cb46514610220578063b88d4fde14610233575f80fd5b806323b872dd116100ef57806323b872dd1461019d57806342842e0e146101b05780636352211e146101c357806370a08231146101d6578063715018a6146101f7575f80fd5b806301ffc9a71461012057806306fdde0314610148578063081812fc1461015d578063095ea7b314610188575b5f80fd5b61013361012e366004611110565b6102b2565b60405190151581526020015b60405180910390f35b610150610303565b60405161013f9190611178565b61017061016b36600461118a565b610392565b6040516001600160a01b03909116815260200161013f565b61019b6101963660046111bc565b6103b9565b005b61019b6101ab3660046111e4565b6103c8565b61019b6101be3660046111e4565b610456565b6101706101d136600461118a565b610475565b6101e96101e436600461121d565b61047f565b60405190815260200161013f565b61019b6104c4565b6007546101e9565b6006546001600160a01b0316610170565b6101506104d7565b61019b61022e366004611236565b6104e6565b61019b610241366004611283565b6104f1565b61025961025436600461118a565b610509565b60405161013f9190611358565b61015061027436600461118a565b6106f1565b6101336102873660046113ad565b610762565b61019b61029a36600461121d565b61078f565b6101e96102ad3660046113de565b6107cc565b5f6001600160e01b031982166380ac58cd60e01b14806102e257506001600160e01b03198216635b5e139f60e01b145b806102fd57506301ffc9a760e01b6001600160e01b03198316145b92915050565b60605f805461031190611424565b80601f016020809104026020016040519081016040528092919081815260200182805461033d90611424565b80156103885780601f1061035f57610100808354040283529160200191610388565b820191905f5260205f20905b81548152906001019060200180831161036b57829003601f168201915b5050505050905090565b5f61039c826109bc565b505f828152600460205260409020546001600160a01b03166102fd565b6103c48282336109f4565b5050565b6001600160a01b0382166103f657604051633250574960e11b81525f60048201526024015b60405180910390fd5b5f610402838333610a01565b9050836001600160a01b0316816001600160a01b031614610450576040516364283d7b60e01b81526001600160a01b03808616600483015260248201849052821660448201526064016103ed565b50505050565b61047083838360405180602001604052805f8152506104f1565b505050565b5f6102fd826109bc565b5f6001600160a01b0382166104a9576040516322718ad960e21b81525f60048201526024016103ed565b506001600160a01b03165f9081526003602052604090205490565b6104cc610af3565b6104d55f610b20565b565b60606001805461031190611424565b6103c4338383610b71565b6104fc8484846103c8565b6104503385858585610c0f565b6105326040518060800160405280606081526020015f81526020015f8152602001606081525090565b5f828152600260205260409020546001600160a01b031661059f5760405162461bcd60e51b815260206004820152602160248201527f50726f70657274794e46543a20746f6b656e20646f6573206e6f7420657869736044820152601d60fa1b60648201526084016103ed565b5f82815260086020526040908190208151608081019092528054829082906105c690611424565b80601f01602080910402602001604051908101604052809291908181526020018280546105f290611424565b801561063d5780601f106106145761010080835404028352916020019161063d565b820191905f5260205f20905b81548152906001019060200180831161062057829003601f168201915b50505050508152602001600182015481526020016002820154815260200160038201805461066a90611424565b80601f016020809104026020016040519081016040528092919081815260200182805461069690611424565b80156106e15780601f106106b8576101008083540402835291602001916106e1565b820191905f5260205f20905b8154815290600101906020018083116106c457829003601f168201915b5050505050815250509050919050565b60606106fc826109bc565b505f61071260408051602081019091525f815290565b90505f8151116107305760405180602001604052805f81525061075b565b8061073a84610d37565b60405160200161074b92919061145c565b6040516020818303038152906040525b9392505050565b6001600160a01b039182165f90815260056020908152604080832093909416825291909152205460ff1690565b610797610af3565b6001600160a01b0381166107c057604051631e4fbdf760e01b81525f60048201526024016103ed565b6107c981610b20565b50565b5f6107d5610af3565b6001600160a01b03831661083c5760405162461bcd60e51b815260206004820152602860248201527f50726f70657274794e46543a2063616e6e6f74206d696e7420746f207a65726f604482015267206164647265737360c01b60648201526084016103ed565b5f8260200135116108a85760405162461bcd60e51b815260206004820152603060248201527f50726f70657274794e46543a2076616c756174696f6e206d757374206265206760448201526f726561746572207468616e207a65726f60801b60648201526084016103ed565b5f8260400135116109175760405162461bcd60e51b815260206004820152603360248201527f50726f70657274794e46543a206d6f6e74686c792072656e74206d7573742062604482015272652067726561746572207468616e207a65726f60681b60648201526084016103ed565b5f610922838061148a565b90501161097f5760405162461bcd60e51b815260206004820152602560248201527f50726f70657274794e46543a206c6f636174696f6e2063616e6e6f7420626520604482015264656d70747960d81b60648201526084016103ed565b600780545f918261098f836114d4565b909155505f81815260086020526040902090915083906109af82826115f6565b90505061075b8482610dc7565b5f818152600260205260408120546001600160a01b0316806102fd57604051637e27328960e01b8152600481018490526024016103ed565b6104708383836001610de0565b5f828152600260205260408120546001600160a01b0390811690831615610a2d57610a2d818486610ee4565b6001600160a01b03811615610a6757610a485f855f80610de0565b6001600160a01b0381165f90815260036020526040902080545f190190555b6001600160a01b03851615610a95576001600160a01b0385165f908152600360205260409020805460010190555b5f8481526002602052604080822080546001600160a01b0319166001600160a01b0389811691821790925591518793918516917fddf252ad1be2c89b69c2b068fc378daa952ba7f163c4a11628f55a4df523b3ef91a4949350505050565b6006546001600160a01b031633146104d55760405163118cdaa760e01b81523360048201526024016103ed565b600680546001600160a01b038381166001600160a01b0319831681179093556040519116919082907f8be0079c531659141344cd1fd0a4f28419497f9722a3daafe3b4186f6b6457e0905f90a35050565b6001600160a01b038216610ba357604051630b61174360e31b81526001600160a01b03831660048201526024016103ed565b6001600160a01b038381165f81815260056020908152604080832094871680845294825291829020805460ff191686151590811790915591519182527f17307eab39ab6107e8899845ad3d59bd9653f200f220920489ca2b5937696c31910160405180910390a3505050565b6001600160a01b0383163b15610d3057604051630a85bd0160e11b81526001600160a01b0384169063150b7a0290610c519088908890879087906004016116e7565b6020604051808303815f875af1925050508015610c8b575060408051601f3d908101601f19168201909252610c8891810190611723565b60015b610cf2573d808015610cb8576040519150601f19603f3d011682016040523d82523d5f602084013e610cbd565b606091505b5080515f03610cea57604051633250574960e11b81526001600160a01b03851660048201526024016103ed565b805160208201fd5b6001600160e01b03198116630a85bd0160e11b14610d2e57604051633250574960e11b81526001600160a01b03851660048201526024016103ed565b505b5050505050565b60605f610d4383610f48565b60010190505f8167ffffffffffffffff811115610d6257610d6261126f565b6040519080825280601f01601f191660200182016040528015610d8c576020820181803683370190505b5090508181016020015b5f19016f181899199a1a9b1b9c1cb0b131b232b360811b600a86061a8153600a8504945084610d9657509392505050565b6103c4828260405180602001604052805f81525061101f565b8080610df457506001600160a01b03821615155b15610eb5575f610e03846109bc565b90506001600160a01b03831615801590610e2f5750826001600160a01b0316816001600160a01b031614155b8015610e425750610e408184610762565b155b15610e6b5760405163a9fbf51f60e01b81526001600160a01b03841660048201526024016103ed565b8115610eb35783856001600160a01b0316826001600160a01b03167f8c5be1e5ebec7d5bd14f71427d1e84f3dd0314c0f7b2291e5b200ac8c7c3b92560405160405180910390a45b505b50505f90815260046020526040902080546001600160a01b0319166001600160a01b0392909216919091179055565b610eef838383611036565b610470576001600160a01b038316610f1d57604051637e27328960e01b8152600481018290526024016103ed565b60405163177e802f60e01b81526001600160a01b0383166004820152602481018290526044016103ed565b5f8072184f03e93ff9f4daa797ed6e38ed64bf6a1f0160401b8310610f865772184f03e93ff9f4daa797ed6e38ed64bf6a1f0160401b830492506040015b6d04ee2d6d415b85acef81000000008310610fb2576d04ee2d6d415b85acef8100000000830492506020015b662386f26fc100008310610fd057662386f26fc10000830492506010015b6305f5e1008310610fe8576305f5e100830492506008015b6127108310610ffc57612710830492506004015b6064831061100e576064830492506002015b600a83106102fd5760010192915050565b611029838361109a565b610470335f858585610c0f565b5f6001600160a01b038316158015906110925750826001600160a01b0316846001600160a01b0316148061106f575061106f8484610762565b8061109257505f828152600460205260409020546001600160a01b038481169116145b949350505050565b6001600160a01b0382166110c357604051633250574960e11b81525f60048201526024016103ed565b5f6110cf83835f610a01565b90506001600160a01b03811615610470576040516339e3563760e11b81525f60048201526024016103ed565b6001600160e01b0319811681146107c9575f80fd5b5f60208284031215611120575f80fd5b813561075b816110fb565b5f5b8381101561114557818101518382015260200161112d565b50505f910152565b5f815180845261116481602086016020860161112b565b601f01601f19169290920160200192915050565b602081525f61075b602083018461114d565b5f6020828403121561119a575f80fd5b5035919050565b80356001600160a01b03811681146111b7575f80fd5b919050565b5f80604083850312156111cd575f80fd5b6111d6836111a1565b946020939093013593505050565b5f805f606084860312156111f6575f80fd5b6111ff846111a1565b925061120d602085016111a1565b9150604084013590509250925092565b5f6020828403121561122d575f80fd5b61075b826111a1565b5f8060408385031215611247575f80fd5b611250836111a1565b915060208301358015158114611264575f80fd5b809150509250929050565b634e487b7160e01b5f52604160045260245ffd5b5f805f8060808587031215611296575f80fd5b61129f856111a1565b93506112ad602086016111a1565b925060408501359150606085013567ffffffffffffffff808211156112d0575f80fd5b818701915087601f8301126112e3575f80fd5b8135818111156112f5576112f561126f565b604051601f8201601f19908116603f0116810190838211818310171561131d5761131d61126f565b816040528281528a6020848701011115611335575f80fd5b826020860160208301375f60208483010152809550505050505092959194509250565b602081525f82516080602084015261137360a084018261114d565b905060208401516040840152604084015160608401526060840151601f198483030160808501526113a4828261114d565b95945050505050565b5f80604083850312156113be575f80fd5b6113c7836111a1565b91506113d5602084016111a1565b90509250929050565b5f80604083850312156113ef575f80fd5b6113f8836111a1565b9150602083013567ffffffffffffffff811115611413575f80fd5b830160808186031215611264575f80fd5b600181811c9082168061143857607f821691505b60208210810361145657634e487b7160e01b5f52602260045260245ffd5b50919050565b5f835161146d81846020880161112b565b83519083019061148181836020880161112b565b01949350505050565b5f808335601e1984360301811261149f575f80fd5b83018035915067ffffffffffffffff8211156114b9575f80fd5b6020019150368190038213156114cd575f80fd5b9250929050565b5f600182016114f157634e487b7160e01b5f52601160045260245ffd5b5060010190565b601f82111561047057805f5260205f20601f840160051c8101602085101561151d5750805b601f840160051c820191505b81811015610d30575f8155600101611529565b67ffffffffffffffff8311156115545761155461126f565b611568836115628354611424565b836114f8565b5f601f841160018114611599575f85156115825750838201355b5f19600387901b1c1916600186901b178355610d30565b5f83815260208120601f198716915b828110156115c857868501358255602094850194600190920191016115a8565b50868210156115e4575f1960f88860031b161c19848701351681555b505060018560011b0183555050505050565b611600828361148a565b67ffffffffffffffff8111156116185761161861126f565b61162c816116268554611424565b856114f8565b5f601f82116001811461165d575f83156116465750838201355b5f19600385901b1c1916600184901b1785556116b4565b5f85815260208120601f198516915b8281101561168c578685013582556020948501946001909201910161166c565b50848210156116a8575f1960f88660031b161c19848701351681555b505060018360011b0185555b5050505060208201356001820155604082013560028201556116d9606083018361148a565b61045081836003860161153c565b6001600160a01b03858116825284166020820152604081018390526080606082018190525f906117199083018461114d565b9695505050505050565b5f60208284031215611733575f80fd5b815161075b816110fb56fea264697066735822122098d85cbfcf91c33a50460699a4f5ba223296cdc194278f4268f52d965744cb2364736f6c63430008180033","linkReferences":{}},"methodIdentifiers":{"approve(address,uint256)":"095ea7b3","balanceOf(address)":"70a08231","getApproved(uint256)":"081812fc","getPropertyData(uint256)":"bb632ab8","isApprovedForAll(address,address)":"e985e9c5","mintProperty(address,(string,uint256,uint256,string))":"fd0e3fb7","name()":"06fdde03","nextTokenId()":"75794a3c","owner()":"8da5cb5b","ownerOf(uint256)":"6352211e","renounceOwnership()":"715018a6","safeTransferFrom(address,address,uint256)":"42842e0e","safeTransferFrom(address,address,uint256,bytes)":"b88d4fde","setApprovalForAll(address,bool)":"a22cb465","supportsInterface(bytes4)":"01ffc9a7","symbol()":"95d89b41","tokenURI(uint256)":"c87b56dd","transferFrom(address,address,uint256)":"23b872dd","transferOwnership(address)":"f2fde38b"},"id":2}