{"abi":[{"type":"constructor","inputs":[{"name":"initialOwner","type":"address","internalType":"address"}],"stateMutability":"nonpayable"},{"type":"function","name":"approve","inputs":[{"name":"to","type":"address","internalType":"address"},{"name":"tokenId","type":"uint256","internalType":"uint256"}],"outputs":[],"stateMutability":"nonpayable"},{"type":"function","name":"balanceOf","inputs":[{"name":"owner","type":"address","internalType":"address"}],"outputs":[{"name":"","type":"uint256","internalType":"uint256"}],"stateMutability":"view"},{"type":"function","name":"getApproved","inputs":[{"name":"tokenId","type":"uint256","internalType":"uint256"}],"outputs":[{"name":"","type":"address","internalType":"address"}],"stateMutability":"view"},{"type":"function","name":"getPropertyData","inputs":[{"name":"tokenId","type":"uint256","internalType":"uint256"}],"outputs":[{"name":"","type":"tuple","internalType":"struct IPropertyNFT.PropertyData","components":[{"name":"location","type":"string","internalType":"string"},{"name":"valuation","type":"uint256","internalType":"uint256"},{"name":"monthlyRent","type":"uint256","internalType":"uint256"},{"name":"metadataURI","type":"string","internalType":"string"}]}],"stateMutability":"view"},{"type":"function","name":"isApprovedForAll","inputs":[{"name":"owner","type":"address","internalType":"address"},{"name":"operator","type":"address","internalType":"address"}],"outputs":[{"name":"","type":"bool","internalType":"bool"}],"stateMutability":"view"},{"type":"function","name":"mintProperty","inputs":[{"name":"to","type":"address","internalType":"address"},{"name":"data","type":"tuple","internalType":"struct IPropertyNFT.PropertyData","components":[{"name":"location","type":"string","internalType":"string"},{"name":"valuation","type":"uint256","internalType":"uint256"},{"name":"monthlyRent","type":"uint256","internalType":"uint256"},{"name":"metadataURI","type":"string","internalType":"string"}]}],"outputs":[{"name":"","type":"uint256","internalType":"uint256"}],"stateMutability":"nonpayable"},{"type":"function","name":"name","inputs":[],"outputs":[{"name":"","type":"string","internalType":"string"}],"stateMutability":"view"},{"type":"function","name":"nextTokenId","inputs":[],"outputs":[{"name":"","type":"uint256","internalType":"uint256"}],"stateMutability":"view"},{"type":"function","name":"owner","inputs":[],"outputs":[{"name":"","type":"address","internalType":"address"}],"stateMutability":"view"},{"type":"function","name":"ownerOf","inputs":[{"name":"tokenId","type":"uint256","internalType":"uint256"}],"outputs":[{"name":"","type":"address","internalType":"address"}],"stateMutability":"view"},{"type":"function","name":"renounceOwnership","inputs":[],"outputs":[],"stateMutability":"nonpayable"},{"type":"function","name":"safeTransferFrom","inputs":[{"name":"from","type":"address","internalType":"address"},{"name":"to","type":"address","internalType":"address"},{"name":"tokenId","type":"uint256","internalType":"uint256"}],"outputs":[],"stateMutability":"nonpayable"},{"type":"function","name":"safeTransferFrom","inputs":[{"name":"from","type":"address","internalType":"address"},{"name":"to","type":"address","internalType":"address"},{"name":"tokenId","type":"uint256","internalType":"uint256"},{"name":"data","type":"bytes","internalType":"bytes"}],"outputs":[],"stateMutability":"nonpayable"},{"type":"function","name":"setApprovalForAll","inputs":[{"name":"operator","type":"address","internalType":"address"},{"name":"approved","type":"bool","internalType":"bool"}],"outputs":[],"stateMutability":"nonpayable"},{"type":"function","name":"supportsInterface","inputs":[{"name":"interfaceId","type":"bytes4","internalType":"bytes4"}],"outputs":[{"name":"","type":"bool","internalType":"bool"}],"stateMutability":"view"},{"type":"function","name":"symbol","inputs":[],"outputs":[{"name":"","type":"string","internalType":"string"}],"stateMutability":"view"},{"type":"function","name":"tokenURI","inputs":[{"name":"tokenId","type":"uint256","internalType":"uint256"}],"outputs":[{"name":"","type":"string","internalType":"string"}],"stateMutability":"view"},{"type":"function","name":"transferFrom","inputs":[{"name":"from","type":"address","internalType":"address"},{"name":"to","type":"address","internalType":"address"},{"name":"tokenId","type":"uint256","internalType":"uint256"}],"outputs":[],"stateMutability":"nonpayable"},{"type":"function","name":"transferOwnership","inputs":[{"name":"newOwner","type":"address","internalType":"address"}],"outputs":[],"stateMutability":"nonpayable"},{"type":"event","name":"Approval","inputs":[{"name":"owner","type":"address","indexed":true,"internalType":"address"},{"name":"approved","type":"address","indexed":true,"internalType":"address"},{"name":"tokenId","type":"uint256","indexed":true,"internalType":"uint256"}],"anonymous":false},{"type":"event","name":"ApprovalForAll","inputs":[{"name":"owner","type":"address","indexed":true,"internalType":"address"},{"name":"operator","type":"address","indexed":true,"internalType":"address"},{"name":"approved","type":"bool","indexed":false,"internalType":"bool"}],"anonymous":false},{"type":"event","name":"OwnershipTransferred","inputs":[{"name":"previousOwner","type":"address","indexed":true,"internalType":"address"},{"name":"newOwner","type":"address","indexed":true,"internalType":"address"}],"anonymous":false},{"type":"event","name":"Transfer","inputs":[{"name":"from","type":"address","indexed":true,"internalType":"address"},{"name":"to","type":"address","indexed":true,"internalType":"address"},{"name":"tokenId","type":"uint256","indexed":true,"internalType":"uint256"}],"anonymous":false},{"type":"error","name":"ERC721IncorrectOwner","inputs":[{"name":"sender","type":"address","internalType":"address"},{"name":"tokenId","type":"uint256","internalType":"uint256"},{"name":"owner","type":"address","internalType":"address"}]},{"type":"error","name":"ERC721InsufficientApproval","inputs":[{"name":"operator","type":"address","internalType":"address"},{"name":"tokenId","type":"uint256","internalType":"uint256"}]},{"type":"error","name":"ERC721InvalidApprover","inputs":[{"name":"approver","type":"address","internalType":"address"}]},{"type":"error","name":"ERC721InvalidOperator","inputs":[{"name":"operator","type":"address","internalType":"address"}]},{"type":"error","name":"ERC721InvalidOwner","inputs":[{"name":"owner","type":"address","internalType":"address"}]},{"type":"error","name":"ERC721InvalidReceiver","inputs":[{"name":"receiver","type":"address","internalType":"address"}]},{"type":"error","name":"ERC721InvalidSender","inputs":[{"name":"sender","type":"address","internalType":"address"}]},{"type":"error","name":"ERC721NonexistentToken","inputs":[{"name":"tokenId","type":"uint256","internalType":"uint256"}]},{"type":"error","name":"OwnableInvalidOwner","inputs":[{"name":"owner","type":"address","internalType":"address"}]},{"type":"error","name":"OwnableUnauthorizedAccount","inputs":[{"name":"account","type":"address","internalType":"address"}]}],"bytecode":{"object":"0x6080346200038157601f1990601f906001600160401b03906200188d388190038481018616830184811184821017620002a3578392829160405283396020928391810103126200038157516001600160a01b0393848216939184900362000381576200006a62000385565b92601484527f5265616c204573746174652050726f7065727479000000000000000000000000818501526200009e62000385565b96600388526205245560ec1b828901528451848111620002a3575f546001968782811c9216801562000376575b858310146200028457818684931162000323575b508490868311600114620002c3575f92620002b7575b50505f19600383901b1c191690861b175f555b8751938411620002a35784548581811c9116801562000298575b8382101462000284578381116200023c575b5081928411600114620001d857505081929394955f92620001cc575b50505f19600383901b1c191690821b1790555b8015620001b457600680546001600160a01b03198116831790915560405192167f8be0079c531659141344cd1fd0a4f28419497f9722a3daafe3b4186f6b6457e05f80a36114e79081620003a68239f35b604051631e4fbdf760e01b81525f6004820152602490fd5b015190505f8062000150565b5f858152828120918516989193925b898210620002245750508385969798106200020b575b505050811b01905562000163565b01515f1960f88460031b161c191690555f8080620001fd565b808785968294968601518155019501930190620001e7565b855f52825f208480870160051c8201928588106200027a575b0160051c019086905b8281106200026e57505062000134565b5f81550186906200025e565b9250819262000255565b634e487b7160e01b5f52602260045260245ffd5b90607f169062000122565b634e487b7160e01b5f52604160045260245ffd5b015190505f80620000f5565b9084899416915f8052865f20925f5b888282106200030c5750508411620002f3575b505050811b015f5562000108565b01515f1960f88460031b161c191690555f8080620002e5565b8385015186558c97909501949384019301620002d2565b9091505f8052845f208680850160051c8201928786106200036c575b918a91869594930160051c01915b8281106200035d575050620000df565b5f81558594508a91016200034d565b925081926200033f565b91607f1691620000cb565b5f80fd5b60408051919082016001600160401b03811183821017620002a35760405256fe6080806040526004361015610012575f80fd5b5f3560e01c90816301ffc9a714610ea75750806306fdde0314610e1d578063081812fc14610de1578063095ea7b314610d0057806323b872dd14610ce957806342842e0e14610cbc5780636352211e14610c8c57806370a0823114610c36578063715018a614610bee57806375794a3c14610bd15780638da5cb5b14610ba957806395d89b4114610ae9578063a22cb46514610a48578063b88d4fde146109b2578063bb632ab814610888578063c87b56dd14610833578063e985e9c5146107e1578063f2fde38b1461076e5763fd0e3fb7146100ed575f80fd5b3461042d5760031960403682011261042d57610107610f50565b906001600160401b036024351161042d576080906024353603011261042d5761012e6112de565b6001600160a01b0381161561071857602480350135156106ba5760446024350135156106595761016360046024350180611272565b905015610606576007545f1981146105f257600181016007555f8181526008602052604090209161019960046024350180611272565b9093906001600160401b03811161052f576101b48254611025565b601f81116105b1575b505f601f821160011461054e5781929394955f92610543575b50508160011b915f199060031b1c19161781555b6024803501356001820155604460243501356002820155610215606460243501602435600401611272565b906001600160401b03821161052f576102316003840154611025565b601f81116104e7575b505f90601f831160011461047d57600392915f9183610472575b50508160011b915f1990841b1c1916179101555b60405161027481610fcc565b5f808252838152600260205260409020546001600160a01b031680151590849082610451575b6001600160a01b0385165f818152600360209081526040808320805460010190558583526002909152812080546001600160a01b031916831790559091905f805160206114928339815191529080a461043957813b6102ff575b602083604051908152f35b60405160208180610338630a85bd0160e11b958683523360048401525f6024840152886044840152608060648401526084830190610f12565b03815f6001600160a01b0388165af15f91816103f0575b506103b657823d156103ae573d906103668261100a565b916103746040519384610fe7565b82523d5f602084013e5b815191826103a757604051633250574960e11b81526001600160a01b0383166004820152602490fd5b6020915001fd5b60609061037e565b6001600160e01b031916036103ce575060205f6102f4565b604051633250574960e11b81526001600160a01b039091166004820152602490fd5b9091506020813d602011610431575b8161040c60209383610fe7565b8101031261042d57516001600160e01b03198116810361042d57905f61034f565b5f80fd5b3d91506103ff565b6040516339e3563760e11b81525f6004820152602490fd5b61045a82611454565b805f52600360205260405f205f19815401905561029a565b013590505f80610254565b600384015f5260205f20915f5b601f19851681106104cf5750918391600193600395601f198116106104b8575b505050811b01910155610268565b01355f1983861b60f8161c191690555f80806104aa565b9092602060018192868601358155019401910161048a565b600384015f5260205f20601f840160051c81019160208510610525575b601f0160051c01905b81811061051a575061023a565b5f815560010161050d565b9091508190610504565b634e487b7160e01b5f52604160045260245ffd5b013590505f806101d6565b601f19821695835f5260205f20915f5b88811061059957508360019596979810610580575b505050811b0181556101ea565b01355f19600384901b60f8161c191690555f8080610573565b9092602060018192868601358155019401910161055e565b825f5260205f20601f830160051c8101602084106105eb575b601f830160051c820181106105e05750506101bd565b5f81556001016105ca565b50806105ca565b634e487b7160e01b5f52601160045260245ffd5b60405162461bcd60e51b815260206004820152602560248201527f50726f70657274794e46543a206c6f636174696f6e2063616e6e6f7420626520604482015264656d70747960d81b6064820152608490fd5b60405162461bcd60e51b815260206004820152603360248201527f50726f70657274794e46543a206d6f6e74686c792072656e74206d7573742062604482015272652067726561746572207468616e207a65726f60681b6064820152608490fd5b60405162461bcd60e51b815260206004820152603060248201527f50726f70657274794e46543a2076616c756174696f6e206d757374206265206760448201526f726561746572207468616e207a65726f60801b6064820152608490fd5b60405162461bcd60e51b815260206004820152602860248201527f50726f70657274794e46543a2063616e6e6f74206d696e7420746f207a65726f604482015267206164647265737360c01b6064820152608490fd5b3461042d57602036600319011261042d57610787610f50565b61078f6112de565b6001600160a01b039081169081156107c957600680546001600160a01b031981168417909155165f805160206114728339815191525f80a3005b604051631e4fbdf760e01b81525f6004820152602490fd5b3461042d57604036600319011261042d576107fa610f50565b610802610f66565b9060018060a01b038091165f52600560205260405f2091165f52602052602060ff60405f2054166040519015158152f35b3461042d57602036600319011261042d5761084f6004356112a4565b505f60405161085d81610fcc565b5261088460405161086d81610fcc565b5f8152604051918291602083526020830190610f12565b0390f35b3461042d5760208060031936011261042d57600435906060806040516108ad81610fb1565b8181525f848201525f60408201520152815f526002815260018060a01b0360405f20541615610964576080915f526008815261088460405f20604051926108f384610fb1565b6108fc8261105d565b84526001820154918185019283526109456109256003600284015493604089019485520161105d565b9260608701938452604051978897828952519188015260a0870190610f12565b9251604086015251606085015251838203601f19016080850152610f12565b6084906040519062461bcd60e51b82526004820152602160248201527f50726f70657274794e46543a20746f6b656e20646f6573206e6f7420657869736044820152601d60fa1b6064820152fd5b3461042d57608036600319011261042d576109cb610f50565b6109d3610f66565b6064359190604435906001600160401b03841161042d573660238501121561042d57836004013592610a048461100a565b93610a126040519586610fe7565b808552366024828801011161042d576020815f926024610a4699018389013786010152610a408383836110ff565b3361130a565b005b3461042d57604036600319011261042d57610a61610f50565b6024359081151580920361042d576001600160a01b0316908115610ad057335f52600560205260405f20825f5260205260405f2060ff1981541660ff83161790556040519081527f17307eab39ab6107e8899845ad3d59bd9653f200f220920489ca2b5937696c3160203392a3005b604051630b61174360e31b815260048101839052602490fd5b3461042d575f36600319011261042d576040515f60018260015492610b0d84611025565b92838352602094856001821691825f14610b89575050600114610b4c575b50610b3892500383610fe7565b610884604051928284938452830190610f12565b84915060015f52815f20905f915b858310610b71575050610b38935082010185610b2b565b80548389018501528794508693909201918101610b5a565b60ff191685820152610b3895151560051b8501019250879150610b2b9050565b3461042d575f36600319011261042d576006546040516001600160a01b039091168152602090f35b3461042d575f36600319011261042d576020600754604051908152f35b3461042d575f36600319011261042d57610c066112de565b600680546001600160a01b031981169091555f906001600160a01b03165f805160206114728339815191528280a3005b3461042d57602036600319011261042d576001600160a01b03610c57610f50565b168015610c74575f526003602052602060405f2054604051908152f35b6040516322718ad960e21b81525f6004820152602490fd5b3461042d57602036600319011261042d576020610caa6004356112a4565b6040516001600160a01b039091168152f35b3461042d57610a46610ccd36610f7c565b9060405192610cdb84610fcc565b5f8452610a408383836110ff565b3461042d57610a46610cfa36610f7c565b916110ff565b3461042d57604036600319011261042d57610d19610f50565b602435610d25816112a4565b33151580610dce575b80610da5575b610d8d576001600160a01b039283169282918491167f8c5be1e5ebec7d5bd14f71427d1e84f3dd0314c0f7b2291e5b200ac8c7c3b9255f80a45f90815260046020526040902080546001600160a01b0319169091179055005b60405163a9fbf51f60e01b8152336004820152602490fd5b5060018060a01b0381165f52600560205260405f20335f5260205260ff60405f20541615610d34565b506001600160a01b038116331415610d2e565b3461042d57602036600319011261042d57600435610dfe816112a4565b505f526004602052602060018060a01b0360405f205416604051908152f35b3461042d575f36600319011261042d576040515f80549082610e3e83611025565b91828252602093600190856001821691825f14610b89575050600114610e6b5750610b3892500383610fe7565b8491505f8052815f20905f915b858310610e8f575050610b38935082010185610b2b565b80548389018501528794508693909201918101610e78565b3461042d57602036600319011261042d576004359063ffffffff60e01b821680920361042d576020916380ac58cd60e01b8114908115610f01575b8115610ef0575b5015158152f35b6301ffc9a760e01b14905083610ee9565b635b5e139f60e01b81149150610ee2565b91908251928382525f5b848110610f3c575050825f602080949584010152601f8019910116010190565b602081830181015184830182015201610f1c565b600435906001600160a01b038216820361042d57565b602435906001600160a01b038216820361042d57565b606090600319011261042d576001600160a01b0390600435828116810361042d5791602435908116810361042d579060443590565b608081019081106001600160401b0382111761052f57604052565b602081019081106001600160401b0382111761052f57604052565b601f909101601f19168101906001600160401b0382119082101761052f57604052565b6001600160401b03811161052f57601f01601f191660200190565b90600182811c92168015611053575b602083101461103f57565b634e487b7160e01b5f52602260045260245ffd5b91607f1691611034565b9060405191825f825461106f81611025565b908184526020946001916001811690815f146110dd575060011461109f575b50505061109d92500383610fe7565b565b5f90815285812095935091905b8183106110c557505061109d93508201015f808061108e565b855488840185015294850194879450918301916110ac565b9250505061109d94925060ff191682840152151560051b8201015f808061108e565b6001600160a01b03918216929091831561125a57815f52602092600284528260409583875f20541695331515806111c8575b50600290876111a9575b5f838152600382528981208054600101905584815291905287812080546001600160a01b0319168317905586905f805160206114928339815191529080a416928383036111885750505050565b6064945051926364283d7b60e01b8452600484015260248301526044820152fd5b6111b284611454565b875f5260038152885f205f19815401905561113b565b9192509080611219575b156111e0579084915f611131565b8685876111fd576024915190637e27328960e01b82526004820152fd5b604491519063177e802f60e01b82523360048301526024820152fd5b50338614801561123e575b806111d25750845f52600481523384885f205416146111d2565b50855f5260058152865f20335f52815260ff875f205416611224565b604051633250574960e11b81525f6004820152602490fd5b903590601e198136030182121561042d57018035906001600160401b03821161042d5760200191813603831361042d57565b5f818152600260205260409020546001600160a01b03169081156112c6575090565b60249060405190637e27328960e01b82526004820152fd5b6006546001600160a01b031633036112f257565b60405163118cdaa760e01b8152336004820152602490fd5b9293909193843b61131d575b5050505050565b604051630a85bd0160e11b8082526001600160a01b039586166004830152938516602482015260448101919091526080606482015260209594909316939290859082908190611370906084830190610f12565b03815f885af15f9181611414575b506113dd575050503d5f146113d5573d916113988361100a565b926113a66040519485610fe7565b83523d5f8285013e5b825192836113d057604051633250574960e11b815260048101849052602490fd5b019050fd5b6060916113af565b9193506001600160e01b0319909116036113fc57505f80808080611316565b60249060405190633250574960e11b82526004820152fd5b9091508581813d831161144d575b61142c8183610fe7565b8101031261042d57516001600160e01b03198116810361042d57905f61137e565b503d611422565b5f90815260046020526040902080546001600160a01b031916905556fe8be0079c531659141344cd1fd0a4f28419497f9722a3daafe3b4186f6b6457e0ddf252ad1be2c89b69c2b068fc378daa952ba7f163c4a11628f55a4df523b3efa2646970667358221220bed9e474a6b29d62f9d48a8831502dc766f4a45a06547a819d034c571bcca5d264736f6c63430008180033","linkReferences":{}},"methodIdentifiers":{"approve(address,uint256)":"095ea7b3","balanceOf(address)":"70a08231","getApproved(uint256)":"081812fc","getPropertyData(uint256)":"bb632ab8","isApprovedForAll(address,address)":"e985e9c5","mintProperty(address,(string,uint256,uint256,string))":"fd0e3fb7","name()":"06fdde03","nextTokenId()":"75794a3c","owner()":"8da5cb5b","ownerOf(uint256)":"6352211e","renounceOwnership()":"715018a6","safeTransferFrom(address,address,uint256)":"42842e0e","safeTransferFrom(address,address,uint256,bytes)":"b88d4fde","setApprovalForAll(address,bool)":"a22cb465","supportsInterface(bytes4)":"01ffc9a7","symbol()":"95d89b41","tokenURI(uint256)":"c87b56dd","transferFrom(address,address,uint256)":"23b872dd","transferOwnership(address)":"f2fde38b"},"id":4}