{"abi":[{"type":"constructor","inputs":[{"name":"_usdc","type":"address","internalType":"address"},{"name":"_rentVault","type":"address","internalType":"address"},{"name":"initialOwner","type":"address","internalType":"address"}],"stateMutability":"nonpayable"},{"type":"function","name":"WITHDRAWAL_SLIPPAGE_TOLERANCE_BPS","inputs":[],"outputs":[{"name":"","type":"uint256","internalType":"uint256"}],"stateMutability":"view"},{"type":"function","name":"autoDepositEnabled","inputs":[],"outputs":[{"name":"","type":"bool","internalType":"bool"}],"stateMutability":"view"},{"type":"function","name":"autoDepositIdleFunds","inputs":[],"outputs":[],"stateMutability":"nonpayable"},{"type":"function","name":"calculateIdleFunds","inputs":[],"outputs":[{"name":"","type":"uint256","internalType":"uint256"}],"stateMutability":"view"},{"type":"function","name":"cashFlowEngine","inputs":[],"outputs":[{"name":"","type":"address","internalType":"contract CashFlowEngine"}],"stateMutability":"view"},{"type":"function","name":"depositToVault","inputs":[{"name":"amount","type":"uint256","internalType":"uint256"}],"outputs":[],"stateMutability":"nonpayable"},{"type":"function","name":"depositsPerPeriod","inputs":[{"name":"","type":"uint256","internalType":"uint256"}],"outputs":[{"name":"","type":"uint256","internalType":"uint256"}],"stateMutability":"view"},{"type":"function","name":"emergencyWithdraw","inputs":[],"outputs":[],"stateMutability":"nonpayable"},{"type":"function","name":"getCurrentPeriod","inputs":[],"outputs":[{"name":"","type":"uint256","internalType":"uint256"}],"stateMutability":"view"},{"type":"function","name":"getTotalAssetsInVault","inputs":[],"outputs":[{"name":"","type":"uint256","internalType":"uint256"}],"stateMutability":"view"},{"type":"function","name":"getYieldEarned","inputs":[],"outputs":[{"name":"","type":"uint256","internalType":"uint256"}],"stateMutability":"view"},{"type":"function","name":"lastDepositTime","inputs":[],"outputs":[{"name":"","type":"uint256","internalType":"uint256"}],"stateMutability":"view"},{"type":"function","name":"minimumDepositAmount","inputs":[],"outputs":[{"name":"","type":"uint256","internalType":"uint256"}],"stateMutability":"view"},{"type":"function","name":"owner","inputs":[],"outputs":[{"name":"","type":"address","internalType":"address"}],"stateMutability":"view"},{"type":"function","name":"renounceOwnership","inputs":[],"outputs":[],"stateMutability":"nonpayable"},{"type":"function","name":"rentVault","inputs":[],"outputs":[{"name":"","type":"address","internalType":"contract RentVault"}],"stateMutability":"view"},{"type":"function","name":"reserveThreshold","inputs":[],"outputs":[{"name":"","type":"uint256","internalType":"uint256"}],"stateMutability":"view"},{"type":"function","name":"setAutoDepositEnabled","inputs":[{"name":"_enabled","type":"bool","internalType":"bool"}],"outputs":[],"stateMutability":"nonpayable"},{"type":"function","name":"setCashFlowEngine","inputs":[{"name":"_cashFlowEngine","type":"address","internalType":"address"}],"outputs":[],"stateMutability":"nonpayable"},{"type":"function","name":"setMinimumDepositAmount","inputs":[{"name":"_minimum","type":"uint256","internalType":"uint256"}],"outputs":[],"stateMutability":"nonpayable"},{"type":"function","name":"setReserveThreshold","inputs":[{"name":"_threshold","type":"uint256","internalType":"uint256"}],"outputs":[],"stateMutability":"nonpayable"},{"type":"function","name":"setYieldVault","inputs":[{"name":"_vault","type":"address","internalType":"address"}],"outputs":[],"stateMutability":"nonpayable"},{"type":"function","name":"totalDeposited","inputs":[],"outputs":[{"name":"","type":"uint256","internalType":"uint256"}],"stateMutability":"view"},{"type":"function","name":"transferOwnership","inputs":[{"name":"newOwner","type":"address","internalType":"address"}],"outputs":[],"stateMutability":"nonpayable"},{"type":"function","name":"usdc","inputs":[],"outputs":[{"name":"","type":"address","internalType":"contract IERC20"}],"stateMutability":"view"},{"type":"function","name":"withdrawForDistribution","inputs":[{"name":"amount","type":"uint256","internalType":"uint256"}],"outputs":[],"stateMutability":"nonpayable"},{"type":"function","name":"yieldVault","inputs":[],"outputs":[{"name":"","type":"address","internalType":"contract IERC4626"}],"stateMutability":"view"},{"type":"event","name":"AutoDepositToggled","inputs":[{"name":"enabled","type":"bool","indexed":false,"internalType":"bool"}],"anonymous":false},{"type":"event","name":"FundsDeposited","inputs":[{"name":"amount","type":"uint256","indexed":false,"internalType":"uint256"},{"name":"shares","type":"uint256","indexed":false,"internalType":"uint256"},{"name":"period","type":"uint256","indexed":false,"internalType":"uint256"}],"anonymous":false},{"type":"event","name":"FundsWithdrawn","inputs":[{"name":"amount","type":"uint256","indexed":false,"internalType":"uint256"},{"name":"shares","type":"uint256","indexed":false,"internalType":"uint256"}],"anonymous":false},{"type":"event","name":"MinimumDepositSet","inputs":[{"name":"minimum","type":"uint256","indexed":false,"internalType":"uint256"}],"anonymous":false},{"type":"event","name":"OwnershipTransferred","inputs":[{"name":"previousOwner","type":"address","indexed":true,"internalType":"address"},{"name":"newOwner","type":"address","indexed":true,"internalType":"address"}],"anonymous":false},{"type":"event","name":"ReserveThresholdSet","inputs":[{"name":"threshold","type":"uint256","indexed":false,"internalType":"uint256"}],"anonymous":false},{"type":"event","name":"YieldEarned","inputs":[{"name":"yieldAmount","type":"uint256","indexed":false,"internalType":"uint256"}],"anonymous":false},{"type":"event","name":"YieldVaultSet","inputs":[{"name":"vault","type":"address","indexed":true,"internalType":"address"}],"anonymous":false},{"type":"error","name":"OwnableInvalidOwner","inputs":[{"name":"owner","type":"address","internalType":"address"}]},{"type":"error","name":"OwnableUnauthorizedAccount","inputs":[{"name":"account","type":"address","internalType":"address"}]},{"type":"error","name":"ReentrancyGuardReentrantCall","inputs":[]},{"type":"error","name":"SafeERC20FailedOperation","inputs":[{"name":"token","type":"address","internalType":"address"}]}],"bytecode":{"object":"0x608060405234801562000010575f80fd5b5060405162001c5638038062001c56833981016040819052620000339162000234565b806001600160a01b0381166200006357604051631e4fbdf760e01b81525f60048201526024015b60405180910390fd5b6200006e81620001c9565b5060017f9b779b17422d0df92223018b32b4d1fa46e071723d6817e2486d003becc55f00556001600160a01b038316620000fe5760405162461bcd60e51b815260206004820152602a60248201527f5969656c64537461636b696e674d616e616765723a20696e76616c69642055536044820152694443206164647265737360b01b60648201526084016200005a565b6001600160a01b0382166200016f5760405162461bcd60e51b815260206004820152603060248201527f5969656c64537461636b696e674d616e616765723a20696e76616c696420726560448201526f6e74207661756c74206164647265737360801b60648201526084016200005a565b50600280546001600160a01b039384166001600160a01b03199182161790915560038054929093169116179055686c6b935b8bbd400000600555683635c9adc5dea000006006556007805460ff191660011790556200027b565b5f80546001600160a01b038381166001600160a01b0319831681178455604051919092169283917f8be0079c531659141344cd1fd0a4f28419497f9722a3daafe3b4186f6b6457e09190a35050565b80516001600160a01b03811681146200022f575f80fd5b919050565b5f805f6060848603121562000247575f80fd5b620002528462000218565b9250620002626020850162000218565b9150620002726040850162000218565b90509250925092565b6119cd80620002895f395ff3fe608060405234801561000f575f80fd5b50600436106101a1575f3560e01c80638da5cb5b116100f3578063c89a91db11610093578063f2fde38b1161006e578063f2fde38b14610325578063feab893914610338578063fee7ad5a1461034b578063ff50abdc1461035e575f80fd5b8063c89a91db146102eb578063d9b3e92f1461030a578063db2e21bc1461031d575f80fd5b8063aab483d6116100ce578063aab483d6146102b3578063b0462296146102c6578063bd28f351146102d9578063c2c7b652146102e2575f80fd5b80638da5cb5b1461027d5780639c9c5d0c1461028d578063a7f8a5e2146102a0575f80fd5b8063351911811161015e578063715018a611610139578063715018a61461025d5780637b7d3f9314610265578063804990781461026d5780638501de0114610275575f80fd5b806335191181146102025780633e413bee14610215578063627d95e414610240575f80fd5b8063080c279a146101a5578063086146d2146101c1578063137c3f69146101c95780632b1dc884146101de5780632ca6be1f146101e65780632e2ad079146101f9575b5f80fd5b6101ae60065481565b6040519081526020015b60405180910390f35b6101ae610367565b6101dc6101d736600461179a565b6103d6565b005b6101ae610571565b6101dc6101f43660046117bc565b610673565b6101ae60055481565b6101dc6102103660046117d3565b6106b7565b600254610228906001600160a01b031681565b6040516001600160a01b0390911681526020016101b8565b60075461024d9060ff1681565b60405190151581526020016101b8565b6101dc610700565b6101dc610713565b6101ae6108bf565b6101ae6109ee565b5f546001600160a01b0316610228565b600354610228906001600160a01b031681565b600154610228906001600160a01b031681565b6101dc6102c13660046117bc565b610a3b565b6101dc6102d43660046117bc565b610a78565b6101ae60095481565b6101ae6101f481565b6101ae6102f93660046117bc565b600a6020525f908152604090205481565b6101dc6103183660046117bc565b610af1565b6101dc610f2b565b6101dc61033336600461179a565b6110bf565b6101dc61034636600461179a565b6110f9565b600454610228906001600160a01b031681565b6101ae60085481565b6003546040805162c080c360e31b815290515f926001600160a01b03169163060406189160048083019260209291908290030181865afa1580156103ad573d5f803e3d5ffd5b505050506040513d601f19601f820116820180604052508101906103d191906117f2565b905090565b6103de611198565b6001600160a01b03811661044d5760405162461bcd60e51b815260206004820152602b60248201527f5969656c64537461636b696e674d616e616765723a20696e76616c696420766160448201526a756c74206164647265737360a81b60648201526084015b60405180910390fd5b600254604080516338d52e0f60e01b815290516001600160a01b03928316928416916338d52e0f9160048083019260209291908290030181865afa158015610497573d5f803e3d5ffd5b505050506040513d601f19601f820116820180604052508101906104bb9190611809565b6001600160a01b0316146105285760405162461bcd60e51b815260206004820152602e60248201527f5969656c64537461636b696e674d616e616765723a207661756c74206173736560448201526d74206d757374206265205553444360901b6064820152608401610444565b600180546001600160a01b0319166001600160a01b0383169081179091556040517ff2a68c50468a5edde97a8d5f74eed762dfa952416e57cb30e2494df93a6fc777905f90a250565b6001545f906001600160a01b031661058857505f90565b6001546040516370a0823160e01b81523060048201525f916001600160a01b0316906370a0823190602401602060405180830381865afa1580156105ce573d5f803e3d5ffd5b505050506040513d601f19601f820116820180604052508101906105f291906117f2565b9050805f03610602575f91505090565b6001546040516303d1689d60e11b8152600481018390526001600160a01b03909116906307a2d13a90602401602060405180830381865afa158015610649573d5f803e3d5ffd5b505050506040513d601f19601f8201168201806040525081019061066d91906117f2565b91505090565b61067b611198565b60058190556040518181527f9530355cac0969404662db60e90664d90fdf47c37c69fa53616fc509fde4c294906020015b60405180910390a150565b6106bf611198565b6007805460ff19168215159081179091556040519081527f8eeec181d36d9012eaaed8d7860cb5fa6e815254a5a2fa238fb197c03732247e906020016106ac565b610708611198565b6107115f6111c4565b565b5f546001600160a01b031633148061073557506003546001600160a01b031633145b8061074a57506004546001600160a01b031633145b806107d9575060035f9054906101000a90046001600160a01b03166001600160a01b0316638da5cb5b6040518163ffffffff1660e01b8152600401602060405180830381865afa1580156107a0573d5f803e3d5ffd5b505050506040513d601f19601f820116820180604052508101906107c49190611809565b6001600160a01b0316336001600160a01b0316145b6107f55760405162461bcd60e51b815260040161044490611824565b6107fd611213565b60075460ff166108635760405162461bcd60e51b815260206004820152602b60248201527f5969656c64537461636b696e674d616e616765723a206175746f2d6465706f7360448201526a1a5d08191a5cd8589b195960aa1b6064820152608401610444565b6001546001600160a01b031661088b5760405162461bcd60e51b815260040161044490611868565b5f6108946108bf565b905060065481106108a8576108a88161122e565b5061071160015f8051602061197883398151915255565b6002546003546040516370a0823160e01b81526001600160a01b0391821660048201525f92839216906370a0823190602401602060405180830381865afa15801561090c573d5f803e3d5ffd5b505050506040513d601f19601f8201168201806040525081019061093091906117f2565b6004549091505f906001600160a01b0316156109b25760048054604080516338831e1d60e21b815290516001600160a01b039092169263e20c78749282820192602092908290030181865afa15801561098b573d5f803e3d5ffd5b505050506040513d601f19601f820116820180604052508101906109af91906117f2565b90505b6005546109bf90826118bf565b82116109cd575f9250505090565b6005545f906109dc83856118d8565b6109e691906118d8565b949350505050565b6001545f906001600160a01b0316610a0557505f90565b6008545f03610a1357505f90565b5f610a1c610571565b90506008548111610a2e575f91505090565b60085461066d90826118d8565b610a43611198565b60068190556040518181527fca2e9e3e71d8dcab383b61e219dc9f736ee812dbb08aff666933b85949553d39906020016106ac565b610a80611198565b610a88611213565b6001546001600160a01b0316610ab05760405162461bcd60e51b815260040161044490611868565b5f8111610acf5760405162461bcd60e51b8152600401610444906118eb565b610ad88161122e565b610aee60015f8051602061197883398151915255565b50565b5f546001600160a01b0316331480610b1357506003546001600160a01b031633145b80610b2857506004546001600160a01b031633145b80610bb7575060035f9054906101000a90046001600160a01b03166001600160a01b0316638da5cb5b6040518163ffffffff1660e01b8152600401602060405180830381865afa158015610b7e573d5f803e3d5ffd5b505050506040513d601f19601f82011682018060405250810190610ba29190611809565b6001600160a01b0316336001600160a01b0316145b610bd35760405162461bcd60e51b815260040161044490611824565b610bdb611213565b6001546001600160a01b0316610c035760405162461bcd60e51b815260040161044490611868565b5f8111610c225760405162461bcd60e51b8152600401610444906118eb565b600154604051630a28a47760e01b8152600481018390525f916001600160a01b031690630a28a47790602401602060405180830381865afa158015610c69573d5f803e3d5ffd5b505050506040513d601f19601f82011682018060405250810190610c8d91906117f2565b600154604051636c82bbbf60e11b81523060048201529192505f916001600160a01b039091169063d905777e90602401602060405180830381865afa158015610cd8573d5f803e3d5ffd5b505050506040513d601f19601f82011682018060405250810190610cfc91906117f2565b905080821115610d605760405162461bcd60e51b815260206004820152602960248201527f5969656c64537461636b696e674d616e616765723a20696e73756666696369656044820152686e742073686172657360b81b6064820152608401610444565b600154604051635d043b2960e11b815260048101849052306024820181905260448201525f916001600160a01b03169063ba087652906064016020604051808303815f875af1158015610db5573d5f803e3d5ffd5b505050506040513d601f19601f82011682018060405250810190610dd991906117f2565b90505f612710610deb6101f487611941565b610df59190611958565b9050610e0181866118d8565b821015610e6b5760405162461bcd60e51b815260206004820152603260248201527f5969656c64537461636b696e674d616e616765723a20696e73756666696369656044820152711b9d08185cdcd95d1cc81c9958d95a5d995960721b6064820152608401610444565b848210610ebb575f610e7d86846118d8565b90508015610eb9576040518181527f0fdcac51e9ac7e6c32c155794ef3971695f83dd47a7982cbfd4a7e2fe991c7cc9060200160405180910390a15b505b600354600254610ed8916001600160a01b0391821691168461161f565b60408051838152602081018690527fd66662c0ded9e58fd31d5e44944bcfd07ffc15e6927ecc1382e7941cb7bd24c4910160405180910390a150505050610aee60015f8051602061197883398151915255565b610f33611198565b610f3b611213565b6001546001600160a01b0316610f635760405162461bcd60e51b815260040161044490611868565b6001546040516370a0823160e01b81523060048201525f916001600160a01b0316906370a0823190602401602060405180830381865afa158015610fa9573d5f803e3d5ffd5b505050506040513d601f19601f82011682018060405250810190610fcd91906117f2565b905080156108a857600154604051635d043b2960e11b815260048101839052306024820181905260448201525f916001600160a01b03169063ba087652906064016020604051808303815f875af115801561102a573d5f803e3d5ffd5b505050506040513d601f19601f8201168201806040525081019061104e91906117f2565b60035460025491925061106e916001600160a01b0390811691168361161f565b60408051828152602081018490527fd66662c0ded9e58fd31d5e44944bcfd07ffc15e6927ecc1382e7941cb7bd24c4910160405180910390a1505061071160015f8051602061197883398151915255565b6110c7611198565b6001600160a01b0381166110f057604051631e4fbdf760e01b81525f6004820152602401610444565b610aee816111c4565b611101611198565b6001600160a01b0381166111765760405162461bcd60e51b815260206004820152603660248201527f5969656c64537461636b696e674d616e616765723a20696e76616c6964206361604482015275736820666c6f7720656e67696e65206164647265737360501b6064820152608401610444565b600480546001600160a01b0319166001600160a01b0392909216919091179055565b5f546001600160a01b031633146107115760405163118cdaa760e01b8152336004820152602401610444565b5f80546001600160a01b038381166001600160a01b0319831681178455604051919092169283917f8be0079c531659141344cd1fd0a4f28419497f9722a3daafe3b4186f6b6457e09190a35050565b61121b611659565b60025f8051602061197883398151915255565b6002546003546040516370a0823160e01b81526001600160a01b039182166004820152839291909116906370a0823190602401602060405180830381865afa15801561127c573d5f803e3d5ffd5b505050506040513d601f19601f820116820180604052508101906112a091906117f2565b10156113015760405162461bcd60e51b815260206004820152602a60248201527f5969656c64537461636b696e674d616e616765723a20696e73756666696369656044820152696e742062616c616e636560b01b6064820152608401610444565b60035460405163f3fef3a360e01b8152306004820152602481018390526001600160a01b039091169063f3fef3a3906044015f604051808303815f87803b15801561134a575f80fd5b505af115801561135c573d5f803e3d5ffd5b505060015460405163ef8b30f760e01b8152600481018590525f93506001600160a01b03909116915063ef8b30f790602401602060405180830381865afa1580156113a9573d5f803e3d5ffd5b505050506040513d601f19601f820116820180604052508101906113cd91906117f2565b90505f81116114315760405162461bcd60e51b815260206004820152602a60248201527f5969656c64537461636b696e674d616e616765723a207a65726f2073686172656044820152691cc8195e1c1958dd195960b21b6064820152608401610444565b60015460025461144e916001600160a01b03918216911684611688565b600154604051636e553f6560e01b8152600481018490523060248201525f916001600160a01b031690636e553f65906044016020604051808303815f875af115801561149c573d5f803e3d5ffd5b505050506040513d601f19601f820116820180604052508101906114c091906117f2565b90508181101561152d5760405162461bcd60e51b815260206004820152603260248201527f5969656c64537461636b696e674d616e616765723a20736c69707061676520746044820152711bdbc81a1a59da081bdb8819195c1bdcda5d60721b6064820152608401610444565b8260085f82825461153e91906118bf565b9091555050426009556003546040805162c080c360e31b815290515f926001600160a01b03169163060406189160048083019260209291908290030181865afa15801561158d573d5f803e3d5ffd5b505050506040513d601f19601f820116820180604052508101906115b191906117f2565b905083600a5f8381526020019081526020015f205f8282546115d391906118bf565b909155505060408051858152602081018490529081018290527fed2de103da084463a1b2895568d352fd796dfd1d033c0e8ee9fabe73a67153899060600160405180910390a150505050565b61162c83838360016116da565b61165457604051635274afe760e01b81526001600160a01b0384166004820152602401610444565b505050565b5f805160206119788339815191525460020361071157604051633ee5aeb560e01b815260040160405180910390fd5b6116948383835f61173c565b611654576116a583835f600161173c565b6116cd57604051635274afe760e01b81526001600160a01b0384166004820152602401610444565b61162c838383600161173c565b60405163a9059cbb60e01b5f8181526001600160a01b038616600452602485905291602083604481808b5af1925060015f51148316611730578383151615611724573d5f823e3d81fd5b5f873b113d1516831692505b60405250949350505050565b60405163095ea7b360e01b5f8181526001600160a01b038616600452602485905291602083604481808b5af1925060015f51148316611730578383151615611724573d5f823e3d81fd5b6001600160a01b0381168114610aee575f80fd5b5f602082840312156117aa575f80fd5b81356117b581611786565b9392505050565b5f602082840312156117cc575f80fd5b5035919050565b5f602082840312156117e3575f80fd5b813580151581146117b5575f80fd5b5f60208284031215611802575f80fd5b5051919050565b5f60208284031215611819575f80fd5b81516117b581611786565b60208082526024908201527f5969656c64537461636b696e674d616e616765723a206e6f7420617574686f726040820152631a5e995960e21b606082015260800190565b60208082526023908201527f5969656c64537461636b696e674d616e616765723a207661756c74206e6f74206040820152621cd95d60ea1b606082015260800190565b634e487b7160e01b5f52601160045260245ffd5b808201808211156118d2576118d26118ab565b92915050565b818103818111156118d2576118d26118ab565b60208082526036908201527f5969656c64537461636b696e674d616e616765723a20616d6f756e74206d7573604082015275742062652067726561746572207468616e207a65726f60501b606082015260800190565b80820281158282048414176118d2576118d26118ab565b5f8261197257634e487b7160e01b5f52601260045260245ffd5b50049056fe9b779b17422d0df92223018b32b4d1fa46e071723d6817e2486d003becc55f00a2646970667358221220733b4671c3b776429b4567d9dc9d977977613b715824e4bd8bf949d653d7407164736f6c63430008180033","linkReferences":{}},"methodIdentifiers":{"WITHDRAWAL_SLIPPAGE_TOLERANCE_BPS()":"c2c7b652","autoDepositEnabled()":"627d95e4","autoDepositIdleFunds()":"7b7d3f93","calculateIdleFunds()":"80499078","cashFlowEngine()":"fee7ad5a","depositToVault(uint256)":"b0462296","depositsPerPeriod(uint256)":"c89a91db","emergencyWithdraw()":"db2e21bc","getCurrentPeriod()":"086146d2","getTotalAssetsInVault()":"2b1dc884","getYieldEarned()":"8501de01","lastDepositTime()":"bd28f351","minimumDepositAmount()":"080c279a","owner()":"8da5cb5b","renounceOwnership()":"715018a6","rentVault()":"9c9c5d0c","reserveThreshold()":"2e2ad079","setAutoDepositEnabled(bool)":"35191181","setCashFlowEngine(address)":"feab8939","setMinimumDepositAmount(uint256)":"aab483d6","setReserveThreshold(uint256)":"2ca6be1f","setYieldVault(address)":"137c3f69","totalDeposited()":"ff50abdc","transferOwnership(address)":"f2fde38b","usdc()":"3e413bee","withdrawForDistribution(uint256)":"d9b3e92f","yieldVault()":"a7f8a5e2"},"id":8}