{"abi":[{"type":"constructor","inputs":[{"name":"_rentVault","type":"address","internalType":"address"},{"name":"initialOwner","type":"address","internalType":"address"}],"stateMutability":"nonpayable"},{"type":"function","name":"WITHDRAWAL_SLIPPAGE_TOLERANCE_BPS","inputs":[],"outputs":[{"name":"","type":"uint256","internalType":"uint256"}],"stateMutability":"view"},{"type":"function","name":"autoDepositEnabled","inputs":[],"outputs":[{"name":"","type":"bool","internalType":"bool"}],"stateMutability":"view"},{"type":"function","name":"autoDepositIdleFunds","inputs":[],"outputs":[],"stateMutability":"nonpayable"},{"type":"function","name":"calculateIdleFunds","inputs":[],"outputs":[{"name":"","type":"uint256","internalType":"uint256"}],"stateMutability":"view"},{"type":"function","name":"cashFlowEngine","inputs":[],"outputs":[{"name":"","type":"address","internalType":"contract CashFlowEngine"}],"stateMutability":"view"},{"type":"function","name":"depositToVault","inputs":[{"name":"amount","type":"uint256","internalType":"uint256"}],"outputs":[],"stateMutability":"nonpayable"},{"type":"function","name":"depositsPerPeriod","inputs":[{"name":"","type":"uint256","internalType":"uint256"}],"outputs":[{"name":"","type":"uint256","internalType":"uint256"}],"stateMutability":"view"},{"type":"function","name":"emergencyWithdraw","inputs":[],"outputs":[],"stateMutability":"nonpayable"},{"type":"function","name":"getCurrentPeriod","inputs":[],"outputs":[{"name":"","type":"uint256","internalType":"uint256"}],"stateMutability":"view"},{"type":"function","name":"getTotalAssetsInVault","inputs":[],"outputs":[{"name":"","type":"uint256","internalType":"uint256"}],"stateMutability":"view"},{"type":"function","name":"getYieldEarned","inputs":[],"outputs":[{"name":"","type":"uint256","internalType":"uint256"}],"stateMutability":"view"},{"type":"function","name":"lastDepositTime","inputs":[],"outputs":[{"name":"","type":"uint256","internalType":"uint256"}],"stateMutability":"view"},{"type":"function","name":"minimumDepositAmount","inputs":[],"outputs":[{"name":"","type":"uint256","internalType":"uint256"}],"stateMutability":"view"},{"type":"function","name":"owner","inputs":[],"outputs":[{"name":"","type":"address","internalType":"address"}],"stateMutability":"view"},{"type":"function","name":"renounceOwnership","inputs":[],"outputs":[],"stateMutability":"nonpayable"},{"type":"function","name":"rentVault","inputs":[],"outputs":[{"name":"","type":"address","internalType":"contract RentVault"}],"stateMutability":"view"},{"type":"function","name":"reserveThreshold","inputs":[],"outputs":[{"name":"","type":"uint256","internalType":"uint256"}],"stateMutability":"view"},{"type":"function","name":"setAutoDepositEnabled","inputs":[{"name":"_enabled","type":"bool","internalType":"bool"}],"outputs":[],"stateMutability":"nonpayable"},{"type":"function","name":"setCashFlowEngine","inputs":[{"name":"_cashFlowEngine","type":"address","internalType":"address"}],"outputs":[],"stateMutability":"nonpayable"},{"type":"function","name":"setMinimumDepositAmount","inputs":[{"name":"_minimum","type":"uint256","internalType":"uint256"}],"outputs":[],"stateMutability":"nonpayable"},{"type":"function","name":"setReserveThreshold","inputs":[{"name":"_threshold","type":"uint256","internalType":"uint256"}],"outputs":[],"stateMutability":"nonpayable"},{"type":"function","name":"setYieldVault","inputs":[{"name":"_vault","type":"address","internalType":"address"}],"outputs":[],"stateMutability":"nonpayable"},{"type":"function","name":"totalDeposited","inputs":[],"outputs":[{"name":"","type":"uint256","internalType":"uint256"}],"stateMutability":"view"},{"type":"function","name":"transferOwnership","inputs":[{"name":"newOwner","type":"address","internalType":"address"}],"outputs":[],"stateMutability":"nonpayable"},{"type":"function","name":"withdrawForDistribution","inputs":[{"name":"amount","type":"uint256","internalType":"uint256"}],"outputs":[],"stateMutability":"nonpayable"},{"type":"function","name":"yieldVault","inputs":[],"outputs":[{"name":"","type":"address","internalType":"contract IERC4626"}],"stateMutability":"view"},{"type":"event","name":"AutoDepositToggled","inputs":[{"name":"enabled","type":"bool","indexed":false,"internalType":"bool"}],"anonymous":false},{"type":"event","name":"FundsDeposited","inputs":[{"name":"amount","type":"uint256","indexed":false,"internalType":"uint256"},{"name":"shares","type":"uint256","indexed":false,"internalType":"uint256"},{"name":"period","type":"uint256","indexed":false,"internalType":"uint256"}],"anonymous":false},{"type":"event","name":"FundsWithdrawn","inputs":[{"name":"amount","type":"uint256","indexed":false,"internalType":"uint256"},{"name":"shares","type":"uint256","indexed":false,"internalType":"uint256"}],"anonymous":false},{"type":"event","name":"MinimumDepositSet","inputs":[{"name":"minimum","type":"uint256","indexed":false,"internalType":"uint256"}],"anonymous":false},{"type":"event","name":"OwnershipTransferred","inputs":[{"name":"previousOwner","type":"address","indexed":true,"internalType":"address"},{"name":"newOwner","type":"address","indexed":true,"internalType":"address"}],"anonymous":false},{"type":"event","name":"ReserveThresholdSet","inputs":[{"name":"threshold","type":"uint256","indexed":false,"internalType":"uint256"}],"anonymous":false},{"type":"event","name":"YieldEarned","inputs":[{"name":"yieldAmount","type":"uint256","indexed":false,"internalType":"uint256"}],"anonymous":false},{"type":"event","name":"YieldVaultSet","inputs":[{"name":"vault","type":"address","indexed":true,"internalType":"address"}],"anonymous":false},{"type":"error","name":"OwnableInvalidOwner","inputs":[{"name":"owner","type":"address","internalType":"address"}]},{"type":"error","name":"OwnableUnauthorizedAccount","inputs":[{"name":"account","type":"address","internalType":"address"}]},{"type":"error","name":"ReentrancyGuardReentrantCall","inputs":[]}],"bytecode":{"object":"0x60803461017e57601f61114138819003918201601f19168301916001600160401b0383118484101761018257808492604094855283398101031261017e57602061004882610196565b916001600160a01b0391829161005e9101610196565b16908115610166575f549260018060a01b03199280848616175f558260405195167f8be0079c531659141344cd1fd0a4f28419497f9722a3daafe3b4186f6b6457e05f80a360017f9b779b17422d0df92223018b32b4d1fa46e071723d6817e2486d003becc55f00551691821561010b57506002541617600255686c6b935b8bbd400000600455683635c9adc5dea0000060055560ff1960065416600655604051610f9690816101ab8239f35b62461bcd60e51b815260206004820152603060248201527f5969656c64537461636b696e674d616e616765723a20696e76616c696420726560448201526f6e74207661756c74206164647265737360801b6064820152608490fd5b604051631e4fbdf760e01b81525f6004820152602490fd5b5f80fd5b634e487b7160e01b5f52604160045260245ffd5b51906001600160a01b038216820361017e5756fe6080604090808252600480361015610015575f80fd5b5f3560e01c918263080c279a146109a957508163086146d214610920578163137c3f691461085a5781632b1dc8841461083e5781632ca6be1f146107f35781632e2ad079146107d75781633519118114610775578163627d95e414610752578163715018a61461070e5781637b7d3f93146105ae57816380499078146105925781638501de011461056f5781638da5cb5b146105485781639c9c5d0c14610520578163a7f8a5e2146104f8578163aab483d6146104ab578163b046229614610400578163bd28f351146103e2578163c2c7b652146103c6578163c89a91db1461039f578163d9b3e92f146102cc578163db2e21bc146102a7578163f2fde38b14610233578163feab89391461018757508063fee7ad5a1461015f5763ff50abdc1461013e575f80fd5b3461015b575f36600319011261015b576020906007549051908152f35b5f80fd5b503461015b575f36600319011261015b5760035490516001600160a01b039091168152602090f35b90503461015b57602036600319011261015b5780356001600160a01b038116929083900361015b576101b7610d4a565b82156101d157600380546001600160a01b03191684179055005b906020608492519162461bcd60e51b8352820152603660248201527f5969656c64537461636b696e674d616e616765723a20696e76616c6964206361604482015275736820666c6f7720656e67696e65206164647265737360501b6064820152fd5b823461015b57602036600319011261015b576001600160a01b0382358181169391929084900361015b57610265610d4a565b83156102915750505f548260018060a01b03198216175f55165f80516020610f218339815191525f80a3005b905f6024925191631e4fbdf760e01b8352820152fd5b3461015b575f36600319011261015b576102bf610d4a565b6102c7610d75565b610cb5565b90503461015b57602036600319011261015b575f54336001600160a01b0391821614918215610390575b8215610381575b821561030d575b6102bf83610afb565b6002548451638da5cb5b60e01b81529293506020918391829086165afa908115610377576102bf93505f91610348575b501633145f80610304565b61036a915060203d602011610370575b61036281836109c3565b810190610adc565b5f61033d565b503d610358565b83513d5f823e3d90fd5b915080600354163314916102fd565b915080600254163314916102f6565b823461015b57602036600319011261015b57602091355f5260098252805f20549051908152f35b823461015b575f36600319011261015b57602090516101f48152f35b823461015b575f36600319011261015b576020906008549051908152f35b90503461015b57602036600319011261015b5780359161041e610d4a565b610426610d75565b60015461043d906001600160a01b03161515610b53565b82156104495782610da4565b906020608492519162461bcd60e51b8352820152603660248201527f5969656c64537461636b696e674d616e616765723a20616d6f756e74206d7573604482015275742062652067726561746572207468616e207a65726f60501b6064820152fd5b90503461015b57602036600319011261015b577fca2e9e3e71d8dcab383b61e219dc9f736ee812dbb08aff666933b85949553d399160209135906104ed610d4a565b8160055551908152a1005b823461015b575f36600319011261015b5760015490516001600160a01b039091168152602090f35b823461015b575f36600319011261015b5760025490516001600160a01b039091168152602090f35b823461015b575f36600319011261015b575f5490516001600160a01b039091168152602090f35b823461015b575f36600319011261015b5760209061058b610c77565b9051908152f35b823461015b575f36600319011261015b5760209061058b610bcc565b90503461015b575f36600319011261015b575f546001600160a01b039290831633148015610701575b80156106f4575b8015610691575b6105ee90610afb565b6105f6610d75565b60ff600654161561063a5761061083600154161515610b53565b610618610bcc565b6005548110156106355760015f80516020610f4183398151915255005b610da4565b906020608492519162461bcd60e51b8352820152602b60248201527f5969656c64537461636b696e674d616e616765723a206175746f2d6465706f7360448201526a1a5d08191a5cd8589b195960aa1b6064820152fd5b508160208460025416835192838092638da5cb5b60e01b82525afa9081156106ea576105ee9185915f916106cb575b5016331490506105e5565b6106e4915060203d6020116103705761036281836109c3565b5f6106c0565b82513d5f823e3d90fd5b50826003541633146105de565b50826002541633146105d7565b3461015b575f36600319011261015b57610726610d4a565b5f80546001600160a01b0319811682556001600160a01b03165f80516020610f218339815191528280a3005b823461015b575f36600319011261015b5760209060ff6006541690519015158152f35b90503461015b57602036600319011261015b57359081151580920361015b577f8eeec181d36d9012eaaed8d7860cb5fa6e815254a5a2fa238fb197c03732247e916020916107c1610d4a565b60ff196006541660ff83161760065551908152a1005b823461015b575f36600319011261015b57602091549051908152f35b823461015b57602036600319011261015b57816020917f9530355cac0969404662db60e90664d90fdf47c37c69fa53616fc509fde4c29493358092610836610d4a565b5551908152a1005b823461015b575f36600319011261015b5760209061058b6109fa565b90503461015b57602036600319011261015b5780356001600160a01b038116929083900361015b5761088a610d4a565b82156108c957600180546001600160a01b03191684179055827ff2a68c50468a5edde97a8d5f74eed762dfa952416e57cb30e2494df93a6fc7775f80a2005b906020608492519162461bcd60e51b8352820152602b60248201527f5969656c64537461636b696e674d616e616765723a20696e76616c696420766160448201526a756c74206164647265737360a81b6064820152fd5b823461015b575f36600319011261015b57600254815162c080c360e31b81529260209184919082906001600160a01b03165afa9081156109a0575f9161096b575b6020925051908152f35b90506020823d602011610998575b81610986602093836109c3565b8101031261015b576020915190610961565b3d9150610979565b513d5f823e3d90fd5b3461015b575f36600319011261015b576020906005548152f35b601f909101601f19168101906001600160401b038211908210176109e657604052565b634e487b7160e01b5f52604160045260245ffd5b6001546001600160a01b03168015610ad7576040516370a0823160e01b8152306004820152602091908281602481855afa908115610a98575f91610aaa575b508015610aa35782906024604051809481936303d1689d60e11b835260048301525afa918215610a98575f92610a6e57505090565b90809250813d8311610a91575b610a8581836109c3565b8101031261015b575190565b503d610a7b565b6040513d5f823e3d90fd5b5050505f90565b90508281813d8311610ad0575b610ac181836109c3565b8101031261015b57515f610a39565b503d610ab7565b505f90565b9081602091031261015b57516001600160a01b038116810361015b5790565b15610b0257565b60405162461bcd60e51b8152602060048201526024808201527f5969656c64537461636b696e674d616e616765723a206e6f7420617574686f726044820152631a5e995960e21b6064820152608490fd5b15610b5a57565b60405162461bcd60e51b815260206004820152602360248201527f5969656c64537461636b696e674d616e616765723a207661756c74206e6f74206044820152621cd95d60ea1b6064820152608490fd5b91908203918211610bb857565b634e487b7160e01b5f52601160045260245ffd5b6002546003545f916001600160a01b0390811631911680610c13575b5060045490818301808411610bb857811115610aa357610c1092610c0b91610bab565b610bab565b90565b6040516338831e1d60e21b8152919250602090829060049082905afa908115610a98575f91610c45575b50905f610be8565b90506020813d602011610c6f575b81610c60602093836109c3565b8101031261015b57515f610c3d565b3d9150610c53565b6001546001600160a01b031615610cb1576007548015610ad757610c996109fa565b9080821115610cab57610c1091610bab565b50505f90565b5f90565b600154610ccc906001600160a01b03161515610b53565b60405162461bcd60e51b815260206004820152605f60248201525f80516020610f0183398151915260448201527f206e6f7420636f6d70617469626c652077697468204552432d343632362e205960648201527f69656c6420737461636b696e672064697361626c656420666f72204d56502e00608482015260a490fd5b5f546001600160a01b03163303610d5d57565b60405163118cdaa760e01b8152336004820152602490fd5b5f80516020610f418339815191526002815414610d925760029055565b604051633ee5aeb560e01b8152600490fd5b6001546001600160a01b0390610dbd9082161515610b53565b600254169080823110610ea857813b1561015b575f9160448392604051948593849263f3fef3a360e01b845230600485015260248401525af18015610a9857610e91575b60405162461bcd60e51b815260206004820152606960248201525f80516020610f0183398151915260448201527f206e6f7420636f6d70617469626c652077697468204552432d343632362e205560648201527f73652077726170706564204d4e54206f722064697361626c65207969656c642060848201526839ba30b1b5b4b7339760b91b60a482015260c490fd5b6001600160401b0381116109e6576040525f610e01565b60405162461bcd60e51b815260206004820152602a60248201527f5969656c64537461636b696e674d616e616765723a20696e73756666696369656044820152696e742062616c616e636560b01b6064820152608490fdfe5969656c64537461636b696e674d616e616765723a206e6174697665204d4e548be0079c531659141344cd1fd0a4f28419497f9722a3daafe3b4186f6b6457e09b779b17422d0df92223018b32b4d1fa46e071723d6817e2486d003becc55f00a26469706673582212202c3396a5170040021e5104ae4e2092b8c486c0dd115c08eacbb258bc5337bbcd64736f6c63430008180033","linkReferences":{}},"methodIdentifiers":{"WITHDRAWAL_SLIPPAGE_TOLERANCE_BPS()":"c2c7b652","autoDepositEnabled()":"627d95e4","autoDepositIdleFunds()":"7b7d3f93","calculateIdleFunds()":"80499078","cashFlowEngine()":"fee7ad5a","depositToVault(uint256)":"b0462296","depositsPerPeriod(uint256)":"c89a91db","emergencyWithdraw()":"db2e21bc","getCurrentPeriod()":"086146d2","getTotalAssetsInVault()":"2b1dc884","getYieldEarned()":"8501de01","lastDepositTime()":"bd28f351","minimumDepositAmount()":"080c279a","owner()":"8da5cb5b","renounceOwnership()":"715018a6","rentVault()":"9c9c5d0c","reserveThreshold()":"2e2ad079","setAutoDepositEnabled(bool)":"35191181","setCashFlowEngine(address)":"feab8939","setMinimumDepositAmount(uint256)":"aab483d6","setReserveThreshold(uint256)":"2ca6be1f","setYieldVault(address)":"137c3f69","totalDeposited()":"ff50abdc","transferOwnership(address)":"f2fde38b","withdrawForDistribution(uint256)":"d9b3e92f","yieldVault()":"a7f8a5e2"},"id":10}